:1000000007C400002DC400002BC4000029C4000058
:1000100027C4000025C4000023C4000021C4000040
:100020001FC400001DC400000C940B330C943D331E
:1000300017C4000015C4000013C4000011C4000060
:100040000FC400000DC400000BC4000009C4000070
:100050000C94332F05C4000003C4000001C4000049
:10006000FFC30000FDC30000FBC30000F9C3000094
:10007000F7C30000F5C30000F3C30000F1C30000A4
:10008000EFC30000EDC30000EBC30000E9C30000B4
:10009000E7C30000E5C30000E3C30000E1C30000C4
:1000A000DFC30000DDC30000DBC3000069636F73C2
:1000B0006F686564726F6E006F666600766965775B
:1000C00000253032583A20253034580D0A00736824
:1000D000656C6C007669657700000B09215F3B0059
:1000E000010004000B0010001A002100220025006E
:1000F00028002D003400360039003A003F0044004B
:1001000049004E00530059005E00630068006D0016
:100110007200730075007B00820088008C009400E0
:100120009A00A000A700AE00B300B800BF00C50051
:10013000C800CC00D200D700DE00E400EB00F000E5
:10014000F700FD0103010A01100116011F0125013D
:100150002C01320135013A013D0144014B014D01B1
:10016000520157015C01610166016A016F0174016E
:10017000750178017D017E0187018C019101960155
:100180009B019F01A301A701AC01B101B801BD0111
:10019000C201C601CB01CC01D101D801D850040065
:1001A000004C2000020000000000000000000000E1
:1001B000000000000000000000000000000000003F
:1001C0000000003C380010200080C10984000000BD
:1001D0000000000000007C00D144621852A8000218
:1001E000E239C17CDF73800000E3E33C3DF3FF3D77
:1001F0000F78618F139E39E3DFE186230C1FE4083B
:100200008008200081010084000000000800000038
:10021000009200D14F9224527080051E4623410166
:100220008C400000141322430A10430A18A18F14B3
:10023000514514222186230A2062094000200081B2
:10024000010084000000000800000000920087F414
:10025000942421A8800512042542028C686030197C
:10026000D4A2810610810A192156983183140221E3
:1002700085549140A20A2003BCE7BBDFEB8FDDE78A
:1002800079F6FF18C98C7C92008294641921208031
:10029000091208C97BC274699FCC2A54BE8107FE2B
:1002A00081FA1A2156983183130221495460812121
:1002B0000C10006318C52319962318C6390918C9EC
:1002C00052849231828E09A52107F38912103106DA
:1002D000248BC600034A54A18106108F0A1E2126D2
:1002E000583E83E0C2214954608221080003E3089C
:1002F000FD2319A62318C631891555228B11C98FE4
:10030000C50A622100801112203F862488419FCCBB
:100310004A5FE1810610830A192126583083202282
:100320002149549084208800046308C12319E623DE
:1003300018C63069155522909246050512632100B2
:100340008451124221462888A8603009A861430AD6
:1003500010430A18A1063450451422213089088818
:10036000208800046318C52319962318C630291263
:100370002251209200851E119C92008460EFFDC1E5
:1003800039C87328000044087E3DF3F03D0FE87F34
:10039000063390390BC21E3089088FE0480003FCF9
:1003A000E7B91F198E231779F1C6F222893C920012
:1003B00000040000120004200000000000000800FB
:1003C0000003C00000000000000000000000080062
:1003D00000000000000020480000000000020100B2
:1003E0000000402000000001009200000400000C0A
:1003F00000080000000000000010000000000000E5
:1004000000000000000000000006000000000000E6
:100410000038380FE00000001C06000000402000FB
:10042000000002007C00050A08215E3B02800000FB
:1004300082400000002000000000000000000000DA
:1004400000000000000000000000000000000000AC
:100450001D0700000400101C100010C00000000068
:10046000000000000444002280403084200000008E
:100470002E239C2F9BEE70000001CF279DCFFDD136
:1004800071E308E5DE779DF8C6318FD101100404D1
:1004900000102010209040000000008000000008A4
:1004A00042002294F44888110800005164626820D8
:1004B0003188001042302463284231206508E6313B
:1004C0008C6248C6B18850812802040010201000B8
:1004D00010400000000080000000084200203F4A59
:1004E000C80815480000532042A8405189086FB041
:1004F00036546118421120690DD6318C6048C6AA65
:100500008890814400779EF779DE61924D79DE7D97
:100510009EE8C6318FC842002014E5300813BE0F94
:100520008095218D2F784E7801800C5657A11F7A27
:100530007F20710DD63E8F9C48AAA4711041000007
:100540000C6118A23120944AC6318E6088C6AA88F0
:10055000904130201452C80815480000992203F039
:10056000C49108006FB097746118423120690AD6AF
:10057000308C4248A94A22104100007C611FA23100
:1005800020984AC6318C1C88AAA48908424C003F96
:10059000E544081108000111242228C49111081013
:1005A00040108C6328423120650ACE309C6248910D
:1005B0005124102100008C6118223120944AC63148
:1005C0008C0288A94A8A084200201448B8042000F6
:1005D00040110E77DC27390E601000008F8F9DCF01
:1005E000C1F177A3F8CDD07C5C47115127D0210011
:1005F000007F9EF7A1F120924AC5DE7C3C779151A5
:100600007FC842000000000002400080020000009D
:1006100000000000000000000000000000000000DA
:1006200000000000000000001C1703E000000000B4
:1006300020008000001008000000000804440000B2
:1006400000000000000000000000000000000000AA
:10065000000000000000000000000000000000009A
:100660000000000000000000000001C007000000C2
:100670001008000000007000000000060D13191F94
:10068000252C32383E444A50565C62676D73787E42
:1006900083888E93989DA2A7ABB0B4B9BDC1C5C9DC
:1006A000CDD0D4D7DBDEE1E4E7E9ECEEF0F2F4F60E
:1006B000F7F9FAFBFCFDFEFEFFFF41535345525490
:1006C0003A2025733A2564000C638E73108492944B
:1006D00014A596B518C69AD6766965772000253098
:1006E00034580A00E3E7EF00FF0102030408090A97
:1006F0000C0D0F10111213FF1011FF12FF1329FF21
:1007000030313235363738393C3D20215051525343
:1007100060616A808182838485909293959798071F
:1007200008301200311201003200000100073010C1
:1007300000000202000000000000000000000000B5
:10074000070000000000C8009016270232001A00BF
:10075000320000182A0032000000000000000602EB
:10076000080807000102000000000000000000006F
:100770000000EF0000003F0100A7030000000000A0
:100780000000000000000000000010000000030056
:1007900010010000000033010403090416034D009A
:1007A0006900630072006F0074006F0075006300E1
:1007B000680012010002020000109A2301200001CB
:1007C0000002000109024300020100803209040016
:1007D00000010202000005240010010524010101AE
:1007E00004240202052406000107058103100040CD
:1007F00009040100020A000000070502024000008F
:1008000007058302400000008A096E178517371B11
:1008100011241FBECFEFDAE0DEBFCDBF12E0A0E0B3
:10082000B1E0E0E7FAE602C005900D92AC37B107FF
:10083000D9F716E0ACE7B2E001C01D92A437B107CA
:10084000E1F718E0C0E1D8E004C02297FE010E9461
:10085000FB34C830D107C9F70E9469260C9436359D
:10086000CFCBFB01DC018D91059080190110D9F3EC
:10087000990B0895FB01DC0105900D920020E1F732
:100880000895FB01DC014150504048F005900D9265
:100890000020C9F701C01D9241505040E0F7089573
:1008A000FB01DC0104C08D910190801921F44150BD
:1008B0005040C8F7881B990B0895DC0101C06D9367
:1008C00041505040E0F70895FB01DC0101900D928A
:1008D0000020E1F70895FB01DC014150504030F069
:1008E0008D910190801919F40020B9F7881B990B9C
:1008F0000895FB01DC014150504048F001900D92F9
:100900000020C9F701C01D9241505040E0F7089502
:10091000A0E0B0E0EEE8F4E00C9409357C01EB01D6
:100920008A01690109C0CE012196F6010995F701F6
:1009300081937F010150104001151105A1F7CDB73A
:10094000DEB7E8E00C9425350F931F93CF93DF9328
:100950008C01EB018B8181FF1BC082FF0DC02E81BA
:100960003F818C819D812817390764F4E881F981E2
:100970000193F983E88306C0E885F985802F0995FE
:10098000892B31F48E819F8101969F838E8302C0D3
:100990000FEF1FEFC801DF91CF911F910F910895C5
:1009A000A0E0B0E0E6EDF4E00C940F35FE013596E2
:1009B000619171918091700690917106AF0129D07B
:1009C0002096E2E00C942B35A0E0B0E0EAEEF4E0F3
:1009D0000C940F35FE01359661917191A0917006CE
:1009E000B091710613968C911397886013968C932F
:1009F0008091700690917106AF010BD0E091700666
:100A0000F09171062381277F23832096E2E00C94E6
:100A10002B35ABE0B0E0EFE0F5E00C94FF343C01A7
:100A20002B015A01FC0117821682838181FD03C0CC
:100A30006FEF7FEFB9C19AE0892E1E010894211C47
:100A4000311CF3012381F20123FD859123FF819164
:100A50002F01882309F4A5C1853239F423FD85913E
:100A600023FF81912F01853221F490E0B3016CDFE7
:100A7000E8CF982FFF24EE249924FFE1FF15D0F052
:100A80009B3269F09C3228F4903259F0933291F401
:100A90000EC09D3249F0903369F441E024C052E029
:100AA000F52A84E0F82A28C098E0F92A25C0E0E178
:100AB000FE2A22C0F7FC29C0892F80538A3070F4A7
:100AC000F6FE05C0989C902C1124980E15C0E89C49
:100AD000E02C1124E80EF0E2FF2A0EC09E3229F429
:100AE000F6FC5FC140E4F42A07C09C3619F450E8D4
:100AF000F52A02C0983649F4F20123FD959123FFAF
:100B000091912F01992309F0B8CF892F8554833013
:100B100018F08052833038F444E050E0A40EB51E43
:100B20005FE359830FC0933631F0933779F09335F3
:100B300009F052C01FC0F5018081898342E050E076
:100B4000A40EB51E610101E010E011C0F501C080E6
:100B5000D180F6FC03C06FEF7FEF02C0692D70E01B
:100B600042E050E0A40EB51EC6012ED18C015FE715
:100B7000F52213C0F501C080D180F6FC03C06FEFF1
:100B80007FEF02C0692D70E042E050E0A40EB51E78
:100B9000C6010FD18C0150E8F52AF3FE06C018C03B
:100BA00080E290E0B301D0DEEA948E2D90E0081749
:100BB0001907B0F30DC0F601F7FC8591F7FE81919E
:100BC0006F0190E0B301C0DEE110EA9401501040E3
:100BD0000115110581F7E2C0943611F0993661F5DF
:100BE000F7FE08C0F501208131814281538184E004
:100BF00090E00AC0F501808191819C01442737FD76
:100C00004095542F82E090E0A80EB91E9FE6F9228D
:100C100057FF09C050954095309521953F4F4F4F54
:100C20005F4FE0E8FE2ACA01B901A1012AE030E0E5
:100C3000D6D0D82ED2183FC0953729F41F2D1F7E4D
:100C40002AE030E01DC01F2D197F9F3661F09037DC
:100C500020F4983509F0A5C00FC0903739F09837C7
:100C600009F09FC004C028E030E00AC0106114FD04
:100C7000146020E130E004C014FD166020E132E091
:100C800017FF08C0F501608171818281938144E082
:100C900050E008C0F50180819181BC0180E090E0C6
:100CA00042E050E0A40EB51EA10199D0D82ED21872
:100CB0008FE7F82EF122F6FE0BC05EEFF522D91475
:100CC00038F4F4FE07C0F2FC05C08FEEF82202C033
:100CD0001D2D01C0192DF4FE0DC0FE01ED0DF11DFD
:100CE0008081803319F499EEF92208C01F5FF2FE6B
:100CF00005C003C08F2D867809F01F5F0F2DF3FC10
:100D000013C0F0FE0EC01E1510F09D2C0AC09D2CC5
:100D10009E0C911A1E2D05C080E290E0B30114DEF6
:100D20001F5F1E15C8F304C01E1510F4E11A01C0A0
:100D3000EE2404FF0EC080E390E0B30105DE02FF65
:100D40001BC001FD03C088E790E00EC088E590E07D
:100D50000BC0802F867881F001FF02C08BE201C0BA
:100D600080E2F7FC8DE290E0B301EEDD05C080E3A8
:100D700090E0B301E9DD9A94D914C8F3DA94F10153
:100D8000ED0DF11D808190E0B301DEDDDD20B1F7D6
:100D900005C080E290E0B301D7DDEA94EE20C9F708
:100DA00050CEF30166817781CB012B96E2E10C9462
:100DB0001B35FC010590615070400110D8F78095FB
:100DC00090958E0F9F1F0895FC0161507040019017
:100DD0000110D8F7809590958E0F9F1F0895FA0106
:100DE000AA27283051F1203181F1E8946F936E7F6A
:100DF0006E5F7F4F8F4F9F4FAF4FB1E03ED0B4E05B
:100E00003CD0670F781F891F9A1FA11D680F791F9B
:100E10008A1F911DA11D6A0F711D811D911DA11DAC
:100E200020D009F468943F912AE0269F11243019BC
:100E3000305D3193DEF6CF010895462F4770405D57
:100E40004193B3E00FD0C9F7F6CF462F4F70405D06
:100E50004A3318F0495D31FD4052419302D0A9F761
:100E6000EACFB4E0A6959795879577956795BA955B
:100E7000C9F700976105710508959B01AC010A2E21
:100E800006945795479537952795BA95C9F7620FF8
:100E9000731F841F951FA01D08950F931F93CF9359
:100EA000DF93E9E3F2E0C0E0D0E001C02196619178
:100EB000719186179707D4F78E01000F111FF80163
:100EC000E95CFD4F20813181AC01421B530BCA010B
:100ED0009695982F882797958795621B730B841B8F
:100EE000950B0E94A934DB01F801EC0FFD1FEF5BAD
:100EF000FD4F6FE770E06A1B7B0B808190E0689F7D
:100F00009001699F300D789F300D1124838190E00E
:100F1000AC01A49FC001A59F900DB49F900D11241A
:100F2000280F391F220F232F221F330B37FF02C038
:100F300000E001C0022F818190E0689F9001699FCD
:100F4000300D789F300D1124848190E0AC014A9FD0
:100F5000C0014B9F900D5A9F900D1124280F391FEF
:100F6000220F232F221F330B37FD20E0828190E0D8
:100F7000689FA001699F500D789F500D11248581B5
:100F800090E0BC016A9FC0016B9F900D7A9F900D0D
:100F90001124480F591F440F452F441F550B57FD6F
:100FA00040E030E02C7F307063E0220F331F6A9501
:100FB000E1F7802F90E0887F9070982F8827282B6A
:100FC000392B842F90E043E0959587954A95E1F77A
:100FD000282B392BC901DF91CF911F910F910895D3
:100FE0008F929F92AF92BF92CF92DF92EF92FF9239
:100FF0000F931F93CF93DF936C015A01FB01EA0D0E
:10100000FB1DF595E795F0E0EE0FFF1FEE0FFF1FBC
:10101000EC0DFD1DE650FE4F808190E0FC01EE0FCF
:10102000FF1FE80FF91FEE0FFF1FEC0DFD1DEC5425
:10103000FE4F808091807B01850161C00894E11C96
:10104000F11C2E2DEE2DF0E0EE0FFF1FEE0FFF1F17
:10105000EC0DFD1DE650FE4F808190E0FC01EE0F8F
:10106000FF1FE80FF91FEE0FFF1FEC0DFD1DEC54E5
:10107000FE4F808191818815990504F302C00150CB
:101080001040C02FD0E0CC0FDD1FCC0FDD1FCC0DEA
:10109000DD1DC650DE4F888190E0FC01EE0FFF1F82
:1010A000E80FF91FEE0FFF1FEC0DFD1DEC54FE4F76
:1010B000808191818816990614F30E151F05FCF0A6
:1010C000E22FF0E0EE0FFF1FEE0FFF1FEC0DFD1DF6
:1010D000E650FE4F20813181428153818881998180
:1010E000AA81BB8180839183A283B38328833983C0
:1010F0004A835B830894E11CF11C015010400E15DB
:101100001F050CF09ECF601771071CF4C601A801E3
:1011100067DFB701EA14FB040CF470CFDF91CF91C5
:101120001F910F91FF90EF90DF90CF90BF90AF9005
:101130009F908F9008952F923F924F925F926F925F
:101140007F928F929F92AF92BF92CF92DF92EF9257
:10115000FF920F931F93CF93DF934C01462E342EB3
:10116000522E202E8AE691E0880E991ED401ED9130
:10117000FC9186E99EEF880E991E10C08089841527
:1011800051F48189831539F4222011F0538A01C06A
:10119000528A81E0ACC00280F381E02D309771F774
:1011A000842D90E0232D30E0DC01AA0FBB1FA80F97
:1011B000B91FAA0FBB1FA80DB91DAC54BE4F0D918E
:1011C0001C911197A45BB140A901440F551F420F18
:1011D000531F440F551F480D591D4C545E4FFA01C3
:1011E000C080D180445B51400C151D0509F47EC0C0
:1011F000360174E0759467947A95E1F7C8014096DA
:1012000064E0959587956A95E1F7681679060CF480
:101210006DC0940128593E4FF901C081D1812097BA
:1012200009F464C08A819B8191838083AE54BE4F50
:10123000ED90FC904E545E4FDA016D917C916E19E9
:101240007F09882777FD8095982FCB017727662720
:10125000C01AD10A9601442737FD4095542F0E94A9
:10126000DE34D22EC32EB42EA52E602F605F607F99
:10127000601B772767FD7095872F972F2D2D0E9474
:101280006A3434E095958795779567953A95D1F7C7
:101290000027F7FC0095102F2CE0EE0CFF1C001F20
:1012A000111F2A95D1F7E60EF71E081F191FE886B1
:1012B000F9860A871B87DC86CD86BE86AF86488A7C
:1012C000398A7D826C82222021F05B8A8FEF8A8BA3
:1012D00003C05A8A8FEF8B8BF401E659FE4F808151
:1012E00091819B838A83D183C08353CF80E0DF9138
:1012F000CF911F910F91FF90EF90DF90CF90BF9013
:10130000AF909F908F907F906F905F904F903F90A5
:101310002F9008958CE792E06CEA70E040EE52E185
:101320002FE932E00C947329CF92DF92EF92FF9273
:101330000F931F93CF93DF93EB016A012EE6E22E0A
:1013400021E0F22EE80EF91E8C01065B1D4F0FC046
:10135000CE01A3DDF701918380832196F8014081BE
:101360005181662757FD6095762F0E94B724CC15D2
:10137000DD0574F3DF91CF911F910F91FF90EF90F6
:10138000DF90CF9008952F923F924F925F926F928D
:101390007F928F929F92AF92BF92CF92DF92EF9205
:1013A000FF920F931F93DF93CF93CDB7DEB7C85D46
:1013B000D0400FB6F894DEBF0FBECDBF3C01C6547F
:1013C000DF4F79836883CA5BD040C454DF4F4883C2
:1013D000CC5BD040522E432E202EDC01D9968C912E
:1013E000D9978F5FD9968C9381508F7023E0829F1D
:1013F000C00111240996860D971D0E94812EF301CC
:10140000399640E120E030E007C08081992787FDD0
:101410009095280F391F33964150B8F714E0359551
:1014200027951A95E1F7F30122AF3A9640E120E0C3
:1014300030E007C08081992787FD9095280F391FDC
:1014400033964150B8F7B4E035952795BA95E1F752
:10145000D301DB962C93F3013B9640E120E030E092
:1014600007C08081992787FD9095280F391F3396F3
:101470004150B8F7A4E035952795AA95E1F7F30117
:1014800024AF82AD868383AD85832783F7E28F2ED9
:10149000912C8C0E9D1EC4010E94B91421E430E0F1
:1014A000620E731ED3010D911D913D01ED90FC90D4
:1014B000E3EBF1E06E0E7F1ED3011C92F30112925A
:1014C0003F012BE03EEF620E731E9301215C3D4F06
:1014D000C90169E670E040E550E0EFD9A301435946
:1014E0005F4FCA54DF4F59834883C65BD04080E4C6
:1014F00091E0DA01FC011D923197E9F72DE430E02B
:10150000620E731E81E090E0A0E0B0E8F3018083FA
:101510009183A283B38324E130E0620E731E8FEFC8
:101520009FEFAFEFBFE7F30180839183A283B38383
:101530002EE232E0620E731ED3010D931D93FD0166
:10154000E192F1923F01E3E0000F111FEA95E1F70C
:10155000D3010D931D933D0173E0EE0CFF1C7A95B2
:10156000E1F7ED92FC92EBE6FDEF6E0E7F1E67E673
:10157000A62EB12CAC0EBD1EC5010E94B914D3011C
:10158000DC96CC90DC97DD24C7FCD094ED2CFD2CB0
:101590008D919D910D90BC91A02DC80ED91EEA1E73
:1015A000FB1EC40140E050E060E070E000E010E0AD
:1015B00020E030E00E949513F3016581C50170E0E1
:1015C0000E942C17C401B5010E94D514D3011696B0
:1015D0006C91C50170E00E94E216C401B5010E9441
:1015E000D514F3016781C50170E00E94A016C40103
:1015F000B5010E94D51493012B543E4FCC54DF4FBC
:1016000039832883C45BD040D901F40180E4019080
:101610000D928150E1F746EF51E0640E751ED30143
:101620008C91EAE0FEEF6E0E7F1E90E0C454DF4F17
:10163000F881CC5BD0408F0F911D45970CF0B2C262
:10164000F301EB50FE4F2081C355DF4F2883CD5A65
:10165000D040822F90E0820D911D0D970CF0A2C218
:10166000852D942D9C0129013324CD52DF4FF98320
:10167000E883C35DD040A3014D565D4FCB52DF4F91
:1016800059834883C55DD040C3018B569D4FC952D5
:10169000DF4F99838883C75DD04085C0CD52DF4F2F
:1016A000A881B981C35DD0408C91A82EBB248F5FE7
:1016B0008C93F2018081992787FD90959A83898385
:1016C0008181992787FD90959C838B8382819927BF
:1016D00087FD90959E838D83CC54DF4F88819981BF
:1016E000C45BD040BE016F5F7F4F0E94C7138D80E7
:1016F0009E8080E090E8B4010E9495346B01EE2456
:10170000FF248501000F111F0A0D1B1D000F111F63
:10171000060D171D09501E4F29813A81442737FDB8
:101720004095542FC701B6010E946A3434E0959564
:101730008795779567953A95D1F7CB52DF4FA8817A
:10174000B981C55DD0402D913C91260F371FF8011E
:10175000219331938F012B813C81309521953F4F0F
:10176000442737FD4095542FC701B6010E946A34C3
:1017700024E095958795779567952A95D1F7C95275
:10178000DF4FA881B981C75DD0402D913C91260FD4
:10179000371FF80121933193918280823394E3E0E3
:1017A000F0E04E0E5F1E321408F478CF26EF31E0E1
:1017B000620E731ED301BC91CE54DF4FB883C25B5F
:1017C000D040EAE0FEEF6E0E7F1ECD54DF4F188250
:1017D000C35BD040ABC1CE54DF4FF881C25BD04079
:1017E0002F2E3324C654DF4FA881B981CA5BD04065
:1017F0005C9111962C91119712963C911297139629
:101800004C91C101880F991F880F991F860D971D54
:101810001FE3412E12E0512E480E591EF201218382
:1018200032834383C355DF4FF881CD5AD040F50F43
:10183000C354DF4FF883CD5BD040D201FC939C01B1
:10184000205C3D4FC254DF4F39832883CE5BD040AC
:10185000D901BC91C355DF4FE881CD5AD040BE0FAE
:10186000C054DF4FB883C05CD040EB2FD901EC935C
:10187000F101E158FF4FEE0FFF1FEE0FFF1FE60DC6
:10188000F71DEB5BFF4F8081C355DF4F2881CD5A99
:10189000D040820F8083C354DF4F3881CD5BD0406E
:1018A000432F50E0C054DF4F9881C05CD040292FB7
:1018B00030E090E0FC01EE0FFF1FE80FF91FEE0F84
:1018C000FF1FE60DF71DE950FE4F819091908901B1
:1018D000000F111F020F131F000F111F060D171D00
:1018E00007501E4FD8010D90BC91A02DC255DF4F5F
:1018F000B983A883CE5AD040A080B180FA01EE0F00
:10190000FF1FE40FF51FEE0FFF1FE60DF71DE75059
:10191000FE4F20813181C055DF4F39832883C05B62
:10192000D040BD016A197B09882777FD8095982FE3
:101930003291229128193909442737FD4095542FB7
:101940000E946A346B017C01C055DF4F6881798148
:10195000C05BD0406A197B09882777FD8095982F56
:10196000F8013291229128193909442737FD409511
:10197000542F0E946A346C157D058E059F050CF06E
:10198000BCC0C055DF4F48815981C05BD040C255B3
:10199000DF4F88819981CE5AD0408417950714F083
:1019A00011E014C0C054DF4FE881C05CD040D201C8
:1019B000EC93C354DF4FE881CD5BD040C254DF4F7E
:1019C000A881B981CE5BD040EC9310E0B101660FE5
:1019D000771F660F771F660D771D615C7D4FDB01FA
:1019E000FC90A10141585F4F440F551F440F551FF4
:1019F000460D571D4B5B5F4FFA0100818F2D90E024
:101A0000DC01AA0FBB1FA80FB91FAA0FBB1FA60D91
:101A1000B71DA750BE4F802F90E0FC01EE0FFF1FB7
:101A2000E80FF91FEE0FFF1FE60DF71DE750FE4F01
:101A30002D913C91808191818217930734F4DB01D1
:101A40000C93FA01F082F1E01F27B101660F771FB6
:101A5000660F771F660D771D605C7D4FDB01FC9084
:101A6000A10141585F4F440F551F440F551F460DAC
:101A7000571D4B5B5F4FFA0100818F2D90E0DC0119
:101A8000AA0FBB1FA80FB91FAA0FBB1FA60DB71D1A
:101A9000A750BE4F802F90E0FC01EE0FFF1FE80F14
:101AA000F91FEE0FFF1FE60DF71DE750FE4F2D91BA
:101AB0003C91808191818217930734F4DB010C9370
:101AC000FA01F082F1E01F27112361F0F101EE0F1E
:101AD000FF1FEE0FFF1FE60DF71DEE5BFD4F808130
:101AE00080688083CE54DF4F2881C25BD0402F5F57
:101AF000CE54DF4F2883C25BD040C654DF4F4881AD
:101B00005981CA5BD0404C5F5F4FC654DF4F598349
:101B10004883CA5BD040CD54DF4F5881C35BD0406F
:101B20005F5FCD54DF4F5883C35BD040CD54DF4F50
:101B30008881C35BD040C454DF4F9881CC5BD040D8
:101B4000891708F448CEA6EFB1E06A0E7B1EF301B8
:101B500080812AE03EEF620E731ECE54DF4F388143
:101B6000C25BD040381779F445EF51E0640E751E22
:101B7000C355DF4FE881CD5AD040D301EC932BE021
:101B80003EEF620E731E46EF51E0640E751ECE549A
:101B9000DF4FE881C25BD040D301EC932AE03EEFF7
:101BA000620E731ED30114968C91823008F07EC4AD
:101BB000E6EFF1E06E0E7F1ED3014C91EAE0FEEFFE
:101BC0006E0E7F1E442309F471C493012B5B3F4FBB
:101BD000C854DF4F39832883C85BD04050E0415060
:101BE0005040C90160E070E0FBD9F301E159FF4FBB
:101BF00021E030E044E150E0249FC001259F900D9A
:101C0000349F900D112483599F4F860D971D91830A
:101C100080832F5F3F4F74962131310569F74BE97F
:101C200051E0640E751ED3011D921C92E2E1F0E0BA
:101C30006E0E7F1ED301CA54DF4FE881F981C65B67
:101C4000D040ED93FD933D011D921C922CEA3EEF96
:101C5000620E731ED3011D921C92E5EAFFEF6E0E19
:101C60007F1E93012B5B3F4FCF53DF4F3983288378
:101C7000C15CD040D9011D921C92F301E75AFF4F7D
:101C8000C555DF4FF983E883CB5AD04027E430E0D5
:101C9000620E731ED301ED93FC93E9EBFFEF6E0E22
:101CA0007F1ECF53DF4FE881F981C15CD040C5551D
:101CB000DF4FA881B981CB5AD040ED93FC93D3017B
:101CC000DE961C921E92DD97F301FF9621E932E029
:101CD000620E731ED3018D919C9191838083EEEAF5
:101CE000FFEF6E0E7F1ED3018C91E1ECFDEF6E0EC7
:101CF0007F1E90E0FC01EE0FFF1FE80FF91FEE0FB3
:101D0000FF1FE60DF71DE750FE4F20813181205F58
:101D10003F4F84E0359527958A95E1F7C955DF4F08
:101D200039832883C75AD04019011216130614F4B8
:101D3000222433240E94DE24C854DF4F88819981F5
:101D4000C85BD040B101C955DF4F48815981C75A9E
:101D5000D040EADAC955DF4FE881F981C75AD0404F
:101D6000D301DE96FC93EE93DD97C755DF4F1982C2
:101D70001882C95AD0404424552493012F563D4F10
:101D8000CD53DF4F39832883C35CD040A301495B27
:101D90005F4FCB53DF4F59834883C55CD040C301AD
:101DA0008A509E4FC953DF4F99838883C75CD040C8
:101DB000A155BE4FC753DF4FB983A883C95CD0403C
:101DC000F301E157FD4FC553DF4FF983E883CB5C47
:101DD000D04093012F543E4FC353DF4F39832883A4
:101DE000CD5CD040A3014D545E4FC153DF4F5983AA
:101DF0004883CF5CD040C30183559E4FCF52DF4F05
:101E000099838883C15DD04019C3CB53DF4FA8812C
:101E1000B981C55CD0408D919C91C555DF4FE8815B
:101E2000F981CB5AD0408E179F0769F5C753DF4F12
:101E3000A881B981C95CD0408D919C91892B19F5FD
:101E4000C953DF4FE881F981C75CD040808190E0C1
:101E5000C755DF4F48815981C95AD04048175907A3
:101E60000CF0F8C2C553DF4FA881B981CB5CD040DC
:101E70004D915C912219330980E090E0B1010E94FC
:101E8000AD23210104C0421453040CF4CAC0C75549
:101E9000DF4FE880F980C95AD040EE0CFF1CEE0CF1
:101EA000FF1CEFE3F2E0EE0EFF1EE60CF71C6AC02B
:101EB000D7016C91862F90E0FC01EE0FFF1FE80F19
:101EC000F91FEE0FFF1FE60DF71DE750FE4F2080B4
:101ED0003180E0E1F0E02E0E3F1E54E0359427946F
:101EE0005A95E1F7421453040CF49BC010E013968A
:101EF0008C9187FD11E0C854DF4F88819981C85BC0
:101F0000D040D70112964C91C755DF4F2881C95A4E
:101F1000D040012F10D9B1E01B27C854DF4F888172
:101F20009981C85BD040F70160814181C755DF4F7F
:101F30002881C95AD040012FFED8882391F4C85473
:101F4000DF4F88819981C85BD040D70111966C9191
:101F5000119712964C91C755DF4F2881C95AD0402E
:101F6000EAD8C755DF4FE881F981C95AD040319688
:101F7000C755DF4FF983E883C95AD04024E030E0E9
:101F8000E20EF31EC953DF4FA881B981C75CD04070
:101F90008C9190E0C755DF4FE881F981C95AD04054
:101FA000E817F9070CF484CF3CC0DB0112968D9141
:101FB0009C911397C753DF4FE881F981C95CD040EA
:101FC000918380831896ED90FD900D911C911B9745
:101FD000CF53DF4F48815981C15CD040DA0112965E
:101FE0002C91129713963C91D42EC52EC901AC01A9
:101FF000FC0180859185A285B3858E159F05A0077C
:10200000B10764F3ED2DFC2DDB0113965C934E9329
:102010001297ED93FC93A281B3816D937C937383AC
:102020006283C753DF4FE881F981C95CD04060818A
:1020300071816115710509F0B8CFC353DF4FA881D5
:10204000B981CD5CD0401D921C92C2010E944D0707
:10205000C153DF4FE881F981CF5CD0409183808309
:10206000CB53DF4FA881B981C55CD040ED90FC9087
:10207000C555DF4FE881F981CB5AD040EE16FF06F7
:1020800009F4ACC1CC24DD24D70114968D919C9128
:102090001597841595050CF4B3C052968C90BFEF3C
:1020A0008B1609F490C0992488C0EE0FFF1F21E021
:1020B00030E02C0F3D1FE20FF31F0680F781E02D6B
:1020C0008389881509F078C002851385D7011A968F
:1020D000AD90BC901B970A151B050CF04EC0C35366
:1020E000DF4FE881F981CD5CD040808191818017FC
:1020F0009107D4F4A801481B590B662757FD60953A
:10210000762FC153DF4FA881B981CF5CD0408D912C
:102110009C910E94B724C353DF4FE881F981CD5CC5
:10212000D0401183008303C0081719070CF0C801C1
:10213000E82DF0E0EE0FFF1FEE0FFF1FE60DF71D7D
:10214000EE5BFD4FE081F0E0EF77F070EE0FFF1FE8
:10215000E15FFD4FA501481B590B662757FD6095B0
:10216000762F808191810E94B724C353DF4FA881CD
:10217000B981CD5CD040AD92BC920894C108D10821
:1021800015C0FD01EE0FFF1F21E030E02C0F3D1FB9
:10219000E20FF31F1196AA0FBB1FA20FB31F1696D3
:1021A0008D919C911797978386839394A92DB0E086
:1021B000AC15BD0534F307C09394E92DF0E0EC15A0
:1021C000FD050CF472CFD70153968C918F3FC1F06F
:1021D000B0E1CB16D10434F080E090E066E072E02C
:1021E0000E94D626F601EE0FFF1F21E030E02C0FF3
:1021F0003D1FE20FF31FF782E6820894C11CD11C39
:10220000D7011296ED90FC901397C555DF4FE881EA
:10221000F981CB5AD040EE16FF0609F035CFCB53EB
:10222000DF4FA881B981C55CD040ED90FC90CCC057
:10223000F70184819581481659060CF47EC02389E4
:102240002F3F69F1422F50E0FA01EE0FFF1FEE0F12
:10225000FF1FE60DF71DE05CFD4F6081E054F2408A
:10226000D70150968C918617D1F0DA01A158BF4F53
:10227000AA0FBB1FAA0FBB1FA60DB71DAB5BBF4F9D
:1022800000E0EE5BFD4F808187FF01E0C854DF4F27
:1022900088819981C85BD0404C910E949B08F701CE
:1022A00022892F3F69F1422F50E0FA01EE0FFF1F04
:1022B000EE0FFF1FE60DF71DE05CFD4F6081E0545F
:1022C000F240D70150968C918617D1F0DA01A158CF
:1022D000BF4FAA0FBB1FAA0FBB1FA60DB71DAB5B3D
:1022E000BF4F00E0EE5BFD4F808187FF01E0C854E7
:1022F000DF4F88819981C85BD0404C910E949B0838
:10230000F7010281138180819181D8018D939C9383
:102310000190F081E02D13830283CF52DF4FE881DB
:10232000F981C15DD04080819181D70113969C9342
:102330008E931297F182E08246C0F70180859185E5
:10234000A285B3852485358546855785820F931FE1
:10235000A41FB51F80879187A287B387028113814D
:102360001EC0D70112968D919C911397FB01938308
:1023700082831296ED91FC91139771836083DB0148
:10238000ED91FC91F382E282D7011196FC93EE93DA
:1023900013967C936E931297FB01F182E082D70132
:1023A0006D917C91119718962D913D914D915C9175
:1023B0001B97FB0180859185A285B3852817390776
:1023C0004A075B0774F27801C555DF4F28813981D0
:1023D000CB5AD040E216F30609F02ACFC353DF4FA1
:1023E000A881B981CD5CD0402D913C91C553DF4F80
:1023F000E881F981CB5CD040808191812817390731
:10240000D4F4C955DF4F48815981C75AD04044168A
:1024100055068CF0821B930BAC01662757FD609527
:10242000762FC153DF4FA881B981CF5CD0408D9109
:102430009C910E94B7240894411C511CCD53DF4F3E
:10244000E881F981C35CD040208131814216530676
:102450000CF4DBCC8301015C1F4FD8014D915C91E2
:10246000C854DF4F88819981C85BD040B2010E9477
:102470009409F8015182408226EF31E0620E731E0A
:10248000D3018C91EAE0FEEF6E0E7F1E90E0C755FF
:10249000DF4F28813981C95AD0402817390731F0D8
:1024A00080E090E06AE672E00E94D626D30114969E
:1024B0008C9114978150823008F068C0DD968D9120
:1024C0009C91DE97823091051CF480E090E001C081
:1024D0000297F30196AF85AF2FE330E0620E731ED3
:1024E000D3014D915C91E4E0F0E06E0E7F1ED301CC
:1024F0002D913C91EDEBFFEF6E0E7F1ECA01019610
:10250000821793071CF49A012E5F3F4F4FE3C42EAE
:10251000D12CC60CD71CD6012D933C93F30184819A
:10252000823021F521E430E0620E731ED3014D911B
:102530005C91EFEBFFEF6E0E7F1E33E4E32EF12C88
:10254000E60CF71CD7012D913C9180E090E060E013
:1025500070E000E010E00E94F324F30116AE15AE27
:10256000D7018D919C91F601918380832FE832E011
:10257000620E731ED3014D915D91FD012081318169
:1025800080E090E060E070E00E94AD23C852DF4F31
:102590000FB6F894DEBF0FBECDBFCF91DF911F9174
:1025A0000F91FF90EF90DF90CF90BF90AF909F90F2
:1025B0008F907F906F905F904F903F902F900895F5
:1025C0000F93CF93DF93FC01EB01808191818130E8
:1025D000910541F08330910509F486C0892B09F4F7
:1025E0006EC09CC080E090E0AFE0B0E0888399834B
:1025F000AA83BB831F821E821D821C820E94F0243C
:10260000CD5BDF4F998388830E94DB249A938A9362
:10261000C154D040803F910534F5288139814A81E9
:102620005B81DA01C901B595A79597958795820FCA
:10263000931FA41FB51F9C01AD0155954795379574
:102640002795280F391F4A1F5B1FDA01C901B5956D
:10265000A79597958795820F931FA41FB51F888311
:102660009983AA83BB831EAE1DAEFE01FF96CD5B90
:10267000DF4F88819981C354D0409183808383E068
:102680008887C956DD4F8CE592E08993999384E65B
:1026900092E0899399938CE692E08993999384E7E9
:1026A00092E099838883CFE0D2E080E10E946E2699
:1026B0006993799322E0C733D207B9F72FC0E88531
:1026C000F0E0EE0FFF1FE60FF71FE956FD4F0190F8
:1026D000F081E02D6281738120813181CE014681BC
:1026E00004810E94C3091AC00280F381E02D828117
:1026F0009381815491401CF02FEF3FEF11C08885EA
:102700008F5F83708887CFE0D2E080E10E946E26E1
:102710006993799382E0C733D807B9F720E030E0B6
:10272000C901DF91CF910F910895CF92DF92EF927F
:10273000FF920F931F93FC0184859585A685B7852D
:10274000840F951FA61FB71F84879587A687B78715
:10275000848D958DA68DB78D800F911FA21FB31FFD
:10276000848F958FA68FB78F84A595A5A6A5B7A5AD
:102770008C0D9D1DAE1DBF1D84A795A7A6A7B7A74D
:102780001F910F91FF90EF90DF90CF9008952F92BF
:102790003F924F925F926F927F928F929F92AF92F1
:1027A000BF92CF92DF92EF92FF920F931F93DF932E
:1027B000CF9300D000D0CDB7DEB76C011B01FB0179
:1027C00080809180AA2497FCA094BA2C42805380E8
:1027D000662457FC6094762C848195819C01442763
:1027E00037FD4095542F29833A834B835C83F60150
:1027F0002081318142815381C501B4010E946A3434
:102800007B018C01F6012481358146815781C3010A
:10281000B2010E946A34E60EF71E081F191FF60166
:1028200084859585A685B785E80EF91E0A1F1B1FAE
:10283000208531854285538569817A818B819C8190
:102840000E946A34E60EF71E081F191F2CE015952A
:102850000795F794E7942A95D1F7F101F182E08288
:10286000F6012089318942895389C501B4010E944A
:102870006A347B018C01F6012489358946895789A0
:10288000C301B2010E946A34E60EF71E081F191F29
:10289000F601848D958DA68DB78DE80EF91E0A1F61
:1028A0001B1F208D318D428D538D69817A818B81E3
:1028B0009C810E946A34E60EF71E081F191F9CE0D7
:1028C00015950795F794E7949A95D1F7F101F3825E
:1028D000E282F60120A131A142A153A1C501B401B8
:1028E0000E946A347B018C01F60124A135A146A126
:1028F00057A1C301B2010E946A34E60EF71E081FF9
:10290000191FF60184A595A5A6A5B7A5E80EF91E81
:102910000A1F1B1F20A531A542A553A569817A81F5
:102920008B819C810E946A34E60EF71E081F191FD6
:102930008CE015950795F794E7948A95D1F7F10106
:10294000F582E4820F900F900F900F90CF91DF915E
:102950001F910F91FF90EF90DF90CF90BF90AF90BD
:102960009F908F907F906F905F904F903F902F90AF
:1029700008959C0180E4D9011D928A95E9F780E0D1
:1029800090E0A1E0B0E0F90184AF95AFA6AFB7AF9A
:1029900080A791A7A2A7B3A7848B958BA68BB78B93
:1029A00080839183A283B38308952F923F924F92A5
:1029B0005F926F927F928F929F92AF92BF92CF92CF
:1029C000DF92EF92FF920F931F93DF93CF93CDB7D8
:1029D000DEB7CA54D0400FB6F894DEBF0FBECDBFED
:1029E00029969FAF8EAF29972B967FAF6EAF2B970F
:1029F0008E010F5F1F4FC801BCDF2B962EAD3FAD80
:102A00002B97245F3F4F27963FAF2EAF2797CE01DE
:102A10000D9623969FAF8EAF239766247724B5C07B
:102A20004501880C991C880C991C2B96EEADFFADC6
:102A30002B978E0E9F1E1201EE24FF248701CC24BB
:102A4000DD24F10121913191419151911F0182E0E9
:102A500055954795379527958A95D1F721153105D5
:102A60004105510501F1F401EC0DFD1D60817181FD
:102A700082819381B2E09595879577956795BA9510
:102A8000D1F7611571058105910569F00E946A34DD
:102A9000ACE09595879577956795AA95D1F7E60E61
:102AA000F71E081F191F20E130E0C20ED31E30E4CC
:102AB000C316D10431F62596EEADFFAD2597E19210
:102AC000F192019311932596FFAFEEAF25970894ED
:102AD000A11CB11CF3E0AF16B10409F0A1CFEE24A4
:102AE000FF248701CC24DD24F20121913191419111
:102AF00051912F01F2E05595479537952795FA9515
:102B0000D1F7211531054105510511F12796EEAD9B
:102B1000FFAD2797EC0DFD1D60817181828193814E
:102B2000E6E09595879577956795EA95D1F76115D4
:102B300071058105910561F00E946A34672F782F35
:102B4000892F992787FD9A95E60EF71E081F191FF2
:102B500020E130E0C20ED31E30E4C316D10421F6CA
:102B60002396EEADFFAD2397E082F18202831383BB
:102B700024E030E0620E731E70962396FFAFEEAF36
:102B800023973CE063167104C1F0C301880F991FBD
:102B9000880F991F29964EAC5FAC2997480E591E95
:102BA000E1E0F0E0EC0FFD1FE80FF91F2596FFAF05
:102BB000EEAF2597AA24BB2433CF29962EAC3FAC89
:102BC000299720E330E0220E331EB1E34B2E512C27
:102BD0004C0E5D1EAA24BB244501880C991C880C50
:102BE000991C2B968EAD9FAD2B97880E991E3101A7
:102BF000EE24FF248701CC24DD24F30121913191BF
:102C0000419151913F01F6E05595479537952795AC
:102C1000FA95D1F7211531054105510501F1F4016E
:102C2000EC0DFD1D6081718182819381E6E09595B7
:102C3000879577956795EA95D1F7611571058105B7
:102C4000910569F00E946A3434E0959587957795EF
:102C500067953A95D1F7E60EF71E081F191F20E178
:102C600030E0C20ED31E30E4C316D10431F6F201B7
:102C7000E192F192019311932F010894A11CB11CD0
:102C8000F4E0AF16B10409F0A7CF2996AEADBFAD01
:102C90002997FE01319680E401900D928150E1F771
:102CA000C65BDF4F0FB6F894DEBF0FBECDBFCF912E
:102CB000DF911F910F91FF90EF90DF90CF90BF9029
:102CC000AF909F908F907F906F905F904F903F90CC
:102CD0002F900895DF92EF92FF920F931F93D82EBB
:102CE0008B017A010E94AB26AA2797FDA095BA2FE7
:102CF000F80180839183A283B3838D2D0E94CA261D
:102D0000AA2797FDA095BA2FBA2FA92F982F882709
:102D1000F70180839183A283B383F801808191813D
:102D2000A281B381BA2FA92F982F882780839183FE
:102D3000A283B3831F910F91FF90EF90DF900895CE
:102D40000F931F93DF93CF93CDB7DEB728970FB6BE
:102D5000F894DEBF0FBECDBF8C01CB01BE016F5F0B
:102D60007F4FAE014B5F5F4FB5DFC80102DE2D81A3
:102D70003E814F815885F8012083318342835383FC
:102D800089819A81AB81BC8184839583A683B78333
:102D9000B095A095909581959F4FAF4FBF4F808B79
:102DA000918BA28BB38B248B358B468B578B2896BC
:102DB0000FB6F894DEBF0FBECDBFCF91DF911F914C
:102DC0000F910895CF92DF92EF92FF920F931F938E
:102DD000DF93CF93CDB7DEB728970FB6F894DEBF59
:102DE0000FBECDBF6C01CB01BE016F5F7F4FAE0147
:102DF0004B5F5F4F6FDFC601BCDDED80FE800F8152
:102E00001885F601E082F1820283138329813A81D9
:102E10004B815C8188279927DC01821B930BA40BD3
:102E2000B50B80879187A287B38720A331A342A3E4
:102E300053A3E0A6F1A602A713A728960FB6F8940D
:102E4000DEBF0FBECDBFCF91DF911F910F91FF90DD
:102E5000EF90DF90CF9008950F931F93DF93CF9360
:102E6000CDB7DEB728970FB6F894DEBF0FBECDBF43
:102E70008C01CB01BE016F5F7F4FAE014B5F5F4F97
:102E800029DFC80176DD2D813E814F815885F8010B
:102E9000248B358B468B578B89819A81AB81BC8182
:102EA000808F918FA28FB38FB095A09590958195CB
:102EB0009F4FAF4FBF4F84A395A3A6A3B7A320A74F
:102EC00031A742A753A728960FB6F894DEBF0FBECE
:102ED000CDBFCF91DF911F910F9108958DE792E0C3
:102EE00068EB70E048E757E121E030E00C9473298B
:102EF0000E945B34882319F02FEF3FEF04C00E943B
:102F00001B2B20E030E0C90108958EE792E06EECC3
:102F100070E04BE959E129E531E00C947329AF9257
:102F2000BF92DF92EF92FF920F931F93DF93CF93A5
:102F3000CDB7DEB7C052D2400FB6F894DEBF0FBE99
:102F4000CDBF8C01FC0111821082DD24D3945E017F
:102F50000894A11CB11C1AC0C701B50140E250E0A1
:102F60000E94FA29C5016CEB70E00E943104892BA4
:102F700061F0F80180819181E80FF91FD0860196F8
:102F8000F80191838083409741F0D394ED2CFF2486
:102F90000E94D129E816F906FCF2F8011382128288
:102FA00085E098E1BE016F5D7F4FA8017ED48FEF71
:102FB0009FEF0E944F26F801F2808081F80E09C031
:102FC000FA9486E00E946E26F801EF0DF11D6F73F2
:102FD000608FFF20A9F78FEF9FEFF801958384831F
:102FE000085A1E4FF8011082C05EDD4F0FB6F894EC
:102FF000DEBF0FBECDBFCF91DF911F910F91FF902C
:10300000EF90DF90BF90AF900895CF93DF93BC0116
:10301000EA018A819B818031910511F481E00FC022
:1030200024E0880F991F2A95E1F7C896840F951F11
:1030300010D58A819B8101969B838A8380E0DF91F2
:10304000CF910895DF92EF92FF920F931F93DF933A
:10305000CF93CDB7DEB7C052D2400FB6F894DEBFE3
:103060000FBECDBF8B01DB018C918C3609F040C0C7
:1030700011968C911197833681F512968C91843636
:1030800009F04BC000E010E031ECE32E30E0F32E0D
:10309000C8010E94E52F0097D1F000D000D000D0E9
:1030A000EDB7FEB73196ADB7BEB71296FC92EE9271
:1030B000119713830283958384830E94E404EDB700
:1030C000FEB736960FB6F894FEBF0FBEEDBF0F5F8A
:1030D0001F4F09391105E1F650C08337F1F48EE036
:1030E0009BE1BE016F5D7F4F40E050E0DED345C005
:1030F000803799F4DB0112968C911297882369F43A
:1031000011969C91892F8053823038F480E091335E
:1031100009F481E00E94112B30C00E94D129D82EE1
:103120007E010894E11CF11C1EC0DA948D2D90E004
:10313000B70140E250E00E94FA29F7010190002017
:10314000E9F73197EE19FF09C701B801AF010E94F5
:103150006B04009741F48FEF9FEF0E944F26C70149
:103160000E94F3290AC0DD2001F76091700670917A
:1031700071068FE390E00E94A404C05EDD4F0FB69D
:10318000F894DEBF0FBECDBFCF91DF911F910F919D
:10319000FF90EF90DF9008956F927F928F929F92B1
:1031A000AF92BF92CF92DF92EF92FF920F931F9355
:1031B000DF93CF93CDB7DEB760970FB6F894DEBF3D
:1031C0000FBECDBFDC01E62E8A015901E62FF0E0EB
:1031D0008D919C911197BE016F5F7F4FE817F907A2
:1031E0004CF4EA0FFB1F808590E040E150E00E9424
:1031F000FA290EC0E81BF90B84E0EE0FFF1F8A9539
:10320000E1F7F896EA0FFB1FCB01BF010E946404AF
:10321000012B31F0612C68EF762EA0E0B8EF20C0D2
:103220008981A82FBB27A7FDB09520E0AE014F5F95
:103230005F4F0EC0992787FD9095BC016A9FC00122
:103240006B9F900D7A9F900D1124A827B9272F5FAF
:10325000FA01E20FF11D8081882361F7662477244B
:103260008E2D63E00E94893440E5949F90011124E3
:1032700058E2C52ED12CC20ED31E8E2D0E94893449
:10328000849FB001112448E2842E912C860E971E53
:10329000695D7F4FC9018796A5019D0101E00E94EC
:1032A0009F2574E1A716B10489F55E010894A11C5D
:1032B000B11CF50101900020E9F77F010894E108B5
:1032C000F108EA18FB08C501B7010E94502362E02B
:1032D00070E00E94A934C61AD70A6AE170E0860E2F
:1032E000971EC501B701A601940108E116EC0E94E2
:1032F00073230894C108D108089481089108C50176
:10330000B701A601940183010E94732360960FB652
:10331000F894DEBF0FBECDBFCF91DF911F910F910B
:10332000FF90EF90DF90CF90BF90AF909F908F90E5
:103330007F906F900895BF92CF92DF92EF92FF92AD
:103340000F931F93DF93CF93CDB7DEB7A0970FB640
:10335000F894DEBF0FBECDBFFC017B01808191815F
:103360008330910509F488C08430910534F40097C6
:1033700079F0019709F03FC108C08430910509F444
:10338000AFC0059709F037C1E3C0CB01C8DD33C139
:10339000DB0112961C9112978C91180F15C01150D9
:1033A000F701E10FF11D808D8F3371F08F5F808FFA
:1033B000282F30E02B523040121613062CF4C70190
:1033C000612F40E050E0E8DE112349F70E94D63239
:1033D00097FD11C1382F8D3031F0F701E85AFE4FBB
:1033E0008F37A1F52CC0D701A85ABE4F8C918823E6
:1033F00009F401C1F701E80FF11DE85CFE4F1082EE
:103400001C9260917006709171068AE090E00E94B3
:10341000A404C701E8E3F1E0EE0EFF1EB70112DEDF
:1034200060917006709171068AE090E00E94A40499
:1034300060917006709171068EE390E01AC08081F1
:10344000882309F4D8C081508083D5C020812F31D2
:1034500050F4E20EF11C48E351E0E40EF51ED701F2
:103460008C932F5F20836091700670917106832F7B
:1034700090E00E94A404BFC00280F381E02D82810D
:10348000938160E570E00E94A9348B01000F111F49
:10349000060F171F8081918160E570E00E94A934BA
:1034A000060F171F17FDA7C0F701808191812281A8
:1034B0003381820F931F081719070CF09CC0C701B6
:1034C000602F41E050E024E130E066DED701159640
:1034D0001C930E93149717961C930E9316978BC0FC
:1034E0000280F381E02DC080D18082819381FB0135
:1034F00024813581FFEF2F3F3F0709F47CC060E551
:1035000070E00E94A9348B01000F111F060F171FD6
:10351000C60160E570E00E94A934060F171FD701AD
:1035200016968D919C9117970817190709F463C097
:1035300040E050E00217130711F441E050E0C701EA
:10354000622F24E130E028DEF7011783068353C0A1
:10355000DB011496CD90DC901597BFEFCB16BFEF33
:10356000DB0609F448C0FB0186819781C816D9069D
:10357000D9F504E110E0BC2CC7016B2D40E050E010
:1035800098010ADE000F111F0F3F1105A9F3A4F3E4
:103590008FEF9FEF0E944F26D7012D913C91C216CD
:1035A000D3068CF4EC0CFD1CF701808590E08E01B5
:1035B0000F5F1F4FB80140E250E00E94FA29C80196
:1035C0000E94F3290EC08B2D90E0821B930B24E008
:1035D000880F991F2A95E1F7C8968E0D9F1D0E94AE
:1035E000D6292FEF3FEF09C08FEF9FEFDB01159634
:1035F0009C938E93149720E030E0C901A0960FB6FB
:10360000F894DEBF0FBECDBFCF91DF911F910F9118
:10361000FF90EF90DF90CF90BF900895DF93CF930E
:10362000CDB7DEB760970FB6F894DEBF0FBECDBF43
:10363000BC01CE0101960DD200D0EDB7FEB792834A
:1036400081830E94D0040F900F906091700670915A
:1036500071068AE090E00E94A40480E060960FB6B4
:10366000F894DEBF0FBECDBFCF91DF9108958FE7F5
:1036700092E064ED70E041E45BE124E432E00C941C
:103680007329AF92BF92CF92DF92EF92FF920F9386
:103690001F93DF93CF93CDB7DEB768970FB6F8943B
:1036A000DEBF0FBECDBF7C018B01A4E3AA2EA2E03A
:1036B000BA2EA60EB71EC501B7010E941E29D7015A
:1036C0008D919C918130910521F0039709F08BC079
:1036D0007DC08FEF9FEF0E944F26F701E280F380BD
:1036E000F2E1CF2ED12CC00ED11EC60121D5C601CC
:1036F000B70133D6C801B7010E9464040E5B1D4FA9
:1037000080E491E0D8018D939C930254124003C051
:103710000894E11CF11CF7018081882311F08E329E
:10372000B9F7D80151961C921E925097F7018081EB
:103730008E3209F58181893469F482818D34D9F41E
:1037400083818233C1F481E090E051969C938E9303
:10375000509711C0823479F4D70112968C91129748
:103760008C3449F413968C91823429F482E090E0F1
:10377000F801918B808BD80150968D919C91519737
:10378000019779F4C601BE016F5F7F4F48E150E0B9
:103790007BD5892B31F08981893619F48C8182336C
:1037A000B1F10E5B1D4FF80140815181025412406E
:1037B000662757FD6095762FC50121E13CE1E0E4E5
:1037C000EE2EE1E0FE2E0E949C270DC0D70112963E
:1037D000ED91FC91139782819381805491401CF06C
:1037E0002FEF3FEF02C020E030E0C90168960FB62E
:1037F000F894DEBF0FBECDBFCF91DF911F910F9127
:10380000FF90EF90DF90CF90BF90AF9008950E5B48
:103810001D4F8D859E85F80191838083025412404F
:10382000C0CF8F929F92AF92BF92CF92DF92EF92D2
:10383000FF920F931F93CF93DF936B017C015A018B
:103840004901E80188899989019781F40E5E1F4F2B
:10385000C80140E050E060E070E09FD4C80160E043
:1038600070E0A501960184017BD712C080E090E052
:10387000BA0140EF50E00FEF1FEF0E94F324CE019A
:103880006AE070E04AE050E020E030E00E94BD24B1
:10389000DF91CF911F910F91FF90EF90DF90CF902C
:1038A000BF90AF909F908F9008958F929F92AF920C
:1038B000BF92CF92DF92EF92FF920F931F93CF931D
:1038C000DF934C01EB015A0180918002882309F4B7
:1038D0005FC080E892E060E070E0F4010995882321
:1038E00009F456C00FEF1FE745C0A70160E070E084
:1038F0008091A0029091A102A091A202B091A30296
:10390000480F591F6A1F7B1FE091BA02F091BB025A
:103910008091B8029091B9020995882349F5C09128
:10392000B802D091B902C12C82E0D82ECC0EDD1E97
:1039300011C088818823E1F0853E59F08B8588711C
:1039400041F48701CE01B701A501F401099588234F
:1039500089F4A096CC15DD0561F70894E11CF11CF3
:103960008091A4029091A502E816F90608F4BDCF53
:103970000FEF1FEFC801DF91CF911F910F91FF90C3
:10398000EF90DF90CF90BF90AF909F908F90089571
:10399000D093B902C093B802EE24FF24E1CFAC016A
:1039A000DB012BE080E22150FA01E20FF11D808360
:1039B0002223C9F790E002C028E091E03D91332333
:1039C00091F0832F81568A3108F430523E32A1F3B0
:1039D000283010F0992329F0FA01E20FF11D30830D
:1039E0002F5F2B3058F30895CF92DF92EF92FF9222
:1039F0000F931F93DF93CF93CDB7DEB72D970FB6FD
:103A0000F894DEBF0FBECDBF9C016B017A018E0121
:103A10000F5F1F4FC801B901C2DFFD86EC8685E745
:103A200090E2B601A80141DF20E08F5F9F4F09F0CF
:103A300021E0822F2D960FB6F894DEBF0FBECDBFCA
:103A4000CF91DF911F910F91FF90EF90DF90CF907A
:103A50000895CF93DF93AC01EB01DC0180E090E0AF
:103A6000FE01E80FF91FE081E03229F0ED930196A5
:103A700088309105A9F78885803271F08EE28D93A8
:103A80008885803249F08D938985803229F08D9325
:103A90006A85603209F06D931C92CA01DF91CF9163
:103AA00008958F929F92AF92BF92CF92DF92EF9242
:103AB000FF920F931F93CF93DF934C017A018B01F9
:103AC000E9018091A6029091A7025C01CC24DD243B
:103AD000288539854A855B85C601B5010E946A340F
:103AE000E616F7060807190718F4E0E0F0E029C029
:103AF000E61AF70A080B190B288939894A895B8964
:103B0000C601B5010E946A34E616F70608071907D0
:103B100018F4E1E0F0E015C0E61AF70A080B190BFB
:103B2000288D398D4A8D5B8DC601B5010E946A349E
:103B3000E616F7060807190710F080E02CC0E2E04F
:103B4000F0E08091B0029091B102A091B202B091E8
:103B5000B302E80EF91E0A1F1B1F23E0EE0FFF1F22
:103B60002A95E1F7EC0FFD1F2481358146815781AD
:103B70002250304040405040C601B5010E946A3496
:103B8000E60EF71E081F191FC401B801A7010E9405
:103B90007632811181E0DF91CF911F910F91FF90DB
:103BA000EF90DF90CF90BF90AF909F908F9008954F
:103BB000DF92EF92FF920F931F93FC017A018B012A
:103BC000DD248091B4029091B502A091B602B0912B
:103BD000B7020097A105B10529F0DD24D39447E091
:103BE00050E002C048E050E0D801C70104C0B695DB
:103BF000A795979587954A95D2F7AC01BD0180911D
:103C0000A8029091A902A091AA02B091AB02480F1C
:103C1000591F6A1F7B1F80819181A281B381481740
:103C200059076A077B0751F040835183628373838E
:103C30008091B8029091B9020E947632E091B80268
:103C4000F091B902DD2071F0C7018F779070880F75
:103C5000991F880F991FE80FF91F20813181428138
:103C600053810BC0C7019070880F991FE80FF91F8F
:103C7000808191819C0140E050E0B901CA011F910F
:103C80000F91FF90EF90DF9008956F927F928F9247
:103C90009F92AF92BF92DF92EF92FF920F931F938A
:103CA000DF93CF9300D000D0CDB7DEB75C014B01DE
:103CB00019821A821B821C82FC01E080F180028141
:103CC0001381DD243E010894611C711C0894810855
:103CD0009108C301B801A7016BDF9B01AC010894F7
:103CE000E11CF11C011D111D6E157F058007910758
:103CF00091F18D2D90E08815990509F451C08091BE
:103D0000B4029091B502A091B602B091B7020097AB
:103D1000A105B10529F48FEF9FEFA0E0B0E004C04A
:103D20008FEF9FEFAFEFBFE0281739074A075B0718
:103D3000B9F1D394ED2DF0E073E0EE0FFF1F7A950B
:103D4000E1F7EA0DFB1D2083318342835383148204
:103D5000158216821782ED2DF0E063E0EE0FFF1F53
:103D60006A95E1F7EA0DFB1D84819581A681B781F3
:103D70000196A11DB11D84839583A683B783790124
:103D80008A01A7CFD394ED2DF0E053E0EE0FFF1F93
:103D90005A95E1F7EA0DFB1D1082118212821382FF
:103DA0008D2D90E0881599056CF30F900F900F9072
:103DB0000F90CF91DF911F910F91FF90EF90DF90C7
:103DC000BF90AF909F908F907F906F900895CF920B
:103DD000DF92EF92FF920F931F93DF93CF93CDB7B4
:103DE000DEB7A0970FB6F894DEBF0FBECDBF6B0154
:103DF0005093B9024093B802BA01AE014F5F5F4FD2
:103E0000F3DD8823D1F1ED8CFE8C0F8D18A1F60126
:103E1000E082F182028313838D899E89A0E0B0E065
:103E2000DC01992788272B8D3C8D40E050E0822BC8
:103E3000932BA42BB52B84839583A683B78381E032
:103E400090E0A0E0B0E080879187A287B3871486D6
:103E50001586168617862091A602922F990F80E06C
:103E6000A0E0B0E08E159F05A007B10728F4C601B9
:103E7000049663E070E009DF81E0A0960FB6F89445
:103E8000DEBF0FBECDBFCF91DF911F910F91FF908D
:103E9000EF90DF90CF9008958F929F92AF92BF9254
:103EA000CF92DF92EF92FF920F931F93DF93CF9306
:103EB000CDB7DEB728970FB6F894DEBF0FBECDBFE3
:103EC0008C01FB019093B9028093B8027093BB02FE
:103ED0006093BA0240E050E060E070E0099588230A
:103EE00009F0EFC00E531E4FF80190810C5F1F4F79
:103EF000F801A080B180C280D380065C11409D3063
:103F000028F49B3060F4992339F004C0892F8E5037
:103F1000823028F0973018F0AA24BB246501E09184
:103F2000BA02F091BB028091B8029091B902B60139
:103F3000A5010995882309F0C4C0F80183859485FB
:103F40008050924009F0BDC0F80185858093A6029B
:103F50001092A70226853785608981889288868994
:103F60009789A0E0B0E08093AC029093AD02A0935B
:103F7000AE02B093AF020097A105B105C9F484A1C8
:103F800095A1A6A1B7A18093AC029093AD02A09396
:103F9000AE02B093AF0284A595A5A6A5B7A5809360
:103FA000B4029093B502A093B602B093B70208C0D2
:103FB0001092B4021092B5021092B6021092B7029B
:103FC000790100E010E0EA0CFB1C0C1D1D1DE092C5
:103FD000A802F092A9020093AA021093AB0270E02B
:103FE00080E090E02091AC023091AD024091AE02B1
:103FF0005091AF020E946A346E0D7F1D801F911F89
:104000006093A0027093A1028093A2029093A302F6
:10401000940144E0369527954A95E1F73093A5023F
:104020002093A40240E050E0620F731F841F951F8D
:104030006093B0027093B1028093B2029093B30286
:104040008091B4029091B502A091B602B091B702EE
:104050000097A105B10529F182E090E0A0E0B0E071
:1040600089839A83AB83BC8381E090E0A0E0B0E0D9
:104070008D839E83AF83B887CE01019661E070E0A7
:1040800004DE6091A6027091A70280E090E02D818D
:104090003E814F8158850E946A347093A5026093D7
:1040A000A4028091B4029091B502A091B602B091A1
:1040B000B7020097A105B10511F480E103C080E2C9
:1040C00001C080E028960FB6F894DEBF0FBECDBFCA
:1040D000CF91DF911F910F91FF90EF90DF90CF90E4
:1040E000BF90AF909F908F9008950F931F93CF93A1
:1040F000DF93182F092FEA01BA014BE050E00E942C
:104100005004009711F080E00EC02B853C85C9015A
:10411000DC01212F302FC901FC0180E201900D92BA
:104120008150E1F781E0DF91CF911F910F910895C8
:10413000FC01EC5FFD4F80E092E08193919310824F
:10414000118212821382E650F2408FEF9FEFAFEFA1
:10415000BFEF80839183A283B3830895CF93DF93CE
:10416000EC01CC5FDD4F19821882C450D2408881A7
:104170009981AA81BB8184179507A607B70751F0DB
:10418000FE014193519361937193CA5FDD4FCF015B
:104190009E0187DCDF91CF910895CF92DF92EF925D
:1041A000FF920F931F938C016A017B01E9E07595E3
:1041B000679557954795EA95D1F7D0DF0C5F1D4F6E
:1041C0008FEF91E0C822D922F801D182C0821F91DD
:1041D0000F91FF90EF90DF90CF9008950F931F9372
:1041E000CF93DF93EC018B01CC5FDD4F8881998108
:1041F000C450D2408050924051F4488159816A8124
:104200007B814F5F5F4F6F4F7F4FCE01A7DFFE0176
:10421000EC5FFD4F80E092E020813181821B930BA7
:10422000D8018D939C93208131812C5F3F4F2C0FBF
:104230003D1FC901DF91CF911F910F910895CF9339
:10424000DF93EC01CC5FDD4F88819981C450D2406F
:104250008050924051F4488159816A817B814F5F3F
:104260005F4F6F4F7F4FCE0179DFFE01EC5FFD4F57
:1042700020813181C20FD31F8C812F5F3F4F31834B
:104280002083DF91CF910895CF92DF92EF92FF923A
:104290000F931F93CF93DF936C017B018A01C0E0E2
:1042A000D0E007C0C601CBDFF701EC0FFD1F808314
:1042B0002196C017D107B4F3C801DF91CF911F91A8
:1042C0000F91FF90EF90DF90CF9008950F931F9381
:1042D000CF93DF93EC019B01FC01EC5FFD4F8081EC
:1042E0009181860F971F9183808342E081309407EC
:1042F0001CF18C01061B170B11830083A901662793
:1043000057FD6095762F88819981AA81BB81F9E05C
:10431000880F991FAA1FBB1FFA95D1F7480F591F85
:104320006A1F7B1F222717FD2095322F400F511F38
:10433000621F731FCE0131DFCC5FDD4F8881998111
:104340008150924028F080E090E060E770E02ED548
:10435000DF91CF911F910F910895CF93DF93EC01DF
:10436000CB01BE016A5F7D4FAE014C5F5F4F2FDD19
:10437000882339F0CE0140E050E060E070E0EEDEEE
:1043800081E0DF91CF9108952F923F924F925F92FB
:104390006F927F928F929F92AF92BF92CF92DF9255
:1043A000EF92FF920F931F93DF93CF93CDB7DEB7BA
:1043B0002B970FB6F894DEBF0FBECDBF8E839F83C1
:1043C0007B836A833D832C8318010115110521F439
:1043D000E3EF2E2EE4E23E2E4032510561F4EAED89
:1043E000F0E0E4912E2F30E035952795359527950F
:1043F0003B872A87DAC02CED30E0F9018491481B15
:10440000510957FDD0C0D9011196FD01849190E06A
:10441000481759070CF0C7C0E3C02A853B85249F85
:10442000B001259F700D349F700D1124605D7F4F8A
:104430003DC04D5F5F4F9A01220F331F43505040E4
:10444000F901E752FF4F7491C90186529F4FFC0159
:104450006491972F80E0E62FF0E0E82BF92BFB87A3
:10446000EA87452B19F420E030E013C0F901E95246
:10447000FF4F449128523F4FF9012491942F80E03F
:1044800030E0282B392B6A857B85621B730B7B8779
:104490006A87FD018491682F70E06D5F7F4F54E063
:1044A000660F771F5A95E1F7620F731FCB01877074
:1044B000907020E830E002C0359527958A95E2F7A4
:1044C000422ECB0143E0959587954A95E1F7EEEDB5
:1044D000F0E0E4913C016E0E711C2A853B85620F71
:1044E000731F33E0759567953A95E1F76095709580
:1044F000660E771E552452C04C010894811C911CF5
:1045000087529F4FFC0144912E813F81C9015C017C
:10451000C42ED42CEE24FF242A813B81250D311D8D
:104520003987288734C08D2D90E02C2D30E08223F0
:104530009323892B59F0C5016885798541E050E0C6
:1045400021E030E00C811D81F10109958D2D90E075
:1045500095958795D82E8823A1F4F401E752FF4F53
:104560000894811C911C4491442311F0C42E07C06F
:104570008A859B858E199F09099764F0CC2480E871
:10458000D82E0894E11CF11C0894A11CB11C3A859A
:10459000E31648F2C401860D971D5394698156169F
:1045A00008F4AACF02C01B861A868A859B852B96A3
:1045B0000FB6F894DEBF0FBECDBFCF91DF911F9134
:1045C0000F91FF90EF90DF90CF90BF90AF909F90B2
:1045D0008F907F906F905F904F903F902F900895B5
:1045E00023503040F9018491682F70E07B876A87FF
:1045F0002F5F3F4FF901F491F983672B09F00DCF3D
:1046000018CF9C01E9EDF0E08491882319F0482F40
:1046100050E02CC02032310549F431968491482F66
:1046200050E0559547955595479520C03396849110
:104630003397281B310937FD17C03496849190E0D9
:10464000281739078CF414C0FB01E952FF4F34914D
:1046500068527F4FFB012491932F80E030E0822B42
:10466000932B481B590B02C040E050E0CA0108954B
:104670002D5F3F4FB901660F771F23503040FB017C
:10468000E752FF4F5491CB0186529F4FFC0144915A
:10469000952F80E050E0482B592B232BA9F6E6CF2D
:1046A000EF92FF920F931F93CF93DF937C018B01C7
:1046B000C0E0D0E00AC0F70181917F01992787FD12
:1046C00090959FDF0196C80FD91F01501040FFEF52
:1046D0000F3F1F0781F7CE01DF91CF911F910F91FF
:1046E000FF90EF9008956F927F928F929F92AF927A
:1046F000BF92CF92DF92EF92FF920F931F93CF93CF
:10470000DF933C014B017A0159016801C0E0D0E020
:1047100011C0F301EC0FFD1F4081552747FD509557
:10472000C701B501960100E010E02EDE0196E80E0B
:10473000F91E2196C815D90564F3C701DF91CF9101
:104740001F910F91FF90EF90DF90CF90BF90AF90AF
:104750009F908F907F906F9008950C949330089560
:104760002F923F924F925F926F927F928F929F9281
:10477000AF92BF92CF92DF92EF92FF920F931F936F
:10478000DF93CF93CDB7DEB76E970FB6F894DEBF49
:104790000FBECDBF5C011B013A01490177E0E72E56
:1047A000F12CEC0EFD1EB70148E150E06DDD892BC8
:1047B00009F4C4C0D701E0E0F1E00BC08C9190E0B7
:1047C000332727FD30958217930709F0B7C011965C
:1047D00031962081222391F7A1C00B891C896B8916
:1047E0007C898D899E899801442737FD4095542FF7
:1047F000621773078407950714F49B01AC017301DA
:10480000E20EF31E1A8D112309F444C0212F30E06B
:1048100040E050E06150704080409040620F731F54
:10482000841F951F0E94DE34F90131961814190473
:1048300054F5E12FF0E0C401BF010E94A9346217D2
:1048400073070CF49B012E9FC0012F9F900D3E9F7C
:10485000900D1124881A990AE81AF90A220F331FB9
:10486000220F331FC501B90131DDC501BE016D5FE6
:104870007F4F44E050E008DD4B815C816D817E819B
:10488000C5018BDC07C0EE0FFF1FEE0FFF1FC50138
:10489000BF011CDD670181E4E81681E0F80624F021
:1048A00040E4C42E41E0D42E4F8558899601261944
:1048B0003709C101B3010E9493308F8987FF3EC041
:1048C000A401662757FD6095762F4F5F5F4F6F4FAE
:1048D0007F4F39E0440F551F661F771F3A95D1F778
:1048E000C5015BDC4E010894811C911C72010027FC
:1048F000F7FC0095102F0EC0C501B4016FDCB801A4
:10490000A7010E94FC2FC50160E072E0DFDC089483
:10491000611C711C6C147D047CF310C0698D70E007
:10492000660F771F6D5F7F4F6C7FC501CFDC4F84B3
:1049300058880115110509F450CF51CF6E960FB666
:10494000F894DEBF0FBECDBFCF91DF911F910F91C5
:10495000FF90EF90DF90CF90BF90AF909F908F909F
:104960007F906F905F904F903F902F9008950C94A0
:10497000553008950C94E7300895CF92DF92EF926E
:10498000FF920F931F937B016A018901DC010D9057
:104990000020E9F71197A81BB90BBD01A7019601EB
:1049A000A2DE1F910F91FF90EF90DF90CF900895BE
:1049B0000C94D52F08950C94F62F08950F931F9300
:1049C0000E94F62F8C010E94F92F9C0180E090E05C
:1049D00060E070E0A8010E9493301F910F9108954C
:1049E0000C94F92F08958F929F92AF92BF92CF921D
:1049F000DF92EF92FF920F931F93CF93DF936C019F
:104A00005B01EA0179014801C80FD91FE60EF71EC4
:104A10000E94F62FC817D9071CF00E94F62FEC0150
:104A20000E94F92FE816F9061CF00E94F92F7C016C
:104A3000C601D7FE02C080E090E08E01081B190B72
:104A40001016110604F5B501B7FE02C060E070E073
:104A5000E701C61BD70B1C161D06ACF4A8019E016E
:104A60000E949330BE01882777FD8095982F98018A
:104A7000442737FD4095542F0E946A34AB01BC0196
:104A8000C4010E945530DF91CF911F910F91FF908B
:104A9000EF90DF90CF90BF90AF909F908F90089550
:104AA0000F931F938A0141E050E021E030E09BDF4B
:104AB0001F910F9108956F927F928F929F92AF9264
:104AC000BF92CF92DF92EF92FF920F931F93CF93FB
:104AD000DF934C017B016A01E9013A01680E791EFE
:104AE0005901A60EB71EC301B501A801D9DFC11433
:104AF000D10431F0C4018C199D09B501A801D0DFA2
:104B0000209731F0B7016C1B7D0BC301A801C8DFF2
:104B1000EC1AFD0AC4018C199D09B701A801C0DF78
:104B2000DF91CF911F910F91FF90EF90DF90CF9089
:104B3000BF90AF909F908F907F906F9008952F922D
:104B40003F924F925F926F927F928F929F92AF921D
:104B5000BF92CF92DF92EF92FF920F931F93DF935A
:104B6000CF93CDB7DEB727970FB6F894DEBF0FBE51
:104B7000CDBF9A8389837C836B8319010D83442481
:104B80005524441A550A3A011F821E8269C08D813C
:104B90008823D1F1A980BA80EE81FF81AE1ABF0AC5
:104BA0004F01880C991C6B817C8166197709C501BE
:104BB000A40121E030E0810116DFE980FA80E618E7
:104BC000F7086301CC0CDD1C6B817C818E819F8199
:104BD000681B790BC701A60121E030E004DF6B817F
:104BE0007C81EE81FF816E0F7F1FC701A60121E04E
:104BF00030E0F9DE6B817C81660D771DC501A40173
:104C000021E030E0F0DE16C089819A816B817C81E1
:104C1000A3012E813F8181014EDF8E819F81681625
:104C2000790641F089819A816B817C814E815F8117
:104C3000930141DF2E813F812F5F3F4FEE81FF8146
:104C40004E0E5F1E420E531E57FC08C008946108AA
:104C50007108C301880F991F481A590A3F832E8390
:104C60008E819F81681679060CF091CF27960FB63A
:104C7000F894DEBF0FBECDBFCF91DF911F910F9192
:104C8000FF90EF90DF90CF90BF90AF909F908F906C
:104C90007F906F905F904F903F902F900895EF928C
:104CA000FF920F931F938C010E94F62F7C010E94AC
:104CB000F92F9C0180E090E060E070E0A70193DEB6
:104CC00080E090E00E94D52F1F910F91FF90EF9010
:104CD00008950E94B42E85D4AAD3FECFEF92FF92FE
:104CE0000F931F93682F282F30E040E050E0809111
:104CF000500290915102A0915202B091530275EB73
:104D0000E72E75E9F72E7AEA072F70E2172F12C007
:104D10009C01AD01220F331F441F551F12161306AD
:104D20001406150624F02E253F25402751276150F3
:104D3000DA01C901662361F7809350029093510212
:104D4000A0935202B0935302B901CA011F910F916F
:104D5000FF90EF900895482F282F30E0C9018F77FA
:104D60009070892B19F4E0E0F0E012C0E42FEF73AB
:104D700046FF03C08FE38E1BE82FF0E0E658F94FA3
:104D8000E491F0E0319647FF03C0F095E195FF4FC5
:104D9000CF010895805CDFCF20EA3FE004C0F90135
:104DA0003197F1F701970097D1F7089500D000D01F
:104DB00000D0EDB7FEB731962AEB36E0ADB7BEB7FF
:104DC00012963C932E931197938382837583648309
:104DD0000E94E4048DB79EB706960FB6F8949EBF66
:104DE0000FBE8DBFFFCFCF92DF92EF92FF920F9356
:104DF0001F93CF93DF936C01EB019A01D6018D9144
:104E00009C918C0F9D1FB1E080349B07CCF5820FE5
:104E1000931F18161906A4F5AE0102C04054514064
:104E2000E1E040345E07D4F702C0405C5E4F57FDBE
:104E3000FCCFCA01820F931FF1E081349F078CF0F1
:104E400040ECE42E4EEFF42EE80EF91E89010E1907
:104E50001F09C601BE01A801C6DFC00FD11F9701FF
:104E6000CDCFBE01882777FD8095982FD6011C965F
:104E70000D911C911D971A96ED91FC911B97099528
:104E8000DF91CF911F910F91FF90EF90DF90CF9026
:104E900008950F931F93CF93DF93FC01C085D185B5
:104EA00000811181209729F10280F381E02D21E01A
:104EB000E034F2071CF480E090E019C0CE01959533
:104EC00087959801281B390BC901BE010E94A9349E
:104ED00020E431E02E1B3F0B6C9FC0016D9F900DB5
:104EE0007C9F900D1124821793070CF4C901BC011B
:104EF0001BC0101611062CF466277727601B710B58
:104F000015C08281938131E0803493071CF460E006
:104F100070E004C060E471E0681B790B06171707A6
:104F20001CF060E070E002C0601B710BCB01DF91F0
:104F3000CF911F910F910895AF92BF92CF92DF92C0
:104F4000EF92FF920F931F93CF93DF93EC015A01DF
:104F50006B013B872A871D870C871F821E8219825F
:104F600018825B834A83F986E88680E090E020DD42
:104F70001A141B041C041D04ECF47601650181E481
:104F8000C81681E0D80680E0E80680E0F80634F034
:104F900060E4C62E61E0D62EE12CF12C0C851D8537
:104FA000EA85FB8560E070E080E090E040E050E062
:104FB00096010995DF91CF911F910F91FF90EF908E
:104FC000DF90CF90BF90AF900895CF92DF92EF9295
:104FD000FF920F931F93CF93DF937C016B01EA0144
:104FE000C80ED91EC81BD90B29C06054714081E07E
:104FF00060347807D4F702C0605C7E4F77FDFCCF49
:105000000894E11CF11CCE01D7FF04C08827992722
:105010008C1B9D0B8830910514F087E090E0FC011B
:10502000EE0FFF1FE853F94F0591149180E090E0D7
:1050300040EF50E021E030E0D6DC2197EC14FD0495
:1050400014F4B701D4CFDF91CF911F910F91FF904E
:10505000EF90DF90CF900895AF92BF92CF92DF9202
:10506000EF92FF920F931F93CF93DF935C017A012E
:105070008B016901FC01608171819B01442737FD2F
:105080004095542F2E0D3F1D401F511F2034F1E03D
:105090003F07F0E04F07F0E05F070CF05EC0C6018D
:1050A000AA2797FDA095BA2F820F931FA41FB51FA3
:1050B000B7FD53C088279927861B970B79DC17FF0C
:1050C00018C0F50180819181E6018C159D050CF4D5
:1050D000EC01C701BE014FEF5FEF77DFCE01AA27DA
:1050E00097FDA095BA2FE80EF91E0A1F1B1FCC1AB8
:1050F000DD0AF501828193819C01442737FD4095AB
:10510000542F2E193F09400B510BC601AA2797FDBA
:10511000A095BA2F82179307A407B50714F49C0132
:10512000AD01E901121613067CF4C501B701A9010E
:105130005ADECE01AA2797FDA095BA2FE80EF91ED8
:105140000A1F1B1FCC1ADD0A1C141D0434F4F501C0
:1051500042815381C701B60138DFDF91CF911F91A2
:105160000F91FF90EF90DF90CF90BF90AF90089598
:10517000DC01FB016115710521F18D919C91119765
:10518000860F971F11969C938E9377FF0FC0AB01EC
:10519000405C5E4F481B590B662757FD6095762F84
:1051A000222733272E1B3F0BCD0156CF44275527EF
:1051B000481B590B662757FD6095762FCD019F013F
:1051C0004BCF08950F931F93CF93DF938C01FC0176
:1051D00084819581C681D7818F5F9F4F31F0D595AE
:1051E000C795F801D783C68324C0C80152DE8C1B43
:1051F0009D0B19F480E090E00AC097FF02C003976E
:1052000001C0039664E070E00E94A934CB018C0FCA
:105210009D1FF80197838683009759F097FF02C07E
:105220000F9701C00F9660E170E00E94A934C80199
:105230009FDFDF91CF911F910F910895EF92FF9221
:105240000F931F93CF93DF938C01FB01E280F380D8
:105250000190F081E02DE330F10561F0E430F105DB
:105260001CF4EF2BB1F136C0E430F10539F035977D
:1052700089F529C0F7018281938127C0FC016481EF
:105280007581FFEF6F3F7F0729F1F70182819381DD
:1052900068177907F9F0EC01C61BD70BCE0102960F
:1052A0000597C0F0C801BE0163DFF70182819381D9
:1052B000F8019583848314E0CC0FDD1F1A95E1F784
:1052C000D783C68307C08FEF9FEFF8019583848350
:1052D00001C078DF80E090E0DF91CF911F910F91C6
:1052E000FF90EF900895DF93CF9300D000D000D0CF
:1052F000CDB7DEB78091BC029091BD028F30910591
:1053000009F446C0E3E021303E070CF041C00196AD
:105310009093BD028093BC020197FC01EE0FFF1F2A
:10532000E80FF91FEE0FFF1FE254FD4F71836083FA
:1053300053834283358324834B59594149F5DE0118
:105340001196EEEBF2E026E001900D922150E1F78C
:10535000FC01EE0FFF1FE80FF91FEE0FFF1FAEEB72
:10536000B2E0EA0FFB1F26E001900D922150E1F719
:10537000FC01EE0FFF1FE80FF91FEE0FFF1FE254B5
:10538000FD4FDE01119686E00D9001928150E1F70C
:1053900026960FB6F894DEBF0FBECDBFCF91DF913A
:1053A00008958091BC029091BD020895EF92FF9202
:1053B0000F931F937C0103E216E0C80168ED76E0CD
:1053C0000E943A04F80101900020E9F7E01BF10B7C
:1053D000CF018E5D994FB7010E9464041F910F9118
:1053E000FF90EF900895BC0183E296E040E250E028
:1053F0000C9479049C01DB0197FD17C08091BC02DD
:105400009091BD022817390784F4F901EE0FFF1FB0
:10541000E20FF31FEE0FFF1FE254FD4F6081718119
:10542000CD010E94410481E0089580E00895EF924B
:10543000FF920F931F93DF93CF93CDB7DEB72E97D5
:105440000FB6F894DEBF0FBECDBF809121069091BC
:105450002206892B29F080912306882309F45BC05A
:1054600080912306882351F46091BE027091BF029F
:1054700083E296E040E250E00E944104F3E2EF2E26
:10548000F6E0FF2E01C07C01D7012C91222329F0E8
:10549000C70101962032B9F793C08091BC02809376
:1054A0001E061AC0892F90E08C01000F111F080FF3
:1054B000191F000F111F02541D4FF80160817181E7
:1054C00083E296E00E943104892B31F4D8011296D0
:1054D000ED91FC9113970EC080911E06982F91506C
:1054E00090931E068823F1F610921E06E091C002EA
:1054F000F091C102F0932206E093210681E090E052
:105500009E838D83F886EF82CE01059668E173E075
:105510000995109223061A821982CE0109965ED24D
:10552000882321F140911C0650911D06411551051B
:10553000D1F029853A85809118069091190628178F
:10554000390771F42B853C8580911A0690911B06D2
:105550002817390729F48D859E858417950781F0D2
:1055600084E090E00BC083E090E008C080911C06CE
:1055700090911D06892B21F085E090E09A83898324
:10558000CE0109969C838B83A8E1B6E0FC0186E0FE
:1055900001900D928150E1F7E0912106F0912206F1
:1055A000CE01019668E173E00995909320068093FF
:1055B0001F06892B49F0109222061092210604C082
:1055C000F70110827C0169CF2E960FB6F894DEBFEA
:1055D0000FBECDBFCF91DF911F910F91FF90EF9044
:1055E0000895C8D980E098EF5ADB74D788E193E03A
:1055F00066E772E30E944C1F1092200610921F066D
:10560000109222061092210610921E061092230676
:1056100008959C01F999FECF32BD21BDF89A80B55D
:10562000089590914506882311F0916001C09E7FF6
:1056300090934506089514BE10929000479846989E
:10564000809A8898FFCF982F80917C00807E8093ED
:105650007C00892F8950853008F4985E95FF04C03E
:1056600080917B00806203C080917B008F7D80935E
:105670007B0080917C009F71892B80937C008091BE
:105680007A00806880937A0080917A0080648093A9
:105690007A0080917A0084FFFCCF80917A00806448
:1056A00080937A0080917A0084FFFCCF209178006B
:1056B0004091790080917A008F7780937A00942FBF
:1056C00080E030E0282B392BC901089587988F9806
:1056D00087E0B9DFAA2797FDA095BA2FBC01CD01BD
:1056E00024E736E040E050E00E946A34272F382F4C
:1056F000492F552747FD5A95C9010895AF92BF928A
:10570000CF92DF92EF92FF920F931F93CF93DF938D
:105710008C017A01FB01EE0DFF1DEE7FE00FF11F02
:10572000A080B180EB01A70123C02196FC01C080BD
:10573000D1800296CA14DB04C4F3DA01AA0FBB1F9E
:10574000A00FB11F02C0415050409D018D919C910E
:1057500011971297A816B906B4F34C175D0744F0D9
:1057600091838083F901D182C082219641505040BB
:105770004C175D0734F0CE01880F991F800F911FE1
:10578000D5CF6417750714F4C801B8DFBE01CE1574
:10579000DF050CF4BFCFDF91CF911F910F91FF90E8
:1057A000EF90DF90CF90BF90AF900895EF92FF926F
:1057B0000F931F938C017B0180E184B915B880E8B9
:1057C0008AB98BB98CE03FDFF8019183808389E04F
:1057D0003ADFF701918380831F910F91FF90EF9043
:1057E00008958F929F92AF92BF92CF92DF92EF92E5
:1057F000FF920F931F93DF93CF9300D000D0CDB7CC
:10580000DEB74C015B01CE010196BE016D5F7F4F9B
:10581000CDDF8B819C8108970CF45CC080E184B95A
:1058200085B980E48AB91BB88CE00DDF7C01EB817F
:10583000FC81C980DA8080E092E08E199F0997FF91
:105840000FC080E09EEFE80EF91E8701B3E01595CA
:105850000795BA95E1F780E092E0E80EF91E06C0E0
:105860008C01A3E015950795AA95E1F7B701882764
:1058700077FD8095982F9F01442737FD4095542F41
:105880000E946A349601442737FD4095542F0E94A8
:10589000DE3424553040200F311F12161306D4F485
:1058A0008901000F111F80E284B985B980E88AB9A7
:1058B0001BB88BE0C8DEF50191838083F401F1828F
:1058C000E08298010F3F110519F014F02FEF30E03E
:1058D000822F01C080E00F900F900F900F90CF911A
:1058E000DF911F910F91FF90EF90DF90CF90BF90CD
:1058F000AF909F908F9008956F927F928F929F921A
:10590000AF92BF92CF92DF92EF92FF920F931F93CD
:10591000DF93CF93CDB7DEB76E970FB6F894DEBFA7
:105920000FBECDBF4C013B018AE0E82EFF246E0183
:105930000894C11CD11C0BE0A02EB12CAC0EBD1ED6
:1059400033C06F2D70E0660F771F8601060F171F9B
:105950006A0D7B1DC80145DF882331F1F801848B76
:10596000158AF394F5E0FF16F9F4C60160E070E0E3
:1059700044E050E0C3DEC50160E070E044E050E088
:10598000BDDE8D819E81F401918380838F8598890E
:10599000F30191838083CE01459660E070E044E09E
:1059A00050E0ACDE898D05C0EA94FFEFEF1649F6B2
:1059B00080E06E960FB6F894DEBF0FBECDBFCF91DC
:1059C000DF911F910F91FF90EF90DF90CF90BF90EC
:1059D000AF909F908F907F906F900895AF92BF92FD
:1059E000CF92DF92EF92FF920F931F93CF93DF93AB
:1059F000EC0180919800909199000B9708F4DDC01C
:105A000065DE84579E400CF0D8C08091980090913C
:105A1000990001979093990080939800EACF209184
:105A20008400309185008091480690914906A0E05D
:105A3000B0E060918400709185006217730718F4DC
:105A40000196A11DB11DAC0133272227CB01A0E097
:105A5000B0E0280F391F4A1F5B1F80915A069091B2
:105A60005B06A0915C06B0915D0679018A01E81A97
:105A7000F90A0A0B1B0BD801C70180529E44A040B3
:105A8000B04048F4DE01E4E5F6E086E001900D92D6
:105A90008150E1F708C020935A0630935B0640938B
:105AA0005C0650935D06A4E5B6E0FE0186E0019039
:105AB0000D928150E1F78C819D81892B09F46EC094
:105AC00020914C0630914D06442737FD4095542FC8
:105AD000E0905006F09051060027F7FC0095102F3B
