:100000003DC4000063C4000061C400005FC4000080
:100010005DC400005BC4000059C4000057C4000068
:1000200055C4000053C400000C9427340C94593478
:100030004DC400004BC4000049C4000047C4000088
:1000400045C4000043C4000041C400003FC4000098
:100050000C940C303BC4000039C4000037C40000CD
:1000600035C4000033C4000031C400002FC40000B8
:100070002DC400002BC4000029C4000027C40000C8
:1000800025C4000023C4000021C400001FC40000D8
:100090001DC400001BC4000019C4000017C40000E8
:1000A00015C4000013C4000011C4000001010101C7
:1000B0000502020206000001000000030101000128
:1000C000000202020500000000000005040707000E
:1000D00007070005040000000705000303000000F7
:1000E000000600050404040404050505646F6F6D33
:1000F000656400666C6970006C61747469636500A6
:1001000020626F6F6D007377656574006D696E6551
:10011000730063616C696272617465006F6666008A
:100120007669657700253032583A20253034580DED
:100130000A007368656C6C007669657700000B09CE
:10014000215F3B00010004000B0010001A00210099
:100150002200250028002D003400360039003A0026
:100160003F00440049004E00530059005E00630008
:1001700068006D007200730075007B0082008800CB
:100180008C0094009A00A000A700AE00B300B80055
:10019000BF00C500C800CC00D200D700DE00E400DC
:1001A000EB00F000F700FD0103010A011001160148
:1001B0001F0125012C01320135013A013D014401A5
:1001C0004B014D01520157015C01610166016A0159
:1001D0006F017401750178017D017E0187018C0139
:1001E000910196019B019F01A301A701AC01B101FF
:1001F000B801BD01C201C601CB01CC01D101D801BA
:10020000D8500400004C2000020000000000000054
:1002100000000000000000000000000000000000DE
:10022000000000000000003C380010200080C109E0
:10023000840000000000000000007C00D14462182F
:1002400052A80002E239C17CDF73800000E3E33C86
:100250003DF3FF3D0F78618F139E39E3DFE1862385
:100260000C1FE408800820008101008400000000C9
:1002700008000000009200D14F9224527080051EA9
:10028000462341018C400000141322430A10430A04
:1002900018A18F14514514222186230A2062094097
:1002A0000020008101008400000000080000000020
:1002B000920087F4942421A8800512042542028C20
:1002C00068603019D4A2810610810A19215698312C
:1002D0008314022185549140A20A2003BCE7BBDFAE
:1002E000EB8FDDE779F6FF18C98C7C92008294646D
:1002F00019212080091208C97BC274699FCC2A5435
:10030000BE8107FE81FA1A215698318313022149D2
:10031000546081210C10006318C52319962318C658
:10032000390918C952849231828E09A52107F389AF
:1003300012103106248BC600034A54A18106108F87
:100340000A1E2126583E83E0C221495460822108BA
:100350000003E308FD2319A62318C6318915552289
:100360008B11C98FC50A622100801112203F86249B
:1003700088419FCC4A5FE1810610830A19212658E3
:10038000308320222149549084208800046308C1CE
:100390002319E62318C630691555229092460505A3
:1003A000126321008451124221462888A860300936
:1003B000A861430A10430A18A106345045142221AB
:1003C00030890888208800046318C52319962318EB
:1003D000C63029122251209200851E119C92008461
:1003E00060EFFDC139C87328000044087E3DF3F07A
:1003F0003D0FE87F063390390BC21E3089088FE02D
:10040000480003FCE7B91F198E231779F1C6F222C1
:10041000893C92000004000012000420000000004B
:10042000000008000003C000000000000000000001
:10043000000008000000000000002048000000004C
:1004400000020100000040200000000100920000B6
:100450000400000C00080000000000000010000074
:100460000000000000000000000000000006000086
:10047000000000000038380FE00000001C060000FB
:1004800000402000000002007C00050A08215E3BBD
:1004900002800000824000000020000000000000F8
:1004A000000000000000000000000000000000004C
:1004B000000000001D0700000400101C100010C008
:1004C000000000000000000004440022804030844E
:1004D000200000002E239C2F9BEE70000001CF27F0
:1004E0009DCFFDD171E308E5DE779DF8C6318FD150
:1004F0000110040400102010209040000000008033
:100500000000000842002294F448881108000051BD
:100510006462682031880010423024632842312010
:100520006508E6318C6248C6B18850812802040013
:100530001020100010400000000080000000084261
:1005400000203F4AC80815480000532042A84051E7
:1005500089086FB036546118421120690DD6318C6C
:100560006048C6AA8890814400779EF779DE619240
:100570004D79DE7D9EE8C6318FC842002014E530FB
:100580000813BE0F8095218D2F784E7801800C5670
:1005900057A11F7A7F20710DD63E8F9C48AAA47167
:1005A000104100000C6118A23120944AC6318E60BF
:1005B00088C6AA88904130201452C8081548000007
:1005C000992203F0C49108006FB09774611842310A
:1005D00020690AD6308C4248A94A22104100007C8A
:1005E000611FA23120984AC6318C1C88AAA48908B0
:1005F000424C003FE544081108000111242228C4A0
:100600009111081040108C6328423120650ACE30C9
:100610009C6248915124102100008C6118223120E5
:10062000944AC6318C0288A94A8A0842002014489C
:10063000B804200040110E77DC27390E601000004E
:100640008F8F9DCFC1F177A3F8CDD07C5C4711513E
:1006500027D02100007F9EF7A1F120924AC5DE7CC1
:100660003C7791517FC842000000000002400080AA
:100670000200000000000000000000000000000078
:100680000000000000000000000000001C1703E054
:10069000000000002000800000100800000000089A
:1006A0000444000000000000000000000000000002
:1006B000000000000000000000000000000000003A
:1006C000000000000000000000000000000001C069
:1006D0000700000010080000000070000000000685
:1006E0000D13191F252C32383E444A50565C626760
:1006F0006D73787E83888E93989DA2A7ABB0B4B9B2
:10070000BDC1C5C9CDD0D4D7DBDEE1E4E7E9ECEE6D
:10071000F0F2F4F6F7F9FAFBFCFDFEFEFFFF4153A1
:10072000534552543A2025733A2564000C638E7366
:100730001084929414A596B518C69AD676696577F2
:100740002000253034580A00E3E7EF00FF010203E0
:100750000408090A0C0D0F10111213FF1011FF12DB
:10076000FF1329FF30313235363738393C3D2021EF
:100770005051525360616A80818283848590929344
:1007800095979807083012003112010032000001DD
:10079000000730100000020200000000000000000E
:1007A00000000000070000000000C80090162702AB
:1007B00032001A00320000182A0032000000000047
:1007C0000000060208080700010200000000000007
:1007D000000000000000EF0000003F0100A7030040
:1007E00000000000000000000000000000001000F9
:1007F000000003001001000000003301040309049D
:1008000016034D006900630072006F0074006F00F2
:1008100075006300680012010002020000109A23B4
:1008200001200001000200010902430002010080D2
:100830003209040000010202000005240010010535
:100840002401010104240202052406000107058198
:100850000310004009040100020A0000000705021D
:100860000240000007058302400000003808520CD7
:10087000B20DE511F0144E176517171B11241FBE9A
:10088000CFEFDAE0DEBFCDBF11E0A0E0B1E0E8EAF3
:10089000FCE602C005900D92A231B107D9F715E030
:1008A000A2E1B1E001C01D92AE30B107E1F718E05E
:1008B000CCE7D8E004C02297FE010E941736CC3660
:1008C000D107C9F70E94CC260C94523699CBFB0174
:1008D000DC018D91059080190110D9F3990B0895D1
:1008E000FB01DC0105900D920020E1F70895FB016A
:1008F000DC014150504048F005900D920020C9F7AE
:1009000001C01D9241505040E0F70895FB01DC0109
:1009100004C08D910190801921F441505040C8F7D6
:10092000881B990B0895FB01DC0101900D920020BA
:10093000E1F70895FB01DC014150504030F08D910A
:100940000190801919F40020B9F7881B990B0895BC
:10095000FB01DC014150504048F001900D92002015
:10096000C9F701C01D9241505040E0F70895A0E042
:10097000B0E0EDEBF4E00C9425367C01EB018A014C
:10098000690109C0CE012196F6010995F70181930D
:100990007F010150104001151105A1F7CDB7DEB759
:1009A000E8E00C944136A0E0B0E0E9EDF4E00C940E
:1009B0002536EC017B018A01690109C0CE0121962F
:1009C000F70161917F01F601099501501040011571
:1009D0001105A1F7CDB7DEB7E8E00C9441360F93CF
:1009E0001F93CF93DF938C01EB018B8181FF1BC0A1
:1009F00082FF0DC02E813F818C819D812817390790
:100A000064F4E881F9810193F983E88306C0E885FD
:100A1000F985802F0995892B31F48E819F8101966C
:100A20009F838E8302C00FEF1FEFC801DF91CF912C
:100A30001F910F910895A0E0B0E0E1E2F5E00C9481
:100A40002B36FE0135966191719180910A05909146
:100A50000B05AF0129D02096E2E00C944736A0E0C8
:100A6000B0E0E5E3F5E00C942B36FE01359661919C
:100A70007191A0910A05B0910B0513968C91139773
:100A8000886013968C9380910A0590910B05AF01B5
:100A90000BD0E0910A05F0910B052381277F23837A
:100AA0002096E2E00C944736ABE0B0E0EAE5F5E0F2
:100AB0000C941B363C012B015A01FC011782168253
:100AC000838181FD03C06FEF7FEFB9C19AE0892E6A
:100AD0001E010894211C311CF3012381F20123FD26
:100AE000859123FF81912F01882309F4A5C18532C7
:100AF00039F423FD859123FF81912F01853221F463
:100B000090E0B3016CDFE8CF982FFF24EE24992406
:100B1000FFE1FF15D0F09B3269F09C3228F490324F
:100B200059F0933291F40EC09D3249F0903369F43C
:100B300041E024C052E0F52A84E0F82A28C098E079
:100B4000F92A25C0E0E1FE2A22C0F7FC29C0892F3E
:100B500080538A3070F4F6FE05C0989C902C1124C6
:100B6000980E15C0E89CE02C1124E80EF0E2FF2A54
:100B70000EC09E3229F4F6FC5FC140E4F42A07C09F
:100B80009C3619F450E8F52A02C0983649F4F2016F
:100B900023FD959123FF91912F01992309F0B8CF5F
:100BA000892F8554833018F08052833038F444E024
:100BB00050E0A40EB51E5FE359830FC0933631F0A9
:100BC000933779F0933509F052C01FC0F501808149
:100BD000898342E050E0A40EB51E610101E010E0FF
:100BE00011C0F501C080D180F6FC03C06FEF7FEF2C
:100BF00002C0692D70E042E050E0A40EB51EC601AF
:100C00002ED18C015FE7F52213C0F501C080D180A1
:100C1000F6FC03C06FEF7FEF02C0692D70E042E089
:100C200050E0A40EB51EC6010FD18C0150E8F52A84
:100C3000F3FE06C018C080E290E0B301D0DEEA9473
:100C40008E2D90E008171907B0F30DC0F601F7FCE0
:100C50008591F7FE81916F0190E0B301C0DEE11054
:100C6000EA94015010400115110581F7E2C0943655
:100C700011F0993661F5F7FE08C0F5012081318148
:100C80004281538184E090E00AC0F5018081918126
:100C90009C01442737FD4095542F82E090E0A80E38
:100CA000B91E9FE6F92257FF09C05095409530952F
:100CB00021953F4F4F4F5F4FE0E8FE2ACA01B9012F
:100CC000A1012AE030E0D6D0D82ED2183FC0953707
:100CD00029F41F2D1F7E2AE030E01DC01F2D197F33
:100CE0009F3661F0903720F4983509F0A5C00FC009
:100CF000903739F0983709F09FC004C028E030E001
:100D00000AC0106114FD146020E130E004C014FD3D
:100D1000166020E132E017FF08C0F50160817181A3
:100D20008281938144E050E008C0F5018081918187
:100D3000BC0180E090E042E050E0A40EB51EA101AD
:100D400099D0D82ED2188FE7F82EF122F6FE0BC0DC
:100D50005EEFF522D91438F4F4FE07C0F2FC05C0AA
:100D60008FEEF82202C01D2D01C0192DF4FE0DC01A
:100D7000FE01ED0DF11D8081803319F499EEF92209
:100D800008C01F5FF2FE05C003C08F2D867809F0F2
:100D90001F5F0F2DF3FC13C0F0FE0EC01E1510F0E8
:100DA0009D2C0AC09D2C9E0C911A1E2D05C080E220
:100DB00090E0B30114DE1F5F1E15C8F304C01E15BA
:100DC00010F4E11A01C0EE2404FF0EC080E390E0AD
:100DD000B30105DE02FF1BC001FD03C088E790E000
:100DE0000EC088E590E00BC0802F867881F001FF6F
:100DF00002C08BE201C080E2F7FC8DE290E0B3011B
:100E0000EEDD05C080E390E0B301E9DD9A94D914EA
:100E1000C8F3DA94F101ED0DF11D808190E0B3018A
:100E2000DEDDDD20B1F705C080E290E0B301D7DD63
:100E3000EA94EE20C9F750CEF30166817781CB01A9
:100E40002B96E2E10C943736FC010590615070401E
:100E50000110D8F7809590958E0F9F1F0895FC0183
:100E60006150704001900110D8F7809590958E0FD9
:100E70009F1F0895FA01AA27283051F1203181F1EE
:100E8000E8946F936E7F6E5F7F4F8F4F9F4FAF4F92
:100E9000B1E03ED0B4E03CD0670F781F891F9A1FA5
:100EA000A11D680F791F8A1F911DA11D6A0F711D59
:100EB000811D911DA11D20D009F468943F912AE065
:100EC000269F11243019305D3193DEF6CF0108954D
:100ED000462F4770405D4193B3E00FD0C9F7F6CF7E
:100EE000462F4F70405D4A3318F0495D31FD405246
:100EF000419302D0A9F7EACFB4E0A69597958795DC
:100F000077956795BA95C9F70097610571050895BA
:100F10009B01AC010A2E0694579547953795279566
:100F2000BA95C9F7620F731F841F951FA01D0895FE
:100F3000DF92EF92FF920F931F93DD2403C0D394AF
:100F4000880F991F18161906D4F39C0140E050E051
:100F5000E12C9AEEF92E92E0092F112DE21AF30AF4
:100F6000040B150BE21AF30A040B150BEF2CF02EF1
:100F7000012F112707FD1A95C801B7010E94863578
:100F8000672F782F892F992787FD9A9520E030E0E9
:100F900042E050E0261B370B480B590B00E010E0F5
:100FA000CA01B901A80197010E948635272F382F61
:100FB000492F552747FD5A95DD2039F004C0220FEF
:100FC000331F441F551FDA94D2F7B901CA011F918C
:100FD0000F91FF90EF90DF9008958430910528F4F1
:100FE0002FEF3FEF4FEF5FE303C0A2DF9B01AC01A8
:100FF000B901CA010895FC0180819181680F791FB0
:1010000082819381480F591F60527040872F992722
:1010100087FD9A95382F40525040852F992787FD9C
:101020009A95982F605C7F4F672F770F770B405C06
:101030005F4F452F550F550B12C0E22FF0E053E0E4
:10104000EE0FFF1F5A95E1F7EA0FFB1FE455FF4F24
:101050008491882361F42F5F421778F73F5F63170D
:1010600010F480E00895292FA32FB0E0F5CF089564
:1010700082E191E06CEE70E047E95BE020E130E076
:101080000C94D429EF92FF920F931F938C0124E0CC
:10109000969587952A95E1F70E940E277C01C80155
:1010A0000F96B4E096958795BA95E1F70E940E27C2
:1010B0000F70402F50E020E130E0241B350BB901C8
:1010C0006E9D90016F9D300D7E9D300D1124BC01F1
:1010D000469FC001479F900D569F900D1124280FE9
:1010E000391FC9011F910F91FF90EF900895805013
:1010F0009C4FC8CF2F923F924F925F926F927F92F8
:101100008F929F92AF92BF92CF92DF92EF92FF9217
:101110000F931F93DF93CF93CDB7DEB7C35FD1405B
:101120000FB6F894DEBF0FBECDBF6C01DC01189680
:101130002D913C911997BFEF2F3F3B07F9F4FC012C
:101140008781992787FD909597FF02C0019603C07C
:10115000009709F00197D60117968C93179716966A
:101160008C91992787FD909597FF02C0019603C047
:10117000009709F00197F60186831AC088E790E08E
:10118000821B930B9595879595958795D601179614
:101190008C93179784E091E01A962D913C911B97C0
:1011A000821B930B959587959595879516968C93AD
:1011B000F6012781222309F485C0332727FD3095C6
:1011C00084819581820F931F958384837BC0D60190
:1011D00014968D919C9115978ADF15E095958795CA
:1011E0001A95E1F7F6012681332727FD3095829F76
:1011F0007001839FF00C929FF00C1124EE0CEF2CE9
:10120000EE1CFF08848195813DDFA5E095958795CB
:10121000AA95E1F7D60116962C91332727FD309534
:10122000829F8001839F100D929F100D1124000F4B
:10123000012F001F110BC601B701A801DCDE8823B6
:10124000B9F0863011F4F601B586C60160E070E0B1
:10125000A801D1DE882319F4EE24FF2409C0C601B9
:10126000B70140E050E0C7DE882311F400E010E051
:10127000C601B701A801BFDE8823A1F4D6018D9174
:101280009C9111978E0D9F1D11969C938E93129693
:101290008D919C911397800F911F13969C938E9321
:1012A000129717C0F6018681992787FD909597FFC1
:1012B00002C0019603C0009709F00197D601169667
:1012C0008C9302C0BB24BA94F6018681882309F06E
:1012D0007ECFD6011C968C911C97885F1C968C93B0
:1012E00081500E940E279595879580589F4F8F3F7C
:1012F000910519F014F08FEF90E060E040E00E945B
:101300008D23F601978786878585882311F0815084
:101310008587D60114968D919C911597B3DE8C012B
:10132000000F111F000F111FF60184819581DFDE70
:101330009C01220F331F220F331F3901601A710ADB
:101340004901800E911EC80168E770E00E94C53512
:10135000C451DE4F6883CC5ED140C351DE4F7883E9
:10136000CD5ED140C90168E87FEF0E94C535C2510A
:10137000DE4F6883CE5ED140C151DE4F7883CF5EB1
:10138000D14081E061E041E00E94CC240E94D82459
:10139000CF51DE4F19821882C15ED140C30177FE62
:1013A00004C0882799278619970917DEC851DE4F90
:1013B000688379838A839B83C85ED140C40197FE8A
:1013C00004C0882799278819990907DECC51DE4F78
:1013D000688379838A839B83C45ED14077FC07C08E
:1013E000F1E0CD51DE4FF883C35ED14006C00FEF70
:1013F000CD51DE4F0883C35ED14097FC03C058E057
:10140000A52E02C048EFA42ED6012D903C90119736
:1014100012964D905C901397622DB42C16141704FD
:101420000CF46095181419040CF4B09470E080E08A
:1014300090E0C851DE4FE880F9800A811B81C85EC8
:10144000D140552717FD5A95412F302F2F2D0E943F
:1014500086357B018C018B2D90E0A0E0B0E0C0517F
:10146000DE4F88839983AA83BB83C05FD140CC5170
:10147000DE4F88819981AA81BB81C45ED140292F2A
:101480003A2F4B2F552747FD5A95C051DE4F6881A3
:1014900079818A819B81C05FD1400E948635AB01F2
:1014A000BC01852D992787FD9A95282F220F220FA1
:1014B000220F832D992787FD9A95280F4E155F05DA
:1014C00060077107B4F42A0D822F90E0FC01E45507
:1014D000FF4F3491332341F5CC51DE4F8881998100
:1014E000AA81BB81C45ED140480F591F6A1F7B1F70
:1014F000E5CFCD51DE4F9881C35ED140290FE22F59
:10150000F0E0E455FF4F8491882309F006C1C851EB
:10151000DE4F88819981AA81BB81C85ED140E80EE7
:10152000F91E0A1F1B1FCACF1A1414F4832F09C0F7
:10153000B3E096958795BA95E1F783559F4FFC01E7
:101540008491A0E8BA2EB82ACB01BA0108C027704E
:10155000E22FF0E0E355FF4FB490C801B701BB277D
:1015600097FDBA95A92F982F872FE2DCBC01992708
:1015700077FD9095892FE1E0F0E0EC0FFD1FCF5152
:10158000DE4FE880F980C15ED140EE0DFF1DCB013A
:10159000613A710514F080EA90E08083E1EFF0E0B9
:1015A000EC0FFD1FCF51DE4F08811981C15ED14084
:1015B000E00FF11FB0820F5F1F4FCF51DE4F198335
:1015C0000883C15ED140003F110589F0C451DE4F50
:1015D00028813981CC5ED140620E731EC251DE4F2C
:1015E00088819981CE5ED140880E991ED7CEEE2497
:1015F000FF2471EF272E312C2C0E3D1E60E4462E69
:1016000061E0562EE1E0F0E0EC0FFD1FEE0DFF1D56
:101610004081403A38F000E010E05FE3852E51E071
:10162000952E0BC0842F90E000EA10E0081B190BE8
:1016300030EA832E912C880E991EF101EE0DFF1DCC
:10164000E081E63029F0D6011D968C91882321F0A7
:10165000F6017684B78419C0E7FD03C0842F869510
:10166000480F415FE0FF02C0842F03C0842F86959E
:101670008695E1FF02C0642F02C0642F6695E2FFE9
:1016800040E00E948D23782EB92EA801662757FDD1
:101690006095762F80E090E00E94AB24A401401B6F
:1016A000510B662757FD6095762F872D9B2D0E9445
:1016B000AB24A20148195909662757FD6095762F7A
:1016C00080E090E00E94AB240894E11CF11CF0EF54
:1016D000EF16F10409F096CF80E061E041E00E944E
:1016E000CC2480E090E0CD50DE4F0FB6F894DEBF02
:1016F0000FBECDBFCF91DF911F910F91FF90EF9063
:10170000DF90CF90BF90AF909F908F907F906F9021
:101710005F904F903F902F900895CD51DE4F3881CC
:10172000C35ED140313009F012CFB82E16CFCF931F
:10173000DF93EC01DB01888199818330910591F180
:101740008430910524F4019709F04DC007C084301E
:10175000910591F1059709F046C03FC08AEB9EE2E2
:1017600015969C938E9314978CEA93E011969C9314
:101770008E9384E493E013969C938E93129717961E
:101780001C92179716961C9216978FEF9FEF19963B
:101790009C938E9318971C961C921C971D961C92D6
:1017A0001D9721C0EA81FB81828193818154914000
:1017B0001CF02FEF3FEF1CC0EA81FB8180819181FB
:1017C00019969C938E931897EA81FB81828193816D
:1017D0001B969C938E931A9706C08FEF9FEF1996D6
:1017E0009C938E931897CD0160E084DC20E030E07C
:1017F000C901DF91CF9108959C01462F43706695F2
:101800006695862F8150853058F4880F880F840F95
:10181000F901E80FF11D848D91E08927848F1086EE
:10182000942F9150943078F46530D8F4862F880F37
:10183000880F890FF901E80FF11D848D91E0892748
:10184000848F108602C0653060F4862F880F880F61
:10185000840FF901E80FF11D848D91E08927848FB1
:101860001086942F9F5F943071F0653060F4862F5E
:10187000880F880F890FF901E80FF11D848D91E021
:101880008927848F10866F5F653058F4660F660F66
:10189000640FF901E60FF11D848D91E08927848F93
:1018A0001086089583E191E063EF70E04BEC5CE01B
:1018B00024E330E00C94D429CF92DF92EF92FF9290
:1018C0000F931F93DF93CF9300D00F92CDB7DEB766
:1018D0006C018B017A01FE0133960EC0C8016AE0EB
:1018E00070E00E94C535805D8083C8016AE070E0C9
:1018F0000E94C5358B013197EC17FD0779F7F6018A
:1019000002A913A9CE01019663E070E0A701EE24BD
:10191000E394CC24CA94DC2C0E945B260F900F9099
:101920000F90CF91DF911F910F91FF90EF90DF907B
:10193000CF9008951F93CF93DF93EC0180E098EF51
:101940009BAB8AAB19AA18AA84E18150FE01E80F6B
:10195000F11D148E10868823C1F718E0115085E020
:101960000E94D126862F64E10E94A535692FFE01D1
:10197000E10FF11D9083CE013FDF112379F7CE01F6
:1019800060E070E043E050E023E030E095DFDF917D
:10199000CF911F910895CF92DF92EF92FF920F9314
:1019A0001F93DF93CF93CDB7DEB7A0970FB6F89410
:1019B000DEBF0FBECDBFFC016B0180819181813004
:1019C000910539F08330910521F1892B09F482C00A
:1019D000B7C0CB01AFDF0E94372ABC017E0108945B
:1019E000E11CF11CC70140E250E00E947704F601BF
:1019F00002A913A9C70164E070E04AE250E024E4C0
:101A000030E0EE24E394CC24CA94DC2C0E945B26C4
:101A100097C00280F381E02D0281138161E00034E0
:101A200016071CF02FEF3FEF8DC0E080F180C7015B
:101A3000889797FD17C0F801FC97F7FD13C068E27F
:101A400070E00E94C5359B01CF0168E270E00E9402
:101A5000C535660F771F660F771F620F731F6431DE
:101A6000710508F06FEF772767FD70958FEF6F3F77
:101A7000780731F1C601C0DE20E094E19150F60113
:101A8000E90FF11D848D81112F5F9923B9F722236E
:101A900029F0243119F080E098EF02C080EE97E041
:101AA000F60193AB82AB60A971A96F5F7F4F71ABF9
:101AB00060ABC60143E050E023E030E0FDDE40C013
:101AC00008321105ECF5F4E6EF16F104CCF5C60189
:101AD00031DF36C014E168E2E62EF12C1150A12F5F
:101AE000B0E0F601EA0FFB1F4085443138F54F5F47
:101AF0004087848D882319F42FE333E302C020EC60
:101B000035EFCD0183709070BC016E9DC0016F9D5B
:101B1000900D7E9D900D1124B595A795B595A7952F
:101B2000AE9DB001AF9D700DBE9D700D1124605B28
:101B30007F4FCC9650E001E00E949925112371F669
:101B400020E030E0C901A0960FB6F894DEBF0FBECA
:101B5000CDBFCF91DF911F910F91FF90EF90DF905C
:101B6000CF90089584E191E068EF70E047E251E1A1
:101B700023E131E00C94D4292F923F924F925F924F
:101B80006F927F928F929F92AF92BF92CF92DF928D
:101B9000EF92FF920F931F93DF93CF93CDB7DEB7F2
:101BA000C652D1400FB6F894DEBF0FBECDBFC85E9F
:101BB000DE4F99838883C851D140C65EDE4F79835A
:101BC0006883CA51D140DC018D919C91119780505E
:101BD000904F8D939C930E94EA24C25FDE4F9983BD
:101BE0008883CE50D1400E94D524C45FDE4F9983B4
:101BF0008883CC50D140C25FDE4FE881F981CE505E
:101C0000D140E03FF1052CF42EE431E086E491E090
:101C100004C027EA30E083EA90E0C65EDE4F6881C8
:101C20007981CA51D140269FA001279F500D369F30
:101C3000500D1124CA5FDE4F59834883C650D140EE
:101C4000869FD001879FB00D969FB00D1124CC5F69
:101C5000DE4FB983A883C450D1400E94D82481E0CC
:101C600090E89A838983C85EDE4FE881F981C85184
:101C7000D1407396CC5EDE4FF983E883C451D140E6
:101C8000CE5EDE4F19821882C251D1409E01295F7B
:101C90003F4FCB5DDE4F39832883C552D140C65EAE
:101CA000DE4F3881CA51D140C25EDE4F3883CE51FB
:101CB000D140432F50E0C15EDE4F59834883CF515E
:101CC000D140C45FDE4F68817981CC50D1408827F4
:101CD00077FD8095982FCF5DDE4F688379838A8367
:101CE0009B83C152D14086C280E090EA9C838B8363
:101CF00029813A81442737FD4095542FCA01B90103
:101D00000E948635BC01992777FD9095892F7B012C
:101D1000C85EDE4FA881B981C851D14012968C911E
:101D20008130A1F480E090E0CE5EDE4F6881798161
:101D3000C251D14040EF50E0C65EDE4F288139816C
:101D4000CA51D1400FEF1FEF0E94ED24C05FDE4F5C
:101D500019821882C051D140E0EBF2E5EE19FF097B
:101D6000C45EDE4FF983E883CC51D140D6C12B81CC
:101D70003C81CA5EDE4F39832883C651D140B90108
:101D80009B01442737FD4095542FCA01B9010E9499
:101D90008635BC01992777FD9095892FC45EDE4F6B
:101DA00088819981CC51D140861B970B9E838D836E
:101DB000C85EDE4FA881B981C851D1408D919C91F8
:101DC00098878F839C01205030453A87298780501F
:101DD000904A9C878B87B7E0C65FDE4FB883CA50B6
:101DE000D14060E0C55FDE4F1882CB50D140CD5F5F
:101DF000DE4F1882C350D14048C120813181042E6A
:101E000002C0359527950A94E2F7662319F03095BC
:101E100021953F4F8D919C911197820F931F8D9328
:101E20009D933296CB5DDE4F28813981C552D140DA
:101E3000E217F30711F76F817885C85FDE4F79836A
:101E40006883C850D140CB0177FF03C0909581953E
:101E50009F4F7C010027F7FC0095102F69857A853C
:101E6000CB0177FF04C088279927861B970B3C017D
:101E7000882477FC8094982CEB85FC85CF01F7FFB4
:101E800004C0882799278E1B9F0B5C01CC24B7FCCC
:101E9000C094DC2C440F551FC85EDE4F88819981A9
:101EA000C851D140480F591FDA0113968D919C916A
:101EB00014971C0144245524D801C7018A199B0991
:101EC000AC09BD09B7FF07C0B095A0959095819565
:101ED0009F4FAF4FBF4FA40193012E193F09400BF5
:101EE000510B57FF07C050954095309521953F4FB6
:101EF0004F4F5F4F820F931FA41FB51F8050904319
:101F0000A040B040A6019501261937094809590992
:101F100057FF07C050954095309521953F4F4F4F43
:101F20005F4F820F931FA41FB51F82159305A40551
:101F3000B5059CF4C85FDE4F28813981C850D14077
:101F4000622773276E277F27672F6095661F662796
:101F5000661F33E0361B632F17C0E60CF71C081D05
:101F6000191D40E050EA6FEF7FEFE40EF51E061FEB
:101F7000171FEA0CFB1C0C1D1D1DE214F3040405C5
:101F800015050CF056C061E0C65FDE4F5881CA509F
:101F9000D1405F5FC65FDE4F5883CA50D140C55FF6
:101FA000DE4F7881CB50D140E72FF0E0252F30E095
:101FB00040E050E0CF0173E0959587957A95E1F781
:101FC000A8E0B0E0A81BB90BCD01AA2797FDA0950A
:101FD000BA2F281739074A075B07FCF0C65FDE4FA8
:101FE000B881CA50D1402B2F30E02E1B3F0B215E11
:101FF0003F4F37FF03C020E030E005C020323105FD
:1020000014F02FE130E0862F90E045E0880F991F13
:102010004A95E1F7822B932B46C0C55FDE4FE881DE
:10202000CB50D140E150C55FDE4FE883CB50D1406B
:102030001AC0CD5FDE4FF881C350D140FF2391F429
:10204000C65FDE4F2881CA50D140223058F0C65FAB
:10205000DE4F3881CA50D1403150C65FDE4F3883E1
:10206000CA50D14060E0C55FDE4F4881CB50D140BF
:102070004F5FC55FDE4F4883CB50D140443688F474
:10208000CD5FDE4F6883C350D140FE013196DE0143
:102090001796C65FDE4F7881CA50D140472F50E077
:1020A000ACCE80E090E0982FE3E1F0E0EC0FFD1F74
:1020B000C05FDE4FA881B981C051D140EA0FFB1F3C
:1020C000C25EDE4F8881CE51D14001C091938150D4
:1020D000E8F7C05FDE4FE881F981C051D140C15EB1
:1020E000DE4F28813981CF51D140E20FF31FC05F0D
:1020F000DE4FF983E883C051D140CC5FDE4F488189
:102100005981C450D140CA5EDE4F68817981C65181
:10211000D140460F571F5C834B83C05FDE4F8881E1
:102120009981C051D140C45FDE4FA881B981CC50A4
:10213000D1408A179B070CF41ACEC25EDE4F18817D
:10214000CE51D14013C0CE014396CC5EDE4F6881A4
:102150007981C451D140CF5DDE4F288139814A81D8
:102160005B81C152D1400E94D2241150112359F7F2
:1021700089819A81CA5FDE4FE881F981C650D140DA
:102180008E0F9F1F9A838983CE5EDE4F888199814F
:10219000C251D140C65EDE4F68817981CA51D140BB
:1021A0000E94C53567707070672B81F48E01035FE4
:1021B0001F4FC8010E94752D882341F0C8010E945D
:1021C000752D8823D9F72FEF3FEF26C0CE5EDE4F67
:1021D00028813981C251D140C65EDE4F4881598184
:1021E000CA51D140240F351FCE5EDE4F398328837C
:1021F000C251D140CE5EDE4F68817981C251D1405B
:10220000C25FDE4F88819981CE50D140681779072F
:102210000CF46ACD20E030E0C901CA5DDE4F0FB694
:10222000F894DEBF0FBECDBFCF91DF911F910F910C
:10223000FF90EF90DF90CF90BF90AF909F908F90E6
:102240007F906F905F904F903F902F9008950F93E5
:102250001F93CF93DF93FC01EB010190F081E02D00
:10226000309709F474C0319709F06EC088E692E4A3
:10227000998388838B01FB0120E080E09CE8A0E04B
:10228000B0E094838383B695A795979587952F5F44
:1022900032962830B1F760E070E0CB0195958795D4
:1022A0008F7190709B01F6E035952795FA95E1F7CF
:1022B0002230310571F02330310591F0AC01542FFB
:1022C0004427550F550F550F21303105A9F49A01B8
:1022D0001BC09C01B6E0220F331FBA95E1F714C072
:1022E0009C01322F2227330F330F330FF6E0880F74
:1022F000991FFA95E1F708C09C01E6E0220F331F11
:10230000EA95E1F7242B352B282B392B832F99279E
:1023100087FD9A95F801838B248B6E5F7F4F0E5F4C
:102320001F4FF1E060307F0709F0B7CF80E18A836B
:1023300080E090E060E070E040EF50E020E431E0C9
:1023400000E018E70E94ED2420E030E00EC08A8112
:10235000823020F090E0959587958A836A81CE013E
:1023600070E041E050E008DC9C01C901DF91CF91B1
:102370001F910F910895CF93DF93EB01888199818D
:10238000489760E170E00E94C535FB016C30710533
:1023900050F48A819B81489760E170E00E94C535C6
:1023A0006F30710518F04FEF5FEF0BC0AB01440FBA
:1023B000551F460F571F440F551F440F551F4E0FF3
:1023C0005F1FCA01DF91CF91089585E191E06CE034
:1023D00071E044E154E12BEC30E00C94D4294F92AD
:1023E0005F926F927F928F929F92AF92BF92CF92A5
:1023F000DF92EF92FF920F931F93DF93CF930F9291
:10240000CDB7DEB73C01FB01CB016CE070E00E9470
:10241000C5359C01CF016CE070E00E94C535DB0141
:10242000E60DF71D808190E0F0E24F2E512C4822FE
:10243000592285FD05C0AA24BB240CE112EF4AC035
:1024400086FF04C0AA24AA94BA2C42C08B01015072
:10245000104049010894810891082D503040CB016B
:10246000880F991F860F971F880F991F880F991F34
:10247000820F931F235F3F4FAA24BB2462E0C62E26
:10248000D12CCA0EDB1E52E0E52EF12CE20EF31E1B
:102490001CC0F301E80FF91FB40111C06C307105C5
:1024A00028F40F30110510F4508101C050E056FFA0
:1024B00003C00894A11CB11C6F5F7F4F31966E154D
:1024C0007F0561F70F5F1F4F0C960C151D0509F76F
:1024D00000EE1FEF442311F000E018EF690134E033
:1024E000CC0CDD1C3A95E1F77D0124E0EE0CFF1CDD
:1024F0002A95E1F7B701665E7F4FC6014A964CE028
:1025000050E02CE030E00E94ED24452861F18FEF8F
:10251000A8168FEFB80679F480E290E0E80EF91E75
:10252000C6018096B70144E050E020E038EF01E0BA
:102530000E94992518C0A114B104A9F08A2D805DCC
:1025400089838EE190E0C80ED91E8BE190E0E80E01
:10255000F91ECE01019661E070E0A601970102E349
:1025600011E20E9453230F90CF91DF911F910F91A1
:10257000FF90EF90DF90CF90BF90AF909F908F90A3
:102580007F906F905F904F900895EF92FF920F931E
:102590001F93CF93DF93EC01AC014B545F4F84EB5F
:1025A00090E0DA012D913C91821B930BC954DF4FCF
:1025B0009983888322968FEF9FEF99838883C95BE5
:1025C000D04084EBDE011D928A95E9F700E010E02F
:1025D0007A0113C087E00E94D126DC01CB0164EBB5
:1025E00070E00E94B135FE01E80FF91F808186FD81
:1025F00004C0806480830F5F1F4FF7018081918149
:10260000081719073CF38FEF9FEF0E94B22614EBD7
:102610001150CE01612F70E040E0E1DE1123C1F7DF
:102620000E94372ABC01CE0185549F4F0E9470043E
:10263000CC54DF4F1882DF91CF911F910F91FF9003
:10264000EF9008954F925F926F927F928F929F9238
:10265000AF92BF92CF92DF92EF92FF920F931F93B0
:10266000CF93DF93EC018B016A016C30710508F0A8
:10267000CAC04F30510508F0C6C07A01EE0CFF1CED
:10268000E40EF51EEE0CFF1CEE0CFF1CB701600FF4
:10269000711FFC01E60FF71F8081B82E85FDB3C0C6
:1026A00080628083CE0140E09ADEFE01E954FF4F54
:1026B00080819181019791838083892B71F4FE0140
:1026C000EB54FF4F80819181039691838083CE01EB
:1026D00085549F4F66E071E025C0B6FE29C093EB9C
:1026E000E92EF12CEC0EFD1E04EB10E00DC00150A4
:1026F0001040F701808180628083CE01B80140E004
:102700006EDE0894E108F1080115110581F7C9543E
:10271000DF4F19821882C75BD040CE0185549F4F8E
:1027200060E071E00E947004CC54DF4F18826BC0EF
:10273000460108948108910828010894410851082D
:102740000D5010405701A00EB11E035F1F4F340102
:10275000B501A0E0B0E082E0E82EF12CEC0CFD1C0D
:10276000A8014E5F5F4F1BC0FE01E60FF71FC201BD
:102770000EC08C30910530F42FE06216710410F415
:10278000208101C020E026FD119601963196841724
:10279000950779F70894611C711C645F7F4F6E1474
:1027A0007F0411F7AB2B39F12EC07E01EA0CFB1C24
:1027B000820116C00C30110538F48FE088169104A0
:1027C00018F4F701808101C080E086FD04C0CE01CD
:1027D000B801A40137DF0F5F1F4F0894E11CF11C03
:1027E0000C151D0539F70894811C911C8CE090E0B4
:1027F000A80EB91E05C0A2E0CA2ED12CC00ED11E53
:102800008614970491F6DF91CF911F910F91FF905D
:10281000EF90DF90CF90BF90AF909F908F907F9080
:102820006F905F904F900895CF92DF92EF920F9349
:102830001F93CF93DF93FC01EB01A281B381019041
:10284000F081E02DE330F10509F44CC0E430F105EE
:1028500034F43097A9F0319709F0B7C008C0E430DC
:10286000F10509F471C0359709F0AFC084C0CB54AD
:10287000DF4F8FE090E099838883C55BD04044C0F0
:10288000CC54DF4F2881C45BD040203408F09DC079
:10289000822F90E0AE0145545F4F8C01159507954E
:1028A000186F65E0880F991F6A95E1F7807C977033
:1028B000082B192BE0E0222309F4E1E0CA0168E0CB
:1028C00070E048E150E024E430E0EE2ECC24CA94DD
:1028D000DC2C0E945B26FE01EC54FF4F80818F5F51
:1028E000808373C012968D919C9113978054914070
:1028F0001CF02FEF3FEF6BC0C954DF4F88819981E7
:10290000C75BD040892B19F4CE013FDE5EC0CE01FB
:10291000BD0131DDBC01DE01A754BF4F11969C9370
:102920008E938FEF6F3F780709F44FC0FE01E60FDB
:10293000F71F808185FF05C08FEF9FEF8D939C93DC
:1029400044C0CE0141E015C08B0107541F4FF80170
:10295000808191818F5F9F4FC1F1CB01BD010BDD64
:10296000F8016081718140E08617970709F441E022
:10297000CE0135DD2AC049EBC42ED12CC60ED71EA0
:10298000F60100811181FFEF0F3F1F07F1F0CB012E
:10299000BD01F1DC0817190791F4F601208131819E
:1029A000C9016CE070E00E94C535FC01C9016CE012
:1029B00070E00E94C535AB01CE01BF0143DEC754B4
:1029C000DF4F8FEF9FEF9983888320E030E0C901CC
:1029D000DF91CF911F910F91EF90DF90CF900895ED
:1029E00086E191E062E171E04FE355E128E130E0FA
:1029F0000C94D4290F931F93CF93DF93EC01162FE0
:102A0000662311F01D821C822C813D81C901019633
:102A10009D838C83009719F42FEF3FEF0BC08F5FDE
:102A20009F4F19F420EE37E005C0322F2227330FD5
:102A3000330F330F6885798501E001278E819F81EF
:102A400048E050E00E949925112381F48C819D81FA
:102A50008F5F9F4F59F0688579858E819F8142E015
:102A600050E02FEF3FEF01E00E94992584E190E0D4
:102A70000E942D27DF91CF911F910F9108956F92A2
:102A80007F928F929F92AF92BF92CF92DF92EF92FE
:102A9000FF920F931F93DF93CF93CDB7DEB7E497E9
:102AA0000FB6F894DEBF0FBECDBF6C015B01DC0139
:102AB0008D919C918130910571F0823091051CF4CB
:102AC000892B49F1D3C18330910509F47EC0049765
:102AD00009F0CCC161C0FB01118210821382128205
:102AE0001582148288E190E09783868380E290E0EB
:102AF000918780878FEF9FEF0E94B226D5018D913D
:102B00009C911197019611969C938E9357961C92C7
:102B10001E925697ABC1FB01068917890034110537
:102B2000BCF50E94372ABC0125E1C22ED12CCC0E67
:102B3000DD1EC60140E250E00E947704F801F595E1
:102B4000E795F86F85E0000F111F8A95E1F7007C8B
:102B50001770E02BF12BEE24D50156968D919C91A8
:102B60005797892B11F4EE24E394C60169E070E0D5
:102B700040E150E024E430E08F01CC24CA94DC2C06
:102B80000E945B26F501868997890196978B868B33
:102B9000C50160E02FDF6AC1DB0112968D919C9127
:102BA0001397039709F062C1D6011296ED91FC913B
:102BB0001397628173818081918142E050E020E02F
:102BC00038EF01E00E94992551C1CE0107960E947D
:102BD0006C2DF50182819381039779F08EEF9FEF41
:102BE00095838483C50160E005DF8E010F5F1F4F71
:102BF000C8010E94752D8823D9F78FEF9FEFD5016B
:102C000015969C938E931497C50160E0F3DEC50181
:102C100061E0F0DEF501828193818130910539F127
:102C2000823091051CF4892B41F016C18230910548
:102C300081F1039709F010C1E3C08F819885D50118
:102C40001B969C938E931A9789859A851D969C93C3
:102C50008E931C9788ED90E017969C938E93169711
:102C600080EA90E019969C938E931897F5C08F8117
:102C70009885F501938B828B89859A8597878687BE
:102C800088E790E09783868380E291E09187808750
:102C9000E3C08F819885D50151969C938E93509770
:102CA00049855A8555965C934E93549780EA90E0F7
:102CB00019969C938E93189752966D917C91539789
:102CC0001A96CD90DC901B9714E0E12EF12CE60EC5
:102CD000F71EEC18FD08F3E0F594E794FA95E1F798
:102CE0001C962D913C911D97CA010496821B930B53
:102CF000E3E095958795EA95E1F7CE18DF08DE8643
:102D0000CD863901681A790A788A6F86E60EF71E31
:102D1000FA8AE98A4C01840E951E9C8A8B8A509609
:102D20006D917C9151976C197D09882777FD80956D
:102D3000982F20EF30E040E050E00E948635EC18FC
:102D4000FD080027F7FC0095102FA80197010E94AD
:102D5000FA35F50146855785283731053CF488E773
:102D600090E0821B930B049764F503C02C37310568
:102D700044F546195709BA01882777FD8095982FA1
:102D800020E431E040E050E00E9486358618970844
:102D90009401442737FD4095542F0E94FA35203A7C
:102DA00031053CF480EA90E0821B930B04974CF4CD
:102DB00003C0243A31052CF4CE010D960E94692FF0
:102DC0004BC0D5018D919C9106970CF042C0F50146
:102DD000138212821582148288E190E097838683A1
:102DE00080E290E0918780878FEF9FEF0E94B2266C
:102DF000D5018D919C91119701968D939C9336C02E
:102E0000D6011296ED91FC911397D50116964D912E
:102E10005C91179780819181481B590B18968D9171
:102E20009C91199722813381821B930BFC01EE9FA9
:102E3000C001EF9F900DFE9F900D1124449F9001C3
:102E4000459F300D549F300D1124820F931F85979D
:102E50006CF42FEF3FEF0CC0D50112968D919C9131
:102E60001397019613969C938E93129720E030E06F
:102E7000C901E4960FB6F894DEBF0FBECDBFCF9167
:102E8000DF911F910F91FF90EF90DF90CF90BF9057
:102E9000AF909F908F907F906F90089587E191E021
:102EA0006CE171E048E557E121E030E00C94D42971
:102EB0000E947735882319F02FEF3FEF04C00E945E
:102EC000992B20E030E0C901089588E191E062E3A8
:102ED00071E04BE759E129E531E00C94D429AF9238
:102EE000BF92DF92EF92FF920F931F93DF93CF93E6
:102EF000CDB7DEB7C052D2400FB6F894DEBF0FBEDA
:102F0000CDBF8C01FC0111821082DD24D3945E01BF
:102F10000894A11CB11C1AC0C701B50140E250E0E1
:102F20000E946A2AC50160E271E00E946704892B51
:102F300061F0F80180819181E80FF91FD086019638
:102F4000F80191838083409741F0D394ED2CFF24C6
:102F50000E94322AE816F906FCF2F8011382128266
:102F600085EE97E1BE016F5D7F4FA8017ED48FEFA4
:102F70009FEF0E94B226F801F2808081F80E09C00E
:102F8000FA9486E00E94D126F801EF0DF11D6F73CF
:102F9000608FFF20A9F78FEF9FEFF801958384835F
:102FA000085A1E4FF8011082C05EDD4F0FB6F8942C
:102FB000DEBF0FBECDBFCF91DF911F910F91FF906C
:102FC000EF90DF90BF90AF900895CF93DF93BC0157
:102FD000EA018A819B818031910511F481E00FC063
:102FE00024E0880F991F2A95E1F7C896840F951F52
:102FF00010D58A819B8101969B838A8380E0DF9133
:10300000CF910895DF92EF92FF920F931F93DF937A
:10301000CF93CDB7DEB7C052D2400FB6F894DEBF23
:103020000FBECDBF8B01DB018C918C3609F040C007
:1030300011968C911197833681F512968C91843676
:1030400009F04BC000E010E035E2E32E31E0F32E52
:10305000C8010E94CD300097D1F000D000D000D040
:10306000EDB7FEB73196ADB7BEB71296FC92EE92B1
:10307000119713830283958384830E942F05EDB7F4
:10308000FEB736960FB6F894FEBF0FBEEDBF0F5FCA
:103090001F4F09391105E1F650C08337F1F48EEE68
:1030A0009AE1BE016F5D7F4F40E050E0DED345C046
:1030B000803799F4DB0112968C911297882369F47A
:1030C00011969C91892F8053823038F480E091339F
:1030D00009F481E00E948F2B30C00E94322AD82E42
:1030E0007E010894E11CF11C1EC0DA948D2D90E045
:1030F000B70140E250E00E946A2AF70101900020E7
:10310000E9F73197EE19FF09C701B801AF010E9435
:103110009A04009741F48FEF9FEF0E94B226C701F7
:103120000E94632A0AC0DD2001F760910A057091B0
:103130000B058FE390E00E94EF04C05EDD4F0FB6F9
:10314000F894DEBF0FBECDBFCF91DF911F910F91DD
:10315000FF90EF90DF9008956F927F928F929F92F1
:10316000AF92BF92CF92DF92EF92FF920F931F9395
:10317000DF93CF93CDB7DEB760970FB6F894DEBF7D
:103180000FBECDBFDC01E62E8A015901E62FF0E02B
:103190008D919C911197BE016F5F7F4FE817F907E2
:1031A0004CF4EA0FFB1F808590E040E150E00E9464
:1031B0006A2A0EC0E81BF90B84E0EE0FFF1F8A9508
:1031C000E1F7F896EA0FFB1FCB01BF010E949304C1
:1031D000012B31F0612C68EF762EA0E0B8EF20C013
:1031E0008981A82FBB27A7FDB09520E0AE014F5FD6
:1031F0005F4F0EC0992787FD9095BC016A9FC00163
:103200006B9F900D7A9F900D1124A827B9272F5FEF
:10321000FA01E20FF11D8081882361F7662477248B
:103220008E2D63E00E94A53540E5949F9001112406
:1032300058E2C52ED12CC20ED31E8E2D0E94A5356C
:10324000849FB001112448E2842E912C860E971E93
:10325000695D7F4FC9018796A5019D0101E00E942C
:10326000992574E1A716B10489F55E010894A11CA3
:10327000B11CF50101900020E9F77F010894E108F5
:10328000F108EA18FB08C501B7010E94302362E08B
:1032900070E00E94C535C61AD70A6AE170E0860E52
:1032A000971EC501B701A601940108E116EC0E9422
:1032B00053230894C108D108089481089108C501D6
:1032C000B701A601940183010E94532360960FB6B3
:1032D000F894DEBF0FBECDBFCF91DF911F910F914C
:1032E000FF90EF90DF90CF90BF90AF909F908F9026
:1032F0007F906F900895BF92CF92DF92EF92FF92EE
:103300000F931F93DF93CF93CDB7DEB7A0970FB680
:10331000F894DEBF0FBECDBFFC017B01808191819F
:103320008330910509F488C08430910534F4009706
:1033300079F0019709F03FC108C08430910509F484
:10334000AFC0059709F037C1E3C0CB01C8DD33C179
:10335000DB0112961C9112978C91180F15C0115019
:10336000F701E10FF11D808D8F3371F08F5F808F3A
:10337000282F30E02B523040121613062CF4C701D0
:10338000612F40E050E0E8DE112349F70E94F2335C
:1033900097FD11C1382F8D3031F0F701E85AFE4FFB
:1033A0008F37A1F52CC0D701A85ABE4F8C91882326
:1033B00009F401C1F701E80FF11DE85CFE4F10822E
:1033C0001C9260910A0570910B058AE090E00E94C2
:1033D000EF04C701E8E3F1E0EE0EFF1EB70112DED5
:1033E00060910A0570910B058AE090E00E94EF045D
:1033F00060910A0570910B058EE390E01AC0808100
:10340000882309F4D8C081508083D5C020812F3112
:1034100050F4E20EF11C48E351E0E40EF51ED70132
:103420008C932F5F208360910A0570910B05832F89
:1034300090E00E94EF04BFC00280F381E02D828102
:10344000938160E570E00E94C5358B01000F111F6C
:10345000060F171F8081918160E570E00E94C535DD
:10346000060F171F17FDA7C0F701808191812281E8
:103470003381820F931F081719070CF09CC0C701F6
:10348000602F41E050E024E130E066DED701159680
:103490001C930E93149717961C930E9316978BC03C
:1034A0000280F381E02DC080D18082819381FB0175
:1034B00024813581FFEF2F3F3F0709F47CC060E591
:1034C00070E00E94C5358B01000F111F060F171FFA
:1034D000C60160E570E00E94C535060F171FD701D1
:1034E00016968D919C9117970817190709F463C0D8
:1034F00040E050E00217130711F441E050E0C7012B
:10350000622F24E130E028DEF7011783068353C0E1
:10351000DB011496CD90DC901597BFEFCB16BFEF73
:10352000DB0609F448C0FB0186819781C816D906DD
:10353000D9F504E110E0BC2CC7016B2D40E050E050
:1035400098010ADE000F111F0F3F1105A9F3A4F324
:103550008FEF9FEF0E94B226D7012D913C91C216AA
:10356000D3068CF4EC0CFD1CF701808590E08E01F5
:103570000F5F1F4FB80140E250E00E946A2AC80165
:103580000E94632A0EC08B2D90E0821B930B24E0D7
:10359000880F991F2A95E1F7C8968E0D9F1D0E94EE
:1035A000462A2FEF3FEF09C08FEF9FEFDB01159603
:1035B0009C938E93149720E030E0C901A0960FB63B
:1035C000F894DEBF0FBECDBFCF91DF911F910F9159
:1035D000FF90EF90DF90CF90BF900895DF93CF934F
:1035E000CDB7DEB760970FB6F894DEBF0FBECDBF84
:1035F000BC01CE0101960DD200D0EDB7FEB792838B
:1036000081830E941B050F900F9060910A057091B5
:103610000B058AE090E00E94EF0480E060960FB610
:10362000F894DEBF0FBECDBFCF91DF91089589E141
:1036300091E068E371E041E25BE124E432E00C9464
:10364000D429AF92BF92CF92DF92EF92FF920F9365
:103650001F93DF93CF93CDB7DEB768970FB6F8947B
:10366000DEBF0FBECDBF7C018B01A4E3AA2EA2E07A
:10367000BA2EA60EB71EC501B7010E947F29D70139
:103680008D919C918130910521F0039709F08BC0B9
:103690007DC08FEF9FEF0E94B226F701E280F3809A
:1036A000F2E1CF2ED12CC00ED11EC60121D5C6010C
:1036B000B70133D6C801B7010E9493040E5B1D4FBA
:1036C00080E491E0D8018D939C930254124003C092
:1036D0000894E11CF11CF7018081882311F08E32DF
:1036E000B9F7D80151961C921E925097F70180812C
:1036F0008E3209F58181893469F482818D34D9F45F
:1037000083818233C1F481E090E051969C938E9343
:10371000509711C0823479F4D70112968C91129788
:103720008C3449F413968C91823429F482E090E031
:10373000F801918B808BD80150968D919C91519777
:10374000019779F4C601BE016F5F7F4F48E150E0F9
:103750007BD5892B31F08981893619F48C818233AC
:10376000B1F10E5B1D4FF8014081518102541240AE
:10377000662757FD6095762FC50121EF3BE1E0E418
:10378000EE2EE1E0FE2E0E94FD270DC0D70112961D
:10379000ED91FC91139782819381805491401CF0AC
:1037A0002FEF3FEF02C020E030E0C90168960FB66E
:1037B000F894DEBF0FBECDBFCF91DF911F910F9167
:1037C000FF90EF90DF90CF90BF90AF9008950E5B89
:1037D0001D4F8D859E85F801918380830254124090
:1037E000C0CF8F929F92AF92BF92CF92DF92EF9213
:1037F000FF920F931F93CF93DF936B017C015A01CC
:103800004901E80188899989019781F40E5E1F4F6B
:10381000C80140E050E060E070E09FD4C80160E083
:1038200070E0A501960184018FD712C080E090E07E
:10383000BA0140EF50E00FEF1FEF0E94ED24CE01E0
:103840006AE070E04AE050E020E030E00E94B124FD
:10385000DF91CF911F910F91FF90EF90DF90CF906C
:10386000BF90AF909F908F9008958F929F92AF924C
:10387000BF92CF92DF92EF92FF920F931F93CF935D
:10388000DF934C01EB015A0180911A01882309F45E
:103890005FC08AE191E060E070E0F401099588235F
:1038A00009F456C00FEF1FE745C0A70160E070E0C4
:1038B00080913A0190913B01A0913C01B0913D0172
:1038C000480F591F6A1F7B1FE0915401F091550169
:1038D00080915201909153010995882349F5C09137
:1038E0005201D0915301C12C82E0D82ECC0EDD1EA6
:1038F00011C088818823E1F0853E59F08B8588715D
:1039000041F48701CE01B701A501F401099588238F
:1039100089F4A096CC15DD0561F70894E11CF11C33
:1039200080913E0190913F01E816F90608F4BDCF61
:103930000FEF1FEFC801DF91CF911F910F91FF9003
:10394000EF90DF90CF90BF90AF909F908F900895B1
:10395000D0935301C0935201EE24FF24E1CFAC0178
:10396000DB012BE080E22150FA01E20FF11D8083A0
:103970002223C9F790E002C028E091E03D91332373
:1039800091F0832F81568A3108F430523E32A1F3F0
:10399000283010F0992329F0FA01E20FF11D30834D
:1039A0002F5F2B3058F30895CF92DF92EF92FF9262
:1039B0000F931F93DF93CF93CDB7DEB72D970FB63D
:1039C000F894DEBF0FBECDBF9C016B017A018E0162
:1039D0000F5F1F4FC801B901C2DFFD86EC8685E588
:1039E00090E2B601A80141DF20E08F5F9F4F09F010
:1039F00021E0822F2D960FB6F894DEBF0FBECDBF0B
:103A0000CF91DF911F910F91FF90EF90DF90CF90BA
:103A10000895CF93DF93AC01EB01DC0180E090E0EF
:103A2000FE01E80FF91FE081E03229F0ED930196E5
:103A300088309105A9F78885803271F08EE28D93E8
:103A40008885803249F08D938985803229F08D9365
:103A50006A85603209F06D931C92CA01DF91CF91A3
:103A600008958F929F92AF92BF92CF92DF92EF9282
:103A7000FF920F931F93CF93DF934C017A018B0139
:103A8000E90180914001909141015C01CC24DD2449
:103A9000288539854A855B85C601B5010E94863532
:103AA000E616F7060807190718F4E0E0F0E029C069
:103AB000E61AF70A080B190B288939894A895B89A4
:103AC000C601B5010E948635E616F70608071907F4
:103AD00018F4E1E0F0E015C0E61AF70A080B190B3C
:103AE000288D398D4A8D5B8DC601B5010E948635C2
:103AF000E616F7060807190710F080E02CC0E2E090
:103B0000F0E080914A0190914B01A0914C01B0915D
:103B10004D01E80EF91E0A1F1B1F23E0EE0FFF1FC9
:103B20002A95E1F7EC0FFD1F2481358146815781ED
:103B30002250304040405040C601B5010E948635B9
:103B4000E60EF71E081F191FC401B801A7010E9445
:103B50009233811181E0DF91CF911F910F91FF90FE
:103B6000EF90DF90CF90BF90AF909F908F9008958F
:103B7000DF92EF92FF920F931F93FC017A018B016A
:103B8000DD2480914E0190914F01A0915001B091A0
:103B900051010097A105B10529F0DD24D39447E038
:103BA00050E002C048E050E0D801C70104C0B6951B
:103BB000A795979587954A95D2F7AC01BD0180915D
:103BC000420190914301A0914401B0914501480FF9
:103BD000591F6A1F7B1F80819181A281B381481781
:103BE00059076A077B0751F04083518362837383CF
:103BF00080915201909153010E949233E0915201C1
:103C0000F0915301DD2071F0C7018F779070880F1C
:103C1000991F880F991FE80FF91F20813181428178
:103C200053810BC0C7019070880F991FE80FF91FCF
:103C3000808191819C0140E050E0B901CA011F914F
:103C40000F91FF90EF90DF9008956F927F928F9287
:103C50009F92AF92BF92DF92EF92FF920F931F93CA
:103C6000DF93CF9300D000D0CDB7DEB75C014B011E
:103C700019821A821B821C82FC01E080F180028181
:103C80001381DD243E010894611C711C0894810895
:103C90009108C301B801A7016BDF9B01AC01089437
:103CA000E11CF11C011D111D6E157F058007910798
:103CB00091F18D2D90E08815990509F451C08091FE
:103CC0004E0190914F01A0915001B0915101009788
:103CD000A105B10529F48FEF9FEFA0E0B0E004C08B
:103CE0008FEF9FEFAFEFBFE0281739074A075B0759
:103CF000B9F1D394ED2DF0E073E0EE0FFF1F7A954C
:103D0000E1F7EA0DFB1D2083318342835383148244
:103D1000158216821782ED2DF0E063E0EE0FFF1F93
:103D20006A95E1F7EA0DFB1D84819581A681B78133
:103D30000196A11DB11D84839583A683B783790164
:103D40008A01A7CFD394ED2DF0E053E0EE0FFF1FD3
:103D50005A95E1F7EA0DFB1D10821182128213823F
:103D60008D2D90E0881599056CF30F900F900F90B2
:103D70000F90CF91DF911F910F91FF90EF90DF9007
:103D8000BF90AF909F908F907F906F900895CF924B
:103D9000DF92EF92FF920F931F93DF93CF93CDB7F4
:103DA000DEB7A0970FB6F894DEBF0FBECDBF6B0194
:103DB0005093530140935201BA01AE014F5F5F4FE0
:103DC000F3DD8823D1F1ED8CFE8C0F8D18A1F60167
:103DD000E082F182028313838D899E89A0E0B0E0A6
:103DE000DC01992788272B8D3C8D40E050E0822B09
:103DF000932BA42BB52B84839583A683B78381E073
:103E000090E0A0E0B0E080879187A287B387148616
:103E100015861686178620914001922F990F80E013
:103E2000A0E0B0E08E159F05A007B10728F4C601F9
:103E3000049663E070E009DF81E0A0960FB6F89485
:103E4000DEBF0FBECDBFCF91DF911F910F91FF90CD
:103E5000EF90DF90CF9008958F929F92AF92BF9294
:103E6000CF92DF92EF92FF920F931F93DF93CF9346
:103E7000CDB7DEB728970FB6F894DEBF0FBECDBF23
:103E80008C01FB0190935301809352017093550173
:103E90006093540140E050E060E070E009958823B1
:103EA00009F0EFC00E531E4FF80190810C5F1F4FB9
:103EB000F801A080B180C280D380065C11409D30A3
:103EC00028F49B3060F4992339F004C0892F8E5078
:103ED000823028F0973018F0AA24BB246501E091C5
:103EE0005401F09155018091520190915301B60116
:103EF000A5010995882309F0C4C0F801838594853C
:103F00008050924009F0BDC0F80185858093400142
:103F1000109241012685378560898188928886893B
:103F20009789A0E0B0E08093460190934701A09369
:103F30004801B09349010097A105B105C9F484A1D6
:103F400095A1A6A1B7A18093460190934701A093A4
:103F50004801B093490184A595A5A6A5B7A580936E
:103F60004E0190934F01A0935001B093510108C0AE
:103F700010924E0110924F01109250011092510177
:103F8000790100E010E0EA0CFB1C0C1D1D1DE09205
:103F90004201F0924301009344011093450170E007
:103FA00080E090E020914601309147014091480126
:103FB000509149010E9486356E0D7F1D801F911F13
:103FC00060933A0170933B0180933C0190933D01D3
:103FD000940144E0369527954A95E1F730933F01E7
:103FE00020933E0140E050E0620F731F841F951F35
:103FF00060934A0170934B0180934C0190934D0163
:1040000080914E0190914F01A0915001B0915101CA
:104010000097A105B10529F182E090E0A0E0B0E0B1
:1040200089839A83AB83BC8381E090E0A0E0B0E019
:104030008D839E83AF83B887CE01019661E070E0E7
:1040400004DE609140017091410180E090E02D819B
:104050003E814F8158850E94863570933F01609361
:104060003E0180914E0190914F01A0915001B0917D
:1040700051010097A105B10511F480E103C080E270
:1040800001C080E028960FB6F894DEBF0FBECDBF0A
:10409000CF91DF911F910F91FF90EF90DF90CF9024
:1040A000BF90AF909F908F9008950F931F93CF93E1
:1040B000DF93182F092FEA01BA014BE050E00E946C
:1040C0008604009711F080E00EC02B853C85C90165
:1040D000DC01212F302FC901FC0180E201900D92FB
:1040E0008150E1F781E0DF91CF911F910F91089509
:1040F000FC01EC5FFD4F80E092E081939193108290
:10410000118212821382E650F2408FEF9FEFAFEFE1
:10411000BFEF80839183A283B3830895CF93DF930E
:10412000EC01CC5FDD4F19821882C450D2408881E7
:104130009981AA81BB8184179507A607B70751F01B
:10414000FE014193519361937193CA5FDD4FCF019B
:104150009E0187DCDF91CF910895CF92DF92EF929D
:10416000FF920F931F938C016A017B01E9E0759523
:10417000679557954795EA95D1F7D0DF0C5F1D4FAE
:104180008FEF91E0C822D922F801D182C0821F911D
:104190000F91FF90EF90DF90CF9008950F931F93B2
:1041A000CF93DF93EC018B01CC5FDD4F8881998148
:1041B000C450D2408050924051F4488159816A8164
:1041C0007B814F5F5F4F6F4F7F4FCE01A7DFFE01B7
:1041D000EC5FFD4F80E092E020813181821B930BE8
:1041E000D8018D939C93208131812C5F3F4F2C0F00
:1041F0003D1FC901DF91CF911F910F910895CF937A
:10420000DF93EC01CC5FDD4F88819981C450D240AF
:104210008050924051F4488159816A817B814F5F7F
:104220005F4F6F4F7F4FCE0179DFFE01EC5FFD4F97
:1042300020813181C20FD31F8C812F5F3F4F31838B
:104240002083DF91CF910895CF92DF92EF92FF927A
:104250000F931F93CF93DF936C017B018A01C0E022
:10426000D0E007C0C601CBDFF701EC0FFD1F808354
:104270002196C017D107B4F3C801DF91CF911F91E8
:104280000F91FF90EF90DF90CF9008950F931F93C1
:10429000CF93DF93EC019B01FC01EC5FFD4F80812C
:1042A0009181860F971F9183808342E0813094072C
:1042B0001CF18C01061B170B11830083A9016627D3
:1042C00057FD6095762F88819981AA81BB81F9E09D
:1042D000880F991FAA1FBB1FFA95D1F7480F591FC6
:1042E0006A1F7B1F222717FD2095322F400F511F79
:1042F000621F731FCE0131DFCC5FDD4F8881998152
:104300008150924028F080E090E060E770E0AFD507
:10431000DF91CF911F910F910895CF93DF93EC011F
:10432000CB01BE016A5F7D4FAE014C5F5F4F2FDD59
:10433000882339F0CE0140E050E060E070E0EEDE2E
:1043400081E0DF91CF9108952F923F924F925F923B
:104350006F927F928F929F92AF92BF92CF92DF9295
:10436000EF92FF920F931F93DF93CF93CDB7DEB7FA
:104370002B970FB6F894DEBF0FBECDBF8E839F8301
:104380007B836A833D832C8318010115110521F479
:10439000EDEE2E2EE4E23E2E4032510561F4EEE3C6
:1043A000F1E0E4912E2F30E035952795359527954E
:1043B0003B872A87DAC020E431E0F9018491481B69
:1043C000510957FDD0C0D9011196FD01849190E0AB
:1043D000481759070CF0C7C0E3C02A853B85249FC6
:1043E000B001259F700D349F700D1124605D7F4FCB
:1043F0003DC04D5F5F4F9A01220F331F4350504025
:10440000F901E35CFE4F7491C901825C9E4FFC018F
:104410006491972F80E0E62FF0E0E82BF92BFB87E3
:10442000EA87452B19F420E030E013C0F901E55C80
:10443000FE4F4491245C3E4FF9012491942F80E07B
:1044400030E0282B392B6A857B85621B730B7B87B9
:104450006A87FD018491682F70E06D5F7F4F54E0A3
:10446000660F771F5A95E1F7620F731FCB018770B4
:10447000907020E830E002C0359527958A95E2F7E4
:10448000422ECB0143E0959587954A95E1F7E2E40A
:10449000F1E0E4913C016E0E711C2A853B85620FB0
:1044A000731F33E0759567953A95E1F760957095C0
:1044B000660E771E552452C04C010894811C911C35
:1044C000835C9E4FFC0144912E813F81C9015C01B8
:1044D000C42ED42CEE24FF242A813B81250D311DCE
:1044E0003987288734C08D2D90E02C2D30E0822331
:1044F0009323892B59F0C5016885798541E050E007
:1045000021E030E00C811D81F10109958D2D90E0B5
:1045100095958795D82E8823A1F4F401E35CFE4F8E
:104520000894811C911C4491442311F0C42E07C0AF
:104530008A859B858E199F09099764F0CC2480E8B1
:10454000D82E0894E11CF11C0894A11CB11C3A85DA
:10455000E31648F2C401860D971D539469815616DF
:1045600008F4AACF02C01B861A868A859B852B96E3
:104570000FB6F894DEBF0FBECDBFCF91DF911F9174
:104580000F91FF90EF90DF90CF90BF90AF909F90F2
:104590008F907F906F905F904F903F902F900895F5
:1045A00023503040F9018491682F70E07B876A873F
:1045B0002F5F3F4FF901F491F983672B09F00DCF7D
:1045C00018CF9C01EDE3F1E08491882319F0482F86
:1045D00050E02CC02032310549F431968491482FA7
:1045E00050E0559547955595479520C03396849151
:1045F0003397281B310937FD17C03496849190E01A
:10460000281739078CF414C0FB01E55CFE4F349188
:10461000645C7E4FFB012491932F80E030E0822B7D
:10462000932B481B590B02C040E050E0CA0108958B
:104630002D5F3F4FB901660F771F23503040FB01BC
:10464000E35CFE4F5491CB01825C9E4FFC01449190
:10465000952F80E050E0482B592B232BA9F6E6CF6D
:10466000EF92FF920F931F93CF93DF937C018B0107
:10467000C0E0D0E00AC0F70181917F01992787FD52
:1046800090959FDF0196C80FD91F01501040FFEF92
:104690000F3F1F0781F7CE01DF91CF911F910F913F
:1046A000FF90EF9008956F927F928F929F92AF92BA
:1046B000BF92CF92DF92EF92FF920F931F93CF930F
:1046C000DF933C014B017A0159016801C0E0D0E061
:1046D00011C0F301EC0FFD1F4081552747FD509598
:1046E000C701B501960100E010E02EDE0196E80E4C
:1046F000F91E2196C815D90564F3C701DF91CF9142
:104700001F910F91FF90EF90DF90CF90BF90AF90EF
:104710009F908F907F906F90089570E06C7F707085
:1047200093E0660F771F9A95E1F790E0887F90708D
:10473000982F8827682B792B46954695469550E00B
:10474000642B752BCB0108952F923F924F925F926D
:104750006F927F928F929F92AF92BF92CF92DF9291
:10476000EF92FF920F931F93DF93CF93CDB7DEB7F6
:104770006E970FB6F894DEBF0FBECDBF5C011B0174
:104780003A01490177E0E72EF12CEC0EFD1EB7014E
:1047900048E150E059DD892B09F4C4C0D701E0E0BD
:1047A000F1E00BC08C9190E0332727FD3095821704
:1047B000930709F0B7C0119631962081222391F713
:1047C000A1C00B891C896B897C898D899E89980180
:1047D000442737FD4095542F6217730784079507C8
:1047E00014F49B01AC017301E20EF31E1A8D112328
:1047F00009F444C0212F30E040E050E061507040A7
:1048000080409040620F731F841F951F0E94FA35ED
:10481000F90131961814190454F5E12FF0E0C401A0
:10482000BF010E94C535621773070CF49B012E9FD0
:10483000C0012F9F900D3E9F900D1124881A990A58
:10484000E81AF90A220F331F220F331FC501B901DD
:104850001DDDC501BE016D5F7F4F44E050E0F4DC1B
:104860004B815C816D817E81C50177DC07C0EE0FD5
:10487000FF1FEE0FFF1FC501BF0108DD670181E4C7
:10488000E81681E0F80624F040E4C42E41E0D42E7E
:104890004F855889960126193709C101B3010E9435
:1048A000AF318F8987FF3EC0A401662757FD609511
:1048B000762F4F5F5F4F6F4F7F4F39E0440F551F8B
:1048C000661F771F3A95D1F7C50147DC4E01089462
:1048D000811C911C72010027F7FC0095102F0EC05F
:1048E000C501B4015BDCB801A7010E94E430C50139
:1048F00060E072E0CBDC0894611C711C6C147D04D8
:104900007CF310C0698D70E0660F771F6D5F7F4F7D
:104910006C7FC501BBDC4F8458880115110509F473
:1049200050CF51CF6E960FB6F894DEBF0FBECDBFFD
:10493000CF91DF911F910F91FF90EF90DF90CF907B
:10494000BF90AF909F908F907F906F905F904F90AF
:104950003F902F9008950C94713108950C94033278
:104960000895CF92DF92EF92FF920F931F937B01F6
:104970006A018901DC010D900020E9F71197A81B5D
:10498000B90BBD01A70196018EDE1F910F91FF901B
:10499000EF90DF90CF9008950C94AE3008950C9472
:1049A000BD3008950C943D3108950C94DE30089587
:1049B0000F931F930E94DE308C010E94E1309C0116
:1049C00080E090E060E070E0A8010E94AF311F91AC
:1049D0000F9108950C94E13008958F929F92AF92B9
:1049E000BF92CF92DF92EF92FF920F931F93CF93DC
:1049F000DF936C015B01EA0179014801C80FD91FFF
:104A0000E60EF71E0E94DE30C817D9071CF00E9480
:104A1000DE30EC010E94E130E816F9061CF00E943D
:104A2000E1307C01C601D7FE02C080E090E08E013B
:104A3000081B190B1016110604F5B501B7FE02C0CC
:104A400060E070E0E701C61BD70B1C161D06ACF436
:104A5000A8019E010E94AF31BE01882777FD809595
:104A6000982F9801442737FD4095542F0E94863592
:104A7000AB01BC01C4010E947131DF91CF911F9144
:104A80000F91FF90EF90DF90CF90BF90AF909F90ED
:104A90008F9008950F931F938A0141E050E021E029
:104AA00030E09BDF1F910F9108956F927F928F925C
:104AB0009F92AF92BF92CF92DF92EF92FF920F93AD
:104AC0001F93CF93DF934C017B016A01E9013A0107
:104AD000680E791E5901A60EB71EC301B501A801C3
:104AE000D9DFC114D10431F0C4018C199D09B5017D
:104AF000A801D0DF209731F0B7016C1B7D0BC301FB
:104B0000A801C8DFEC1AFD0AC4018C199D09B70180
:104B1000A801C0DFDF91CF911F910F91FF90EF901F
:104B2000DF90CF90BF90AF909F908F907F906F90CD
:104B300008952F923F924F925F926F927F928F9241
:104B40009F92AF92BF92CF92DF92EF92FF920F931C
:104B50001F93DF93CF93CDB7DEB727970FB6F894A7
:104B6000DEBF0FBECDBF9A8389837C836B8319011F
:104B70000D8344245524441A550A3A011F821E828B
:104B800069C08D818823D1F1A980BA80EE81FF812F
:104B9000AE1ABF0A4F01880C991C6B817C81661983
:104BA0007709C501A40121E030E0810116DFE98029
:104BB000FA80E618F7086301CC0CDD1C6B817C8160
:104BC0008E819F81681B790BC701A60121E030E02F
:104BD00004DF6B817C81EE81FF816E0F7F1FC70137
:104BE000A60121E030E0F9DE6B817C81660D771D46
:104BF000C501A40121E030E0F0DE16C089819A8170
:104C00006B817C81A3012E813F8181014EDF8E81EA
:104C10009F816816790641F089819A816B817C8138
:104C20004E815F81930141DF2E813F812F5F3F4F96
:104C3000EE81FF814E0E5F1E420E531E57FC08C0D0
:104C4000089461087108C301880F991F481A590A0E
:104C50003F832E838E819F81681679060CF091CF59
:104C600027960FB6F894DEBF0FBECDBFCF91DF9170
:104C70001F910F91FF90EF90DF90CF90BF90AF907A
:104C80009F908F907F906F905F904F903F902F906C
:104C900008950F931F939801660F771F660F771F74
:104CA000880F991F880F991F42E050E001E041DF13
:104CB0001F910F9108954F925F926F927F928F9202
:104CC0009F92AF92BF92CF92DF92EF920F931F937A
:104CD000CF93DF932C014B01EA0159013801EE20FB
:104CE000D1F0CA01880F991F880F991FB501660F6F
:104CF000771F660F771F625070402CE130E0829E74
:104D0000A001839E500D929E500D1124029728E21F
:104D100030E0860162DEEE2410C0E40DF51D408116
:104D2000552747FD5095CE01B501930109E416E2E0
:104D30000BDB0196C80FD91FE394EE2DF0E0E815C8
:104D4000F9055CF3DF91CF911F910F91EF90DF9008
:104D5000CF90BF90AF909F908F907F906F905F901B
:104D60004F900895EF92FF920F931F938C010E9432
:104D7000DE307C010E94E1309C0180E090E060E048
:104D800070E0A7012ADE80E090E00E94BD301F9114
:104D90000F91FF90EF9008950E948D2F92D4B7D37A
:104DA000FECFEF92FF920F931F93682F282F30E0D2
:104DB00040E050E08091050190910601A09107012B
:104DC000B091080175EBE72E75E9F72E7AEA072F07
:104DD00070E2172F12C09C01AD01220F331F441F38
:104DE000551F121613061406150624F02E253F250E
:104DF000402751276150DA01C901662361F780938A
:104E0000050190930601A0930701B0930801B90131
:104E1000CA011F910F91FF90EF900895482F282FFE
:104E200030E0C9018F779070892B19F4E0E0F0E051
:104E300012C0E42FEF7346FF03C08FE38E1BE82FF1
:104E4000F0E0E252F94FE491F0E0319647FF03C001
:104E5000F095E195FF4FCF01089520EA3FE004C0AF
:104E6000F9013197F1F701970097D1F7089500D034
:104E700000D000D0EDB7FEB731962EE137E0ADB7E8
:104E8000BEB712963C932E931197938382837583BA
:104E900064830E942F058DB79EB706960FB6F894CF
:104EA0009EBF0FBE8DBFFFCFCF92DF92EF92FF92DA
:104EB0000F931F93CF93DF936C01EB019A01D601FF
:104EC0008D919C918C0F9D1FB1E080349B07CCF598
:104ED000820F931F18161906A4F5AE0102C04054A4
:104EE0005140E1E040345E07D4F702C0405C5E4FC1
:104EF00057FDFCCFCA01820F931FF1E081349F0759
:104F00008CF040ECE42E4EEFF42EE80EF91E8901F1
:104F10000E191F09C601BE01A801C6DFC00FD11FAF
:104F20009701CDCFBE01882777FD8095982FD601B8
:104F30001C960D911C911D971A96ED91FC911B9753
:104F40000995DF91CF911F910F91FF90EF90DF9026
:104F5000CF9008950F931F93CF93DF93FC01C085EB
:104F6000D18500811181209729F10280F381E02D04
:104F700021E0E034F2071CF480E090E019C0CE019B
:104F8000959587959801281B390BC901BE010E9490
:104F9000C53520E431E02E1B3F0B6C9FC0016D9F97
:104FA000900D7C9F900D1124821793070CF4C9017A
:104FB000BC011BC0101611062CF466277727601B56
:104FC000710B15C08281938131E0803493071CF40A
:104FD00060E070E004C060E471E0681B790B0617C4
:104FE00017071CF060E070E002C0601B710BCB0182
:104FF000DF91CF911F910F910895AF92BF92CF9201
:10500000DF92EF92FF920F931F93CF93DF93EC0108
:105010005A016B013B872A871D870C871F821E82DE
:10502000198218825B834A83F986E88680E090E0E3
:10503000B6DC1A141B041C041D04ECF47601650193
:1050400081E4C81681E0D80680E0E80680E0F80632
:1050500034F060E4C62E61E0D62EE12CF12C0C85F4
:105060001D85EA85FB8560E070E080E090E040E02F
:1050700050E096010995DF91CF911F910F91FF901C
:10508000EF90DF90CF90BF90AF900895CF92DF92D6
:10509000EF92FF920F931F93CF93DF937C016B01ED
:1050A000EA01C80ED91EC81BD90B29C06054714033
:1050B00081E060347807D4F702C0605C7E4F77FDF2
:1050C000FCCF0894E11CF11CCE01D7FF04C0882757
:1050D00099278C1B9D0B8830910514F087E090E098
:1050E000FC01EE0FFF1FE45DF84F0591149180E085
:1050F00090E040EF50E021E030E06FDC2197EC14CD
:10510000FD0414F4B701D4CFDF91CF911F910F911B
:10511000FF90EF90DF90CF900895AF92BF92CF9223
:10512000DF92EF92FF920F931F93CF93DF935C0177
:105130007A018B016901FC01608171819B01442727
:1051400037FD4095542F2E0D3F1D401F511F203419
:10515000F1E03F07F0E04F07F0E05F070CF05EC0C2
:10516000C601AA2797FDA095BA2F820F931FA41FEF
:10517000B51FB7FD53C088279927861B970B0FDCF7
:1051800017FF18C0F50180819181E6018C159D05FE
:105190000CF4EC01C701BE014FEF5FEF77DFCE01EA
:1051A000AA2797FDA095BA2FE80EF91E0A1F1B1F0C
:1051B000CC1ADD0AF501828193819C01442737FDD9
:1051C0004095542F2E193F09400B510BC601AA27B9
:1051D00097FDA095BA2F82179307A407B50714F47B
:1051E0009C01AD01E901121613067CF4C501B7015B
:1051F000A9015ADECE01AA2797FDA095BA2FE80E85
:10520000F91E0A1F1B1FCC1ADD0A1C141D0434F4DE
:10521000F50142815381C701B60138DFDF91CF919B
:105220001F910F91FF90EF90DF90CF90BF90AF90C4
:105230000895DC01FB016115710521F18D919C91AF
:105240001197860F971F11969C938E9377FF0FC02F
:10525000AB01405C5E4F481B590B662757FD6095BC
:10526000762F222733272E1B3F0BCD0156CF442705
:105270005527481B590B662757FD6095762FCD01A2
:105280009F014BCF08950F931F93CF93DF938C0112
:10529000FC0184819581C681D7818F5F9F4F31F05A
:1052A000D595C795F801D783C68324C0C80152DEBF
:1052B0008C1B9D0B19F480E090E00AC097FF02C0A0
:1052C000039701C0039664E070E00E94C535CB01EE
:1052D0008C0F9D1FF80197838683009759F097FFE5
:1052E00002C00F9701C00F9660E170E00E94C535C3
:1052F000C8019FDFDF91CF911F910F910895EF9229
:10530000FF920F931F93CF93DF938C01FB01E280F9
:10531000F3800190F081E02DE330F10561F0E4309D
:10532000F1051CF4EF2BB1F136C0E430F10539F092
:10533000359789F529C0F7018281938127C0FC0147
:1053400064817581FFEF6F3F7F0729F1F70182814B
:10535000938168177907F9F0EC01C61BD70BCE01D2
:1053600002960597C0F0C801BE0163DFF701828194
:105370009381F8019583848314E0CC0FDD1F1A9587
:10538000E1F7D783C68307C08FEF9FEFF8019583BE
:10539000848301C078DF80E090E0DF91CF911F919E
:1053A0000F91FF90EF900895DF93CF9300D000D03E
:1053B00000D0CDB7DEB780915601909157018F3064
:1053C000910509F446C0E3E021303E070CF041C0EE
:1053D000019690935701809356010197FC01EE0FBF
:1053E000FF1FE80FF91FEE0FFF1FE85AFE4F7183F2
:1053F000608353834283358324834B57594149F556
:10540000DE011196E8E5F1E026E001900D922150D1
:10541000E1F7FC01EE0FFF1FE80FF91FEE0FFF1F72
:10542000A8E5B1E0EA0FFB1F26E001900D922150A4
:10543000E1F7FC01EE0FFF1FE80FF91FEE0FFF1F52
:10544000E85AFE4FDE01119686E00D9001928150E0
:10545000E1F726960FB6F894DEBF0FBECDBFCF9111
:10546000DF910895809156019091570108958091A0
:10547000B80490E0FC01EE0FFF1FE80FF91FEE0FDC
:10548000FF1FE85AFE4F808191810895EF92FF92AD
:105490000F931F937C010DEB14E0C8016CE377E0E0
:1054A0000E947004F80101900020E9F7E01BF10B65
:1054B000CF0184549B4FB7010E9493041F910F9119
:1054C000FF90EF900895BC018DEB94E040E250E036
:1054D0000C94A8049C01DB0197FD17C08091560134
:1054E000909157012817390784F4F901EE0FFF1F37
:1054F000E20FF31FEE0FFF1FE85AFE4F608171812C
:10550000CD010E94770481E0089580E00895EF9234
:10551000FF920F931F93DF93CF93CDB7DEB72E97F4
:105520000FB6F894DEBF0FBECDBF8091BB04909143
:10553000BC04892B29F08091BD04882309F45BC049
:105540008091BD04882351F46091580170915901F4
:105550008DEB94E040E250E00E947704FDEBEF2EEB
:10556000F4E0FF2E01C07C01D7012C91222329F009
:10557000C70101962032B9F793C0809156018093FC
:10558000B8041AC0892F90E08C01000F111F080F7A
:10559000191F000F111F085A1E4FF80160817181F9
:1055A0008DEB94E00E946704892B31F4D8011296A8
:1055B000ED91FC9113970EC08091B804982F9150F3
:1055C0009093B8048823F1F61092B804E0915A0140
:1055D000F0915B01F093BC04E093BB0481E090E0A8
:1055E0009E838D83F886EF82CE01059662EB71E093
:1055F00009951092BD041A821982CE01099675D2BE
:10560000882321F14091B6045091B704411551050A
:10561000D1F029853A858091B2049091B30428177E
:10562000390771F42B853C858091B4049091B504C1
:105630002817390729F48D859E858417950781F0F1
:1056400084E090E00BC083E090E008C08091B60455
:105650009091B704892B21F085E090E09A838983AB
:10566000CE0109969C838B83A2EBB4E0FC0186E01B
:1056700001900D928150E1F7E091BB04F091BC04E0
:10568000CE01019662EB71E009959093BA04809384
:10569000B904892B49F01092BC041092BB0404C0D9
:1056A000F70110827C0169CF2E960FB6F894DEBF09
:1056B0000FBECDBFCF91DF911F910F91FF90EF9063
:1056C00008954CD980E098EF4DDB0E94863382EB41
:1056D00091E062E973E30E942C1F1092BA041092C9
:1056E000B9041092BC041092BB041092B80410923A
:1056F000BD0408959C01F999FECF32BD21BDF89AF1
:1057000080B508959C01F999FECF1FBA32BD21BD25
:1057100060BD0FB6F894FA9AF99A0FBE0895909169
:10572000DF04882311F0916001C09E7F9093DF0415
:10573000089514BE1092900047984698809A8898D1
:10574000FFCF982F80917C00807E80937C00892FF2
:105750008950853008F4985E95FF04C080917B00E5
:10576000806203C080917B008F7D80937B0080915D
:105770007C009F71892B80937C0080917A008068E7
:1057800080937A0080917A00806480937A0080917F
:105790007A0084FFFCCF80917A00806480937A0045
:1057A00080917A0084FFFCCF2091780040917900AD
:1057B00080917A008F7780937A00942F80E030E098
:1057C000282B392BC901089587988F9887E0B9DF76
:1057D000AA2797FDA095BA2FBC01CD0124E736E09A
:1057E00040E050E00E948635272F382F492F55275B
:1057F00047FD5A95C9010895AF92BF92CF92DF92AB
:10580000EF92FF920F931F93CF93DF938C017A0156
:10581000FB01EE0DFF1DEE7FE00FF11FA080B180B8
:10582000EB01A70123C02196FC01C080D180029624
:10583000CA14DB04C4F3DA01AA0FBB1FA00FB11F07
:1058400002C0415050409D018D919C91119712973B
:10585000A816B906B4F34C175D0744F09183808312
:10586000F901D182C0822196415050404C175D070A
:1058700034F0CE01880F991F800F911FD5CF641788
:10588000750714F4C801B8DFBE01CE15DF050CF4AE
:10589000BFCFDF91CF911F910F91FF90EF90DF90DD
:1058A000CF90BF90AF900895EF92FF920F931F9308
:1058B0008C017B0180E184B915B880E88AB98BB985
:1058C0008CE03FDFF8019183808389E03ADFF701C4
:1058D000918380831F910F91FF90EF9008958F9295
:1058E0009F92AF92BF92CF92DF92EF92FF920F936F
:1058F0001F93DF93CF9300D000D0CDB7DEB74C011C
:105900005B01CE010196BE016D5F7F4FCDDF8B81C4
:105910009C8108970CF45CC080E184B985B980E46F
:105920008AB91BB88CE00DDF7C01EB81FC81C9805A
:10593000DA8080E092E08E199F0997FF0FC080E027
:105940009EEFE80EF91E8701B3E015950795BA950D
:10595000E1F780E092E0E80EF91E06C08C01A3E0BA
:1059600015950795AA95E1F7B701882777FD8095EA
:10597000982F9F01442737FD4095542F0E9486356C
:105980009601442737FD4095542F0E94FA3524553F
:105990003040200F311F12161306D4F48901000F76
:1059A000111F80E284B985B980E88AB91BB88BE001
:1059B000C8DEF50191838083F401F182E0829801D1
:1059C0000F3F110519F014F02FEF30E0822F01C0C6
:1059D00080E00F900F900F900F90CF91DF911F916B
:1059E0000F91FF90EF90DF90CF90BF90AF909F907E
:1059F0008F9008956F927F928F929F92AF92BF92F5
:105A0000CF92DF92EF92FF920F931F93DF93CF938A
:105A1000CDB7DEB76E970FB6F894DEBF0FBECDBF21
:105A20004C013B018AE0E82EFF246E010894C11C62
:105A3000D11C0BE0A02EB12CAC0EBD1E33C06F2DBF
:105A400070E0660F771F8601060F171F6A0D7B1D1A
:105A5000C80145DF882331F1F801848B158AF3945E
:105A6000F5E0FF16F9F4C60160E070E044E050E0B4
:105A7000C3DEC50160E070E044E050E0BDDE8D8132
:105A80009E81F401918380838F859889F3019183AE
:105A90008083CE01459660E070E044E050E0ACDEEB
:105AA000898D05C0EA94FFEFEF1649F680E06E9607
:105AB0000FB6F894DEBF0FBECDBFCF91DF911F911F
:105AC0000F91FF90EF90DF90CF90BF90AF909F909D
:105AD0008F907F906F900895DC01EEEEF4E086E009
