:1000000059C400007FC400007DC400007BC4000010
:1000100079C4000077C4000075C4000073C40000F8
:1000200071C400006FC400000C943A310C946C3120
:1000300069C4000067C4000065C4000063C4000018
:1000400061C400005FC400005DC400005BC4000028
:100050000C94622D57C4000055C4000053C4000026
:1000600051C400004FC400004DC400004BC4000048
:1000700049C4000047C4000045C4000043C4000058
:1000800041C400003FC400003DC400003BC4000068
:1000900039C4000037C4000035C4000033C4000078
:1000A00031C400002FC400002DC4000061636365EB
:1000B0006C65726174650025642E253033645600CA
:1000C0006261747465727900546F756368205800BA
:1000D000546F756368205900546F756368205072BF
:1000E00065737375726500416363656C20580041E8
:1000F0006363656C205900416363656C205A004D51
:100100006963726F205344004641540046415431A4
:1001100036004641543332004E6F7420466F756E80
:10012000640052656164790042617474657279009B
:100130004261636B6C69676874002564006877745A
:10014000657374007061696E740063616C696272DA
:10015000617465006F6666007669657700253032E8
:10016000583A20253034580D0A007368656C6C00CD
:100170007669657700000B09215F3B0001000400F0
:100180000B0010001A0021002200250028002D007D
:100190003400360039003A003F00440049004E0068
:1001A000530059005E00630068006D007200730028
:1001B00075007B00820088008C0094009A00A000EB
:1001C000A700AE00B300B800BF00C500C800CC0057
:1001D000D200D700DE00E400EB00F000F700FD01E4
:1001E00003010A01100116011F0125012C01320132
:1001F00035013A013D0144014B014D0152015701C6
:100200005C01610166016A016F0174017501780189
:100210007D017E0187018C01910196019B019F0167
:10022000A301A701AC01B101B801BD01C201C60122
:10023000CB01CC01D101D801D8500400004C2000E2
:1002400002000000000000000000000000000000AC
:100250000000000000000000000000000000003C62
:10026000380010200080C109840000000000000058
:1002700000007C00D144621852A80002E239C17C1F
:10028000DF73800000E3E33C3DF3FF3D0F78618FB7
:10029000139E39E3DFE186230C1FE4088008200069
:1002A000810100840000000008000000009200D1DD
:1002B0004F9224527080051E462341018C4000005D
:1002C000141322430A10430A18A18F145145142213
:1002D0002186230A20620940002000810100840059
:1002E0000000000800000000920087F4942421A878
:1002F000800512042542028C68603019D4A2810660
:1003000010810A1921569831831402218554914095
:10031000A20A2003BCE7BBDFEB8FDDE779F6FF180D
:10032000C98C7C920082946419212080091208C92A
:100330007BC274699FCC2A54BE8107FE81FA1A21C0
:100340005698318313022149546081210C100063B7
:1003500018C52319962318C6390918C95284923131
:10036000828E09A52107F38912103106248BC6005D
:10037000034A54A18106108F0A1E2126583E83E0AD
:10038000C2214954608221080003E308FD2319A615
:100390002318C631891555228B11C98FC50A6221D0
:1003A00000801112203F862488419FCC4A5FE18162
:1003B0000610830A1921265830832022214954909F
:1003C00084208800046308C12319E62318C6306915
:1003D0001555229092460505126321008451124260
:1003E00021462888A8603009A861430A10430A18EA
:1003F000A106345045142221308908882088000441
:100400006318C52319962318C63029122251209249
:1004100000851E119C92008460EFFDC139C87328CD
:10042000000044087E3DF3F03D0FE87F063390392D
:100430000BC21E3089088FE0480003FCE7B91F1982
:100440008E231779F1C6F222893C92000004000045
:100450001200042000000000000008000003C0009B
:100460000000000000000000000008000000000084
:1004700000002048000000000002010000004020B1
:1004800000000001009200000400000C00080000C1
:10049000000000000010000000000000000000004C
:1004A0000000000000060000000000000038380FC7
:1004B000E00000001C0600000040200000000200D8
:1004C0007C00050A08215E3B02800000824000009B
:1004D00000200000000000000000000000000000FC
:1004E0000000000000000000000000001D070000E8
:1004F0000400101C100010C00000000000000000EC
:100500000444002280403084200000002E239C2FD1
:100510009BEE70000001CF279DCFFDD171E308E570
:10052000DE779DF8C6318FD1011004040010201031
:10053000209040000000008000000008420022944B
:10054000F448881108000051646268203188001066
:1005500042302463284231206508E6318C6248C667
:10056000B1885081280204001020100010400000C3
:10057000000080000000084200203F4AC8081548DB
:100580000000532042A8405189086FB036546118CA
:10059000421120690DD6318C6048C6AA88908144EA
:1005A00000779EF779DE61924D79DE7D9EE8C63157
:1005B0008FC842002014E5300813BE0F8095218DAE
:1005C0002F784E7801800C5657A11F7A7F20710D2D
:1005D000D63E8F9C48AAA471104100000C6118A25D
:1005E0003120944AC6318E6088C6AA889041302056
:1005F0001452C80815480000992203F0C49108005D
:100600006FB097746118423120690AD6308C424825
:10061000A94A22104100007C611FA23120984AC6DD
:10062000318C1C88AAA48908424C003FE54408117B
:1006300008000111242228C49111081040108C6375
:1006400028423120650ACE309C6248915124102105
:1006500000008C6118223120944AC6318C0288A98E
:100660004A8A084200201448B804200040110E773E
:10067000DC27390E601000008F8F9DCFC1F177A36A
:10068000F8CDD07C5C47115127D02100007F9EF728
:10069000A1F120924AC5DE7C3C7791517FC842008F
:1006A0000000000002400080020000000000000086
:1006B000000000000000000000000000000000003A
:1006C000000000001C1703E0000000002000800074
:1006D00000100800000000080444000000000000B2
:1006E000000000000000000000000000000000000A
:1006F00000000000000000000000000000000000FA
:1007000000000000000001C0070000001008000009
:1007100000007000000000060D13191F252C323850
:100720003E444A50565C62676D73787E83888E9330
:10073000989DA2A7ABB0B4B9BDC1C5C9CDD0D4D71F
:10074000DBDEE1E4E7E9ECEEF0F2F4F6F7F9FAFBD0
:10075000FCFDFEFEFFFF4153534552543A202573E2
:100760003A2564000C638E731084929414A596B598
:1007700018C69AD6766965772000253034580A0065
:10078000E3E7EF00FF0102030408090A0C0D0F1054
:10079000111213FF1011FF12FF1329FF30313235F0
:1007A000363738393C3D20215051525360616A80C0
:1007B00081828384859092939597980708301200E0
:1007C0003112010032000001000730100000020267
:1007D0000000000000000000000000000700000012
:1007E0000000C8009016270232001A0032000018DC
:1007F0002A0032000000000000000602080807007E
:100800000102000000000000000000000000EF00F6
:1008100000003F0100A703000000000000000000EE
:1008200000000000000010000000030010010000A4
:10083000000033010403090416034D00690063003E
:1008400072006F0074006F00750063006800120191
:100850000002020000109A230120000100020001A2
:100860000902430002010080320904000001020273
:1008700000000524001001052401010104240202E6
:10088000052406000107058103100040090401004A
:10089000020A00000007050202400000070583026B
:1008A00040000000D707C009300B7B10E211401454
:1008B0005714091811241FBECFEFDAE0DEBFCDBFF9
:1008C00011E0A0E0B1E0EEECF6E602C005900D927A
:1008D000A231B107D9F715E0A2E1B1E001C01D9244
:1008E000AE30B107E1F718E0C4EBD8E004C02297BE
:1008F000FE010E942A33C43AD107C9F70E94A323FC
:100900000C9465337DCBFB01DC018D910590801942
:100910000110D9F3990B0895FB01DC0105900D92AC
:100920000020E1F70895FB01DC014150504048F000
:1009300005900D920020C9F701C01D924150504012
:10094000E0F70895FB01DC0104C08D91019080194E
:1009500021F441505040C8F7881B990B0895FB01C2
:10096000DC0101900D920020E1F70895FB01DC010C
:100970004150504030F08D910190801919F40020C1
:10098000B9F7881B990B0895FB01DC0141505040D9
:1009900048F001900D920020C9F701C01D9241500E
:1009A0005040E0F70895A0E0B0E0E9EDF4E00C94E9
:1009B00038337C01EB018A01690109C0CE0121961F
:1009C000F6010995F70181937F010150104001154F
:1009D0001105A1F7CDB7DEB7E8E00C945433A0E0E1
:1009E000B0E0E5EFF4E00C943833EC017B018A01D0
:1009F000690109C0CE012196F70161917F01F601DD
:100A000009950150104001151105A1F7CDB7DEB7CA
:100A1000E8E00C9454330F931F93CF93DF938C0132
:100A2000EB018B8181FF1BC082FF0DC02E813F81B6
:100A30008C819D812817390764F4E881F98101933D
:100A4000F983E88306C0E885F985802F0995892B0D
:100A500031F48E819F8101969F838E8302C00FEFB8
:100A60001FEFC801DF91CF911F910F910895A0E072
:100A7000B0E0EDE3F5E00C943E33FE013596619174
:100A8000719180910A0590910B05AF014CD0209691
:100A9000E2E00C945A33A0E0B0E0E1E5F5E00C941C
:100AA0003E33FE01359661917191A0910A05B09196
:100AB0000B0513968C911397886013968C938091F5
:100AC0000A0590910B05AF012ED0E0910A05F09137
:100AD0000B052381277F23832096E2E00C945A3371
:100AE000AEE0B0E0E6E7F5E00C943C330D891E89FA
:100AF0008EE08C831A8309838FEF9FE79E838D831B
:100B00009E01275E3F4FCE0101966F89788DA90126
:100B10000AD02F813885020F131FF80110822E96FC
:100B2000E4E00C945833ABE0B0E0E9E9F5E00C9474
:100B30002E333C012B015A01FC011782168283815E
:100B400081FD03C06FEF7FEFB9C19AE0892E1E01CE
:100B50000894211C311CF3012381F20123FD8591AE
:100B600023FF81912F01882309F4A5C1853239F42F
:100B700023FD859123FF81912F01853221F490E09F
:100B8000B30149DFE8CF982FFF24EE249924FFE139
:100B9000FF15D0F09B3269F09C3228F4903259F066
:100BA000933291F40EC09D3249F0903369F441E0E4
:100BB00024C052E0F52A84E0F82A28C098E0F92AF7
:100BC00025C0E0E1FE2A22C0F7FC29C0892F80530E
:100BD0008A3070F4F6FE05C0989C902C1124980E73
:100BE00015C0E89CE02C1124E80EF0E2FF2A0EC0AC
:100BF0009E3229F4F6FC5FC140E4F42A07C09C361B
:100C000019F450E8F52A02C0983649F4F20123FDA0
:100C1000959123FF91912F01992309F0B8CF892F46
:100C20008554833018F08052833038F444E050E02B
:100C3000A40EB51E5FE359830FC0933631F093378E
:100C400079F0933509F052C01FC0F5018081898386
:100C500042E050E0A40EB51E610101E010E011C0B9
:100C6000F501C080D180F6FC03C06FEF7FEF02C0BA
:100C7000692D70E042E050E0A40EB51EC6012ED1F1
:100C80008C015FE7F52213C0F501C080D180F6FC2E
:100C900003C06FEF7FEF02C0692D70E042E050E0CB
:100CA000A40EB51EC6010FD18C0150E8F52AF3FE43
:100CB00006C018C080E290E0B301ADDEEA948E2D4C
:100CC00090E008171907B0F30DC0F601F7FC859105
:100CD000F7FE81916F0190E0B3019DDEE110EA948F
:100CE000015010400115110581F7E2C0943611F052
:100CF000993661F5F7FE08C0F50120813181428106
:100D0000538184E090E00AC0F501808191819C01CB
:100D1000442737FD4095542F82E090E0A80EB91E7D
:100D20009FE6F92257FF09C05095409530952195CF
:100D30003F4F4F4F5F4FE0E8FE2ACA01B901A101C2
:100D40002AE030E0D6D0D82ED2183FC0953729F40B
:100D50001F2D1F7E2AE030E01DC01F2D197F9F36FA
:100D600061F0903720F4983509F0A5C00FC0903796
:100D700039F0983709F09FC004C028E030E00AC07D
:100D8000106114FD146020E130E004C014FD166011
:100D900020E132E017FF08C0F50160817181828196
:100DA000938144E050E008C0F50180819181BC014D
:100DB00080E090E042E050E0A40EB51EA10199D081
:100DC000D82ED2188FE7F82EF122F6FE0BC05EEF78
:100DD000F522D91438F4F4FE07C0F2FC05C08FEEFA
:100DE000F82202C01D2D01C0192DF4FE0DC0FE0118
:100DF000ED0DF11D8081803319F499EEF92208C0C0
:100E00001F5FF2FE05C003C08F2D867809F01F5FBB
:100E10000F2DF3FC13C0F0FE0EC01E1510F09D2C1C
:100E20000AC09D2C9E0C911A1E2D05C080E290E0F8
:100E3000B301F1DD1F5F1E15C8F304C01E1510F4C9
:100E4000E11A01C0EE2404FF0EC080E390E0B3017C
:100E5000E2DD02FF1BC001FD03C088E790E00EC089
:100E600088E590E00BC0802F867881F001FF02C0FA
:100E70008BE201C080E2F7FC8DE290E0B301CBDDB4
:100E800005C080E390E0B301C6DD9A94D914C8F39D
:100E9000DA94F101ED0DF11D808190E0B301BBDD2D
:100EA000DD20B1F705C080E290E0B301B4DDEA9443
:100EB000EE20C9F750CEF30166817781CB012B96E6
:100EC000E2E10C944A33FC0105906150704001103E
:100ED000D8F7809590958E0F9F1F0895FC01615063
:100EE000704001900110D8F7809590958E0F9F1F4C
:100EF0000895FA01AA27283051F1203181F1E894B0
:100F00006F936E7F6E5F7F4F8F4F9F4FAF4FB1E0FC
:100F10003ED0B4E03CD0670F781F891F9A1FA11DF7
:100F2000680F791F8A1F911DA11D6A0F711D811DF8
:100F3000911DA11D20D009F468943F912AE0269FBD
:100F400011243019305D3193DEF6CF010895462F1C
:100F50004770405D4193B3E00FD0C9F7F6CF462FFD
:100F60004F70405D4A3318F0495D31FD4052419366
:100F700002D0A9F7EACFB4E0A69597958795779523
:100F80006795BA95C9F700976105710508959B01AA
:100F9000AC010A2E06945795479537952795BA9533
:100FA000C9F7620F731F841F951FA01D089582E16A
:100FB00091E06CEA70E041EE57E022E130E00C9401
:100FC000AD26AF92BF92CF92DF92EF92FF920F9336
:100FD0001F93DF93CF9300D00F92CDB7DEB7FC0104
:100FE0007B010190F081E02DE130F10551F0E3301B
:100FF000F10521F0EF2B09F43FC0B1C12FEF3FEF16
:10100000B0C1DB0111961C921E9219961C921E9281
:10101000189720E031E013963C932E93129780E0CE
:101020009EE015969C938E93149780E897E0179610
:101030009C938E93169751961C921E9250971B96D6
:101040003C932E931A9780E093E11D969C938E9388
:101050001C9780E09AE01F969C938E931E9780E0E9
:1010600090E060E070E040EF50E020E431E00FEF0E
:101070001FEF0E94C42173C185E090E00E94062406
:1010800020E3C22ED12CC60160E070E041E050E0C8
:1010900020E431E008E116EC0E94C421E0E5F0E034
:1010A000CE0EDF1EF0E2CF16F1E0DF0661F7CE01D3
:1010B00001960E94B02CD7016D917C9180E090E068
:1010C00040EF50E024E030E00FEF1FEF0E94C4211A
:1010D00089818595992787FD9095F70160817181B8
:1010E0008F9643E050E021E030E000E018EF0E94EE
:1010F000C4218A818595992787FD9095D7016D91A7
:101100007C9181589F4F43E050E021E030E000EEB9
:1011100017E00E94C4218B818595992787FD9095C2
:10112000F7016081718181539F4F43E050E021E0DE
:1011300030E00FE110E00E94C4211A81D701169619
:101140002D913C911797F90194E0F595E7959A95C3
:10115000E1F71E966D917C911F9784E075956795D8
:101160008A95E1F78981482F552747FD509503E07F
:10117000559547950A95E1F718968D919C91199789
:10118000480F591F19965C934E931897CA01820F06
:10119000931F17969C938E93169712962D913C91C0
:1011A000139782179307C4F417963C932E931697C0
:1011B00057FF07C088279927841B950B959587951E
:1011C00007C05595479588279927841B950BD7010C
:1011D00019969C938E931897D70114962D913C9154
:1011E000159716968D919C91179728173907E4F457
:1011F00017963C932E93169718962D913C9119971C
:1012000037FF07C088279927821B930B95958795F1
:1012100007C03595279588279927821B930BD701FF
:1012200019969C938E931897212F332727FD30957D
:1012300003E0359527950A95E1F7D70150968D91F2
:101240009C915197280F391F51963C932E9350979C
:101250001E968D919C911F97820F931F1F969C93B2
:101260008E931E971A964D915C911B978417950744
:10127000C4F41F965C934E931E9737FF07C08827D0
:101280009927821B930B9595879507C035952795D0
:1012900088279927821B930BD70151969C938E9395
:1012A0005097D7011C962D913C911D971E968D91BC
:1012B0009C911F9728173907E4F41F963C932E93AF
:1012C0001E9750962D913C91519737FF07C0882764
:1012D0009927821B930B9595879507C03595279580
:1012E00088279927821B930BD70151969C938E9345
:1012F0005097D7011696AD90BC90179794E0B5948F
:10130000A7949A95E1F71E96CD90DC901F9784E004
:10131000D594C7948A95E1F7AE16BF0619F4C616A0
:10132000D70641F0CF0140E150E02FEF3FEF00E062
:101330000E947022C501B60140E150E02AEA3AEA73
:1013400000E00E947022F7018081918101969183D3
:1013500080838054914019F4D7011D921C9220E0A3
:1013600030E0C9010F900F900F90CF91DF911F9146
:101370000F91FF90EF90DF90CF90BF90AF900895C6
:1013800083E191E060EC70E045E45AE026E030E073
:101390000C94AD269B014DB75EB7485050400FB638
:1013A000F8945EBF0FBE4DBFEDB7FEB73196ADB737
:1013B000BEB712969C938E93119787EB90E0938320
:1013C0008283CB0168EE73E00E94C432758364832C
:1013D000C90168EE73E00E94C4329783868380DB84
:1013E0004DB75EB7485F5F4F0FB6F8945EBF0FBE54
:1013F0004DBF0895CF92DF92EF92FF920F931F930C
:10140000DF93CF93CDB7DEB760970FB6F894DEBF0A
:101410000FBECDBF6B010E94C1219601245C3940F3
:1014200043E0359527954A95E1F77C01E21AF30AE6
:101430000E94BE21AC0180E090E0B70121E030E0E5
:1014400008E116EC0E94C4218E010F5F1F4FC801F6
:10145000B601A0DF86EF9FEFE80EF91EC80164E039
:1014600070E0A70128E136EC0E94A02160960FB63B
:10147000F894DEBF0FBECDBFCF91DF911F910F91CA
:10148000FF90EF90DF90CF9008954F925F926F9210
:101490007F928F929F92AF92BF92CF92DF92EF9204
:1014A000FF920F931F93DF93CF93CDB7DEB7609773
:1014B0000FB6F894DEBF0FBECDBFFC017B012081CB
:1014C00031812130310561F0223031051CF4232BAC
:1014D00019F1ACC0C9010397039708F0A7C098C0E1
:1014E0008FEF9FEF0E948923C70164E971E182DFDA
:1014F000C70160EA7FE07EDFC7016CEA7DE07ADF4A
:10150000C70168EB7BE076DFF7011182108212825F
:101510001382148215828AC00E94A4283B014C01C8
:10152000F70182819381A481B581A4019301281BD5
:10153000390B4A0B5B0B293C31054105510508F479
:1015400075C00E9418295C010E94C1218C014CE3E6
:1015500056EFA40EB51E650153E0D594C7945A9575
:10156000E1F784EC99E0A80EB91EB6019FEFC91609
:10157000D10419F014F06FEF70E077FF02C060E063
:1015800070E0862F809540E00E947F20582E492EE3
:10159000015010400C191D09F70180819181B8019B
:1015A00041E050E022E030E0052D142D0E94C421DE
:1015B000F701008111810F5F1F4F118300830E948B
:1015C000BE210817190719F4F7011182108284EB64
:1015D00090E064E170E048E250E024E130E00FEF99
:1015E0001FEF0E94C4218E010F5F1F4FC801B5017C
:1015F000D1DEC80168EB70E048E150E0252D342DC4
:101600000E94A021F70162827382848295820EC0BB
:101610000280F381E02D2330310541F482819381F2
:10162000805491401CF02FEF3FEF02C020E030E0EB
:10163000C90160960FB6F894DEBF0FBECDBFCF9143
:10164000DF911F910F91FF90EF90DF90CF90BF90AF
:10165000AF909F908F907F906F905F904F90089584
:1016600084E191E06DE371E045ED5DE022EE30E074
:101670000C94AD260F931F93CF93DF936695C62FDF
:10168000D0E086E690E060EB70E0AE0120E130E073
:101690000EE917EF0E94C42140E850E04C1B5D0B9F
:1016A000CE018A599F4F60EB70E020E130E004E109
:1016B00015EA0E94C421DF91CF911F910F910895E7
:1016C000AF92BF92CF92DF92EF92FF920F931F9350
:1016D0007B016A015901CA01B90144E650E020E1E9
:1016E00030E00FEF1FEF0E94C42182E090E0C80EAF
:1016F000D91EA80EB91EC701B601A50120E030E031
:101700000E94A0211F910F91FF90EF90DF90CF904A
:10171000BF90AF9008952F923F924F925F926F9239
:101720007F928F929F92AF92BF92CF92DF92EF9271
:10173000FF920F931F93DF93CF93CDB7DEB7C055C2
:10174000D0400FB6F894DEBF0FBECDBF4C017C0178
:1017500090E2C92ED12CAA24BB2481E1682E712CE1
:101760006C0E7D1E1E010894211C311CD7015B9656
:101770008C915B97882309F46AC0E6E1F0E0AE9EA5
:101780008001AF9E100DBE9E100D11240A5F1F4FE9
:101790002401400E511E0650104016966D917C910A
:1017A0001797CE01C19640E250E0BDD8C301BE01FB
:1017B0006F5C7F4FD4D8F30101900020E9F7319797
:1017C000E619F709C301BF010E94222064E670E018
:1017D000681B790BA6014E5F5F4FC30120E134E81F
:1017E0000E94A021D70118968C91882339F0B80166
:1017F000685F7F4F680D791DC20122C000D000D004
:1018000000D0EDB7FEB73196ADB7BEB712963C9299
:101810002E9211978AE391E093838283D7015896A1
:101820008D919C915997958384835AD9EDB7FEB7D2
:1018300036960FB6F894FEBF0FBEEDBFC201B101E0
:1018400046E650E096013CDFD7015B961C92089477
:10185000A11CB11CE6E1F0E0EE0EFF1EFAE0AF16AF
:10186000B10429F080E190E0C80ED91E7FCFC05BA3
:10187000DF4F0FB6F894DEBF0FBECDBFCF91DF9123
:101880001F910F91FF90EF90DF90CF90BF90AF909E
:101890009F908F907F906F905F904F903F902F9090
:1018A00008958F929F92AF92BF92CF92DF92EF9264
:1018B000FF920F931F93DF93CF93CDB7DEB7C0583E
:1018C000D2400FB6F894DEBF0FBECDBF6C010E94B0
:1018D00099304CE8E42EF12CEC0CFD1C3FE9832EF2
:1018E000912C8C0C9D1C22EBA22EB12CAC0CBD1C9F
:1018F000882309F047C08E010F5F1F4FC80162E2C5
:1019000071E040E250E00FD8C701B80128D881E06B
:10191000F4018083F50180819181892B09F05DC0FC
:10192000CE018F579F4F65EA70E30E941E1C282F3F
:1019300081E090E0F50191838083203129F020320D
:1019400031F462E171E008C06CE071E005C0F501BE
:101950001182108268E171E08E010F5D1F4FC80196
:1019600040E250E00E949304C6018E559F4FB8019B
:101970000E94AF0485EB90E0C80ED91E81E0F6010D
:1019800080832BC08E010F5B1F4FC80168E171E09F
:1019900040E250E00E949304C701B8010E94AF04E6
:1019A000FF24F394F401F0828E010F591F4FC801F8
:1019B00068E171E040E250E00E949304C6018E5558
:1019C0009F4FB8010E94AF0485EB90E0C80ED91E6E
:1019D000F601F082F50111821082C058DD4F0FB67A
:1019E000F894DEBF0FBECDBFCF91DF911F910F9155
:1019F000FF90EF90DF90CF90BF90AF909F908F902F
:101A00000895AF92BF92CF92DF92EF92FF920F9321
:101A10001F93DF93CF93CDB7DEB763970FB6F894DC
:101A2000DEBF0FBECDBF7C010E94A4285B016C010C
:101A3000F70182819381A481B581A6019501281BBC
:101A4000390B4A0B5B0BDA01C901895E9340A04058
:101A5000B04008F497C0CE0101960E94B02C898155
:101A6000282F332727FD30954AE550E0E40EF51E78
:101A7000F7018081918146EA5FEFE40EF51E281799
:101A8000390759F08DE590E0E80EF91E81E0F70185
:101A9000808343EA5FEFE40EF51E8AE590E0E80EEE
:101AA000F91EF701318320838A81282F332727FDF0
:101AB000309546E150E0E40EF51EF70180819181FA
:101AC00040E95FEFE40EF51E2817390759F083E768
:101AD00090E0E80EF91E81E0F70180834DE85FEFAA
:101AE000E40EF51E80E790E0E80EF91EF701318361
:101AF00020838B81282F332727FD309546E150E046
:101B0000E40EF51EF701808191814AE75FEFE40E54
:101B1000F51E2817390759F089E890E0E80EF91EFC
:101B200081E0F701808347E75FEFE40EF51E86E86A
:101B300090E0E80EF91EF701318320832AE73FEF9A
:101B4000E20EF31E0E941829BC018E010C5F1F4F8C
:101B5000C80120DCC70188549F4FB8010E94AF0420
:101B60004BEC50E0E40EF51E81E0F701808325E3A5
:101B70003FEFE20EF31EC70194DEF701A282B382AB
:101B8000C482D582C701C7DD63960FB6F894DEBF65
:101B90000FBECDBFCF91DF911F910F91FF90EF90BE
:101BA000DF90CF90BF90AF9008954F925F926F9269
:101BB0007F928F929F92AF92BF92CF92DF92EF92DD
:101BC000FF920F931F93DF93CF93CDB7DEB7C0562D
:101BD000D0400FB6F894DEBF0FBECDBF7C012B0105
:101BE000DC012D913C912130310569F02230310525
:101BF00024F4232B09F470C129C2C9010397039768
:101C000008F024C2A8C182EEFB0111928A95E9F77F
:101C100080E090E060E070E040EF50E020E431E0F0
:101C20000FEF1FEF0E94C42188EC90E0D2011796BD
:101C30009C938E9316975A961C925A97FF24F3946E
:101C40005B96FC925B9759961C921E925897189639
:101C50001C92189780ED90E05D969C938E935C9714
:101C6000D0961C92D097D196FC92D1979F961C92B9
:101C70001E929E975E961C925E9788ED90E0D3969A
:101C80009C938E93D297E6E4F0E04E0E5F1ED20155
:101C90001D922D01FC92EDEFFFEF4E0E5F1ED20163
:101CA0001D921C92ECEBFFEF4E0E5F1ED201D496FC
:101CB0001C92E8E4F0E04E0E5F1E87EE90E0D20149
:101CC0008D939C93E4E1F0E04E0E5F1ED201FD92F5
:101CD0002D01FC92EDEFFFEF4E0E5F1ED2011D9223
:101CE0001C92E0EFFFEF4E0E5F1ED2011C92E4E16A
:101CF000F0E04E0E5F1E8FEE90E0D2018D939C932C
:101D00004E0E5F1EF201F1922F01F0824DEF5FEF58
:101D1000440E551ED2011D921C92E0EFFFEF4E0EB5
:101D20005F1ED2011C92E4E1F0E04E0E5F1E87EFD1
:101D300090E0D2018D939C934E0E5F1EF201F192C2
:101D40002F01F082440E551ED2011D921C92E0EF2D
:101D5000FFEF4E0E5F1ED2011C92E4E1F0E04E0E4A
:101D60005F1E8FEF90E0D2018D939C934E0E5F1E0D
:101D7000F201108242E65FEF440E551E1FE9612E0C
:101D8000712C640C751CD301FC92ECE9F0E04E0E52
:101D90005F1ED2011D921C92E4E6FFEF4E0E5F1E05
:101DA000BCE8AB2EB12CA40CB51CD5011C92E0EA0A
:101DB000F0E04E0E5F1E88E091E0D2018D939C937F
:101DC000E4E1F0E04E0E5F1ED2011C92ECE4FFEF66
:101DD0004E0E5F1EA5EB8A2E912C840C951CD4010F
:101DE000FC92E2EBF0E04E0E5F1ED2011D921C92BF
:101DF000EEE4FFEF4E0E5F1EF2EACF2ED12CC40CA4
:101E0000D51CD6011C928E010F5F1F4FC80168E1DF
:101E100071E040E250E00E949304C501B8010E94C5
:101E2000AF04F301F0828E010F5D1F4FC80168E11E
:101E300071E040E250E00E949304C601B8010E94A4
:101E4000AF04D401FC92E6EBF0E04E0E5F1E88E298
:101E500091E0D2018D939C93E4E1F0E04E0E5F1E81
:101E6000D2011D922D01FC92EDEFFFEF4E0E5F1E91
:101E7000D2011D921C92E0EFFFEF4E0E5F1ED201C9
:101E80001C92E4E1F0E04E0E5F1E80E391E0D2018F
:101E90008D939C934E0E5F1EF20111922F01F082E2
:101EA0004DEF5FEF440E551ED2011D921C92E0EFE4
:101EB000FFEF4E0E5F1ED2011C92E2E3FFEF4E0ECB
:101EC0005F1EC20128DC0E946828682FC201D2DB95
:101ED000D2011D921C92BAC0FB0100811181003415
:101EE0001105B4F50E941027BC01E1E4EE2EF12C9F
:101EF000EC0EFD1EC70140E250E00E949304F80181
:101F0000F595E795F86F65E0000F111F6A95E1F709
:101F1000007C1770E02BF12BDD24D2018D919C9178
:101F2000892B11F4DD24D394C70166E070E040E111
:101F300050E024E430E08F01ED2CCC24CA94DC2C5A
:101F40000E943223F20180819181019691838083E6
:101F5000C20157DD7BC0D70112960D911C911397DA
:101F60002330310549F4F8018281938180549140F6
:101F70001CF02FEF3FEF6CC0D8012D913C91F20186
:101F8000808D918D2817390711F081E0838FD20160
:101F900059963C932E935897F801228133819E964F
:101FA0008D919C919F972817390719F081E0D19660
:101FB0008C93D2019F963C932E939E97F801248197
:101FC000358144E450E0440E551ED2018D919C9120
:101FD000ECEBFFEF4E0E5F1E2817390759F047E470
:101FE00050E0440E551E81E0D2018C93E9EBFFEFE7
:101FF0004E0E5F1E44E450E0440E551ED2012D9358
:102000003C93ECEBFFEF4E0E5F1EC201FADCD701F2
:102010008D919C910497D1F4F8016081718166568D
:102020007040660F771F6F3F710519F014F06FEF66
:1020300070E08B0177FF02C000E010E0802F64EFBA
:1020400071E00E946E28C201602F14DB20E030E0B6
:10205000C901C05ADF4F0FB6F894DEBF0FBECDBF27
:10206000CF91DF911F910F91FF90EF90DF90CF9074
:10207000BF90AF909F908F907F906F905F904F90A8
:102080000895FC018F3F910519F014F0EFEFF0E097
:102090006F3F710519F014F06FEF70E04F3F51057D
:1020A00019F014F04FEF50E09B0177FF02C020E0E1
:1020B00030E02C7F307073E0220F331F7A95E1F708
:1020C000CF01F7FF02C080E090E0887F9070982FEA
:1020D0008827822B932B9A0157FF02C020E030E023
:1020E000287F307043E0359527954A95E1F7282BF6
:1020F000392BC901089585E191E064E471E04DED6B
:1021000050E123E130E00C94AD26AF92BF92CF9224
:10211000DF92EF920F931F93DF93CF93CDB7DEB78C
:10212000A0970FB6F894DEBF0FBECDBF5C01DC01F7
:1021300013960C91003488F510E00E941027BC0122
:10214000CE01019640E250E00E949304F801F5951B
:10215000E795F86FA5E0000F111FAA95E1F7007C45
:102160001770E02BF12BEE24D50113968C91882368
:1021700011F4EE24E394CE01019665E070E040E2B4
:1021800050E024E430E08F01CC24CA94DC2C0E947F
:102190003223F50183818F5F8383A0960FB6F89475
:1021A000DEBF0FBECDBFCF91DF911F910F91EF909A
:1021B000DF90CF90BF90AF900895CF92DF92EF92D3
:1021C000FF920F931F93CF93DF93FC01EB012081CC
:1021D00031812130310561F02230310524F4232B87
:1021E00009F4E2C0E3C0C90103970297C0F1DEC061
:1021F000188280EF91E09B878A8782EB94E99D8724
:102200008C8780EF90EF9F878E8780E090E060E082
:1022100070E040EF50E020E431E00FEF1FEF0E944C
:10222000C4216E0158E2E52EF12CF601228533859A
:10223000C7016CE170E044E150E001E00E947022CF
:1022400082E090E0C80ED91EE0E5F0E0EE0EFF1E41
:10225000F8E1EF16F1E0FF0641F71B82A7C002810B
:102260001381E8802330310529F5F80182819381BB
:10227000805491401CF02FEF3FEF9AC040E020E0E7
:1022800030E0F801808191818897821B930B97FF42
:1022900003C0909581959F4F45973CF4F80182814A
:1022A00093810897899708F448834F5F205B3F4FDD
:1022B000433039F78881882319F08130C9F40FC081
:1022C00089810E94E523959587959F838E838981D7
:1022D0000E940424959587959987888709C08981EC
:1022E0000E94E52380509F4F959587959D838C8311
:1022F000CE0140960E94B02C688970E089899927A8
:1023000087FD90954A89552747FD5095460F571FE1
:10231000860F971FB6DE9C019F878E87F880F2E0BC
:10232000FF16A1F06C817D818E819F814885598542
:10233000460F571F860F971FA4DE9C01EF2DF0E07C
:10234000EE0FFF1FEC0FFD1F3387228789818F5F00
:10235000898388818E1561F4F801628173814481DB
:102360005581559547958081918101E00E947022A9
:102370006E0118E2E12EF12CF60122853385C701AA
:102380006CE170E044E150E001E00E94702282E0E4
:1023900090E0C80ED91EE0E5F0E0EE0EFF1EF8E179
:1023A000EF16F1E0FF0641F7CE01AFDE20E030E0AE
:1023B000C901DF91CF911F910F91FF90EF90DF90B6
:1023C000CF90089586E191E06AE471E041E352E143
:1023D00028E130E00C94AD260F931F93CF93DF9349
:1023E000EC01162F662311F01D821C822C813D8189
:1023F000C90101969D838C83009719F42FEF3FEF5D
:102400000BC08F5F9F4F19F420EE37E005C0322FCD
:102410002227330F330F330F6885798501E00127B9
:102420008E819F8148E050E00E947022112381F448
:102430008C819D818F5F9F4F59F0688579858E8152
:102440009F8142E050E02FEF3FEF01E00E947022B9
:1024500084E190E00E940624DF91CF911F910F91BB
:1024600008956F927F928F929F92AF92BF92CF9278
:10247000DF92EF92FF920F931F93DF93CF93CDB72D
:10248000DEB7E4970FB6F894DEBF0FBECDBF6C0188
:102490005B01DC018D919C918130910571F082305E
:1024A00091051CF4892B49F1D3C18330910509F4BE
:1024B0007EC0049709F0CCC161C0FB01118210827B
:1024C000138212821582148288E190E097838683BA
:1024D00080E290E0918780878FEF9FEF0E948923B1
:1024E000D5018D919C911197019611969C938E9395
:1024F00057961C921E925697ABC1FB01068917890D
:1025000000341105BCF50E941027BC0125E1C22E44
:10251000D12CCC0EDD1EC60140E250E00E94930497
:10252000F801F595E795F86F85E0000F111F8A9582
:10253000E1F7007C1770E02BF12BEE24D5015696C5
:102540008D919C915797892B11F4EE24E394C60149
:1025500069E070E040E150E024E430E08F01CC24F9
:10256000CA94DC2C0E943223F50186899789019652
:10257000978B868BC50160E02FDF6AC1DB01129665
:102580008D919C911397039709F062C1D601129621
:10259000ED91FC911397628173818081918142E07A
:1025A00050E020E038EF01E00E94702251C1CE01DE
:1025B00007960E94A02AF50182819381039779F002
:1025C0008EEF9FEF95838483C50160E005DF8E0168
:1025D0000F5F1F4FC8010E94A92A8823D9F78FEFE8
:1025E0009FEFD50115969C938E931497C50160E0DB
:1025F000F3DEC50161E0F0DEF50182819381813077
:10260000910539F1823091051CF4892B41F016C1F6
:102610008230910581F1039709F010C1E3C08F81E9
:102620009885D5011B969C938E931A9789859A85D8
:102630001D969C938E931C9788ED90E017969C9323
:102640008E93169780EA90E019969C938E93189734
:10265000F5C08F819885F501938B828B89859A854A
:102660009787868788E790E09783868380E291E06A
:1026700091878087E3C08F819885D50151969C937F
:102680008E93509749855A8555965C934E935497EF
:1026900080EA90E019969C938E93189752966D91CC
:1026A0007C9153971A96CD90DC901B9714E0E12E05
:1026B000F12CE60EF71EEC18FD08F3E0F594E79414
:1026C000FA95E1F71C962D913C911D97CA0104964D
:1026D000821B930BE3E095958795EA95E1F7CE1879
:1026E000DF08DE86CD863901681A790A788A6F8616
:1026F000E60EF71EFA8AE98A4C01840E951E9C8A22
:102700008B8A50966D917C9151976C197D09882721
:1027100077FD8095982F20EF30E040E050E00E9458
:102720009932EC18FD080027F7FC0095102FA8013E
:1027300097010E94F932F501468557852837310502
:102740003CF488E790E0821B930B049764F503C088
:102750002C37310544F546195709BA01882777FD0A
:102760008095982F20E431E040E050E00E949932BB
:10277000861897089401442737FD4095542F0E94EE
:10278000F932203A31053CF480EA90E0821B930B49
:1027900004974CF403C0243A31052CF4CE010D9675
:1027A0000E949D2C4BC0D5018D919C9106970CF0F9
:1027B00042C0F501138212821582148288E190E0F2
:1027C0009783868380E290E0918780878FEF9FEFE9
:1027D0000E948923D5018D919C91119701968D932B
:1027E0009C9336C0D6011296ED91FC911397D501BA
:1027F00016964D915C91179780819181481B590BDA
:1028000018968D919C91199722813381821B930B8D
:10281000FC01EE9FC001EF9F900DFE9F900D1124D3
:10282000449F9001459F300D549F300D1124820F1D
:10283000931F85976CF42FEF3FEF0CC0D5011296D4
:102840008D919C911397019613969C938E9312975A
:1028500020E030E0C901E4960FB6F894DEBF0FBE69
:10286000CDBFCF91DF911F910F91FF90EF90DF903F
:10287000CF90BF90AF909F908F907F906F90089572
:1028800087E191E064E571E04AE454E121E030E061
:102890000C94AD260E948A32882319F02FEF3FEF67
:1028A00004C00E94CD2820E030E0C901089588E1ED
:1028B00091E06AE671E04DE656E129E531E00C94DD
:1028C000AD26AF92BF92DF92EF92FF920F931F93CC
:1028D000DF93CF93CDB7DEB7C052D2400FB6F89496
:1028E000DEBF0FBECDBF8C01FC0111821082DD2442
:1028F000D3945E010894A11CB11C1AC0C701B50194
:1029000040E250E00E944327C50168E571E00E9463
:102910008304892B61F0F80180819181E80FF91F10
:10292000D0860196F80191838083409741F0D3943B
:10293000ED2CFF240E940B27E816F906FCF2F801A3
:102940001382128287ED94E1BE016F5D7F4FA80173
:102950007ED48FEF9FEF0E948923F801F28080815F
:10296000F80E09C0FA9486E00E94A823F801EF0D42
:10297000F11D6F73608FFF20A9F78FEF9FEFF801B4
:1029800095838483085A1E4FF8011082C05EDD4F84
:102990000FB6F894DEBF0FBECDBFCF91DF911F9170
:1029A0000F91FF90EF90DF90BF90AF900895CF937D
:1029B000DF93BC01EA018A819B818031910511F48A
:1029C00081E00FC024E0880F991F2A95E1F7C8968F
:1029D000840F951F10D58A819B8101969B838A83E2
:1029E00080E0DF91CF910895DF92EF92FF920F93F5
:1029F0001F93DF93CF93CDB7DEB7C052D2400FB64F
:102A0000F894DEBF0FBECDBF8B01DB018C918C36FD
:102A100009F040C011968C911197833681F512967A
:102A20008C91843609F04BC000E010E03DE5E32EC8
:102A300031E0F32EC8010E94142E0097D1F000D08F
:102A400000D000D0EDB7FEB73196ADB7BEB7129645
:102A5000FC92EE92119713830283958384830E94E4
:102A60004B05EDB7FEB736960FB6F894FEBF0FBE16
:102A7000EDBF0F5F1F4F09391105E1F650C08337D5
:102A8000F1F480EE97E1BE016F5D7F4F40E050E0D2
:102A9000DED345C0803799F4DB0112968C911297F2
:102AA000882369F411969C91892F8053823038F4E1
:102AB00080E0913309F481E00E949A2830C00E949E
:102AC0000B27D82E7E010894E11CF11C1EC0DA945D
:102AD0008D2D90E0B70140E250E00E944327F701BE
:102AE00001900020E9F73197EE19FF09C701B801FD
:102AF000AF010E94B604009741F48FEF9FEF0E9450
:102B00008923C7010E943C270AC0DD2001F760919C
:102B10000A0570910B058FE390E00E940B05C05EE3
:102B2000DD4F0FB6F894DEBF0FBECDBFCF91DF9162
:102B30001F910F91FF90EF90DF9008956F927F9219
:102B40008F929F92AF92BF92CF92DF92EF92FF92BD
:102B50000F931F93DF93CF93CDB7DEB760970FB678
:102B6000F894DEBF0FBECDBFDC01E62E8A0159010D
:102B7000E62FF0E08D919C911197BE016F5F7F4F22
:102B8000E817F9074CF4EA0FFB1F808590E040E15D
:102B900050E00E9443270EC0E81BF90B84E0EE0FC3
:102BA000FF1F8A95E1F7F896EA0FFB1FCB01BF01E3
:102BB0000E94AF04012B31F0612C68EF762EA0E06B
:102BC000B8EF20C08981A82FBB27A7FDB09520E0D2
:102BD000AE014F5F5F4F0EC0992787FD9095BC01F6
:102BE0006A9FC0016B9F900D7A9F900D1124A827BA
:102BF000B9272F5FFA01E20FF11D8081882361F769
:102C0000662477248E2D63E00E94B83240E5949FBD
:102C10009001112458E2C52ED12CC20ED31E8E2D48
:102C20000E94B832849FB001112448E2842E912C76
:102C3000860E971E695D7F4FC9018796A5019D018C
:102C400001E00E94702274E1A716B10489F55E01CB
:102C50000894A11CB11CF50101900020E9F77F0147
:102C60000894E108F108EA18FB08C501B7010E94C1
:102C7000222062E070E00E94C432C61AD70A6AE1DC
:102C800070E0860E971EC501B701A601940108E108
:102C900016EC0E9445200894C108D10808948108C8
:102CA0009108C501B701A601940183010E94452046
:102CB00060960FB6F894DEBF0FBECDBFCF91DF9107
:102CC0001F910F91FF90EF90DF90CF90BF90AF904A
:102CD0009F908F907F906F900895BF92CF92DF92D8
:102CE000EF92FF920F931F93DF93CF93CDB7DEB791
:102CF000A0970FB6F894DEBF0FBECDBFFC017B01DD
:102D0000808191818330910509F488C084309105D8
:102D100034F4009779F0019709F03FC108C084307E
:102D2000910509F4AFC0059709F037C1E3C0CB01A5
:102D3000C8DD33C1DB0112961C9112978C91180FDC
:102D400015C01150F701E10FF11D808D8F3371F027
:102D50008F5F808F282F30E02B52304012161306E1
:102D60002CF4C701612F40E050E0E8DE112349F761
:102D70000E94053197FD11C1382F8D3031F0F701D8
:102D8000E85AFE4F8F37A1F52CC0D701A85ABE4F85
:102D90008C91882309F401C1F701E80FF11DE85C6B
:102DA000FE4F10821C9260910A0570910B058AE01B
:102DB00090E00E940B05C701E8E3F1E0EE0EFF1E74
:102DC000B70112DE60910A0570910B058AE090E070
:102DD0000E940B0560910A0570910B058EE390E04F
:102DE0001AC08081882309F4D8C081508083D5C05F
:102DF00020812F3150F4E20EF11C48E351E0E40E43
:102E0000F51ED7018C932F5F208360910A05709186
:102E10000B05832F90E00E940B05BFC00280F38159
:102E2000E02D8281938160E570E00E94C4328B01C5
:102E3000000F111F060F171F8081918160E570E060
:102E40000E94C432060F171F17FDA7C0F70180812B
:102E5000918122813381820F931F081719070CF08B
:102E60009CC0C701602F41E050E024E130E066DE05
:102E7000D70115961C930E93149717961C930E93D7
:102E800016978BC00280F381E02DC080D1808281B3
:102E90009381FB0124813581FFEF2F3F3F0709F428
:102EA0007CC060E570E00E94C4328B01000F111FEE
:102EB000060F171FC60160E570E00E94C432060FBE
:102EC000171FD70116968D919C9117970817190710
:102ED00009F463C040E050E00217130711F441E029
:102EE00050E0C701622F24E130E028DEF7011783AC
:102EF000068353C0DB011496CD90DC901597BFEF8D
:102F0000CB16BFEFDB0609F448C0FB018681978131
:102F1000C816D906D9F504E110E0BC2CC7016B2D09
:102F200040E050E098010ADE000F111F0F3F11052D
:102F3000A9F3A4F38FEF9FEF0E948923D7012D916E
:102F40003C91C216D3068CF4EC0CFD1CF701808575
:102F500090E08E010F5F1F4FB80140E250E00E94E9
:102F60004327C8010E943C270EC08B2D90E0821B96
:102F7000930B24E0880F991F2A95E1F7C8968E0DD0
:102F80009F1D0E941F272FEF3FEF09C08FEF9FEF7C
:102F9000DB0115969C938E93149720E030E0C901D5
:102FA000A0960FB6F894DEBF0FBECDBFCF91DF91D4
:102FB0001F910F91FF90EF90DF90CF90BF900895F9
:102FC000DF93CF93CDB7DEB760970FB6F894DEBF2F
:102FD0000FBECDBFBC01CE0101960DD200D0EDB722
:102FE000FEB7928381830E9437050F900F90609106
:102FF0000A0570910B058AE090E00E940B0580E0C5
:1030000060960FB6F894DEBF0FBECDBFCF91DF91B3
:10301000089589E191E060E771E043E158E124E43B
:1030200032E00C94AD26AF92BF92CF92DF92EF9236
:10303000FF920F931F93DF93CF93CDB7DEB76897BF
:103040000FB6F894DEBF0FBECDBF7C018B01A4E3A9
:10305000AA2EA2E0BA2EA60EB71EC501B7010E9485
:103060005826D7018D919C918130910521F00397CD
:1030700009F08BC07DC08FEF9FEF0E948923F7017D
:10308000E280F380F2E1CF2ED12CC00ED11EC6011A
:1030900021D5C601B70133D6C801B7010E94AF04DC
:1030A0000E5B1D4F80E491E0D8018D939C930254F8
:1030B000124003C00894E11CF11CF70180818823B1
:1030C00011F08E32B9F7D80151961C921E9250978A
:1030D000F70180818E3209F58181893469F482811A
:1030E0008D34D9F483818233C1F481E090E051962C
:1030F0009C938E93509711C0823479F4D701129625
:103100008C9112978C3449F413968C91823429F463
:1031100082E090E0F801918B808BD80150968D91E0
:103120009C915197019779F4C601BE016F5F7F4F63
:1031300048E150E07BD5892B31F08981893619F43B
:103140008C818233B1F10E5B1D4FF80140815181BA
:1031500002541240662757FD6095762FC50123EE75
:1031600038E1E0E4EE2EE1E0FE2E0E94D6240DC010
:10317000D7011296ED91FC9113978281938180542F
:1031800091401CF02FEF3FEF02C020E030E0C9017A
:1031900068960FB6F894DEBF0FBECDBFCF91DF911A
:1031A0001F910F91FF90EF90DF90CF90BF90AF9065
:1031B00008950E5B1D4F8D859E85F8019183808358
:1031C00002541240C0CF8F929F92AF92BF92CF9283
:1031D000DF92EF92FF920F931F93CF93DF936B01D8
:1031E0007C015A014901E80188899989019781F494
:1031F0000E5E1F4FC80140E050E060E070E09FD4D9
:10320000C80160E070E0A501960184018FD712C06B
:1032100080E090E0BA0140EF50E00FEF1FEF0E9416
:10322000C421CE016AE070E04AE050E020E030E0E6
:103230000E94A021DF91CF911F910F91FF90EF90FD
:10324000DF90CF90BF90AF909F908F9008958F9216
:103250009F92AF92BF92CF92DF92EF92FF920F9325
:103260001F93CF93DF934C01EB015A0180911A0118
:10327000882309F45FC08AE191E060E070E0F40126
:103280000995882309F456C00FEF1FE745C0A70131
:1032900060E070E080913A0190913B01A0913C0187
:1032A000B0913D01480F591F6A1F7B1FE0915401E7
:1032B000F091550180915201909153010995882315
:1032C00049F5C0915201D0915301C12C82E0D82E12
:1032D000CC0EDD1E11C088818823E1F0853E59F0B7
:1032E0008B85887141F48701CE01B701A501F401F6
:1032F0000995882389F4A096CC15DD0561F708941B
:10330000E11CF11C80913E0190913F01E816F90605
:1033100008F4BDCF0FEF1FEFC801DF91CF911F91D0
:103320000F91FF90EF90DF90CF90BF90AF909F9064
:103330008F900895D0935301C0935201EE24FF243F
:10334000E1CFAC01DB012BE080E22150FA01E20F7A
:10335000F11D80832223C9F790E002C028E091E0AC
:103360003D91332391F0832F81568A3108F43052F6
:103370003E32A1F3283010F0992329F0FA01E20F30
:10338000F11D30832F5F2B3058F30895CF92DF92D9
:10339000EF92FF920F931F93DF93CF93CDB7DEB7DA
:1033A0002D970FB6F894DEBF0FBECDBF9C016B0109
:1033B0007A018E010F5F1F4FC801B901C2DFFD8680
:1033C000EC8687E49DE1B601A80141DF20E08F5F34
:1033D0009F4F09F021E0822F2D960FB6F894DEBFA3
:1033E0000FBECDBFCF91DF911F910F91FF90EF9056
:1033F000DF90CF900895CF93DF93AC01EB01DC0118
:1034000080E090E0FE01E80FF91FE081E03229F052
:10341000ED93019688309105A9F78885803271F087
:103420008EE28D938885803249F08D938985803234
:1034300029F08D936A85603209F06D931C92CA0160
:10344000DF91CF9108958F929F92AF92BF92CF92CA
:10345000DF92EF92FF920F931F93CF93DF934C0174
:103460007A018B01E90180914001909141015C0159
:10347000CC24DD24288539854A855B85C601B501C4
:103480000E949932E616F7060807190718F4E0E0DB
:10349000F0E029C0E61AF70A080B190B28893989C8
:1034A0004A895B89C601B5010E949932E616F70682
:1034B0000807190718F4E1E0F0E015C0E61AF70A6A
:1034C000080B190B288D398D4A8D5B8DC601B5010E
:1034D0000E949932E616F7060807190710F080E0F7
:1034E0002CC0E2E0F0E080914A0190914B01A09164
:1034F0004C01B0914D01E80EF91E0A1F1B1F23E07D
:10350000EE0FFF1F2A95E1F7EC0FFD1F2481358197
:10351000468157812250304040405040C601B5019D
:103520000E949932E60EF71E081F191FC401B80148
:10353000A7010E94A530811181E0DF91CF911F91F9
:103540000F91FF90EF90DF90CF90BF90AF909F9042
:103550008F900895DF92EF92FF920F931F93FC01DB
:103560007A018B01DD2480914E0190914F01A09151
:103570005001B09151010097A105B10529F0DD245A
:10358000D39447E050E002C048E050E0D801C701C2
:1035900004C0B695A795979587954A95D2F7AC0143
:1035A000BD018091420190914301A0914401B091ED
:1035B0004501480F591F6A1F7B1F80819181A2819D
:1035C000B381481759076A077B0751F0408351833D
:1035D0006283738380915201909153010E94A530C0
:1035E000E0915201F0915301DD2071F0C7018F7716
:1035F0009070880F991F880F991FE80FF91F20817D
:103600003181428153810BC0C7019070880F991F8F
:10361000E80FF91F808191819C0140E050E0B901E1
:10362000CA011F910F91FF90EF90DF9008956F9264
:103630007F928F929F92AF92BF92DF92EF92FF9212
:103640000F931F93DF93CF9300D000D0CDB7DEB799
:103650005C014B0119821A821B821C82FC01E080F2
:10366000F18002811381DD243E010894611C711CEC
:10367000089481089108C301B801A7016BDF9B0181
:10368000AC010894E11CF11C011D111D6E157F0594
:103690008007910791F18D2D90E08815990509F427
:1036A00051C080914E0190914F01A0915001B09175
:1036B00051010097A105B10529F48FEF9FEFA0E01C
:1036C000B0E004C08FEF9FEFAFEFBFE028173907DE
:1036D0004A075B07B9F1D394ED2DF0E073E0EE0FEC
:1036E000FF1F7A95E1F7EA0DFB1D208331834283AA
:1036F00053831482158216821782ED2DF0E063E069
:10370000EE0FFF1F6A95E1F7EA0DFB1D848195819D
:10371000A681B7810196A11DB11D84839583A683DF
:10372000B78379018A01A7CFD394ED2DF0E053E060
:10373000EE0FFF1F5A95E1F7EA0DFB1D1082118273
:10374000128213828D2D90E0881599056CF30F90ED
:103750000F900F900F90CF91DF911F910F91FF90DD
:10376000EF90DF90BF90AF909F908F907F906F9081
:103770000895CF92DF92EF92FF920F931F93DF9302
:10378000CF93CDB7DEB7A0970FB6F894DEBF0FBECC
:10379000CDBF6B015093530140935201BA01AE016A
:1037A0004F5F5F4FF3DD8823D1F1ED8CFE8C0F8DE1
:1037B00018A1F601E082F182028313838D899E892C
:1037C000A0E0B0E0DC01992788272B8D3C8D40E0FC
:1037D00050E0822B932BA42BB52B84839583A68357
:1037E000B78381E090E0A0E0B0E080879187A28776
:1037F000B387148615861686178620914001922F6E
:10380000990F80E0A0E0B0E08E159F05A007B107FA
:1038100028F4C601049663E070E009DF81E0A09619
:103820000FB6F894DEBF0FBECDBFCF91DF911F91D1
:103830000F91FF90EF90DF90CF9008958F929F921D
:10384000AF92BF92CF92DF92EF92FF920F931F93AE
:10385000DF93CF93CDB7DEB728970FB6F894DEBFCE
:103860000FBECDBF8C01FB01909353018093520199
:10387000709355016093540140E050E060E070E0C7
:103880000995882309F0EFC00E531E4FF80190816F
:103890000C5F1F4FF801A080B180C280D380065C0E
:1038A00011409D3028F49B3060F4992339F004C016
:1038B000892F8E50823028F0973018F0AA24BB242C
:1038C0006501E0915401F091550180915201909170
:1038D0005301B601A5010995882309F0C4C0F80178
:1038E000838594858050924009F0BDC0F80185859C
:1038F0008093400110924101268537856089818837
:10390000928886899789A0E0B0E0809346019093E1
:103910004701A0934801B09349010097A105B10563
:10392000C9F484A195A1A6A1B7A180934601909363
:103930004701A0934801B093490184A595A5A6A588
:10394000B7A580934E0190934F01A0935001B0937F
:10395000510108C010924E0110924F011092500177
:1039600010925101790100E010E0EA0CFB1C0C1DE3
:103970001D1DE0924201F092430100934401109317
:10398000450170E080E090E02091460130914701D0
:1039900040914801509149010E9499326E0D7F1D5E
:1039A000801F911F60933A0170933B0180933C010B
:1039B00090933D01940144E0369527954A95E1F7AF
:1039C00030933F0120933E0140E050E0620F731FAF
:1039D000841F951F60934A0170934B0180934C01A3
:1039E00090934D0180914E0190914F01A091500113
:1039F000B09151010097A105B10529F182E090E055
:103A0000A0E0B0E089839A83AB83BC8381E090E03F
:103A1000A0E0B0E08D839E83AF83B887CE0101968E
:103A200061E070E004DE609140017091410180E04E
:103A300090E02D813E814F8158850E94993270938C
:103A40003F0160933E0180914E0190914F01A09102
:103A50005001B09151010097A105B10511F480E129
:103A600003C080E201C080E028960FB6F894DEBF64
:103A70000FBECDBFCF91DF911F910F91FF90EF90BF
:103A8000DF90CF90BF90AF909F908F9008950F934D
:103A90001F93CF93DF93182F092FEA01BA014BE050
:103AA00050E00E94A204009711F080E00EC02B8528
:103AB0003C85C901DC01212F302FC901FC0180E2C6
:103AC00001900D928150E1F781E0DF91CF911F913C
:103AD0000F910895FC01EC5FFD4F80E092E081932F
:103AE00091931082118212821382E650F2408FEF7E
:103AF0009FEFAFEFBFEF80839183A283B3830895DD
:103B0000CF93DF93EC01CC5FDD4F19821882C45054
:103B1000D24088819981AA81BB8184179507A60725
:103B2000B70751F0FE014193519361937193CA5FBE
:103B3000DD4FCF019E0187DCDF91CF910895CF92B9
:103B4000DF92EF92FF920F931F938C016A017B012A
:103B5000E9E07595679557954795EA95D1F7D0DFD8
:103B60000C5F1D4F8FEF91E0C822D922F801D1825E
:103B7000C0821F910F91FF90EF90DF90CF9008953A
:103B80000F931F93CF93DF93EC018B01CC5FDD4F3D
:103B900088819981C450D2408050924051F448812C
:103BA00059816A817B814F5F5F4F6F4F7F4FCE019D
:103BB000A7DFFE01EC5FFD4F80E092E020813181C4
:103BC000821B930BD8018D939C93208131812C5FB4
:103BD0003F4F2C0F3D1FC901DF91CF911F910F91D6
:103BE0000895CF93DF93EC01CC5FDD4F88819981FD
:103BF000C450D2408050924051F4488159816A812A
:103C00007B814F5F5F4F6F4F7F4FCE0179DFFE01AA
:103C1000EC5FFD4F20813181C20FD31F8C812F5F5C
:103C20003F4F31832083DF91CF910895CF92DF9270
:103C3000EF92FF920F931F93CF93DF936C017B0161
:103C40008A01C0E0D0E007C0C601CBDFF701EC0F6E
:103C5000FD1F80832196C017D107B4F3C801DF91FF
:103C6000CF911F910F91FF90EF90DF90CF9008952B
:103C70000F931F93CF93DF93EC019B01FC01EC5F4B
:103C8000FD4F80819181860F971F9183808342E051
:103C9000813094071CF18C01061B170B11830083E4
:103CA000A901662757FD6095762F88819981AA81A1
:103CB000BB81F9E0880F991FAA1FBB1FFA95D1F7A6
:103CC000480F591F6A1F7B1F222717FD2095322F8F
:103CD000400F511F621F731FCE0131DFCC5FDD4FDC
:103CE000888199818150924028F080E090E060E7DF
:103CF00070E096D5DF91CF911F910F910895CF93EA
:103D0000DF93EC01CB01BE016A5F7D4FAE014C5FDA
:103D10005F4F2FDD882339F0CE0140E050E060E0B6
:103D200070E0EEDE81E0DF91CF9108952F923F9217
:103D30004F925F926F927F928F929F92AF92BF92BB
:103D4000CF92DF92EF92FF920F931F93DF93CF9367
:103D5000CDB7DEB72B970FB6F894DEBF0FBECDBF41
:103D60008E839F837B836A833D832C831801011597
:103D7000110521F4E4EC2E2EE1E23E2E40325105F5
:103D800061F4E6E7F1E0E4912E2F30E035952795D8
:103D9000359527953B872A87DAC028E731E0F90176
:103DA0008491481B510957FDD0C0D9011196FD01DE
:103DB000849190E0481759070CF0C7C0E3C02A85EA
:103DC0003B85249FB001259F700D349F700D1124F9
:103DD000605D7F4F3DC04D5F5F4F9A01220F331FE3
:103DE00043505040F901EB58FE4F7491C9018A5875
:103DF0009E4FFC016491972F80E0E62FF0E0E82BC6
:103E0000F92BFB87EA87452B19F420E030E013C03B
:103E1000F901ED58FE4F44912C583E4FF901249181
:103E2000942F80E030E0282B392B6A857B85621B3C
:103E3000730B7B876A87FD018491682F70E06D5F4B
:103E40007F4F54E0660F771F5A95E1F7620F731F9B
:103E5000CB018770907020E830E002C0359527953F
:103E60008A95E2F7422ECB0143E0959587954A95D6
:103E7000E1F7EAE7F1E0E4913C016E0E711C2A855E
:103E80003B85620F731F33E0759567953A95E1F7AF
:103E900060957095660E771E552452C04C010894AB
:103EA000811C911C8B589E4FFC0144912E813F81B7
:103EB000C9015C01C42ED42CEE24FF242A813B814D
:103EC000250D311D3987288734C08D2D90E02C2D8C
:103ED00030E082239323892B59F0C50168857985C9
:103EE00041E050E021E030E00C811D81F1010995B5
:103EF0008D2D90E095958795D82E8823A1F4F40117
:103F0000EB58FE4F0894811C911C4491442311F0FE
:103F1000C42E07C08A859B858E199F09099764F076
:103F2000CC2480E8D82E0894E11CF11C0894A11C34
:103F3000B11C3A85E31648F2C401860D971D5394CF
:103F40006981561608F4AACF02C01B861A868A8594
:103F50009B852B960FB6F894DEBF0FBECDBFCF91D9
:103F6000DF911F910F91FF90EF90DF90CF90BF9066
:103F7000AF909F908F907F906F905F904F903F9009
:103F80002F90089523503040F9018491682F70E0FC
:103F90007B876A872F5F3F4FF901F491F983672B85
:103FA00009F00DCF18CF9C01E5E7F1E0849188235B
:103FB00019F0482F50E02CC02032310549F43196D9
:103FC0008491482F50E0559547955595479520C0C9
:103FD000339684913397281B310937FD17C03496E7
:103FE000849190E0281739078CF414C0FB01ED5838
:103FF000FE4F34916C587E4FFB012491932F80E04B
:1040000030E0822B932B481B590B02C040E050E05C
:10401000CA0108952D5F3F4FB901660F771F2350E6
:104020003040FB01EB58FE4F5491CB018A589E4F14
:10403000FC014491952F80E050E0482B592B232B15
:10404000A9F6E6CFEF92FF920F931F93CF93DF93E2
:104050007C018B01C0E0D0E00AC0F70181917F01B3
:10406000992787FD90959FDF0196C80FD91F0150B2
:104070001040FFEF0F3F1F0781F7CE01DF91CF9177
:104080001F910F91FF90EF9008956F927F928F9202
:104090009F92AF92BF92CF92DF92EF92FF920F93D7
:1040A0001F93CF93DF933C014B017A0159016801C3
:1040B000C0E0D0E011C0F301EC0FFD1F4081552797
:1040C00047FD5095C701B501960100E010E02EDED6
:1040D0000196E80EF91E2196C815D90564F3C701AB
:1040E000DF91CF911F910F91FF90EF90DF90CF90D4
:1040F000BF90AF909F908F907F906F90089570E0E9
:104100006C7F707093E0660F771F9A95E1F790E0EF
:10411000887F9070982F8827682B792B4695469535
:10412000469550E0642B752BCB0108952F923F925A
:104130004F925F926F927F928F929F92AF92BF92B7
:10414000CF92DF92EF92FF920F931F93DF93CF9363
:10415000CDB7DEB76E970FB6F894DEBF0FBECDBFFA
:104160005C011B013A01490177E0E72EF12CEC0ECE
:10417000FD1EB70148E150E059DD892B09F4C4C0A8
:10418000D701E0E0F1E00BC08C9190E0332727FDF0
:1041900030958217930709F0B7C0119631962081A8
:1041A000222391F7A1C00B891C896B897C898D8999
:1041B0009E899801442737FD4095542F6217730755
:1041C0008407950714F49B01AC017301E20EF31E02
:1041D0001A8D112309F444C0212F30E040E050E053
:1041E0006150704080409040620F731F841F951F84
:1041F0000E94F932F90131961814190454F5E12F8F
:10420000F0E0C401BF010E94C432621773070CF4CE
:104210009B012E9FC0012F9F900D3E9F900D11245A
:10422000881A990AE81AF90A220F331F220F331F3E
:10423000C501B9011DDDC501BE016D5F7F4F44E0C1
:1042400050E0F4DC4B815C816D817E81C50177DCBF
:1042500007C0EE0FFF1FEE0FFF1FC501BF0108DDF6
:10426000670181E4E81681E0F80624F040E4C42EFA
:1042700041E0D42E4F855889960126193709C1018E
:10428000B3010E94C22E8F8987FF3EC0A40166271A
:1042900057FD6095762F4F5F5F4F6F4F7F4F39E02F
:1042A000440F551F661F771F3A95D1F7C50147DCAC
:1042B0004E010894811C911C72010027F7FC0095A7
:1042C000102F0EC0C501B4015BDCB801A7010E942C
:1042D0002B2EC50160E072E0CBDC0894611C711CE0
:1042E0006C147D047CF310C0698D70E0660F771F3D
:1042F0006D5F7F4F6C7FC501BBDC4F845888011513
:10430000110509F450CF51CF6E960FB6F894DEBF69
:104310000FBECDBFCF91DF911F910F91FF90EF9016
:10432000DF90CF90BF90AF909F908F907F906F90D5
:104330005F904F903F902F9008950C94162F089502
:10434000CF92DF92EF92FF920F931F937B016A014E
:104350008901DC010D900020E9F71197A81BB90B2A
:10436000BD01A701960191DE1F910F91FF90EF9083
:10437000DF90CF9008950C94042E08950C94252E70
:1043800008950C94282E08958F929F92AF92BF9219
:10439000CF92DF92EF92FF920F931F93CF93DF9311
:1043A0006C015B01EA0179014801C80FD91FE60ED3
:1043B000F71E0E94252EC817D9071CF00E94252E33
:1043C000EC010E94282EE816F9061CF00E94282E07
:1043D0007C01C601D7FE02C080E090E08E01081B80
:1043E000190B1016110604F5B501B7FE02C060E006
:1043F00070E0E701C61BD70B1C161D06ACF4A80124
:104400009E010E94C22EBE01882777FD8095982FBD
:104410009801442737FD4095542F0E949932AB01F3
:10442000BC01C4010E94842EDF91CF911F910F9196
:10443000FF90EF90DF90CF90BF90AF909F908F90C4
:1044400008950F931F938A0141E050E021E030E08E
:104450009BDF1F910F9108956F927F928F929F9291
:10446000AF92BF92CF92DF92EF92FF920F931F9382
:10447000CF93DF934C017B016A01E9013A01680E99
:10448000791E5901A60EB71EC301B501A801D9DFD7
:10449000C114D10431F0C4018C199D09B501A801E2
:1044A000D0DF209731F0B7016C1B7D0BC301A80151
:1044B000C8DFEC1AFD0AC4018C199D09B701A801D7
:1044C000C0DFDF91CF911F910F91FF90EF90DF90B0
:1044D000CF90BF90AF909F908F907F906F900895F6
:1044E0002F923F924F925F926F927F928F929F9204
:1044F000AF92BF92CF92DF92EF92FF920F931F93F2
:10450000DF93CF93CDB7DEB727970FB6F894DEBF12
:104510000FBECDBF9A8389837C836B8319010D8382
:1045200044245524441A550A3A011F821E8269C048
:104530008D818823D1F1A980BA80EE81FF81AE1AE6
:10454000BF0A4F01880C991C6B817C816619770921
:10455000C501A40121E030E0810116DFE980FA8085
:10456000E618F7086301CC0CDD1C6B817C818E8121
:104570009F81681B790BC701A60121E030E004DFB1
:104580006B817C81EE81FF816E0F7F1FC701A601C9
:1045900021E030E0F9DE6B817C81660D771DC5017D
:1045A000A40121E030E0F0DE16C089819A816B81A0
:1045B0007C81A3012E813F8181014EDF8E819F810D
:1045C0006816790641F089819A816B817C814E81E0
:1045D0005F81930141DF2E813F812F5F3F4FEE814D
:1045E000FF814E0E5F1E420E531E57FC08C00894FA
:1045F00061087108C301880F991F481A590A3F833F
:104600002E838E819F81681679060CF091CF2796B4
:104610000FB6F894DEBF0FBECDBFCF91DF911F91D3
:104620000F91FF90EF90DF90CF90BF90AF909F9051
:104630008F907F906F905F904F903F902F90089554
:104640000F931F939801660F771F660F771F880FD0
:10465000991F880F991F42E050E001E041DF1F9150
:104660000F9108954F925F926F927F928F929F92D7
:10467000AF92BF92CF92DF92EF920F931F93CF939F
:10468000DF932C014B01EA0159013801EE20D1F0F2
:10469000CA01880F991F880F991FB501660F771FF0
:1046A000660F771F625070402CE130E0829EA001BF
:1046B000839E500D929E500D1124029728E230E007
:1046C000860162DEEE2410C0E40DF51D4081552701
:1046D00047FD5095CE01B501930100E213E226DBC0
:1046E0000196C80FD91FE394EE2DF0E0E815F90507
:1046F0005CF3DF91CF911F910F91EF90DF90CF90FE
:10470000BF90AF909F908F907F906F905F904F90F1
:104710000895EF92FF920F931F938C010E94252E14
:104720007C010E94282E9C0180E090E060E070E017
:10473000A7012ADE80E090E00E94042E1F910F91D5
:10474000FF90EF9008950E94E32C94D4B9D3FECF4C
:10475000EF92FF920F931F93682F282F30E040E0D5
:1047600050E08091050190910601A0910701B09160
:10477000080175EBE72E75E9F72E7AEA072F70E24C
:10478000172F12C09C01AD01220F331F441F551F6C
:10479000121613061406150624F02E253F25402771
:1047A00051276150DA01C901662361F78093050141
:1047B00090930601A0930701B0930801B901CA01C3
:1047C0001F910F91FF90EF900895482F282F30E010
:1047D000C9018F779070892B19F4E0E0F0E012C0E6
:1047E000E42FEF7346FF03C08FE38E1BE82FF0E04A
:1047F000EA5EF84FE491F0E0319647FF03C0F09590
:10480000E195FF4FCF010895805CDFCF20EA3FE0C4
:1048100004C0F9013197F1F701970097D1F7089596
:1048200000D000D000D0EDB7FEB7319626E537E0D6
:10483000ADB7BEB712963C932E93119793838283A4
:10484000758364830E944B058DB79EB706960FB69D
:10485000F8949EBF0FBE8DBFFFCFCF92DF92EF9235
:10486000FF920F931F93CF93DF936C01EB019A019B
:10487000D6018D919C918C0F9D1FB1E080349B07D8
:10488000CCF5820F931F18161906A4F5AE0102C0CD
:1048900040545140E1E040345E07D4F702C0405C30
:1048A0005E4F57FDFCCFCA01820F931FF1E08134A8
:1048B0009F078CF040ECE42E4EEFF42EE80EF91E2C
:1048C00089010E191F09C601BE01A801C6DFC00F6C
:1048D000D11F9701CDCFBE01882777FD8095982FF6
:1048E000D6011C960D911C911D971A96ED91FC9185
:1048F0001B970995DF91CF911F910F91FF90EF903A
:10490000DF90CF9008950F931F93CF93DF93FC0117
:10491000C085D18500811181209729F10280F38122
:10492000E02D21E0E034F2071CF480E090E019C0B3
:10493000CE01959587959801281B390BC901BE01B9
:104940000E94C43220E431E02E1B3F0B6C9FC0015B
:104950006D9F900D7C9F900D1124821793070CF48E
:10496000C901BC011BC0101611062CF4662777275D
:10497000601B710B15C08281938131E080349307F5
:104980001CF460E070E004C060E471E0681B790B27
:10499000061717071CF060E070E002C0601B710B87
:1049A000CB01DF91CF911F910F910895AF92BF92EC
:1049B000CF92DF92EF92FF920F931F93CF93DF93EB
:1049C000EC015A016B013B872A871D870C871F82E8
:1049D0001E82198218825B834A83F986E88680E00A
:1049E00090E0C9DC1A141B041C041D04ECF47601CD
:1049F000650181E4C81681E0D80680E0E80680E021
:104A0000F80634F060E4C62E61E0D62EE12CF12CDD
:104A10000C851D85EA85FB8560E070E080E090E014
:104A200040E050E096010995DF91CF911F910F91E1
:104A3000FF90EF90DF90CF90BF90AF900895CF920E
:104A4000DF92EF92FF920F931F93CF93DF937C013E
:104A50006B01EA01C80ED91EC81BD90B29C06054CE
:104A6000714081E060347807D4F702C0605C7E4F0B
:104A700077FDFCCF0894E11CF11CCE01D7FF04C0E8
:104A8000882799278C1B9D0B8830910514F087E0AF
:104A900090E0FC01EE0FFF1FEC59F84F05911491C7
:104AA00080E090E040EF50E021E030E06DDC2197C5
:104AB000EC14FD0414F4B701D4CFDF91CF911F9112
:104AC0000F91FF90EF90DF90CF900895AF92BF923B
:104AD000CF92DF92EF92FF920F931F93CF93DF93CA
:104AE0005C017A018B016901FC01608171819B018C
:104AF000442737FD4095542F2E0D3F1D401F511F59
:104B00002034F1E03F07F0E04F07F0E05F070CF0E2
:104B10005EC0C601AA2797FDA095BA2F820F931FEA
:104B2000A41FB51FB7FD53C088279927861B970B75
:104B300022DC17FF18C0F50180819181E6018C15F8
:104B40009D050CF4EC01C701BE014FEF5FEF77DF6D
:104B5000CE01AA2797FDA095BA2FE80EF91E0A1FCD
:104B60001B1FCC1ADD0AF501828193819C01442729
:104B700037FD4095542F2E193F09400B510BC601AC
:104B8000AA2797FDA095BA2F82179307A407B50708
:104B900014F49C01AD01E901121613067CF4C50161
:104BA000B701A9015ADECE01AA2797FDA095BA2F19
:104BB000E80EF91E0A1F1B1FCC1ADD0A1C141D0467
:104BC00034F4F50142815381C701B60138DFDF912A
:104BD000CF911F910F91FF90EF90DF90CF90BF90FA
:104BE000AF900895DC01FB016115710521F18D91F4
:104BF0009C911197860F971F11969C938E9377FF28
:104C00000FC0AB01405C5E4F481B590B662757FD38
:104C10006095762F222733272E1B3F0BCD0156CFD1
:104C200044275527481B590B662757FD6095762F5B
:104C3000CD019F014BCF08950F931F93CF93DF9327
:104C40008C01FC0184819581C681D7818F5F9F4F44
:104C500031F0D595C795F801D783C68324C0C80124
:104C600052DE8C1B9D0B19F480E090E00AC097FF88
:104C700002C0039701C0039664E070E00E94C43252
:104C8000CB018C0F9D1FF80197838683009759F005
:104C900097FF02C00F9701C00F9660E170E00E947D
:104CA000C432C8019FDFDF91CF911F910F9108950A
:104CB000EF92FF920F931F93CF93DF938C01FB0131
:104CC000E280F3800190F081E02DE330F10561F0A6
:104CD000E430F1051CF4EF2BB1F136C0E430F105FE
:104CE00039F0359789F529C0F7018281938127C072
:104CF000FC0164817581FFEF6F3F7F0729F1F701A8
:104D00008281938168177907F9F0EC01C61BD70BF4
:104D1000CE0102960597C0F0C801BE0163DFF7011E
:104D200082819381F8019583848314E0CC0FDD1F89
:104D30001A95E1F7D783C68307C08FEF9FEFF8017D
:104D40009583848301C078DF80E090E0DF91CF918C
:104D50001F910F91FF90EF900895DF93CF9300D0B4
:104D600000D000D0CDB7DEB78091560190915701A9
:104D70008F30910509F446C0E3E021303E070CF086
:104D800041C0019690935701809356010197FC0111
:104D9000EE0FFF1FE80FF91FEE0FFF1FE85AFE4F3F
:104DA0007183608353834283358324834D565641F8
:104DB00049F5DE011196E8E5F1E026E001900D925B
:104DC0002150E1F7FC01EE0FFF1FE80FF91FEE0F76
:104DD000FF1FA8E5B1E0EA0FFB1F26E001900D924E
:104DE0002150E1F7FC01EE0FFF1FE80FF91FEE0F56
:104DF000FF1FE85AFE4FDE01119686E00D900192EA
:104E00008150E1F726960FB6F894DEBF0FBECDBFF6
:104E1000CF91DF91089580915601909157010895A7
:104E20008091B80490E0FC01EE0FFF1FE80FF91F1E
:104E3000EE0FFF1FE85AFE4F808191810895EF9297
:104E4000FF920F931F937C010DEB14E0C80164E700
:104E500077E00E948C04F80101900020E9F7E01B44
:104E6000F10BCF0184549B4FB7010E94AF041F91F7
:104E70000F91FF90EF900895BC018DEB94E040E21C
:104E800050E00C94C4049C01DB0197FD17C0809195
:104E90005601909157012817390784F4F901EE0F54
:104EA000FF1FE20FF31FEE0FFF1FE85AFE4F608156
:104EB0007181CD010E94930481E0089580E00895FE
:104EC000EF92FF920F931F93DF93CF93CDB7DEB78F
:104ED0002E970FB6F894DEBF0FBECDBF8091BB04F6
:104EE0009091BC04892B29F08091BD04882309F49A
:104EF0005BC08091BD04882351F46091580170918A
:104F000059018DEB94E040E250E00E949304FDEBE8
:104F1000EF2EF4E0FF2E01C07C01D7012C9122235B
:104F200029F0C70101962032B9F793C0809156014C
:104F30008093B8041AC0892F90E08C01000F111FD4
:104F4000080F191F000F111F085A1E4FF80160812A
:104F500071818DEB94E00E948304892B31F4D80198
:104F60001296ED91FC9113970EC08091B804982F82
:104F700091509093B8048823F1F61092B804E09110
:104F80005A01F0915B01F093BC04E093BB0481E013
:104F900090E09E838D83F886EF82CE01059662EBCA
:104FA00071E009951092BD041A821982CE0109960A
:104FB000D0D2882321F14091B6045091B704411515
:104FC0005105D1F029853A858091B2049091B304BE
:104FD0002817390771F42B853C858091B404909192
:104FE000B5042817390729F48D859E858417950700
:104FF00081F084E090E00BC083E090E008C08091F5
:10500000B6049091B704892B21F085E090E09A8353
:105010008983CE0109969C838B83A2EBB4E0FC01CB
:1050200086E001900D928150E1F7E091BB04F09190
:10503000BC04CE01019662EB71E009959093BA042D
:105040008093B904892B49F01092BC041092BB04E0
:1050500004C0F70110827C0169CF2E960FB6F89438
:10506000DEBF0FBECDBFCF91DF911F910F91FF909B
:10507000EF90089562D980E098EF4BDB0E94993061
:1050800082EB91E065EA70E30E941E1C1092BA0464
:105090001092B9041092BC041092BB041092B80490
:1050A0001092BD0408959C01F999FECF32BD21BD37
:1050B000F89A80B508959C01F999FECF1FBA32BDC8
:1050C00021BD60BD0FB6F894FA9AF99A0FBE089503
:1050D0008091980090919900880F08951092DE04B5
:1050E00090E0959587958093DD049C01611571058D
:1050F00029F49093990080939800089580919800E6
:1051000090919900281B390BC90145E0880F991F20
:105110004A95E1F7820F931F0E94C4326093DE0428
:10512000662339F437FD02C081E001C08FEF809320
:10513000DE0408959091DF04882311F0916001C08E
:105140009E7F9093DF040895209184003091850024
:105150008091E2049091E304BC0180E090E04091F2
:105160008400509185004217530720F46F5F7F4FF2
:105170008F4F9F4FCB01772766279A0140E050E081
:10518000620F731F841F951F20ED37E040E050E051
:105190000E94D732CA01B901089514BE109290003E
:1051A00047984698809A8898FFCF982F80917C00E6
:1051B000807E80937C00892F8950853008F4985E2A
:1051C00095FF04C080917B00806203C080917B00CA
:1051D0008F7D80937B0080917C009F71892B8093D1
:1051E0007C0080917A00806880937A0080917A00B8
:1051F000806480937A0080917A0084FFFCCF809154
:105200007A00806480937A0080917A0084FFFCCFDA
:10521000209178004091790080917A008F77809377
:105220007A00942F80E030E0282B392BC9010895B3
:1052300087988F9887E0B9DFAA2797FDA095BA2FA6
:10524000BC01CD0124E736E040E050E00E949932F5
:10525000272F382F492F552747FD5A95C901089503
:10526000AF92BF92CF92DF92EF92FF920F931F9374
:10527000CF93DF938C017A01FB01EE0DFF1DEE7FD2
:10528000E00FF11FA080B180EB01A70123C02196A0
:10529000FC01C080D1800296CA14DB04C4F3DA0199
:1052A000AA0FBB1FA00FB11F02C0415050409D016B
:1052B0008D919C9111971297A816B906B4F34C17CB
:1052C0005D0744F091838083F901D182C0822196E9
:1052D000415050404C175D0734F0CE01880F991FA4
:1052E000800F911FD5CF6417750714F4C801B8DF7C
:1052F000BE01CE15DF050CF4BFCFDF91CF911F911A
:105300000F91FF90EF90DF90CF90BF90AF900895F6
:10531000EF92FF920F931F938C017B0180E184B980
:1053200015B880E88AB98BB98CE03FDFF80191832A
:10533000808389E03ADFF701918380831F910F9189
:10534000FF90EF9008958F929F92AF92BF92CF926D
:10535000DF92EF92FF920F931F93DF93CF9300D0D2
:1053600000D0CDB7DEB74C015B01CE010196BE0186
:105370006D5F7F4FCDDF8B819C8108970CF45CC003
:1053800080E184B985B980E48AB91BB88CE00DDF6F
:105390007C01EB81FC81C980DA8080E092E08E198B
:1053A0009F0997FF0FC080E09EEFE80EF91E87016E
:1053B000B3E015950795BA95E1F780E092E0E80E25
:1053C000F91E06C08C01A3E015950795AA95E1F793
:1053D000B701882777FD8095982F9F01442737FDD7
:1053E0004095542F0E9499329601442737FD4095ED
:1053F000542F0E94F93224553040200F311F1216CD
:105400001306D4F48901000F111F80E284B985B915
:1054100080E88AB91BB88BE0C8DEF50191838083F0
:10542000F401F182E08298010F3F110519F014F0A8
:105430002FEF30E0822F01C080E00F900F900F908F
:105440000F90CF91DF911F910F91FF90EF90DF9020
:10545000CF90BF90AF909F908F9008956F927F9262
:105460008F929F92AF92BF92CF92DF92EF92FF9274
:105470000F931F93DF93CF93CDB7DEB76E970FB621
:10548000F894DEBF0FBECDBF4C013B018AE0E82E91
:10549000FF246E010894C11CD11C0BE0A02EB12C7E
:1054A000AC0EBD1E33C06F2D70E0660F771F8601F6
:1054B000060F171F6A0D7B1DC80145DF882331F1D8
:1054C000F801848B158AF394F5E0FF16F9F4C60110
:1054D00060E070E044E050E0C3DEC50160E070E0F1
:1054E00044E050E0BDDE8D819E81F4019183808394
:1054F0008F859889F30191838083CE01459660E082
:1055000070E044E050E0ACDE898D05C0EA94FFEF26
:10551000EF1649F680E06E960FB6F894DEBF0FBE28
:10552000CDBFCF91DF911F910F91FF90EF90DF9052
:10553000CF90BF90AF909F908F907F906F90089585
:10554000DC01EEEEF4E086E001900D928150E1F78F
:105550000895AF92BF92CF92DF92EF92FF920F9396
:105560001F93CF93DF93EC01809198009091990065
:105570000B9708F4DDC05CDE84579E400CF0D8C069
:105580008091980090919900019790939900809351
:105590009800EACF20918400309185008091E20448
:1055A0009091E304A0E0B0E06091840070918500E8
:1055B0006217730718F40196A11DB11DAC013327C2
:1055C0002227CB01A0E0B0E0280F391F4A1F5B1F44
:1055D0008091F4049091F504A091F604B091F70441
:1055E00079018A01E81AF90A0A0B1B0BD801C701D5
:1055F00080529E44A040B04048F4DE01EEEEF4E05C
:1056000086E001900D928150E1F708C02093F404E8
:105610003093F5044093F6045093F704AEEEB4E0F3
:10562000FE0186E001900D928150E1F78C819D8111
:10563000892B09F46EC02091E6043091E7044427D9
:1056400037FD4095542FE090EA04F090EB040027DA
:10565000F7FC0095102FE21AF30A040B150B570103
:105660006801D594C794B794A794688179818827F5
:1056700077FD8095982F621B730B840B950B20EFA1
:1056800030E040E050E055D7A60EB71EC81ED91E28
:10569000C601B501A8019701ACD7398328832091B1
:1056A000E8043091E904442737FD4095542FE090F9
:1056B000EC04F090ED040027F7FC0095102FE21A9F
:1056C000F30A040B150B57016801D594C794B794DE
:1056D000A7946A817B81882777FD8095982F621B2C
:1056E000730B840B950B20E431E040E050E021D7B0
:1056F000A60EB71EC81ED91EC601B501A801970186
:1057000078D73B832A838EEB93E29093E5048093D2
:10571000E4048FEF84B98AB98C81DF91CF911F9116
:105720000F91FF90EF90DF90CF90BF90AF900895D2
:10573000BE016E5F7F4FCE0191DE90E09D838C8332
:1057400030E0892B09F431E020E08091F20490915F
:10575000F304892B09F421E0321709F01BCF5ECF47
:1057600074D580E090E008958F929F92AF92BF929F
:10577000CF92DF92EF92FF920F931F93DF93CF931D
:1057800000D0CDB7DEB77C01962E872E6A0100E0EF
:1057900010E05E010894A11CB11CC501B80142E0F3
:1057A00050E023E538E20E94D30489818F3F11F154
:1057B00090E02A81E816F906A1F4B8016E5F7F4FE8
:1057C000422F50E0892D982D9C01421753070CF46D
:1057D0009A01C601A90123E538E20E94D30481E0C1
:1057E0000AC0822F90E00296080F191F82E0003055
:1057F00018079CF280E00F900F90CF91DF911F91DE
:105800000F91FF90EF90DF90CF90BF90AF909F905F
:105810008F90089586E990E09093E7048093E604E2
:105820008EE690E09093E9048093E8048EE393E0A1
:105830009093EB048093EA048AE793E09093ED045D
:105840008093EC041092F4041092F5041092F60484
:105850001092F70484E590E068E070E046EE54E0D2
:1058600083DF8EEB93E29093E5048093E404089544
:105870008F929F92AF92BF92CF92DF92EF92FF9260
:105880000F931F93DF93CF9300D0CDB7DEB77C018A
:105890005B014A0100E010E06E010894C11CD11CBC
:1058A000C601B80142E050E023E538E20E94D3048B
:1058B00089818F3F91F090E08E159F0529F48A81B0
:1058C00090E08A159B054CF48A8190E00296080FBF
:1058D000191F22E0003012071CF3F2E0CF2ED12C6A
:1058E000C00ED11EC6018E0D9F1D8150924014F036
:1058F00080E014C0E982AA82C801BE016F5F7F4FB9
:1059000042E050E02BE538E20E94EF04C601B4010A
:10591000A5012BE538E20E94EF0481E00F900F9083
:10592000CF91DF911F910F91FF90EF90DF90CF907B
:10593000BF90AF909F908F900895A6EEB4E0FC01C9
:1059400088E001900D928150E1F784E590E068E0F5
:1059500070E046EE54E08CCF880FA0D280E09EC26B
:105960000F931F93CF93DF938C0190D280E58CBD72
:105970007298C0E0D0E09E012A5F822FEDDFF8012F
:10598000EC0FFD1F80832196C330D105A1F7729AD9
:1059900083D2DF91CF911F910F9108951F93162FFE
:1059A000880F80687BD2812F79D21F9108956ED2A3
:1059B00080E58CBD72988DE060E8F0DF86E165E0FF
:1059C000EDDF729A69C284E48EB98DB98FEF81BB25
:1059D00080BB88B987B990E890936100109261000C
:1059E00081E885BF95BF84B7843041F414BE10921E
:1059F000900047984698809A8898FFCF469A8FE7FC
:105A000090E09093970080939600909399008093F4
:105A1000980092E09093900089E1809391008091AA
:105A20009000806880939000109280009093810095
:105A30001092850010928400B09A80916F0081606E
:105A400080936F00B4DF80E480937C0086E88093CD
:105A50007A00C5D3DFDE789480EB9BE2909301055A
:105A600080930005109203051092020582E0809356
:105A7000FB04109205051092040588EF94E09093C2
:105A80000B0580930A050895FC0100D000D08AE739
:105A900097E0ADB7BEB712969C938E93119723896A
:105AA00030E0928980E0282B392B220F331F149687
:105AB0003C932E9313970E944B050F900F900F90DD
:105AC0000F9008951F920F920FB60F9211242F93EB
:105AD0003F934F935F936F937F938F939F93AF9376
