:100000000C94830A0C94AB0A0C94AB0A0C94AB0AC4
:100010000C94AB0A0C94AB0A0C94AB0A0C94AB0A8C
:100020000C94AB0A0C94AB0A0C943A350C946C35D6
:100030000C94AB0A0C94AB0A0C94AB0A0C94AB0A6C
:100040000C94AB0A0C94AB0A0C94AB0A0C94AB0A5C
:100050000C942E310C94AB0A0C94AB0A0C94AB0AA2
:100060000C94AB0A0C94AB0A0C94AB0A0C94AB0A3C
:100070000C94AB0A0C94AB0A0C94AB0A0C94AB0A2C
:100080000C94AB0A0C94AB0A0C94AB0A0C94AB0A1C
:100090000C94AB0A0C94AB0A0C94AB0A0C94AB0A0C
:1000A0000C94AB0A0C94AB0A0C94AB0A0000000051
:1000B000000000000F30404788909090FF0000FF44
:1000C00000000000FF0000E010080808FF00000723
:1000D00008101010F00C02E211090909909090909C
:1000E0009090909000000018180000000808080880
:1000F000080808081010101010101010090909093C
:1001000009090909000000000304080800000000B4
:10011000FF00000000000000C02010103C7EFFFF28
:10012000FFFF7E3C0808040300000000000000FF01
:1001300000000000101020C000000000000000E0DF
:100140001008080800000007081010109090908810
:100150004740300F00000000FF0000FF10101008A3
:100160000700000008080810E00000000909091154
:10017000E2020CF0000000000F0808090000000077
:10018000FF0101FF0000000000FFFF000000000071
:10019000FF8080FF00000000F01010900908080F99
:1001A00000000000901010F0000000009090908877
:1001B0008780808009090911E10101018080808721
:1001C00088909090010101E11109090900000000E7
:1001D00000000000000000000060600036361224BD
:1001E000000000003636122400000000FEFFC3C3EA
:1001F000C3C3C3C31F1F003F3F303F3F8FCFCCCC93
:10020000CCCCCCCCF8FCCCCCCCCCCCCC7FFFC0C004
:10021000C0C0FF7F1F3F303030303F1F80C0C0C0A4
:10022000C0C0C08000000000000000001C26636306
:1002300063321C000C1C0C0C0C0C3F003E63071EB0
:100240003C707F003F060C1E03633E000E1E3666A8
:100250007F0606007E607E0303633E001E30607EE4
:1002600063633E007F63060C181818003C62723C02
:100270004F433E003E63633F03063C000102040817
:10028000102040000000001C00000000FF010101E0
:100290000101010101010101010101FFFF808080D5
:1002A0008080808080808080808080FF00000000CF
:1002B000000000001C3663637F6363007E63637E1F
:1002C00063637E001E33606060331E007C66636380
:1002D00063667C003F30303E30303F007F60607EA0
:1002E000606060001F30606763331F006363637F7B
:1002F000636363003F0C0C0C0C0C3F00030303030F
:1003000003633E0063666C787C6E6700303030308B
:1003100030303F0063777F7F6B63630063737B7F65
:100320006F6763003E63636363633E007E63636382
:100330007E6060003E6363636F663D007E6363675B
:100340007C6E67003C66603E03633E003F0C0C0C15
:100350000C0C0C006363636363633E006363637749
:100360003E1C080063636B7F7F77630063773E1CEE
:100370003E7763003333331E0C0C0C007F070E1CDA
:1003800038707F000E0E1C18100020003C4299A10E
:10039000A199423C0000F388F08080000000E788CB
:1003A00087808F0000008000008000000000003186
:1003B0005550000000484947480053434F524500FC
:1003C00000000000000000000000000000303000CD
:1003D000000000000000000000000000000000001D
:1003E000000000000000000000000000000000000D
:1003F00000000000000000000000000000000000FD
:1004000001020202020202020202020202030402CA
:1004100002020202020202020202020506070707A6
:100420000707070707070707070809070707070759
:10043000070707070707070A06070B0C0C0D070B32
:100440000C0C0C0D070809070B0C0C0C0D070B0C02
:100450000C0D070A060E0800000907080000000935
:1004600007080907080000000907080000090E0A2C
:1004700006070F101011070F10101011070F1107AA
:100480000F10101011070F101011070A06070707A9
:1004900007070707070707070707070707070707EC
:1004A000070707070707070A06070B0C0C0D070BC2
:1004B0000D070B0C0C0C0C0C0C0D070B0D070B0C8B
:1004C0000C0D070A06070F101011070809070F1077
:1004D000101213101011070809070F101011070A46
:1004E0000607070707070708090707070708090797
:1004F00007070708090707070707070A141515154F
:10050000150D0708160C0C0D000809000B0C0C1734
:1005100009070B151515151800000000000607083F
:1005200013101011000F11000F10101209070A000C
:10053000000000000000000000060708090000009D
:10054000000000000000000809070A000000000089
:100550000000000000060708090019151A1B1B1CE3
:10056000151D000809070A0000000000020202022F
:100570000211070F11000A00000000000006000F22
:1005800011070F0202020202000000000000070033
:1005900000000A0000000000000600000007000044
:1005A0000000000015151515150D070B0D000A00AC
:1005B000000000000006000B0D070B1515151515A2
:1005C000000000000006070809001E0202020202E5
:1005D000021F000809070A000000000000000000D8
:1005E0000006070809000052454144595B00000815
:1005F00009070A00000000000000000000060708CC
:1006000009000B0C0C0C0C0C0C0D000809070A005F
:1006100000000000010202020211070F11000F107A
:10062000101213101011000F11070F020202020521
:100630000607070707070707070707070708090748
:1006400007070707070707070707070A06070B0C2F
:100650000C0D070B0C0C0C0D070809070B0C0C0CF0
:100660000D070B0C0C0D070A06070F101209070FD8
:1006700010101011070F11070F1010101107081399
:100680001011070A060E07070809070707070707DB
:1006900007000007070707070707080907070E0AEB
:1006A000200C0D070809070B0D070B0C0C0C0C0C8C
:1006B0000C0D070B0D070809070B0C212210110761
:1006C0000F11070809070F10101213101011070857
:1006D00009070F11070F1023060707070707070869
:1006E0000907070707080907070707080907070792
:1006F0000707070A06070B0C0C0C0C17160C0C0D41
:10070000070809070B0C0C17160C0C0C0C0D070A2C
:1007100006070F101010101010101011070F1107FE
:100720000F101010101010101011070A06070707FD
:100730000707070707070707070707070707070749
:10074000070707070707070A1415151515151515C7
:100750001515151515151515151515151515151549
:100760001515151800000000A000A800AA00AA8016
:10077000AA802A8000000000002A00AA02AA002AFB
:1007800000020000AA80AA80AA00A800A000000021
:10079000000000000002002A02AA00AA002A0000AD
:1007A0000000000000000000005005505100010052
:1007B0000400100000000000000000000000000124
:1007C00003F40FDFDF00DFC0FFC0BFC0EFC0FF00DA
:1007D000000000000FFC0EF30FB303F30003000052
:1007E000000000000000000000500500005555000A
:1007F00040555501505555055055550550696905E9
:1008000054696915545555155455551594969616B1
:1008100064696919545555151415541404141410A9
:1008200000000000000000000050050000555500C9
:1008300040555501505555055055550550696905A8
:100840005469691554555515545555159496961671
:1008500064696919545555155451451550400105A1
:10086000000000000000000000A00A0000AAAA008A
:1008700080AAAA02A0BEEA0BA0FFFA0FA05FFA05A9
:10088000A85FFA25A8BEEA2BA8AAAA2AA8AAAA2A7B
:10089000A8AAAA2AA8AAAA2A282AA8280828282072
:1008A000000000000000000000A00A0000AAAA004A
:1008B00080AAAA02A0BEEA0BA0FFFA0FA05FFA0569
:1008C000A85FFA25A8BEEA2BA8AAAA2AA8AAAA2A3B
:1008D000A8AAAA2AA8AAAA2AA8A28A2AA080020AA2
:1008E000000000000000000000A00A0000AAAA000A
:1008F00080AAAA02A0AAAA0AA0AFFA0AE0BFFE0B29
:10090000E8BFFE2BE8B55E2BA8A55A2AA8AAAA2AFA
:10091000A8AAAA2AA8AAAA2A282AA82808282820F1
:10092000000000000000000000A00A0000AAAA00C9
:1009300080AAAA02A0AAAA0AA0AFFA0AE0BFFE0BE8
:10094000E8BFFE2BE8B55E2BA8A55A2AA8AAAA2ABA
:10095000A8AAAA2AA8AAAA2AA8A28A2AA080020A21
:10096000000000000000000000A00A0000AAAA0089
:1009700080AAAA02E0ABBE0AF0AFFF0A50AFF50AA8
:1009800058AFF52AE8ABBE2AA8AAAA2AA8AAAA2A7A
:10099000A8AAAA2AA8AAAA2A282AA8280828282071
:1009A000000000000000000000A00A0000AAAA0049
:1009B00080AAAA02E0ABBE0AF0AFFF0A50AFF50A68
:1009C00058AFF52AE8ABBE2AA8AAAA2AA8AAAA2A3A
:1009D000A8AAAA2AA8AAAA2AA8A28A2AA080020AA1
:1009E000000000000000000000A00A0000A55A005E
:1009F000C0B55E03E0BFFE0BE0BFFE0BA0AFFA0A7E
:100A0000A8AAAA2AA8AAAA2AA8AAAA2AA8AAAA2A4E
:100A1000A8AAAA2AA8AAAA2A282AA82808282820F0
:100A2000000000000000000000A00A0000A55A001D
:100A3000C0B55E03E0BFFE0BE0BFFE0BA0AFFA0A3D
:100A4000A8AAAA2AA8AAAA2AA8AAAA2AA8AAAA2A0E
:100A5000A8AAAA2AA8AAAA2AA8A28A2AA080020A20
:100A60000000000000000000000000000000000086
:100A700000000000FCC0030F0333CC300333CC3044
:100A8000C030CC303030CC300C30CC30FFC3030F12
:100A90000000000000000000000000000000000056
:100AA0000000000000000000000000000000000046
:100AB00000000000C0C0030FF030CC30CC30CC3090
:100AC000C330CC30FF33CC30C030CC30C0C0030F8B
:100AD0000000000000000000000000000000000016
:100AE0000000000000000000000000000000000006
:100AF00000000000FCC0030F0333CC300333CC30C4
:100B0000FC30CC300333CC300333CC30FCC0030F8B
:100B100000000000000000000000000000000000D5
:100B200000000000000000000000000000000000C5
:100B300000000000C30F0F3C33C030C333C030C3CC
:100B4000F3CF30C333CC30C333CC30C3C3030F3CFB
:100B50000000000000000000000000000000000095
:100B6000000000000000000000A80A0080AA0A009F
:100B7000A0AA0200A0AA0000A82A0000A80A00005B
:100B8000A8020000A80A0000A82A0000A0AA0000ED
:100B9000A0AA020080AA0A0000A80A000000000023
:100BA000000000000000000000A80A0080AAAA00BF
:100BB000A0AAAA02A0AAAA02A82AAA0AA80AA80A5F
:100BC000A802A00AA800800A2800000A000000006D
:100BD0000000000000000000000000000000000015
:100BE000000000000000000000A80A0080AAAA007F
:100BF000A0AAAA02A0AAAA02A8AA2A00A8AA00003B
:100C0000A8020000A8AA0000A8AA2A00A0AAAA0276
:100C1000A0AAAA0280AAAA0000A80A000000000058
:100C2000000000000000000000A80A0080AAAA003E
:100C3000A0AAAA02A0AAAA02A8AAAA0AA82AAA0A3C
:100C4000A82AAA0AA80AA80AA80AA80AA00AA80202
:100C5000A002A0028002A00000000000000000002E
:100C6000000000000000000000A80A0080AAAA00FE
:100C7000A0AAAA02A0AAAA02A8AAAA0AA8AAAA0A7C
:100C8000A8AAAA0AA8AAAA0AA8AAAA0AA0AAAA025C
:100C9000A0AAAA0280AAAA0000A80A0000000000D8
:100CA000000000000000000000A02A0000AAAA0224
:100CB00080AAAA0A80AAAA0A00A8AA2A0000AA2A28
:100CC0000000802A0000AA2A00A8AA2A80AAAA0A4C
:100CD00080AAAA0A00AAAA0200A02A000000000016
:100CE000000000000000000000A02A0000A0AA02EE
:100CF0000080AA0A0000AA0A0000A82A0000A02A70
:100D00000000802A0000A02A0000A82A0000AA0AE9
:100D10000080AA0A00A0AA0200A02A000000000089
:100D200000000000000E0E1F03010C114F03020E05
:100D3000118903031011CB01040E1A0003000B01EB
:100D40000F000B030F000B050F000B070F000B0923
:100D500009000B0F0F000B000F0009090900020F1B
:100D600001000C0F01000C020700050F0900020F23
:100D700001000C0F050001090B00050F0F00030413
:100D800001020714071405140500020019000023CE
:100D90001B2304000004FC00FC04050605040200FB
:100DA0000204040301037061636D616E006F666687
:100DB000007669657700253032583A20253034585E
:100DC0000D0A007368656C6C007669657700000B2E
:100DD00009215F3B00010004000B0010001A0021F4
:100DE000002200250028002D003400360039003A8A
:100DF000003F00440049004E00530059005E00636C
:100E00000068006D007200730075007B008200882E
:100E1000008C0094009A00A000A700AE00B300B8B8
:100E200000BF00C500C800CC00D200D700DE00E43F
:100E300000EB00F000F700FD0103010A01100116AC
:100E4000011F0125012C01320135013A013D014408
:100E5000014B014D01520157015C01610166016ABC
:100E6000016F017401750178017D017E0187018C9C
:100E700001910196019B019F01A301A701AC01B162
:100E800001B801BD01C201C601CB01CC01D101D81D
:100E900001D8500400004C200002000000000000B7
:100EA0000000000000000000000000000000000042
:100EB00000000000000000003C380010200080C14D
:100EC00009840000000000000000007C00D14462A2
:100ED0001852A80002E239C17CDF73800000E3E30E
:100EE0003C3DF3FF3D0F78618F139E39E3DFE186D0
:100EF000230C1FE40880082000810100840000000A
:100F00000008000000009200D14F9224527080052A
:100F10001E462341018C400000141322430A104353
:100F20000A18A18F14514514222186230A20620930
:100F30004000200081010084000000000800000043
:100F400000920087F4942421A8800512042542020F
:100F50008C68603019D4A2810610810A1921569834
:100F6000318314022185549140A20A2003BCE7BBBF
:100F7000DFEB8FDDE779F6FF18C98C7C9200829455
:100F80006419212080091208C97BC274699FCC2A88
:100F900054BE8107FE81FA1A21569831831302212B
:100FA00049546081210C10006318C5231996231839
:100FB000C6390918C952849231828E09A52107F3D6
:100FC0008912103106248BC600034A54A1810610F1
:100FD0008F0A1E2126583E83E0C221495460822197
:100FE000080003E308FD2319A62318C63189155507
:100FF000228B11C98FC50A622100801112203F8601
:101000002488419FCC4A5FE1810610830A1921267A
:10101000583083202221495490842088000463089A
:10102000C12319E62318C63069155522909246054A
:1010300005126321008451124221462888A860309D
:1010400009A861430A10430A18A106345045142226
:101050002130890888208800046318C52319962345
:1010600018C63029122251209200851E119C920030
:101070008460EFFDC139C87328000044087E3DF349
:10108000F03D0FE87F063390390BC21E3089088F80
:10109000E0480003FCE7B91F198E231779F1C6F267
:1010A00022893C920000040000120004200000008D
:1010B00000000008000003C0000000000000000065
:1010C00000000008000000000000002048000000B0
:1010D000000002010000004020000000010092001A
:1010E000000400000C0008000000000000001000D8
:1010F00000000000000000000000000000000600EA
:1011000000000000000038380FE00000001C06005E
:101110000000402000000002007C00050A08215E5B
:101120003B02800000824000000020000000000020
:1011300000000000000000000000000000000000AF
:1011400000000000001D0700000400101C1000102B
:10115000C000000000000000000444002280403075
:1011600084200000002E239C2F9BEE70000001CFF6
:10117000279DCFFDD171E308E5DE779DF8C6318F5D
:10118000D101100404001020102090400000000045
:10119000800000000842002294F4488811080000F2
:1011A0005164626820318800104230246328423143
:1011B000206508E6318C6248C6B188508128020457
:1011C0000010201000104000000000800000000807
:1011D0004200203F4AC80815480000532042A8405A
:1011E0005189086FB036546118421120690DD6310B
:1011F0008C6048C6AA8890814400779EF779DE61AA
:10120000924D79DE7D9EE8C6318FC842002014E5FC
:10121000300813BE0F8095218D2F784E7801800CF9
:101220005657A11F7A7F20710DD63E8F9C48AAA4E5
:1012300071104100000C6118A23120944AC6318E11
:101240006088C6AA88904130201452C8081548000A
:1012500000992203F0C49108006FB097746118429E
:101260003120690AD6308C4248A94A221041000038
:101270007C611FA23120984AC6318C1C88AAA4899F
:1012800008424C003FE544081108000111242228BF
:10129000C49111081040108C6328423120650ACE99
:1012A000309C6248915124102100008C6118223139
:1012B00020944AC6318C0288A94A8A084200201428
:1012C00048B804200040110E77DC27390E6010006A
:1012D000008F8F9DCFC1F177A3F8CDD07C5C4711F3
:1012E0005127D02100007F9EF7A1F120924AC5DE50
:1012F0007C3C7791517FC842000000000002400012
:10130000800200000000000000000000000000005B
:10131000000000000000000000000000001C170397
:10132000E000000000200080000010080000000025
:10133000080444000000000000000000000000005D
:10134000000000000000000000000000000000009D
:10135000000000000000000000000000000000018C
:10136000C00700000010080000000070000000002E
:10137000060D13191F252C32383E444A50565C6224
:10138000676D73787E83888E93989DA2A7ABB0B467
:10139000B9BDC1C5C9CDD0D4D7DBDEE1E4E7E9EC06
:1013A000EEF0F2F4F6F7F9FAFBFCFDFEFEFFFF416A
:1013B00053534552543A2025733A2564000C638EEA
:1013C000731084929414A596B518C69AD67669655A
:1013D000772000253034580A00E3E7EF00FF0102D0
:1013E000030408090A0C0D0F10111213FF1011FF4E
:1013F00012FF1329FF30313235363738393C3D2062
:10140000215051525360616A808182838485909219
:1014100093959798070830120031120100320000AE
:101420000100073010000002020000000000000070
:101430000000000000070000000000C80090162710
:101440000232001A00320000182A003200000000A8
:10145000000000060208080700010200000000006A
:1014600000000000000000EF0000003F0100A703A3
:10147000000000000000000000000000000000105C
:101480000000000300100100000000330104030904
:101490000416034D006900630072006F0074006F52
:1014A0000075006300680012010002020000109A3B
:1014B0002301200001000200010902430002010093
:1014C000803209040000010202000005240010011E
:1014D0000524010101042402020524060001070578
:1014E000810310004009040100020A000000070502
:1014F00002024000000705830240000000003F0E8A
:10150000C419DB198D1D11241FBECFEFDAE0DEBF39
:10151000CDBF11E0A0E0B1E0EEECFEE602C0059028
:101520000D92A633B107D9F715E0A6E3B1E001C0EB
:101530001D92AF32B107E1F714E1C6E0D5E104C076
:101540002297FE010E942A37CE3FD107C9F70E9499
:10155000A7280C9465370C940000FB01DC018D91E9
:10156000059080190110D9F3990B0895FB01DC0156
:1015700005900D920020E1F70895FB01DC01415038
:10158000504048F005900D920020C9F701C01D920F
:1015900041505040E0F70895FB01DC0104C08D91FB
:1015A0000190801921F441505040C8F7881B990BD5
:1015B0000895FB01DC0101900D920020E1F70895F0
:1015C000FB01DC014150504030F08D9101908019B9
:1015D00019F40020B9F7881B990B0895FB01DC0171
:1015E0004150504048F001900D920020C9F701C0D1
:1015F0001D9241505040E0F70895A0E0B0E0E3E0D4
:10160000FBE00C9438377C01EB018A01690109C0C9
:10161000CE012196F6010995F70181937F010150D2
:10162000104001151105A1F7CDB7DEB7E8E00C9425
:1016300054370F931F93CF93DF938C01EB018B8172
:1016400081FF1BC082FF0DC02E813F818C819D8157
:101650002817390764F4E881F9810193F983E88355
:1016600006C0E885F985802F0995892B31F48E8194
:101670009F8101969F838E8302C00FEF1FEFC801E9
:10168000DF91CF911F910F910895A0E0B0E0EBE4BE
:10169000FBE00C943E37FE0135966191719180918B
:1016A0002B0590912C05AF014CD02096E2E00C94D4
:1016B0005A37A0E0B0E0EFE5FBE00C943E37FE01C6
:1016C000359661917191A0912B05B0912C051396DF
:1016D0008C911397886013968C9380912B05909131
:1016E0002C05AF012ED0E0912B05F0912C05238124
:1016F000277F23832096E2E00C945A37AEE0B0E0D7
:10170000E4E8FBE00C943C370D891E8986E08C836D
:101710001A8309838FEF9FE79E838D839E01275E47
:101720003F4FCE0101966F89788DA9010AD02F8194
:101730003885020F131FF80110822E96E4E00C94F6
:101740005837ABE0B0E0E7EAFBE00C942E373C0101
:101750002B015A01FC0117821682838181FD03C08F
:101760006FEF7FEFB9C19AE0892E1E010894211C0A
:10177000311CF3012381F20123FD859123FF819127
:101780002F01882309F4A5C1853239F423FD859101
:1017900023FF81912F01853221F490E0B30149DFCD
:1017A000E8CF982FFF24EE249924FFE1FF15D0F015
:1017B0009B3269F09C3228F4903259F0933291F4C4
:1017C0000EC09D3249F0903369F441E024C052E0EC
:1017D000F52A84E0F82A28C098E0F92A25C0E0E13B
:1017E000FE2A22C0F7FC29C0892F80538A3070F46A
:1017F000F6FE05C0989C902C1124980E15C0E89C0C
:10180000E02C1124E80EF0E2FF2A0EC09E3229F4EB
:10181000F6FC5FC140E4F42A07C09C3619F450E896
:10182000F52A02C0983649F4F20123FD959123FF71
:1018300091912F01992309F0B8CF892F85548330D6
:1018400018F08052833038F444E050E0A40EB51E06
:101850005FE359830FC0933631F0933779F09335B6
:1018600009F052C01FC0F5018081898342E050E039
:10187000A40EB51E610101E010E011C0F501C080A9
:10188000D180F6FC03C06FEF7FEF02C0692D70E0DE
:1018900042E050E0A40EB51EC6012ED18C015FE7D8
:1018A000F52213C0F501C080D180F6FC03C06FEFB4
:1018B0007FEF02C0692D70E042E050E0A40EB51E3B
:1018C000C6010FD18C0150E8F52AF3FE06C018C0FE
:1018D00080E290E0B301ADDEEA948E2D90E008172F
:1018E0001907B0F30DC0F601F7FC8591F7FE819161
:1018F0006F0190E0B3019DDEE110EA9401501040C9
:101900000115110581F7E2C0943611F0993661F5A1
:10191000F7FE08C0F501208131814281538184E0C6
:1019200090E00AC0F501808191819C01442737FD38
:101930004095542F82E090E0A80EB91E9FE6F92250
:1019400057FF09C050954095309521953F4F4F4F17
:101950005F4FE0E8FE2ACA01B901A1012AE030E0A8
:10196000D6D0D82ED2183FC0953729F41F2D1F7E10
:101970002AE030E01DC01F2D197F9F3661F090379F
:1019800020F4983509F0A5C00FC0903739F098378A
:1019900009F09FC004C028E030E00AC0106114FDC7
:1019A000146020E130E004C014FD166020E132E054
:1019B00017FF08C0F501608171818281938144E045
:1019C00050E008C0F50180819181BC0180E090E089
:1019D00042E050E0A40EB51EA10199D0D82ED21835
:1019E0008FE7F82EF122F6FE0BC05EEFF522D91438
:1019F00038F4F4FE07C0F2FC05C08FEEF82202C0F6
:101A00001D2D01C0192DF4FE0DC0FE01ED0DF11DBF
:101A10008081803319F499EEF92208C01F5FF2FE2D
:101A200005C003C08F2D867809F01F5F0F2DF3FCD2
:101A300013C0F0FE0EC01E1510F09D2C0AC09D2C88
:101A40009E0C911A1E2D05C080E290E0B301F1DDDD
:101A50001F5F1E15C8F304C01E1510F4E11A01C063
:101A6000EE2404FF0EC080E390E0B301E2DD02FF4C
:101A70001BC001FD03C088E790E00EC088E590E040
:101A80000BC0802F867881F001FF02C08BE201C07D
:101A900080E2F7FC8DE290E0B301CBDD05C080E38E
:101AA00090E0B301C6DD9A94D914C8F3DA94F10139
:101AB000ED0DF11D808190E0B301BBDDDD20B1F7BC
:101AC00005C080E290E0B301B4DDEA94EE20C9F7EE
:101AD00050CEF30166817781CB012B96E2E10C9425
:101AE0004A37FC010590615070400110D8F780958D
:101AF00090958E0F9F1F0895FC01615070400190DA
:101B00000110D8F7809590958E0F9F1F0895FA01C8
:101B1000AA27283051F1203181F1E8946F936E7F2C
:101B20006E5F7F4F8F4F9F4FAF4FB1E03ED0B4E01D
:101B30003CD0670F781F891F9A1FA11D680F791F5E
:101B40008A1F911DA11D6A0F711D811D911DA11D6F
:101B500020D009F468943F912AE0269F112430197F
:101B6000305D3193DEF6CF010895462F4770405D1A
:101B70004193B3E00FD0C9F7F6CF462F4F70405DC9
:101B80004A3318F0495D31FD4052419302D0A9F724
:101B9000EACFB4E0A6959795879577956795BA951E
:101BA000C9F700976105710508959B01AC010A2EE4
:101BB00006945795479537952795BA95C9F7620FBB
:101BC000731F841F951FA01D0895DB01B90102C07A
:101BD000445E5F4F57FDFCCF02C04C5150404C312A
:101BE0005105DCF78CE190E0689FF001699FF00DF2
:101BF000789FF00D1124E40FF51FE455FC4F8491FC
:101C00008823E9F08730D9F08E30C9F08B3199F50F
:101C10001F968C911F97843071F119969C9119979A
:101C200018968C9118978B50873018F49F509330EA
:101C300030F01C968D919C911D970497E1F41A96B3
:101C40008C911A9790E0841B950B1B962C9130E099
:101C5000261B370B889FA001899F500D989F500D20
:101C60001124229FC001239F900D329F900D1124BB
:101C7000480F591F02C04FEF5FE7CA01089587E37D
:101C800091E066EA7DE042E956E126E831E00C9415
:101C9000902B2F923F924F925F926F927F928F92F2
:101CA0009F92AF92BF92CF92DF92EF92FF920F93EB
:101CB0001F93DF93CF93CDB7DEB7C654D0400FB696
:101CC000F894DEBF0FBECDBF8C015B014A01722EBE
:101CD000262F642F4A2D50E0623208F450C0FA01DA
:101CE000F595E795E00FF11FE459FE4F2081FE01C5
:101CF0003196222331F480E4DF011D928A95E9F7C1
:101D0000D1C02150220F220F30E06170660F8A2D62
:101D100080958170680FA901460F511DB4E0440FF2
:101D2000551FBA95E1F74C59584FA9E5EA2EADE099
:101D3000FA2EE20EF31E9F01E1E4CE2ED12CCC0E42
:101D4000DD1E19C0FA01849164E0615090E0FC014D
:101D5000E370F070EE0DFF1DE491D901A60FB11DE7
:101D6000EC939595879595958795662371F74F5FC9
:101D70005F4F2C5F3F4F2C153D0521F793C0A82DD9
:101D8000B0E08CE190E0A89FF001A99FF00DB89F12
:101D9000F00D1124E40FF51FE455FC4F74917E0102
:101DA0000894E11CF11C80E4F70111928A95E9F78F
:101DB000643189F42B3020F1213110F5025A1E4F85
:101DC000D8018D919C910E551140892B09F442C088
:101DD00070E04BE043C0613099F4273038F4400F95
:101DE000511F4C595E4FFA01708134C02A50273080
:101DF00088F5400F511F465A5E4FDA017C912AC088
:101E0000773021F07E3011F04BE021C01397CA01EA
:101E100063E0959587956A95E1F7AA0FBB1FAA0F16
:101E2000BB1FA00FB11FA80FB91FA259BF4F2C9104
:101E300030E04770507080E890E002C0959587953B
:101E40004A95E2F728233923232B61F14EE07B31B9
:101E500011F450C14BE0703308F04FE0872F90E051
:101E600023E0880F991F2A95E1F784559F4F9E0123
:101E70002F5F3F4FBE01675C7F4FFC010196A4912D
:101E8000B0E008C0A7FF04C0F901EB0FF11D4083CB
:101E9000AA0FBF5FAA23B1F72617370719F0285FEB
:101EA0003F4FEBCFF50183E0EE0FFF1F8A95E1F77F
:101EB0002396FFAFEEAF23975401B3E0AA0CBB1CEF
:101EC000BA95E1F7772009F4E0C0B8016624CE01A5
:101ED000019625969FAF8EAF2597DB018D919C9142
:101EE000119744E050E0481B590B2396EEADFFAD2F
:101EF00023974E0F5F1FCA010796479708F0BEC091
:101F000012968D919C911397E4E0F0E0E81BF90B99
:101F1000EA0DFB1DCF010796479708F0AFC0F7FD0C
:101F200006C07F016E010894C11CD11C0EC0CF01F8
:101F3000A3E0880F991FAA95E1F72596CEACDFACF8
:101F40002597C81AD90AEE24FF2430E1732E741A9B
:101F500028E0822E871410F498E0792E57FD02C0F5
:101F6000222404C0242E219440E050E0DB01559649
:101F70001C9117FD02C0970104C02FE030E02E191C
:101F80003F09CF0108968131910514F080E190E07E
:101F9000FC01EE19FF097F01DB0154968C91A82FFB
:101FA000B0E086E0AA0FBB1F8A95E1F7AC51B84FAD
:101FB000220F331F220F331FA20FB31F110F110F58
:101FC000CA019595879595958795A80FB91F9A0190
:101FD00023703070FB018389482F50E0440F551F58
:101FE000440F551F435C524F2901440C551C94E08B
:101FF000392E321A812E992487FC909427969FAE11
:102000008EAE279737C09D012F5F3F4FFD01849112
:1020100090E0042C02C0959587950A94E2F7182F5A
:10202000932D022DE12FE37059F04A018E0E911C81
:10203000F4018491882321F0F601E00FF11D8083E3
:10204000915019F01695169505C0F9012F5F3F4F75
:10205000149194E00F5F071528F388E090E0C80E14
:10206000D91E2796EEADFFAD2797AE0FBF1F089480
:10207000E108F108E114F10409F0C5CF63946A5E48
:102080007F4FF5E06F1609F028CF80E1882E912C64
:10209000A80CB91C23968EAD9FAD23970896B50169
:1020A00048E050E028E030E00E940326CE0101968F
:1020B00069E071E020E430E040E050E00E942E272B
:1020C000CA5BDF4F0FB6F894DEBF0FBECDBFCF9116
:1020D000DF911F910F91FF90EF90DF90CF90BF9015
:1020E000AF909F908F907F906F905F904F903F90B8
:1020F0002F9008954EE0B2CE8F929F92AF92BF92F2
:10210000CF92DF92EF92FF920F931F93DF93CF93C3
:10211000CDB7DEB728970FB6F894DEBF0FBECDBFA0
:102120007C01882777FD8095982FF701E05AFE4FB4
:102130002081318142815381620F731F841F951F5B
:1021400060837183828393832DB73EB728503040DC
:102150000FB6F8943EBF0FBE2DBFEDB7FEB7319658
:102160008E010F5F1F4FADB7BEB712961C930E9333
:10217000119720E031E03383228364837583868363
:102180009783BCDAF80101900020E9F7602F6E1BFD
:10219000685F5801EDB7FEB738960FB6F894FEBFEA
:1021A0000FBEEDBF87010E571E4F50E8C52ED12C34
:1021B0003EC0D5019C91462F50E0F701E40FF51F7A
:1021C000EC59FE4F8081891771F19083F80180806E
:1021D0009180CA0187709070960102C0359527954D
:1021E0008A95E2F7C901D40114962C911497282BF3
:1021F00014962C93CA018A969C0143E03595279545
:102200004A95E1F70190F081E02DE20FF31F87700E
:102210009070960102C0359527958A95E2F7C9011D
:102220002081282B20836F5F0894A11CB11C67308C
:1022300008F4BFCF28960FB6F894DEBF0FBECDBF0F
:10224000CF91DF911F910F91FF90EF90DF90CF9092
:10225000BF90AF909F908F9008952F923F924F9292
:102260005F926F927F928F929F92AF92BF92CF9226
:10227000DF92EF92FF920F931F93DF93CF93CDB72F
:10228000DEB765970FB6F894DEBF0FBECDBF7C01F9
:102290009C0121583E4FD901EC91E830D8F4AC01B3
:1022A00040585E4FDA018D919C91119701978D9363
:1022B0009C93019679F4EF5FD901EC93E150F0E043
:1022C000EE57F24FE4918CE3E89FC0011124FA012C
:1022D00091838083F701E458FE4F808191810097BC
:1022E00009F1019791838083892BE1F4D70120E0E4
:1022F00041E050E01C968D919C911D97029771F4DE
:102300001D965C934E931C975196EC915197F0E07B
:10231000E358F24FE4915196EC9351972F5F569604
:10232000243041F72EE531E0E20EF31ED7018D9106
:102330009C91E2EAFEEFEE0EFF1E892B09F472C2B9
:1023400024E831E0E20EF31ED7019C91ECE7FEEFAA
:10235000EE0EFF1E9F3F09F06FC120E630E0E20E57
:10236000F31ED7018D917D01882E99248C91EFE980
:10237000FFEFEE0EFF1EA82EBB24D7016FEF7FE705
:1023800000E010E066247724CC24DD24F6E14F2E13
:10239000512C18968C91189790E0881999091996E4
:1023A0002C91199730E02A193B09229FA001239F05
:1023B000500D329F500D11249C01229FC001239F7C
:1023C000900D329F900D1124480F591F4617570743
:1023D0001CF0F801AB0113C0C49CF001C59CF00DCA
:1023E000D49CF00D1124EE0DFF1D1C968D919C9137
:1023F0001D97029711F43F0102C03F01F8010894B4
:10240000C11CD11C569634E0C316D10419F0BA0190
:102410008F01BFCF309739F0918542E650E0E40E4E
:10242000F51E808516C040315105C4F4AA0CBB1CB2
:10243000D30119968C9119979A2D981BE2E6F0E03A
:10244000EE0EFF1E880C991C18968C91F82DF81B27
:102450008F2FD7018D937D019C93FCC02AE730E03C
:10246000E20EF31ED7018C91E6E8FFEFEE0EFF1EA1
:1024700086FF06C022E630E0E20EF31E81E011C0C6
:102480002DE730E0E20EF31ED7018C91E3E8FFEF79
:10249000EE0EFF1E85FF0AC022E630E0E20EF31EBC
:1024A0008AE1D7018D937D0186E0D3C02AEC30E02C
:1024B000E20EF31ED7018C91E6E3FFEFEE0EFF1E56
:1024C00086FF0AC022E630E0E20EF31E81E0D7016B
:1024D0008D937D018AE1BDC02DEC30E0E20EF31E4C
:1024E000D7018C91E3E3FFEFEE0EFF1E85FD1CC0CC
:1024F0004FEF5FE764E0C62ED12C04E010E09701B7
:10250000205A3F4F3D8B2C8B31E6232E312C2E0C45
:102510003F1C22E6422E512C4E0C5F1C93E6892E66
:10252000912C8E0C9F1C58C042E650E0E40EF51E24
:102530008AE1D7018D938CC0DA01FB0183E0F59528
:10254000E7958A95E1F7EA0DFB1DE259FF4F2081DF
:1025500030E0CB018770907040E850E002C05595A4
:1025600047958A95E2F724233523232B21F1EC8923
:10257000FD89808190E0861B970BF101208130E07E
:10258000201B310B889FA001899F500D989F500DF3
:102590001124229FC001239F900D329F900D112482
:1025A000480F591F4A175B0734F4D2016C932B85EF
:1025B000F401208301C0AD016F5F7F4F6A31710567
:1025C00009F0BACF84E090E0C80ED91E0F5F1F4F0C
:1025D00094E7C916D10441F00B87DA0161E070E09D
:1025E0005701AC0CBD1CA9CF4F5F5F47B9F5E1E6C1
:1025F000F0E0EE0EFF1ED7012C91EFE9FFEFEE0E9B
:10260000FF1E220FD30119968C91281BF701EE595A
:10261000FF4F40E650E0E40EF51ED7018C91880F85
:10262000D30118969C91891B8083E3E0F0E0EE0EC5
:10263000FF1ED7012C930EC025E831E0E20EF31EF9
:10264000D7018C91EDEDFEEFEE0EFF1ED7019D93AD
:102650007D018C93EDE9FFEFEE0EFF1E2FE731E0D9
:10266000E20EF31ED7018C91E1E8FEEFEE0EFF1EA5
:10267000082F10E001701070D70170E6672E712CE2
:102680006E0C7F1C61E6862E912C8E0C9F1C59E6E9
:10269000C52ED12CCE0CDF1CE0E9FDE03490319644
:1026A00074914EE0242E31E0432E512C28E5A22EC9
:1026B000B12CAE0CBF1C1C968D919C911D9704975C
:1026C000D9F418968C9118978E3071F419968C91D4
:1026D0001997813149F41D961C921E921C97F0E5C2
:1026E0001E96FC931E9799C01A962C921A9721E178
:1026F0001B962C931B9791C01E968C911E97882336
:1027000059F081501E968C931E97882309F085C03E
:102710001D965C924E921C9718962C9118971996BC
:102720006C911997822F8B50873028F4862F8F5009
:10273000833008F4D6C20115110531F41C968D9131
:102740009C911D97029791F41F96EC911F97F0E0D2
:10275000EE0FFF1FE657F24F84913196E4911A96DF
:102760008C931A971B96EC931B9757C0F3015081DB
:10277000F40140811F968C911F97823099F083302D
:1027800041F1813009F043C0F6018081E82FF0E08B
:10279000EE0FFF1FE057F24F8491580F3196E491EE
:1027A0004E0F35C0F6018081E82FF0E0EE0FFF1FDD
:1027B000E057F24F84918695580F3196E491E69553
:1027C0004E0F550FF7018085581B440F8185481B1C
:1027D0001EC030E0251B3109862F90E0841B910933
:1027E000FC01EE9FC001EF9F900DFE9F900D112404
:1027F000F901EE9F9001EF9F300DFE9F300D1124E7
:10280000820F931F8034910514F4532D472F1A968D
:102810005C931A971B964C931B975696AA15BB056B
:1028200009F049CFF701E658FE4F8081918100976A
:1028300031F1019791838083F701E25AFE4F892B92
:1028400009F065C080819181009719F00297B9F471
:102850002AC081E090E091838083D701AE57BE4FBC
:10286000ED91FC911197EF5AFF4F80818F6180832A
:10287000ED91FC91EE5AFF4F8081806880831701B3
:1028800067011A8619869701225A3E4F3F872E8785
:10289000A70144585E4F598B488BC70182589E4F01
:1028A0009B8B8A8B3AC081E090E091838083D70133
:1028B0001C968D919C911D97039731F484E090E0D4
:1028C0001D969C938E931C97F70182A193A1039769
:1028D00021F484E090E093A382A3D701D8968D9150
:1028E0009C91D997039731F484E090E0D9969C931A
:1028F0008E93D897F701E25BFF4F80819181039718
:1029000009F0BDCF84E090E091838083B8CF8081CF
:102910009181892B09F0B3CFECC1EE85FF858081D1
:102920009181029741F4D6011C968D919C911D973F
:10293000049709F074C1F60120898785843051F429
:10294000A889B9898D919C91892B11F480E51AC0D1
:102950008AE518C0F601848595858230910579F065
:10296000049711F484E60EC0D60119968C9119973C
:10297000813139F418968C9186508F3010F088E2AE
:1029800001C08BE4820FF601808B843608F447C1C6
:102990008456808B4080518055824482628073804F
:1029A0007782668282898F5F828B52017D866C86F8
:1029B000C20187709070892B09F073C0C3018770C2
:1029C0009070892B09F06DC029853A8546E150E069
:1029D000249F8001259F100D349F100D11240E0D92
:1029E0001F1D8189882E99244085218530E0215042
:1029F0003040C701B80150E0E8D89A838983D601F6
:102A000018964C91189750E04150504019962C91CF
:102A1000C701B80130E0D9D89C838B83F60140858B
:102A2000218530E02F5F3F4FC701B80150E0CDD87E
:102A30009E838D83D60118964C91189750E04F5F76
:102A40005F4F19962C91C701B80130E0BED8988726
:102A50008F83E4E0F0E0E819F909EE0FFF1F21E0B1
:102A600030E02C0F3D1FE20FF31F40815181F40134
:102A7000E358F24F6491F90184E090E0681739F06F
:102A8000208131812417350714F44C0101C09A01CB
:102A900001973296882311F0A901F0CFD601519603
:102AA0008C92F60181898230D1F0833018F4813024
:102AB00001F50AC0833019F08430D9F40AC05201FC
:102AC0000894A108B10815C052010894A11CB11CBA
:102AD00010C09301215030403D872C870AC0A301CC
:102AE0004F5F5F4F5D874C8704C080EE90E0A80E7B
:102AF000B91EB7FCFACF04C0A0E2BFEFAA0EBB1EFE
:102B0000B0EEAB16B104C4F7F601B182A0822C85F9
:102B10003D853383228395012C5F3F4F43E03595FC
:102B200027954A95E1F720878C859D85049633E0AB
:102B3000959587953A95E1F7E82FD60119968C93EC
:102B400019971F968C91843009F069C0AE2FB0E0C0
:102B5000622F70E0FD013397EE0FFF1FEE0FFF1F96
:102B6000CB0113E0959587951A95E1F7E80FF91FCA
:102B7000EE0DFF1DE259FF4F4081CB018770907031
:102B800020E830E002C0359527958A95E2F7842F3A
:102B900090E082239323892B09F441C0822F8095F2
:102BA000482340832CE130E0A29FF001A39FF00D69
:102BB000B29FF00D1124E60FF71FE455FC4FE4918E
:102BC000EE3049F5E8E5F2E0A889B989ED93FC9388
:102BD000AA89BB891C92D70120E01C968D919C91FB
:102BE0001D97019781F4E2E0F0E01D96FC93EE93CF
:102BF0001C975196EC915197F0E0E358F24FE49115
:102C00005196EC9351972F5F5696243031F7C701B8
:102C100062E370E003C0C7016AE070E06DDA298505
:102C20003A852F5F3F4F3A87298746E150E0C40E2F
:102C3000D51E2530310509F070CEA0E64A2E512C64
:102C40004E0C5F1CF1E66F2E712C6E0C7F1C870101
:102C500002581E4FEEE58E2EE1E09E2E8E0C9F1C3C
:102C60007AE7A72E71E0B72EAE0CBF1C68E5C62E22
:102C7000D12CCE0CDF1CD10118969C911897F20133
:102C80008081981731F519969C91D3018C919817F2
:102C900001F5F1018485958582309105D1F423E019
:102CA00030E035872487D8016C916F5F6C93F40115
:102CB00091838083E8E7F0E0D501ED93FC9324E66F
:102CC00030E002C0220F331F6A95E2F7B901C70155
:102CD00013DA46E150E0240E351E2C143D0459F65B
:102CE00008C01A962C921A975CE01B965C931B976F
:102CF00094CD65960FB6F894DEBF0FBECDBFCF91D1
:102D0000DF911F910F91FF90EF90DF90CF90BF90D8
:102D1000AF909F908F907F906F905F904F903F907B
:102D20002F9008953F924F925F926F927F928F9271
:102D30009F92AF92BF92CF92DF92EF92FF920F934A
:102D40001F93DF93CF93CDB7DEB7C059D0400FB6F6
:102D5000F894DEBF0FBECDBF8C017B01DC018D91ED
:102D60009C918330910509F4BDC2843091053CF4F7
:102D7000009709F42EC1019709F0EAC208C0843017
:102D8000910509F4BCC2059709F0E2C2DAC280914C
:102D90003601882371F481E080933601E9E0F1E0A7
:102DA00090818181808391833296B1E0E932FB0783
:102DB000B9F7EEE5F1E0EE0EFF1ED7011D921C9271
:102DC000ECE1F0E0EE0EFF1E84EB90E0D7018D9376
:102DD0009C93E4E0F0E0EE0EFF1ED7011C92F70199
:102DE000129212927F0124E83EEFE20EF31EE4E21B
:102DF000FDE0D70184911F968C931F9731968491A3
:102E000018968C9318973196249119962C931997AC
:102E1000319644911E964C931E973196449151964B
:102E20004C93519790E033E0880F991F3A95E1F762
:102E3000049715969C938E93149711969C938E935A
:102E400030E093E0220F331F9A95E1F717963C93F9
:102E50002E93169713963C932E9312971D961C92C1
:102E60001E921C9750961C925097319656963DE0B4
:102E7000ED33F30709F0BECF84E891E0E80EF91EC8
:102E80008FEFD7018C93EBEFFFEFEE0EFF1ED70114
:102E90001D927D0181E090E08D939C93E0EEFFEF29
:102EA000EE0EFF1ED7011D921D921D921C921397CC
:102EB000E0EAFEEFEE0EFF1EC7018C599E4FFC01AB
:102EC00088E0DF011D928A95E9F7EAE6F1E0EE0E6F
:102ED000FF1E80E3D7018C93F70182937F0127E9DE
:102EE0003EEFE20EF31EA70144595E4F8EE0DA0179
:102EF0001D928A95E9F7EEE6F1E0EE0EFF1E81E005
:102F0000D7018C93F70182937F0123E93EEFE20E14
:102F1000F31EDA018C93D701A259BF4F80EFFD0158
:102F200011928A95E9F764E570E000E810E029C0A5
:102F3000942FFA01E60FF71FE455FC4F8491873078
:102F400011F08E3091F4FA0183E0F595E7958A95BA
:102F5000E1F7EA0FFB1F9770980102C0359527959E
:102F60009A95E2F78081822B80834F5F5F4F4C31CF
:102F70005105F1F6645E7F4FF3E06C397F0721F075
:102F8000149640E050E0D4CF80E090E060E070E044
:102F900040EF50E020E431E000E010E00E943127F3
:102FA000CC24DD2413C0C701B801A60120E00E9493
:102FB000490E0F5F1F4F0C311105A9F70894C11C72
:102FC000D11C24E2C216D10409F4C2C100E010E011
:102FD000EACFFE01319680E9DF011D928A95E9F77B
:102FE0008B010E571E4FD801ED93FC93CB0135D9C1
:102FF000F80140805180D70137013324F301248147
:10300000358124503040868197814396AC01E3E0BE
:1030100055954795EA95E1F747975C0173E0B594BC
:10302000A7947A95E1F7B7FE02C0AA24BB244A010F
:10303000453251051CF064E2862E912C6501CC0CC2
:10304000DD1CCC0CDD1CC40CD51C295E3F4FC90116
:1030500043E0959587954A95E1F7B901675170402E
:1030600023E0759567952A95E1F777FF02C060E048
:1030700070E08C018D3191052CF10CE110E022C043
:10308000FA0183E0F595E7958A95E1F7EC0DFD1DD2
:10309000CA018770907020E830E002C0359527950E
:1030A0008A95E2F7C9012081282B20834F5F5F4F6B
:1030B000401751072CF384E090E0C80ED91E089405
:1030C000A11CB11CA814B90414F4AB01F1CFF30195
:1030D0002081318124503040828193814396AC011C
:1030E000F3E055954795FA95E1F747975C01E3E0E2
:1030F000B594A794EA95E1F7B7FE02C0AA24BB24D1
:103100004A01453251051CF074E2872E912C65016D
:10311000CC0CDD1CCC0CDD1CC40CD51C295E3F4F37
:10312000C90153E0959587955A95E1F7B901675123
:10313000704043E0759567954A95E1F777FF02C0C7
:1031400060E070E08C018D3191052CF10CE110E014
:1031500022C0FA0133E0F595E7953A95E1F7EC0DD9
:10316000FD1DCA018770907020E830E002C03595DF
:1031700027958A95E2F7C9012081282B20834F5F8C
:103180005F4F401751072CF384E090E0C80ED91E22
:103190000894A11CB11CA814B90414F4AB01F1CF1C
:1031A0003394E6E1F0E06E0E7F1EF5E03F1609F085
:1031B00025CF870102581E4FBB24B39455E026E06B
:1031C000C22EDD24DA94B70162597F4FF8014081A5
:1031D0005596BC9255971F969C911F9753969C931A
:1031E000539752968C915297E82FF0E051962C917C
:1031F0005197943061F193E0F595E7959A95E1F751
:103200008E2F8170220F280F54962C9354971C9662
:103210002D913C911D972330310569F02430310503
:1032200091F02230310599F554968C93549753962A
:103230005C9353972CC053965C935397475F549677
:103240004C93549724C05396CC92539720C0F59535
:10325000E7958E2F8370233031F4E82FF0E0E656A7
:10326000F24F849110C0E82FF0E0213021F4E256B3
:10327000F24F849108C0EE55F24F8491243019F436
:103280005596DC925597825F54968C935497569638
:10329000A617B70709F09ACF00E010E020C0D401CC
:1032A000DD904D01CB2C0BC0D7FE07C0C7016C2DA4
:1032B00070E0A80121E00E94490EDD0CC394DD20DE
:1032C00099F7B8E0BB0EE0E2BE1649F724E030E023
:1032D000420E531E0F5F1F4F04321105C9F1420108
:1032E000BB24DDCFD8011296ED91FC91139782811A
:1032F0009381815491401CF02FEF3FEF2BC0E4E805
:10330000F1E0EE0EFF1ED8011296ED91FC9113979D
:1033100080819181089768E070E00E94C436F701CF
:1033200061937F01D8011296ED91FC9113978281F0
:103330009381409768E070E00E94C436F701608393
:1033400007C024E831E0E20EF31E8FEFD7018C9323
:1033500020E030E0C901C057DF4F0FB6F894DEBF60
:103360000FBECDBFCF91DF911F910F91FF90EF90D6
:10337000DF90CF90BF90AF909F908F907F906F9095
:103380005F904F903F90089588E391E06DEA7DE073
:103390004EEC59E121E030E00C94902B0E948A36EB
:1033A000882319F02FEF3FEF04C00E94382D20E052
:1033B00030E0C901089589E391E063EC7DE041EFDD
:1033C0005BE129E531E00C94902BAF92BF92DF9244
:1033D000EF92FF920F931F93DF93CF93CDB7DEB79A
:1033E000C052D2400FB6F894DEBF0FBECDBF8C01E5
:1033F000FC0111821082DD24D3945E010894A11C8B
:10340000B11C1AC0C701B50140E250E00E94172C60
:10341000C50161EB7DE00E94AD0A892B61F0F801E6
:1034200080819181E80FF91FD0860196F801918380
:103430008083409741F0D394ED2CFF240E94EE2B23
:10344000E816F906FCF2F801138212828BE59AE184
:10345000BE016F5D7F4FA8017ED48FEF9FEF0E946A
:103460008D28F801F2808081F80E09C0FA9486E078
:103470000E94AC28F801EF0DF11D6F73608FFF20E3
:10348000A9F78FEF9FEFF80195838483085A1E4FA9
:10349000F8011082C05EDD4F0FB6F894DEBF0FBE9C
:1034A000CDBFCF91DF911F910F91FF90EF90DF90F3
:1034B000BF90AF900895CF93DF93BC01EA018A815A
:1034C0009B818031910511F481E00FC024E0880FC9
:1034D000991F2A95E1F7C896840F951F10D58A8108
:1034E0009B8101969B838A8380E0DF91CF91089531
:1034F000DF92EF92FF920F931F93DF93CF93CDB79D
:10350000DEB7C052D2400FB6F894DEBF0FBECDBFBB
:103510008B01DB018C918C3609F040C011968C91A7
:103520001197833681F512968C91843609F04BC041
:1035300000E010E036EBE32E3DE0F32EC8010E94E0
:10354000E0310097D1F000D000D000D0EDB7FEB749
:103550003196ADB7BEB71296FC92EE9211971383D7
:103560000283958384830E94590BEDB7FEB736968C
:103570000FB6F894FEBF0FBEEDBF0F5F1F4F0939A6
:103580001105E1F650C08337F1F484E69DE1BE01F8
:103590006F5D7F4F40E050E0DED345C0803799F447
:1035A000DB0112968C911297882369F411969C91F5
:1035B000892F8053823038F480E0913309F481E020
:1035C0000E942E2D30C00E94EE2BD82E7E01089432
:1035D000E11CF11C1EC0DA948D2D90E0B70140E291
:1035E00050E00E94172CF70101900020E9F7319775
:1035F000EE19FF09C701B801AF010E94E00A009768
:1036000041F48FEF9FEF0E948D28C7010E94102C7C
:103610000AC0DD2001F760912B0570912C058FE326
:1036200090E00E94190BC05EDD4F0FB6F894DEBF2C
:103630000FBECDBFCF91DF911F910F91FF90EF9003
:10364000DF9008956F927F928F929F92AF92BF9278
:10365000CF92DF92EF92FF920F931F93DF93CF935E
:10366000CDB7DEB760970FB6F894DEBF0FBECDBF03
:10367000DC01E62E8A015901E62FF0E08D919C9144
:103680001197BE016F5F7F4FE817F9074CF4EA0FFF
:10369000FB1F808590E040E150E00E94172C0EC097
:1036A000E81BF90B84E0EE0FFF1F8A95E1F7F8960F
:1036B000EA0FFB1FCB01BF010E94D90A012B31F099
:1036C000612C68EF762EA0E0B8EF20C08981A82F8A
:1036D000BB27A7FDB09520E0AE014F5F5F4F0EC046
:1036E000992787FD9095BC016A9FC0016B9F900D43
:1036F0007A9F900D1124A827B9272F5FFA01E20FB6
:10370000F11D8081882361F7662477248E2D63E084
:103710000E94B83640E5949F9001112458E2C52ECE
:10372000D12CC20ED31E8E2D0E94B836849FB001BC
:10373000112448E2842E912C860E971E695D7F4FDE
:10374000C9018796A5019D0101E00E94DD2774E172
:10375000A716B10489F55E010894A11CB11CF501FE
:1037600001900020E9F77F010894E108F108EA18C8
:10377000FB08C501B7010E94A62562E070E00E9427
:10378000C436C61AD70A6AE170E0860E971EC501D4
:10379000B701A601940108E116EC0E94C92508941E
:1037A000C108D108089481089108C501B701A60194
:1037B000940183010E94C92560960FB6F894DEBF7C
:1037C0000FBECDBFCF91DF911F910F91FF90EF9072
:1037D000DF90CF90BF90AF909F908F907F906F9031
:1037E0000895BF92CF92DF92EF92FF920F931F93B3
:1037F000DF93CF93CDB7DEB7A0970FB6F894DEBFB7
:103800000FBECDBFFC017B0180819181833091058A
:1038100009F488C08430910534F4009779F0019759
:1038200009F03FC108C08430910509F4AFC0059785
:1038300009F037C1E3C0CB01C8DD33C1DB0112960B
:103840001C9112978C91180F15C01150F701E10FC0
:10385000F11D808D8F3371F08F5F808F282F30E0C6
:103860002B523040121613062CF4C701612F40E092
:1038700050E0E8DE112349F70E94053597FD11C19C
:10388000382F8D3031F0F701E85AFE4F8F37A1F510
:103890002CC0D701A85ABE4F8C91882309F401C1CE
:1038A000F701E80FF11DE85CFE4F10821C92609159
:1038B0002B0570912C058AE090E00E94190BC7013E
:1038C000E8E3F1E0EE0EFF1EB70112DE60912B057A
:1038D00070912C058AE090E00E94190B60912B05F5
:1038E00070912C058EE390E01AC08081882309F442
:1038F000D8C081508083D5C020812F3150F4E20E92
:10390000F11C48E351E0E40EF51ED7018C932F5FC4
:10391000208360912B0570912C05832F90E00E94ED
:10392000190BBFC00280F381E02D8281938160E595
:1039300070E00E94C4368B01000F111F060F171F85
:103940008081918160E570E00E94C436060F171FE8
:1039500017FDA7C0F7018081918122813381820FF9
:10396000931F081719070CF09CC0C701602F41E096
:1039700050E024E130E066DED70115961C930E93EB
:10398000149717961C930E9316978BC00280F381A1
:10399000E02DC080D18082819381FB01248135811B
:1039A000FFEF2F3F3F0709F47CC060E570E00E9405
:1039B000C4368B01000F111F060F171FC60160E5EB
:1039C00070E00E94C436060F171FD70116968D911E
:1039D0009C9117970817190709F463C040E050E05D
:1039E0000217130711F441E050E0C701622F24E1F0
:1039F00030E028DEF7011783068353C0DB011496FD
:103A0000CD90DC901597BFEFCB16BFEFDB0609F426
:103A100048C0FB0186819781C816D906D9F504E113
:103A200010E0BC2CC7016B2D40E050E098010ADE8D
:103A3000000F111F0F3F1105A9F3A4F38FEF9FEFA4
:103A40000E948D28D7012D913C91C216D3068CF48B
:103A5000EC0CFD1CF701808590E08E010F5F1F4F7D
:103A6000B80140E250E00E94172CC8010E94102CBF
:103A70000EC08B2D90E0821B930B24E0880F991FC2
:103A80002A95E1F7C8968E0D9F1D0E94F32B2FEF0C
:103A90003FEF09C08FEF9FEFDB0115969C938E934C
:103AA000149720E030E0C901A0960FB6F894DEBF6D
:103AB0000FBECDBFCF91DF911F910F91FF90EF907F
:103AC000DF90CF90BF900895DF93CF93CDB7DEB74F
:103AD00060970FB6F894DEBF0FBECDBFBC01CE011C
:103AE00001960DD200D0EDB7FEB7928381830E947C
:103AF000450B0F900F9060912B0570912C058AE07B
:103B000090E00E94190B80E060960FB6F894DEBF3B
:103B10000FBECDBFCF91DF9108958AE391E069ECAC
:103B20007DE047E95DE124E432E00C94902BAF9214
:103B3000BF92CF92DF92EF92FF920F931F93DF938A
:103B4000CF93CDB7DEB768970FB6F894DEBF0FBE40
:103B5000CDBF7C018B01A4E3AA2EA2E0BA2EA60E53
:103B6000B71EC501B7010E943B2BD7018D919C91D7
:103B70008130910521F0039709F08BC07DC08FEF54
:103B80009FEF0E948D28F701E280F380F2E1CF2EB3
:103B9000D12CC00ED11EC60121D5C601B70133D626
:103BA000C801B7010E94D90A0E5B1D4F80E491E065
:103BB000D8018D939C930254124003C00894E11CD9
:103BC000F11CF7018081882311F08E32B9F7D801FA
:103BD00051961C921E925097F70180818E3209F502
:103BE0008181893469F482818D34D9F4838182336F
:103BF000C1F481E090E051969C938E93509711C050
:103C0000823479F4D70112968C9112978C3449F44E
:103C100013968C91823429F482E090E0F801918B24
:103C2000808BD80150968D919C915197019779F492
:103C3000C601BE016F5F7F4F48E150E07BD5892B05
:103C400031F08981893619F48C818233B1F10E5BB0
:103C50001D4FF8014081518102541240662757FDE3
:103C60006095762FC50127E63EE1E0E4EE2EE1E027
:103C7000FE2E0E94B9290DC0D7011296ED91FC913C
:103C8000139782819381805491401CF02FEF3FEF76
:103C900002C020E030E0C90168960FB6F894DEBF9C
:103CA0000FBECDBFCF91DF911F910F91FF90EF908D
:103CB000DF90CF90BF90AF9008950E5B1D4F8D8524
:103CC0009E85F8019183808302541240C0CF8F9269
:103CD0009F92AF92BF92CF92DF92EF92FF920F939B
:103CE0001F93CF93DF936B017C015A014901E801D7
:103CF00088899989019781F40E5E1F4FC80140E0C1
:103D000050E060E070E09FD4C80160E070E0A50181
:103D1000960184017BD712C080E090E0BA0140EFA9
:103D200050E00FEF1FEF0E943127CE016AE070E0F4
:103D30004AE050E020E030E00E941027DF91CF9170
:103D40001F910F91FF90EF90DF90CF90BF90AF90B9
:103D50009F908F9008958F929F92AF92BF92CF9233
:103D6000DF92EF92FF920F931F93CF93DF934C015B
:103D7000EB015A0180913B01882309F45FC08BE37A
:103D800091E060E070E0F4010995882309F456C0E1
:103D90000FEF1FE745C0A70160E070E080915B0175
:103DA00090915C01A0915D01B0915E01480F591F97
:103DB0006A1F7B1FE0917501F0917601809173017C
:103DC000909174010995882349F5C0917301D091B0
:103DD0007401C12C82E0D82ECC0EDD1E11C088816A
:103DE0008823E1F0853E59F08B85887141F4870185
:103DF000CE01B701A501F4010995882389F4A096A5
:103E0000CC15DD0561F70894E11CF11C80915F0180
:103E100090916001E816F90608F4BDCF0FEF1FEF8F
:103E2000C801DF91CF911F910F91FF90EF90DF902C
:103E3000CF90BF90AF909F908F900895D0937401D2
:103E4000C0937301EE24FF24E1CFAC01DB012BE032
:103E500080E22150FA01E20FF11D80832223C9F78D
:103E600090E002C028E091E03D91332391F0832F50
:103E700081568A3108F430523E32A1F3283010F0D6
:103E8000992329F0FA01E20FF11D30832F5F2B30C7
:103E900058F30895CF92DF92EF92FF920F931F9302
:103EA000DF93CF93CDB7DEB72D970FB6F894DEBF73
:103EB0000FBECDBF9C016B017A018E010F5F1F4FBA
:103EC000C801B901C2DFFD86EC868BEC92E2B60137
:103ED000A80141DF20E08F5F9F4F09F021E0822F92
:103EE0002D960FB6F894DEBF0FBECDBFCF91DF91F8
:103EF0001F910F91FF90EF90DF90CF900895CF9397
:103F0000DF93AC01EB01DC0180E090E0FE01E80F03
:103F1000F91FE081E03229F0ED9301968830910598
:103F2000A9F78885803271F08EE28D938885803282
:103F300049F08D938985803229F08D936A856032AE
:103F400009F06D931C92CA01DF91CF9108958F9271
:103F50009F92AF92BF92CF92DF92EF92FF920F9318
:103F60001F93CF93DF934C017A018B01E90180917C
:103F70006101909162015C01CC24DD2428853985A2
:103F80004A855B85C601B5010E949936E616F7069B
:103F90000807190718F4E0E0F0E029C0E61AF70A6C
:103FA000080B190B288939894A895B89C601B50133
:103FB0000E949936E616F7060807190718F4E1E09B
:103FC000F0E015C0E61AF70A080B190B288D398D99
:103FD0004A8D5B8DC601B5010E949936E616F7063B
:103FE0000807190710F080E02CC0E2E0F0E08091B3
:103FF0006B0190916C01A0916D01B0916E01E80E82
:10400000F91E0A1F1B1F23E0EE0FFF1F2A95E1F781
:10401000EC0FFD1F248135814681578122503040AD
:1040200040405040C601B5010E949936E60EF71E89
:10403000081F191FC401B801A7010E94A5348111EE
:1040400081E0DF91CF911F910F91FF90EF90DF9072
:10405000CF90BF90AF909F908F900895DF92EF9296
:10406000FF920F931F93FC017A018B01DD24809155
:104070006F0190917001A0917101B0917201009750
:10408000A105B10529F0DD24D39447E050E002C03A
:1040900048E050E0D801C70104C0B695A7959795B0
:1040A00087954A95D2F7AC01BD018091630190914B
:1040B0006401A0916501B0916601480F591F6A1F04
:1040C0007B1F80819181A281B381481759076A07BC
:1040D0007B0751F040835183628373838091730126
:1040E000909174010E94A534E0917301F0917401E4
:1040F000DD2071F0C7018F779070880F991F880FAE
:10410000991FE80FF91F20813181428153810BC033
:10411000C7019070880F991FE80FF91F8081918166
:104120009C0140E050E0B901CA011F910F91FF903E
:10413000EF90DF9008956F927F928F929F92AF924F
:10414000BF92DF92EF92FF920F931F93DF93CF9373
:1041500000D000D0CDB7DEB75C014B0119821A82C6
:104160001B821C82FC01E080F18002811381DD242E
:104170003E010894611C711C089481089108C301D8
:10418000B801A7016BDF9B01AC010894E11CF11C95
:10419000011D111D6E157F058007910791F18D2D71
:1041A00090E08815990509F451C080916F019091B4
:1041B0007001A0917101B09172010097A105B10544
:1041C00029F48FEF9FEFA0E0B0E004C08FEF9FEFE6
:1041D000AFEFBFE0281739074A075B07B9F1D3945F
:1041E000ED2DF0E073E0EE0FFF1F7A95E1F7EA0D99
:1041F000FB1D2083318342835383148215821682F0
:104200001782ED2DF0E063E0EE0FFF1F6A95E1F7F6
:10421000EA0DFB1D84819581A681B7810196A11DC0
:10422000B11D84839583A683B78379018A01A7CFC3
:10423000D394ED2DF0E053E0EE0FFF1F5A95E1F718
:10424000EA0DFB1D10821182128213828D2D90E0E7
:10425000881599056CF30F900F900F900F90CF91E8
:10426000DF911F910F91FF90EF90DF90BF90AF9083
:104270009F908F907F906F900895CF92DF92EF92F2
:10428000FF920F931F93DF93CF93CDB7DEB7A09725
:104290000FB6F894DEBF0FBECDBF6B015093740113
:1042A00040937301BA01AE014F5F5F4FF3DD882386
:1042B000D1F1ED8CFE8C0F8D18A1F601E082F18218
:1042C000028313838D899E89A0E0B0E0DC019927E9
:1042D00088272B8D3C8D40E050E0822B932BA42B24
:1042E000B52B84839583A683B78381E090E0A0E01B
:1042F000B0E080879187A287B387148615861686DB
:10430000178620916101922F990F80E0A0E0B0E024
:104310008E159F05A007B10728F4C601049663E037
:1043200070E009DF81E0A0960FB6F894DEBF0FBE03
:10433000CDBFCF91DF911F910F91FF90EF90DF9054
:10434000CF9008958F929F92AF92BF92CF92DF92BB
:10435000EF92FF920F931F93DF93CF93CDB7DEB70A
:1043600028970FB6F894DEBF0FBECDBF8C01FB01BE
:10437000909374018093730170937601609375013B
:1043800040E050E060E070E00995882309F0EFC05C
:104390000E531E4FF80190810C5F1F4FF801A08053
:1043A000B180C280D380065C11409D3028F49B30E0
:1043B00060F4992339F004C0892F8E50823028F0A0
:1043C000973018F0AA24BB246501E0917501F091A3
:1043D00076018091730190917401B601A501099550
:1043E000882309F0C4C0F8018385948580509240E9
:1043F00009F0BDC0F80185858093610110926201CA
:104400002685378560898188928886899789A0E08A
:10441000B0E08093670190936801A0936901B09325
:104420006A010097A105B105C9F484A195A1A6A1CF
:10443000B7A18093670190936801A0936901B0933D
:104440006A0184A595A5A6A5B7A580936F01909351
:104450007001A0937101B093720108C010926F01B6
:10446000109270011092710110927201790100E0B6
:1044700010E0EA0CFB1C0C1D1D1DE0926301F09284
:104480006401009365011093660170E080E090E0A4
:1044900020916701309168014091690150916A0152
:1044A0000E9499366E0D7F1D801F911F60935B01E6
:1044B00070935C0180935D0190935E01940144E0F0
:1044C000369527954A95E1F73093600120935F0177
:1044D00040E050E0620F731F841F951F60936B01D3
:1044E00070936C0180936D0190936E0180916F01C8
:1044F00090917001A0917101B09172010097A10596
:10450000B10529F182E090E0A0E0B0E089839A83D0
:10451000AB83BC8381E090E0A0E0B0E08D839E831C
:10452000AF83B887CE01019661E070E004DE609150
:1045300061017091620180E090E02D813E814F81A8
:1045400058850E9499367093600160935F01809155
:104550006F0190917001A0917101B091720100976B
:10456000A105B10511F480E103C080E201C080E043
:1045700028960FB6F894DEBF0FBECDBFCF91DF9166
:104580001F910F91FF90EF90DF90CF90BF90AF9071
:104590009F908F9008950F931F93CF93DF93182FC1
:1045A000092FEA01BA014BE050E00E94CC0A0097C3
:1045B00011F080E00EC02B853C85C901DC01212F64
:1045C000302FC901FC0180E201900D928150E1F78A
:1045D00081E0DF91CF911F910F910895FC01EC5F75
:1045E000FD4F80E092E081939193108211821282BC
:1045F0001382E650F2408FEF9FEFAFEFBFEF808363
:104600009183A283B3830895CF93DF93EC01CC5FB2
:10461000DD4F19821882C450D24088819981AA81C5
:10462000BB8184179507A607B70751F0FE01419398
:10463000519361937193CA5FDD4FCF019E0187DC77
:10464000DF91CF910895CF92DF92EF92FF920F9377
:104650001F938C016A017B01E9E075956795579579
:104660004795EA95D1F7D0DF0C5F1D4F8FEF91E0B2
:10467000C822D922F801D182C0821F910F91FF90E8
:10468000EF90DF90CF9008950F931F93CF93DF9318
:10469000EC018B01CC5FDD4F88819981C450D24001
:1046A0008050924051F4488159816A817B814F5FEB
:1046B0005F4F6F4F7F4FCE01A7DFFE01EC5FFD4FD5
:1046C00080E092E020813181821B930BD8018D9391
:1046D0009C93208131812C5F3F4F2C0F3D1FC901DE
:1046E000DF91CF911F910F910895CF93DF93EC014C
:1046F000CC5FDD4F88819981C450D2408050924078
:1047000051F4488159816A817B814F5F5F4F6F4FC0
:104710007F4FCE0179DFFE01EC5FFD4F20813181BB
:10472000C20FD31F8C812F5F3F4F31832083DF91D6
:10473000CF910895CF92DF92EF92FF920F931F9344
:10474000CF93DF936C017B018A01C0E0D0E007C00A
:10475000C601CBDFF701EC0FFD1F80832196C01748
:10476000D107B4F3C801DF91CF911F910F91FF9052
:10477000EF90DF90CF9008950F931F93CF93DF9327
:10478000EC019B01FC01EC5FFD4F80819181860F64
:10479000971F9183808342E0813094071CF18C0144
:1047A000061B170B11830083A901662757FD60952F
:1047B000762F88819981AA81BB81F9E0880F991FA2
:1047C000AA1FBB1FFA95D1F7480F591F6A1F7B1FFD
:1047D000222717FD2095322F400F511F621F731F94
:1047E000CE0131DFCC5FDD4F8881998181509240CD
:1047F00028F080E090E060E770E0F5D4DF91CF91A1
:104800001F910F910895CF93DF93EC01CB01BE016F
:104810006A5F7D4FAE014C5F5F4F2FDD882339F01B
:10482000CE0140E050E060E070E0EEDE81E0DF913C
:10483000CF9108952F923F924F925F926F927F9205
:104840008F929F92AF92BF92CF92DF92EF92FF92A0
:104850000F931F93DF93CF93CDB7DEB72B970FB690
:10486000F894DEBF0FBECDBF8E839F837B836A83A8
:104870003D832C8318010115110521F4E1E32E2E4F
:10488000E7E23E2E4032510561F4EFECFDE0E491A9
:104890002E2F30E035952795359527953B872A872C
:1048A000DAC021ED3DE0F9018491481B510957FD23
:1048B000D0C0D9011196FD01849190E048175907A5
:1048C0000CF0C7C0E3C02A853B85249FB001259F1B
:1048D000700D349F700D1124605D7F4F3DC04D5FA2
:1048E0005F4F9A01220F331F43505040F901E253AA
:1048F000F24F7491C9018153924FFC016491972F3B
:1049000080E0E62FF0E0E82BF92BFB87EA87452BC8
:1049100019F420E030E013C0F901E453F24F449160
:104920002353324FF9012491942F80E030E0282B5B
:10493000392B6A857B85621B730B7B876A87FD0138
:104940008491682F70E06D5F7F4F54E0660F771F92
:104950005A95E1F7620F731FCB018770907020E8C2
:1049600030E002C0359527958A95E2F7422ECB01BB
:1049700043E0959587954A95E1F7E3EDFDE0E491F5
:104980003C016E0E711C2A853B85620F731F33E05C
:10499000759567953A95E1F760957095660E771E67
:1049A000552452C04C010894811C911C8253924F93
:1049B000FC0144912E813F81C9015C01C42ED42C9D
:1049C000EE24FF242A813B81250D311D398728875C
:1049D00034C08D2D90E02C2D30E082239323892B41
:1049E00059F0C5016885798541E050E021E030E06B
:1049F0000C811D81F10109958D2D90E0959587958C
:104A0000D82E8823A1F4F401E253F24F0894811CBC
:104A1000911C4491442311F0C42E07C08A859B85C4
:104A20008E199F09099764F0CC2480E8D82E089449
:104A3000E11CF11C0894A11CB11C3A85E31648F254
:104A4000C401860D971D53946981561608F4AACFA8
:104A500002C01B861A868A859B852B960FB6F89412
:104A6000DEBF0FBECDBFCF91DF911F910F91FF90A1
:104A7000EF90DF90CF90BF90AF909F908F907F90FE
:104A80006F905F904F903F902F900895235030404B
:104A9000F9018491682F70E07B876A872F5F3F4F11
:104AA000F901F491F983672B09F00DCF18CF9C0120
:104AB000EEECFDE08491882319F0482F50E02CC0E3
:104AC0002032310549F431968491482F50E05595B4
:104AD00047955595479520C0339684913397281B69
:104AE000310937FD17C03496849190E028173907B3
:104AF0008CF414C0FB01E453F24F34916353724FB2
:104B0000FB012491932F80E030E0822B932B481BF4
:104B1000590B02C040E050E0CA0108952D5F3F4F9D
:104B2000B901660F771F23503040FB01E253F24F6B
:104B30005491CB018153924FFC014491952F80E019
:104B400050E0482B592B232BA9F6E6CFEF92FF928A
:104B50000F931F93CF93DF937C018B01C0E0D0E0D4
:104B60000AC0F70181917F01992787FD90959FDF0A
:104B70000196C80FD91F01501040FFEF0F3F1F07CC
:104B800081F7CE01DF91CF911F910F91FF90EF90B0
:104B900008956F927F928F929F92AF92BF92CF9221
:104BA000DF92EF92FF920F931F93CF93DF933C011D
:104BB0004B017A0159016801C0E0D0E011C0F30156
:104BC000EC0FFD1F4081552747FD5095C701B501EA
:104BD000960100E010E02EDE0196E80EF91E219607
:104BE000C815D90564F3C701DF91CF911F910F91CB
:104BF000FF90EF90DF90CF90BF90AF909F908F90FD
:104C00007F906F9008950C94C23208952F923F9236
:104C10004F925F926F927F928F929F92AF92BF92CC
:104C2000CF92DF92EF92FF920F931F93DF93CF9378
:104C3000CDB7DEB76E970FB6F894DEBF0FBECDBF0F
:104C40005C011B013A01490177E0E72EF12CEC0EE3
:104C5000FD1EB70148E150E06DDD892B09F4C4C0A9
:104C6000D701E4E0F1E00BC08C9190E0332727FD01
:104C700030958217930709F0B7C0119631962081BD
:104C8000222391F7A1C00B891C896B897C898D89AE
:104C90009E899801442737FD4095542F621773076A
:104CA0008407950714F49B01AC017301E20EF31E17
:104CB0001A8D112309F444C0212F30E040E050E068
:104CC0006150704080409040620F731F841F951F99
:104CD0000E94F936F90131961814190454F5E12FA0
:104CE000F0E0C401BF010E94C436621773070CF4E0
:104CF0009B012E9FC0012F9F900D3E9F900D112470
:104D0000881A990AE81AF90A220F331F220F331F53
:104D1000C501B90131DDC501BE016D5F7F4F44E0C2
:104D200050E008DD4B815C816D817E81C5018BDCAB
:104D300007C0EE0FFF1FEE0FFF1FC501BF011CDDF7
:104D4000670181E4E81681E0F80624F040E4C42E0F
:104D500041E0D42E4F855889960126193709C101A3
:104D6000B3010E94C2328F8987FF3EC0A40166272B
:104D700057FD6095762F4F5F5F4F6F4F7F4F39E044
:104D8000440F551F661F771F3A95D1F7C5015BDCAD
:104D90004E010894811C911C72010027F7FC0095BC
:104DA000102F0EC0C501B4016FDCB801A7010E942D
:104DB000F731C50160E072E0DFDC0894611C711C12
:104DC0006C147D047CF310C0698D70E0660F771F52
:104DD0006D5F7F4F6C7FC501CFDC4F845888011514
:104DE000110509F450CF51CF6E960FB6F894DEBF7F
:104DF0000FBECDBFCF91DF911F910F91FF90EF902C
:104E0000DF90CF90BF90AF909F908F907F906F90EA
:104E10005F904F903F902F9008950C941633089513
:104E2000CF92DF92EF92FF920F931F937B016A0163
:104E30008901DC010D900020E9F71197A81BB90B3F
:104E4000BD01A7019601A5DE1F910F91FF90EF9084
:104E5000DF90CF9008950C94D03108950C94503287
:104E600008958F929F92AF92BF92CF92DF92EF926E
:104E7000FF920F931F93CF93DF936C015B01EA01C5
:104E800079014801C80FD91FE60EF71E0E94F131C3
:104E9000C817D9071CF00E94F131EC010E94F431CF
:104EA000E816F9061CF00E94F4317C01C601D7FE19
:104EB00002C080E090E08E01081B190B101611064D
:104EC00004F5B501B7FE02C060E070E0E701C61B63
:104ED000D70B1C161D06ACF4A8019E010E94C2321D
:104EE000BE01882777FD8095982F9801442737FDCC
:104EF0004095542F0E949936AB01BC01C4010E9419
:104F00008432DF91CF911F910F91FF90EF90DF904E
:104F1000CF90BF90AF909F908F9008950F931F9365
:104F20008A0141E050E021E030E09BDF1F910F91CA
:104F300008956F927F928F929F92AF92BF92CF927D
:104F4000DF92EF92FF920F931F93CF93DF934C0169
:104F50007B016A01E9013A01680E791E5901A60E2A
:104F6000B71EC301B501A801D9DFC114D10431F0C6
:104F7000C4018C199D09B501A801D0DF209731F03B
:104F8000B7016C1B7D0BC301A801C8DFEC1AFD0A39
:104F9000C4018C199D09B701A801C0DFDF91CF9131
:104FA0001F910F91FF90EF90DF90CF90BF90AF9047
:104FB0009F908F907F906F9008952F923F924F9285
:104FC0005F926F927F928F929F92AF92BF92CF9299
:104FD000DF92EF92FF920F931F93DF93CF93CDB7A2
:104FE000DEB727970FB6F894DEBF0FBECDBF9A830A
:104FF00089837C836B8319010D8344245524441ACF
:10500000550A3A011F821E8269C08D818823D1F121
:10501000A980BA80EE81FF81AE1ABF0A4F01880CC9
:10502000991C6B817C8166197709C501A40121E077
:1050300030E0810116DFE980FA80E618F7086301A5
:10504000CC0CDD1C6B817C818E819F81681B790B70
:10505000C701A60121E030E004DF6B817C81EE8195
:10506000FF816E0F7F1FC701A60121E030E0F9DE4E
:105070006B817C81660D771DC501A40121E030E0C4
:10508000F0DE16C089819A816B817C81A3012E811B
:105090003F8181014EDF8E819F816816790641F044
:1050A00089819A816B817C814E815F81930141DF8F
:1050B0002E813F812F5F3F4FEE81FF814E0E5F1E9D
:1050C000420E531E57FC08C0089461087108C301C2
:1050D000880F991F481A590A3F832E838E819F811A
:1050E000681679060CF091CF27960FB6F894DEBFBC
:1050F0000FBECDBFCF91DF911F910F91FF90EF9029
:10510000DF90CF90BF90AF909F908F907F906F90E7
:105110005F904F903F902F900895EF92FF920F93E2
:105120001F938C010E94F1317C010E94F4319C019B
:1051300080E090E060E070E0A70193DE80E090E026
:105140000E94D0311F910F91FF90EF9008950E941F
:10515000AF3064D489D3FECFEF92FF920F931F93A9
:10516000682F282F30E040E050E080912901909195
:105170002A01A0912B01B0912C0175EBE72E75E966
:10518000F72E7AEA072F70E2172F12C09C01AD01AB
:10519000220F331F441F551F12161306140615063F
:1051A00024F02E253F25402751276150DA01C901FF
:1051B000662361F78093290190932A01A0932B0124
:1051C000B0932C01B901CA011F910F91FF90EF908C
:1051D000089520EA3FE004C0F9013197F1F7019703
:1051E0000097D1F7089500D000D000D0EDB7FEB7FA
:1051F00031962FEA33E1ADB7BEB712963C932E93AA
:10520000119793838283758364830E94590B8DB7B2
:105210009EB706960FB6F8949EBF0FBE8DBFFFCF08
:10522000CF92DF92EF92FF920F931F93CF93DF9372
:105230006C01EB019A01D6018D919C918C0F9D1F01
:10524000B1E080349B07CCF5820F931F1816190626
:10525000A4F5AE0102C040545140E1E040345E0785
:10526000D4F702C0405C5E4F57FDFCCFCA01820FED
:10527000931FF1E081349F078CF040ECE42E4EEF59
:10528000F42EE80EF91E89010E191F09C601BE0190
:10529000A801C6DFC00FD11F9701CDCFBE0188275F
:1052A00077FD8095982FD6011C960D911C911D9726
:1052B0001A96ED91FC911B970995DF91CF911F9163
:1052C0000F91FF90EF90DF90CF9008950F931F9371
:1052D000CF93DF93FC01C085D18500811181209798
:1052E00029F10280F381E02D21E0E034F2071CF483
:1052F00080E090E019C0CE01959587959801281B14
:10530000390BC901BE010E94C43620E431E02E1BD6
:105310003F0B6C9FC0016D9F900D7C9F900D1124E1
:10532000821793070CF4C901BC011BC010161106AB
:105330002CF466277727601B710B15C0828193813F
:1053400031E0803493071CF460E070E004C060E456
:1053500071E0681B790B061717071CF060E070E01E
:1053600002C0601B710BCB01DF91CF911F910F9198
:105370000895AF92BF92CF92DF92EF92FF920F9378
:105380001F93CF93DF93EC015A016B013B872A8770
:105390001D870C871F821E82198218825B834A83B5
:1053A000F986E88680E090E056DD1A141B041C04A0
:1053B0001D04ECF47601650181E4C81681E0D8068D
:1053C00080E0E80680E0F80634F060E4C62E61E094
:1053D000D62EE12CF12C0C851D85EA85FB8560E03D
:1053E00070E080E090E040E050E096010995DF91A8
:1053F000CF911F910F91FF90EF90DF90CF90BF90D2
:10540000AF900895CF92DF92EF92FF920F931F9388
:10541000CF93DF937C016B01EA01C80ED91EC81B34
:10542000D90B29C06054714081E060347807D4F70B
:1054300002C0605C7E4F77FDFCCF0894E11CF11C3C
:10544000CE01D7FF04C0882799278C1B9D0B88307D
:10545000910514F087E090E0FC01EE0FFF1FE3548C
:10546000FC4E0591149180E090E040EF50E021E087
:1054700030E0F7DC2197EC14FD0414F4B701D4CF2D
:10548000DF91CF911F910F91FF90EF90DF90CF9020
:105490000895AF92BF92CF92DF92EF92FF920F9357
:1054A0001F93CF93DF935C017A018B016901FC01AB
:1054B000608171819B01442737FD4095542F2E0D4B
:1054C0003F1D401F511F2034F1E03F07F0E04F0720
:1054D000F0E05F070CF05EC0C601AA2797FDA0951B
:1054E000BA2F820F931FA41FB51FB7FD53C0882783
:1054F0009927861B970BAFDC17FF18C0F501808139
:105500009181E6018C159D050CF4EC01C701BE01EB
:105510004FEF5FEF77DFCE01AA2797FDA095BA2F57
:10552000E80EF91E0A1F1B1FCC1ADD0AF501828145
:1055300093819C01442737FD4095542F2E193F0934
:10554000400B510BC601AA2797FDA095BA2F8217D1
:105550009307A407B50714F49C01AD01E9011216E5
:1055600013067CF4C501B701A9015ADECE01AA27B2
:1055700097FDA095BA2FE80EF91E0A1F1B1FCC1A23
:10558000DD0A1C141D0434F4F50142815381C70166
:10559000B60138DFDF91CF911F910F91FF90EF900F
:1055A000DF90CF90BF90AF900895DC01FB016115B3
:1055B000710521F18D919C911197860F971F11967E
:1055C0009C938E9377FF0FC0AB01405C5E4F481BEE
:1055D000590B662757FD6095762F222733272E1B00
:1055E0003F0BCD0156CF44275527481B590B662743
:1055F00057FD6095762FCD019F014BCF08950F93F6
:105600001F93CF93DF938C01FC0184819581C68128
:10561000D7818F5F9F4F31F0D595C795F801D7831C
:10562000C68324C0C80152DE8C1B9D0B19F480E098
:1056300090E00AC097FF02C0039701C0039664E0A0
:1056400070E00E94C436CB018C0F9D1FF801978338
:105650008683009759F097FF02C00F9701C00F96FD
:1056600060E170E00E94C436C8019FDFDF91CF91F6
:105670001F910F910895EF92FF920F931F93CF9375
:10568000DF938C01FB01E280F3800190F081E02D3B
:10569000E330F10561F0E430F1051CF4EF2BB1F1DA
:1056A00036C0E430F10539F0359789F529C0F701A6
:1056B0008281938127C0FC0164817581FFEF6F3F78
:1056C0007F0729F1F7018281938168177907F9F043
:1056D000EC01C61BD70BCE0102960597C0F0C8019E
:1056E000BE0163DFF70182819381F8019583848392
:1056F00014E0CC0FDD1F1A95E1F7D783C68307C0EE
:105700008FEF9FEFF8019583848301C078DF80E0FD
:1057100090E0DF91CF911F910F91FF90EF9008954E
:10572000DF93CF9300D000D000D0CDB7DEB780910B
:105730007701909178018F30910509F446C0E3E03C
:1057400021303E070CF041C0019690937801809380
:1057500077010197FC01EE0FFF1FE80FF91FEE0F15
:10576000FF1FE758FE4F7183608353834283358365
:105770002483415F5B4149F5DE011196E9E7F1E0E1
:1057800026E001900D922150E1F7FC01EE0FFF1F82
:10579000E80FF91FEE0FFF1FA9E7B1E0EA0FFB1FAB
:1057A00026E001900D922150E1F7FC01EE0FFF1F62
:1057B000E80FF91FEE0FFF1FE758FE4FDE011196AD
:1057C00086E00D9001928150E1F726960FB6F8948D
:1057D000DEBF0FBECDBFCF91DF91089580917701DD
:1057E000909178010895EF92FF920F931F937C019F
:1057F0000EED14E0C8016DEC73E10E94B60AF801E9
:1058000001900020E9F7E01BF10BCF0183529B4F81
:10581000B7010E94D90A1F910F91FF90EF90089550
:10582000BC018EED94E040E250E00C94EE0A9C0145
:10583000DB0197FD17C080917701909178012817BF
:10584000390784F4F901EE0FFF1FE20FF31FEE0F8B
:10585000FF1FE758FE4F60817181CD010E94BD0A94
:1058600081E0089580E00895EF92FF920F931F93D7
:10587000DF93CF93CDB7DEB72E970FB6F894DEBF88
:105880000FBECDBF8091DC049091DD04892B29F0FF
:105890008091DE04882309F45BC08091DE048823B4
:1058A00051F46091790170917A018EED94E040E2BB
:1058B00050E00E94BD0AFEEDEF2EF4E0FF2E01C085
:1058C0007C01D7012C91222329F0C70101962032B7
:1058D000B9F793C0809177018093D9041AC0892FBA
:1058E00090E08C01000F111F080F191F000F111FEE
:1058F00007581E4FF801608171818EED94E00E947F
:10590000AD0A892B31F4D8011296ED91FC911397D1
:105910000EC08091D904982F91509093D904882378
:10592000F1F61092D904E0917B01F0917C01F093A3
:10593000DD04E093DC0481E090E09E838D83F886B3
:10594000EF82CE01059663ED71E009951092DE04B9
:105950001A821982CE0109965ED2882321F14091E4
:10596000D7045091D80441155105D1F029853A85C5
:105970008091D3049091D4042817390771F42B85B2
:105980003C858091D5049091D6042817390729F4D5
:105990008D859E858417950781F084E090E00BC08B
:1059A00083E090E008C08091D7049091D804892BBF
:1059B00021F085E090E09A838983CE0109969C834B
:1059C0008B83A3EDB4E0FC0186E001900D92815041
:1059D000E1F7E091DC04F091DD04CE01019663ED86
:1059E00071E009959093DB048093DA04892B49F0E8
:1059F0001092DD041092DC0404C0F70110827C01D7
:105A000069CF2E960FB6F894DEBF0FBECDBFCF91F3
:105A1000DF911F910F91FF90EF900895FED980E0E4
:105A200098EF7BDB86D783ED91E065EA74E30E9413
:105A3000A2211092DB041092DA041092DD0410927D
:105A4000DC041092D9041092DE0408959C01F999A7
:105A5000FECF32BD21BDF89A80B508959091000522
:105A6000882311F0916001C09E7F909300050895F6
:105A700014BE1092900047984698809A8898FFCF5D
:105A8000982F80917C00807E80937C00892F8950A4
:105A9000853008F4985E95FF04C080917B00806299
:105AA00003C080917B008F7D80937B0080917C0080
:105AB0009F71892B80937C0080917A00806880930D
:105AC0007A0080917A00806480937A0080917A00D5
:105AD00084FFFCCF80917A00806480937A0080916B
