:100000000C949F0C0C94C70C0C94C70C0C94C70C4C
:100010000C94C70C0C94C70C0C94C70C0C94C70C14
:100020000C94C70C0C94C70C0C94A2340C94D434CC
:100030000C94C70C0C94C70C0C94C70C0C94C70CF4
:100040000C94C70C0C94C70C0C94C70C0C94C70CE4
:100050000C94FB300C94C70C0C94C70C0C94C70C7C
:100060000C94C70C0C94C70C0C94C70C0C94C70CC4
:100070000C94C70C0C94C70C0C94C70C0C94C70CB4
:100080000C94C70C0C94C70C0C94C70C0C94C70CA4
:100090000C94C70C0C94C70C0C94C70C0C94C70C94
:1000A0000C94C70C0C94C70C0C94C70C77696B6943
:1000B0002E626C62002066696C65206D69737369DD
:1000C0006E670066207F0C00000000030C880103AF
:1000D00002880104029D010502A5010502C801086C
:1000E00002F0010602280202025202030256020333
:1000F00002710204028C02050498020208B1020493
:1001000006B5020208B9020302BB020502D00203CF
:1001100002F3020502080305022B0305024E030544
:10012000027103050294030502B7030502DA030511
:1001300002FD030204200402042A04050336040518
:10014000044F0405035E040502770409029A0407BC
:1001500002EB0406021C05070246050702770506A6
:1001600002A8050502D2050702F5050702260602C8
:1001700002570605026506060288060502B2060851
:1001800002D50607020D0707023E0706026F0707A2
:100190000299070702CA070602FB0706022508079D
:1001A000024F08070280080A02B1080602F7080693
:1001B00002210906024B0903027509030290090393
:1001C00002A5090402C009070ACC090302D30905E4
:1001D00004D9090502F2090504150A05022E0A05CB
:1001E00004510A04026A0A0504860A0502A90A02E1
:1001F00002CC0A0302DA0A0502F50A0202180B0809
:1002000004260B05044E0B0504670B0504800B0543
:1002100004A30B0404C60B0504DA0B0302F30B055D
:1002200004080C0504210C07043A0C05045D0C05B8
:1002300004760C0504990C0402B20C0202D60C03DD
:1002400002E60C0605010DFFFF0D0D04520B0452D2
:100250000B04520B04520B04520B00000004520B0F
:10026000282F520B172D3400000A410A4100172B8A
:10027000172B5A7A7A7A7302390D390B5A7A7A7AAD
:10028000730A41074600172B172B00045A7A730B89
:1002900018412526410A77490B0000045A782B00A3
:1002A00000251360184125156E045A7A771A00004C
:1002B000250B00076C771A02390B00184118410A08
:1002C000410000076C771C390B00000000000A4158
:1002D00000000000000239136C782B00000A410A6C
:1002E000410A5B0004520B045A782B000A7A771AF1
:1002F0000000282B1841000018433D1A0000187810
:100300002B0000185B07642641185B000A730B047E
:100310005A7A77236E1841172B00076000271A07B7
:1003200060000A5B001841000A5B000760000027BC
:100330001A000760282B00044B0000282B001841EE
:10034000000A5B00184100282B044B00282B0000FA
:10035000172B00187A782B0A5C3D1A00023D1A0010
:1003600000023D1A00187A7A7A7300023D1A0000E2
:10037000023D1A00076007462A7A730B0760000ADD
:100380004100172B02390B0433000A4100271A00E1
:10039000390B0002407A6E000A5B002A41172B00DD
:1003A0000A5B282B000A5B172B000A5B0A5B002AFA
:1003B0004102407A6E000018412A7A41211841001A
:1003C0001841001841001841001841045A7A771A60
:1003D000184100185B0000000A41000004520B00A5
:1003E00004571A0007691A00002A7A7A7A5B0240D9
:1003F0007A6E00185B002A41000000282B00045A86
:100400006E000000000A5B184100185B045A7A7302
:100410000B000007640B000240730B00185E520BC8
:1004200007640F520B187A7A7A5B000004520B00B3
:100430000004520B045A7A7A4107600000000A7ADD
:100440007A730B185B00185B0000000A6E184100FD
:100450002A5B045A7A730B002A7A7A410A5B0000FD
:1004600000174E7A730B2A6E00185B2A4100076052
:100470000A6E00185B002A7A730B187A7A7A5B008E
:100480000000271A00000A5B000000271A0000077E
:10049000600000000A5B0000001841000002407A82
:1004A000730B0A5B0018410A5B00184100187A5B65
:1004B00000185B00185B1841000A6E045A7A771A1C
:1004C000045A7A6E001841000A411841000A6E046D
:1004D0005A7A75600000000A5B1841002A41024008
:1004E0007A6E0007600000000000000760076000EF
:1004F0000000000000076007460000000A730018B3
:100500007A6E00185B00000000187A6E0000000090
:100510000A73187A7A7A730000000000187A7A7ADF
:1005200073185B00000000187A6E000000000A7368
:10053000000A7A6E00186E00000002407A771A18DE
:100540005B000A5B00000018410000185B0000041B
:10055000520B0000000000000004520B0000000AD3
:100560007A7A7A730B00000A771A00000A771A0465
:10057000571C407A6260185B0A5B185B002A4107CF
:100580006018433D1A00172B0A5B18433E2B045793
:100590001E582B0764157A78687A4100002A730B7D
:1005A0000000002A6E0000187A7A7A7A4100000072
:1005B0002A6E000000000453531A000000185B1854
:1005C000410000023E2B07640B00076C7A7A782BFF
:1005D000002A4100000A5B00571A000004571A0A5B
:1005E0007A7A7A730B0A5B0000282B0A5B000027DB
:1005F0001A0A7A7A7A771A0A5B0000185B0A5B009B
:100600000018410A7A7A7A730B000A7A7A771A000C
:1006100007691A000A6E001841000000050B184116
:1006200000000000001841000000220007691A00C5
:100630000A771A000A7A7A771A000A7A7A7A730B9A
:10064000000A5B0000186E000A5B0000023D1A0AF7
:100650005B0000023D1A0A5B000004520B0A5B00BB
:10066000000A6E000A7A7A7A730B000A7A7A7A7A2A
:10067000410A5B000000000A5B000000000A7A7A71
:100680007A771A0A5B000000000A5B000000000A8B
:100690007A7A7A7A5B0A7A7A7A770A5B0000000AB9
:1006A0005B0000000A7A7A7A5B0A5B0000000A5B52
:1006B0000000000A5B00000000076C7A7A5B00040F
:1006C000582B00023E2B0A5B00000000001841007E
:1006D0000A7A7A5B0A5B0000000A5B04582B000070
:1006E0002A5B00045A7A7A5B000A5B000004520B12
:1006F0000A5B000004520B0A5B000004520B0A7AEA
:100700007A7A7A730B0A5B000004520B0A5B0000D2
:1007100004520B0A5B000004520B0760076007607D
:100720000760076007600760000004520B000004C8
:10073000520B000004520B000004520B0000045244
:100740000B282B0760000A7A7A41000A5B00001828
:100750006E0A5B000A5B000A5B076000000A5E5AD3
:100760005B00000A771C3E2B000A5B0004571A0A44
:100770005B00000A730A5B0000000A5B0000000ACD
:100780005B0000000A5B0000000A5B0000000A5BDF
:100790000000000A7A7A7A6E0A782B000018730B30
:1007A0000A665B00023B640B0A5E4B000749520B72
:1007B0000A5B271A172F520B0A5B1841271E520B90
:1007C0000A5B07624B04520B0A5B02404104520B66
:1007D0000A771A0004520B0A7A5B0004520B0A5C77
:1007E0003E2B04520B0A5B076004520B0A5B002A83
:1007F00045520B0A5B00045A730B0A5B0000187326
:100800000B00076C7A782B0007691A0004582B1824
:10081000410000000A5B18410000000A5B1841001B
:1008200000000A5B07691A0004582B00076C7A78ED
:100830002B000A7A7A7A771A0A5B00000A5B0A5B55
:1008400000000A5B0A7A7A7A771A0A5B00000000D5
:100850000A5B000000000A5B00000000000A7A7AD0
:10086000782B0007691A0007691A18410000001860
:1008700041282B0000000A5B18410000000A4107D4
:10088000691A186E271A00076C7A7A7A6E0A7A7AD1
:100890007A782B000A5B00000760000A5B00000703
:1008A00060000A7A7A7A782B000A5B000A6E0000F0
:1008B0000A5B00002A41000A5B000004571A002A64
:1008C0007A7A6E000A6E0000282B07640B00000085
:1008D00000076C7A6E0000000000185B185B0000D7
:1008E0000A5B02407A7A730B407A7A7A7A41000086
:1008F000282B00000000282B00000000282B0000FF
:100900000000282B00000000282B00000000282BEE
:1009100000000A5B000004520B0A5B000004520B4B
:100920000A5B000004520B0A5B000004520B0760D4
:10093000000007600004571A00185B0000187A7A5C
:10094000730B003E2B000004520B0A5B00000A5B95
:100950000004520B00282B0000282B076000000029
:100960000A5B18410000000453531A000000002ADB
:100970006E0000003E2B00076C410007640B185B03
:10098000000A4D6E000A6E000A6E00271E520B18F8
:10099000410004520F520D3E2D3E2B00023D2046D9
:1009A000001845520B0000174D2B000A756000001F
:1009B000000A771A00045A5B0000186E00002A41F2
:1009C000002A410A6E0000045A771A0000002A6EBD
:1009D0000000000A6E2A410004571A04571A4041C9
:1009E00000000A7340410000186E04520B04520BC1
:1009F00000185B2A41000002406E00000000184110
:100A000000000000184100000000184100000A7AB0
:100A10007A7A771A0000000A6E00000004520B0078
:100A200000023E2B0000002A41000000185B00007D
:100A30000000407A7A7A7A410A7A5B0A5B000A5BA4
:100A4000000A5B000A5B000A5B000A5B000A5B00AD
:100A50000A7A5B390B00172B00074600044B000095
:100A6000271A00172B00074640771A023D1A023D4D
:100A70001A023D1A023D1A023D1A023D1A023D1A9F
:100A800040771A00186E0004523B2B2A410760077A
:100A90006C7A7A7A782B185B0002390B076C7A78BB
:100AA0002B050B00184102407A7A41282B002A417D
:100AB0000A7A7A4D5B0A5B0000000A5B0000000ABC
:100AC000667A771A0A6E000A5B0A5B0007600A6E94
:100AD000000A5B0A667A771A02407A730B185B0089
:100AE0001841282B000000185B00184102407A735F
:100AF0000B00000018410000001841045A7A6641BA
:100B00001841002A41282B0018411841002A4104AD
:100B10005A7A6641045A7A730B1841000A5B2A7AA2
:100B20007A7A6E1841000000045A7A7A5B045A738C
:100B30000B07600000407A5B000760000007600060
:100B4000000760000007600000045A784E41184119
:100B5000024041282B0018411841002A41045A7ACA
:100B600066411841002A41045A7A730B0A5B00005F
:100B7000000A5B0000000A626C771A0A730B1841C6
:100B80000A5B0018410A5B0018410A5B0018410A21
:100B90005B00000A5B0A5B0A5B0A5B0A5B000A5B9C
:100BA000000000000A5B000A5B000A5B000A5B00B1
:100BB0000A5B000A5B0A782B0A5B0000000A5B00F4
:100BC00000000A5B076A2B0A62640B000A7A730B47
:100BD000000A5B185B000A5B0240410A5B0A5B0A81
:100BE0005B0A5B0A5B0A5B0A5B0A626C73267A6EBD
:100BF000000A730B2A5B04571A0A5B00282B023D7C
:100C00001A0A5B00282B023D1A0A5B00282B023DC2
:100C10001A0A7A7A771A0A6E0018410A5B0018419C
:100C20000A5B0018410A5B00184102407A730B18F6
:100C30005B00185B282B000760185B00185B024004
:100C40007A730B0A626C771A0A730B0A5B0A5B00F1
:100C500007600A6E000A5B0A667A771A0A5B000070
:100C6000000A5B000000045A784E411841024041DE
:100C7000282B0018411841002A4102407A664100A1
:100C80000000184100000018410A66771A0A6E0039
:100C9000000A5B00000A5B00000A5B0000076C7A38
:100CA0006E001841000000045A7A730B00000028FF
:100CB0002B187A7A6E000011000A5B00407A410A14
:100CC0005B000A5B000A5B00076C410A5B0018418D
:100CD0000A5B0018410A5B0018410A5B002A4104C4
:100CE0005A7A6641282B00282B0A5B04520B0452C7
:100CF000155B000028662B00000A730B003D1A0AE2
:100D0000730B1841184117651A271A07473D3645D6
:100D10004B0004546007545B00002A5B04582B000E
:100D20002A5B04582B023E684100000A730B000442
:100D300057365B004041024041282B0018410A5BB6
:100D4000023D1A045213600000284D2B0000076476
:100D50000B00000A5B000018771A00002A7A7A77E5
:100D60001A0000185B0000185B00000A6E0000000B
:100D7000407A7A782B002A730B023D1A00023D1A42
:100D80000004520B003D1A000004520B00023D1AF1
:100D900000023D1A00002A730B0746074607460764
:100DA000460746074607460746406E0004520B04B6
:100DB000520B023D1A000452023D1A04520B045217
:100DC0000B406E000A7A730B140B2200187A5B003A
:100DD000FFFFFFFEFFFCFFF8FFF7FF1CFF14FF13F0
:100DE000FDF7FDF4FDEEE7FFE7FEE7FCE7F8E7F7C8
:100DF000E71EE71CE714E713E5F7E5EEE4F3E4EE9E
:100E0000E4E9E4E8BFFFBFFEBFFCBFF8BFF7BF14D3
:100E1000BF13BDFFBDF7BDEEBCF4BCF3BCE9BBAE78
:100E2000BBA9BBA8BBA09F1F9F1E9F1C9F189F17FD
:100E30009DFE9DF49DF39CFC9CF79CEE9CE99CE838
:100E40009BB49BB39BAE9BA99BA09A4E9A499A4890
:100E50009A4075FF75FE75FC75F875F774FC74F7AC
:100E600074F474F373B873B773B373AE73A973A8E0
:100E700073A072547253724E724972487240700E6F
:100E80007009700870004CFC4CF74CF44CF34BB8F4
:100E90004BB74BB44BAE4A544A534A4E4A494A4860
:100EA0004A40480E48094808480003B803B703B44D
:100EB00003B303AE02540253024E02490248000E2D
:100EC000000900080000FFFFFFFEFFFCFFF8FFF72E
:100ED000FF1CFF14FF13FDF7FDF4FDEEFFFFFFFE07
:100EE000FFFCFFF8FFF7FF1EFF1CFF14FF13FDF7C9
:100EF000FDEEFCF3FCEEFCE9FCE8FFFFFFFEFFFC6F
:100F0000FFF8FFF7FF14FF13FDFFFDF7FDEEFCF404
:100F1000FCF3FCE9FBAEFBA9FBA8FBA0FF1FFF1E37
:100F2000FF1CFF18FF17FDFEFDF4FDF3FCFCFCF7B2
:100F3000FCEEFCE9FCE8FBB4FBB3FBAEFBA9FBA0B9
:100F4000FA4EFA49FA48FA40FDFFFDFEFDFCFDF8B5
:100F5000FDF7FCFCFCF7FCF4FCF3FBB8FBB7FBB3C0
:100F6000FBAEFBA9FBA8FBA0FA54FA53FA4EFA49D0
:100F7000FA48FA40F80EF809F808F800FCFCFCF70B
:100F8000FCF4FCF3FBB8FBB7FBB4FBAEFA54FA532A
:100F9000FA4EFA49FA48FA40F80EF809F808F8004B
:100FA000FBB8FBB7FBB4FBB3FBAEFA54FA53FA4EF3
:100FB000FA49FA48F80EF809F808F800FFFFFFFFB1
:100FC000FFFFFFFFFFFFFF1FFF1FFF1FFDFFFDFFD5
:100FD000FDFFE7FFE7FFE7FFE7FFE7FFE71FE71F8B
:100FE000E71FE71FE5FFE5FFE4FFE4FFE4FFE4FFA1
:100FF000BFFFBFFFBFFFBFFFBFFFBF1FBF1FBDFFC3
:10100000BDFFBDFFBCFFBCFFBCFFBBBFBBBFBBBFC9
:10101000BBBF9F1F9F1F9F1F9F1F9F1F9DFF9DFF68
:101020009DFF9CFF9CFF9CFF9CFF9CFF9BBF9BBF69
:101030009BBF9BBF9BBF9A5F9A5F9A5F9A5F75FF4A
:1010400075FF75FF75FF75FF74FF74FF74FF74FF04
:1010500073BF73BF73BF73BF73BF73BF73BF725F61
:10106000725F725F725F725F725F701F701F701FBE
:10107000701F4CFF4CFF4CFF4CFF4BBF4BBF4BBF97
:101080004BBF4A5F4A5F4A5F4A5F4A5F4A5F481FF9
:10109000481F481F481F03BF03BF03BF03BF03BF51
:1010A000025F025F025F025F025F001F001F001FFE
:1010B000001F2074686574686520206F66202061B9
:1010C0006E64616E64202069732020696E20696EF1
:1010D000672020746F206E20746874696F6E6620BC
:1010E00074686F66207454686520007468652074A5
:1010F00068686520206F66616E6420696E20616E8D
:101100006564206F66206973206E6420696E676570
:101110007220696E2020697373206120746F61737F
:1011200020746F205468656E6720696F6E65732048
:101130006F6E206E2074726520206120656E746869
:10114000657274657274696F616E200065206865F0
:10115000746820747320616E2061696E65726E2000
:10116000642020697265206F74206F6E6F726973DE
:101170006172656E6E647465617465732C20616C58
:101180007374722065646F662077746979202073A8
:10119000697461732E20746F6E676C6572697C7CF4
:1011A0006E746D65726F20636963206266206F20C4
:1011B0006561686120666C616F75726176657365E3
:1011C00064656C696120207068696C6C6E65696F1C
:1011D000636F636120686D616F6D7461206D6C2059
:1011E0007369636862656820656C546863657573CC
:1011F0000071776572747975696F70617364666781
:10120000686A6B6C7A786376626E6D2000736865CD
:101210006C6C00000B09215F3B00010004000B0017
:1012200010001A0021002200250028002D003400A3
:10123000360039003A003F00440049004E00530098
:1012400059005E00630068006D0072007300750055
:101250007B00820088008C0094009A00A000A70008
:10126000AE00B300B800BF00C500C800CC00D2007B
:10127000D700DE00E400EB00F000F700FD01030101
:101280000A01100116011F0125012C01320135014F
:101290003A013D0144014B014D01520157015C01EE
:1012A000610166016A016F017401750178017D01B8
:1012B0007E0187018C01910196019B019F01A30191
:1012C000A701AC01B101B801BD01C201C601CB014A
:1012D000CC01D101D801D8500400004C20000200FC
:1012E00000000000000000000000000000000000FE
:1012F000000000000000000000000000003C38007A
:1013000010200080C10984000000000000000000DF
:101310007C00D144621852A80002E239C17CDF731C
:10132000800000E3E33C3DF3FF3D0F78618F139EA7
:1013300039E3DFE186230C1FE408800820008101E7
:1013400000840000000008000000009200D14F92CD
:1013500024527080051E462341018C400000141366
:1013600022430A10430A18A18F14514514222186E2
:10137000230A20620940002000810100840000004F
:10138000000800000000920087F4942421A8800542
:1013900012042542028C68603019D4A281061081A3
:1013A0000A19215698318314022185549140A20ACA
:1013B0002003BCE7BBDFEB8FDDE779F6FF18C98CB4
:1013C0007C920082946419212080091208C97BC292
:1013D00074699FCC2A54BE8107FE81FA1A2156985F
:1013E000318313022149546081210C10006318C518
:1013F0002319962318C6390918C952849231828E4E
:1014000009A52107F38912103106248BC600034A6F
:1014100054A18106108F0A1E2126583E83E0C22166
:101420004954608221080003E308FD2319A623180C
:10143000C631891555228B11C98FC50A62210080DA
:101440001112203F862488419FCC4A5FE18106101B
:10145000830A192126583083202221495490842060
:101460008800046308C12319E62318C6306915559E
:1014700022909246050512632100845112422146B2
:101480002888A8603009A861430A10430A18A106F9
:1014900034504514222130890888208800046318BC
:1014A000C52319962318C63029122251209200858F
:1014B0001E119C92008460EFFDC139C873280000A2
:1014C00044087E3DF3F03D0FE87F063390390BC2B0
:1014D0001E3089088FE0480003FCE7B91F198E23EE
:1014E0001779F1C6F222893C920000040000120034
:1014F000042000000000000008000003C0000000FD
:1015000000000000000000000800000000000000D3
:101510002048000000000002010000004020000000
:101520000001009200000400000C00080000000010
:10153000000000100000000000000000000000009B
:10154000000000060000000000000038380FE00036
:1015500000001C06000000402000000002007C008B
:10156000050A08215E3B0280000082400000002046
:10157000000000000000000000000000000000006B
:10158000000000000000000000001D070000040033
:10159000101C100010C000000000000000000444F7
:1015A000002280403084200000002E239C2F9BEEE0
:1015B00070000001CF279DCFFDD171E308E5DE77F4
:1015C0009DF8C6318FD10110040400102010209026
:1015D0004000000000800000000842002294F4480F
:1015E0008811080000516462682031880010423080
:1015F0002463284231206508E6318C6248C6B188F0
:10160000508128020400102010001040000000004B
:1016100080000000084200203F4AC808154800002A
:10162000532042A8405189086FB0365461184211C6
:1016300020690DD6318C6048C6AA88908144007715
:101640009EF779DE61924D79DE7D9EE8C6318FC8C6
:1016500042002014E5300813BE0F8095218D2F78AD
:101660004E7801800C5657A11F7A7F20710DD63E0F
:101670008F9C48AAA471104100000C6118A231206F
:10168000944AC6318E6088C6AA8890413020145290
:10169000C80815480000992203F0C49108006FB0F3
:1016A00097746118423120690AD6308C4248A94AA1
:1016B00022104100007C611FA23120984AC6318C63
:1016C0001C88AAA48908424C003FE5440811080080
:1016D0000111242228C49111081040108C63284263
:1016E0003120650ACE309C624891512410210000BF
:1016F0008C6118223120944AC6318C0288A94A8A0A
:10170000084200201448B804200040110E77DC275E
:10171000390E601000008F8F9DCFC1F177A3F8CDF7
:10172000D07C5C47115127D02100007F9EF7A1F1AA
:1017300020924AC5DE7C3C7791517FC84200000070
:1017400000000240008002000000000000000000D5
:101750000000000000000000000000000000000089
:1017600000001C1703E000000000200080000010B3
:101770000800000000080444000000000000000011
:101780000000000000000000000000000000000059
:101790000000000000000000000000000000000049
:1017A0000000000001C00700000010080000000059
:1017B0007000000000060D13191F252C32383E441E
:1017C0004A50565C62676D73787E83888E93989DCD
:1017D000A2A7ABB0B4B9BDC1C5C9CDD0D4D7DBDEEB
:1017E000E1E4E7E9ECEEF0F2F4F6F7F9FAFBFCFDE0
:1017F000FEFEFFFF4153534552543A2025733A25CC
:1018000064000C638E731084929414A596B518C668
:101810009AD6253034580A00E3E7EF00FF010203AF
:101820000408090A0C0D0F10111213FF1011FF12FA
:10183000FF1329FF30313235363738393C3D20210E
:101840005051525360616A80818283848590929363
:1018500095979807083012003112010032000001FC
:10186000000730100000020200000000000000002D
:1018700000000000070000000000C80090162702CA
:1018800032001A00320000182A0032000000000066
:101890000000060208080700010200000000000026
:1018A000000000000000EF0000003F0100A703005F
:1018B0000000000000000000000000000000100018
:1018C00000000300100100000000330104030904BC
:1018D00016034D006900630072006F0074006F0012
:1018E00075006300680012010002020000109A23D4
:1018F00001200001000200010902430002010080F2
:101900003209040000010202000005240010010554
:1019100024010101042402020524060001070581B7
:101920000310004009040100020A0000000705023C
:10193000024000000705830240000000D40D11247E
:101940001FBECFEFDAE0DEBFCDBF11E0A0E0B1E017
:10195000E6E8FDE602C005900D92AA30B107D9F77E
:1019600016E0AAE0B1E001C01D92AB3BB107E1F780
:1019700019E1CEE3D9E104C02297FE010E94863628
:10198000CC33D107C9F70E94F7280C94C1360C94C8
:101990000000FB01DC018D91059080190110D9F345
:1019A000990B0895FB01DC014150504048F005902F
:1019B0000D920020C9F701C01D9241505040E0F740
:1019C0000895FB01DC0104C08D910190801921F480
:1019D00041505040C8F7881B990B0895FB01DC016A
:1019E0008D91019080190110D9F3990B0895A0E011
:1019F000B0E0EDEFFCE00C9494367C01EB018A0141
:101A0000690109C0CE012196F6010995F70181937C
:101A10007F010150104001151105A1F7CDB7DEB7C8
:101A2000E8E00C94B036A0E0B0E0E9E1FDE00C9411
:101A30009A36FE01359661917191A091B706B091E9
:101A4000B80613968C911397886013968C938091A7
:101A5000B7069091B806AF01A4D0E091B706F09117
:101A6000B8062381277F23832096E2E00C94B636C4
:101A7000982FFB018E3A50F082E080839E5A292FE6
:101A800030E0220F331F245B3E4E1AC08E3868F0C0
:101A900083E080839E58892F90E09C01220F331FA2
:101AA000280F391F25513F4E0BC084E0808390588A
:101AB000292F30E0220F331F220F331F2E543F4EA9
:101AC000C9010895AF92BF92CF92DF92FF920F9318
:101AD0001F93CF93DF938B01EA01A0E0B0E066EFA4
:101AE0007FEF29E1A22EB12C96E1C92ED12CFA2E3E
:101AF000AD01AB31B10529F426EC30E0EBEBF0E0C1
:101B00002DC0AA30B10514F480E00AC0AB016930E1
:101B1000710514F481E004C0AD014351504082E0EE
:101B200090E08A9DF0018B9DF00D9A9DF00D11249F
:101B3000E452FF4F8C9D90018D9D300D9C9D300D8A
:101B400011242C5E3F4F359527954C9DC0014D9D2E
:101B5000900D5C9D900D1124280F391F021713075B
:101B600064F02D5E3F4F201731073CF0CE17DF07A2
:101B700024F07696EC17FD074CF411966F5F7F4FBB
:101B8000AC31B10509F0B3CFFF24FA948F2DDF916A
:101B9000CF911F910F91FF90DF90CF90BF90AF90AA
:101BA000089580E090E0089586EC92E06DE072E1A7
:101BB0004AE751E228ED32E00C94B62BEF92FF9207
:101BC0000F931F93CF93DF93EC01FC01E955FD4F79
:101BD00080818111108280E090E060E070E040EF51
:101BE00050E020E431E00FEF1FEF0E948028CE018B
:101BF0008A579D4F40E050E060E070E029ED38E109
:101C00008E01EE24FF240E94DD29C355DD4F18828A
:101C1000DF91CF911F910F91FF90EF9008952F9238
:101C20003F924F925F926F927F928F929F92AF926C
:101C3000BF92CF92DF92EF92FF920F931F93DF93A9
:101C4000CF93CDB7DEB72C970FB6F894DEBF0FBE9B
:101C5000CDBF2C011B0129873A874B875C87DC01AC
:101C60001696ED90FD900D911C91199733E0159506
:101C70000795F794E7943A95D1F712964D915D91B7
:101C80006D917C9115978D919C910E94EB25E114AB
:101C9000F10401051105A9F1AA24BB2465016624FC
:101CA00077244301F20180819181BE016F5F7F4FF4
:101CB00048E050E00E94622629853A854B855C8584
:101CC0002A153B054C055D054CF089819A81AB8155
:101CD000BC81281739074A075B07CCF00894E10854
:101CE000F10801091109E114F1040105110579F068
:101CF000A980BA80CB80DC806D807E808F809884C4
:101D0000D1CFAA24BB246501662477244301D101E5
:101D1000AD92BD92CD92DC921397F10164827582EF
:101D20008682978289819A81AB81BC8180879187E5
:101D3000A287B3878D819E81AF81B885848795877F
:101D4000A687B7872C960FB6F894DEBF0FBECDBF1F
:101D5000CF91DF911F910F91FF90EF90DF90CF9087
:101D6000BF90AF909F908F907F906F905F904F90BB
:101D70003F902F900895CF92DF92EF92FF920F93B2
:101D80001F93CF93DF93EC0157EDC52E52E0D52E74
:101D9000C80ED91EF6018081813029F544E0E42E79
:101DA000F12CEC0EFD1E8E010D521D4FF8014081ED
:101DB000518162817381C7010E94EB25C7016DEAE1
:101DC00072E041E050E00E946226F801808191813A
:101DD000A281B3810196A11DB11D80839183A2834D
:101DE000B383F6011082DE01A952BD4F9C91E92F09
:101DF000F0E0E355FD4F80819F5F9C93DF91CF9191
:101E00001F910F91FF90EF90DF90CF9008950F9367
:101E10001F93DF93CF9300D000D0CDB7DEB78C01F6
:101E20000C5F1F4FC8010E94EB25C801BE016F5F08
:101E30007F4F44E050E00E94622669817A818B8165
:101E40009C810F900F900F900F90CF91DF911F9179
:101E50000F9108954F925F926F927F928F929F920F
:101E6000AF92BF92CF92DF92EF92FF920F931F93A8
:101E7000CF93DF93EC013A014B015801690127012F
:101E8000D7011D921D921D921C9213974C5F5F4FBC
:101E90006F4F7F4FBCDFD7FC46C0A616B706C806FB
:101EA000D9060CF040C088E090E0A0E0B0E0680EF9
:101EB000791E8A1E9B1E8601750162E0EE0CFF1CD6
:101EC000001F111F6A95D1F7E60CF71C081D191D9C
:101ED00088EF9FEFAFEFBFEF680E791E8A1E9B1E43
:101EE000CE01B801A70193DF5B016C0184E090E0B3
:101EF000A0E0B0E0E80EF91E0A1F1B1FCE01B801DA
:101F0000A70185DF6A197B098C099D09D2016D93B0
:101F10007D938D939C93139786017501E60CF71CB6
:101F2000081D191D04C0EE24EA94FE2C8701B70198
:101F3000C801DF91CF911F910F91FF90EF90DF903B
:101F4000CF90BF90AF909F908F907F906F905F9059
:101F50004F9008956F927F928F929F92AF92BF920F
:101F6000CF92DF92EF92FF920F931F93DF93CF9365
:101F700000D000D0CDB7DEB76C018A019B018AE2A8
:101F800092E0C80ED91EF6014081518162817381B1
:101F900086ED9DEFC80ED91EC6013E010894611C56
:101FA000711C730157DF4B015C01C601B501A4012F
:101FB00000E010E020E030E04DDFEAE4F2E0CE0E99
:101FC000DF1EF601608371838283938326EB3DEFEE
:101FD000C20ED31EC601B501A40101E010E020E04D
:101FE00030E038DF8B019C0149815A816B817C8113
:101FF00080E792E0C80ED91EF6011082118212828B
:10200000138288EF9FEFC80ED91EF601108211824D
:1020100012821382C80ED91EF6011082118212821A
:102020001382C80ED91EF601108211821282138209
:1020300088EA9DEFC80ED91EEEE4EE2EE2E0FE2EF9
:10204000EC0CFD1CC6010496F70191838083E0E54A
:10205000F2E0CE0EDF1EF60101931193219331932E
:102060006F014083518362837383400F511F621F4E
:10207000731F48505040604070400E94EB2524E29E
:1020800030E0C20ED31EF70180819181B60144E099
:1020900050E00E9462260F900F900F900F90CF910A
:1020A000DF911F910F91FF90EF90DF90CF90BF9045
:1020B000AF909F908F907F906F9008950F931F9394
:1020C0008C01DB01CA01F2E0880F991FAA1FBB1F18
:1020D000FA95D1F7025D1D4FF8014081518162816F
:1020E00073810E521240480F591F6A1F7B1FC8018F
:1020F0008EDEAB01BC014150504060407040C801D1
:1021000029DF1F910F910895EF92FF920F931F9374
:10211000CF93DF93EC01CF52DD4F288139811A91A3
:102120000A91CF5CD240FF2417C0F901E87FEE0F7F
:10213000FF1FEE0FFF1FEC0FFD1FE155FD4F8081CC
:102140009181A281B381481759076A077B0711F46F
:10215000FF24F3942F5F3F4F2017310734F3FF2004
:1021600049F5F801E770F070EE0FFF1FEE0FFF1F4B
:10217000EC0FFD1FE155FD4F408351836283738354
:102180000F5F1F4FC153DD4F09931993015010404A
:1021900028813981C15DD240C801069728173907C7
:1021A0001CF4980127503040CF52DD4F39832883EB
:1021B000C15DD2404150504060407040CE01CADE07
:1021C000CE018A579D4FC858DD4F488159816A8199
:1021D0007B81C857D240403421E0520720E062079B
:1021E00020E0720724F440E451E060E070E029ED63
:1021F00038E18E01EE24FF240E94DD29C355DD4F16
:1022000081E0899383E08883DF91CF911F910F91C3
:10221000FF90EF900895E82F80912001E81729F1B1
:10222000E0932001F0E0EE0FFF1FEE0FFF1FE255DD
:10223000FD4F40815181628173814093BE02509372
:10224000BF026093C0027093C10280911E01909101
:102250001F010E94EB2580911E0190911F0161E2F8
:1022600071E04CE851E00E94622681E291E008951D
:10227000009759F4E3ECF0E0F093C302E093C2025C
:102280003396E491E093C40209C0C5DFFC0190934A
:10229000C3028093C20283818093C4021092C5025C
:1022A00008950F931F93CF93DF93EC01FB01888177
:1022B0009981089771F088E090E0998388838A81FA
:1022C0009B812091C4023091C502820F931F9B8392
:1022D0008A836A817B816E177F076CF064177507AC
:1022E00054F488E090E040EE50E021E030E008E176
:1022F00016EC0E94802884E090E09093C5028093C1
:10230000C40288E090E0998388838A819B81049647
:102310009B838A8380E090E0ABDFDF91CF911F91B8
:102320000F9108958F929F92AF92BF92CF92DF92BA
:10233000EF92FF921F93DF93CF93CDB7DEB7A097B5
:102340000FB6F894DEBF0FBECDBF6C014B017A0112
:102350005E010894A11CB11C2FC080E1E816F104B5
:1023600014F010E101C01E2DA601212F90E016C02F
:10237000DA01ED91AD01F0E0EE0FFF1FE80DF91D60
:102380008491D501A90FB11D8C933196E4919F5F83
:10239000D501A90FB11DEC939F5F2150222341F776
:1023A000C10ED11C1F77412F50E060E070E0C501E5
:1023B0000E945C28E11AF108E114F10471F6A0967C
:1023C0000FB6F894DEBF0FBECDBFCF91DF911F9146
:1023D000FF90EF90DF90CF90BF90AF909F908F9045
:1023E0000895EF92FF920F931F93DF93CF9300D046
:1023F000CDB7DEB78B01AC01662757FD6095762F10
:102400008091BE029091BF02A091C002B091C10222
:10241000480F591F6A1F7B1F80911E0190911F0159
:102420000E94EB257E010894E11CF11C21C08091E3
:102430001E0190911F01B7010E940C269C01898109
:102440009A810817190714F41A830983609100010F
:102450007091010149815A81C90164DF69817A81E2
:10246000061B170B80911E0190911F010E9484266C
:1024700001151105E1F60F900F90CF91DF911F919B
:102480000F91FF90EF9008958F929F92AF92BF921D
:10249000CF92DF92EF92FF921F93DF93CF93CDB74E
:1024A000DEB7A0970FB6F894DEBF0FBECDBF6C01AC
:1024B0004B017A015E010894A11CB11C30C080E17F
:1024C000E816F10414F010E101C01E2D9601412F11
:1024D00090E017C0F9012F5F3F4FE491F0E0EE0F5D
:1024E000FF1FE80DF91D8491D501A90FB11D8C9333
:1024F0003196E4919F5FD501A90FB11DEC939F5FC9
:102500004150442339F7C10ED11C1F77412F50E0B1
:1025100060E070E0C5010E945C28E11AF108E11456
:10252000F10469F6A0960FB6F894DEBF0FBECDBFDA
:10253000CF91DF911F91FF90EF90DF90CF90BF90F0
:10254000AF909F908F9008956F927F928F929F92FD
:10255000AF92BF92CF92DF92EF92FF920F931F93B1
:10256000CF93DF933B014901C091C202D091C302D6
:10257000AA2421E0C132D20711F4AA24A3949927F6
:1025800087FD9095AA2099F02B81FC0132968981D4
:10259000E81BF109EE0FFF1FEE0FFF1FEC0FFD1FF1
:1025A000B0803181E280F380C680D78027C0239637
:1025B000FE0134912297FE01249121970296821BFD
:1025C0009109880F991F880F991FFE01E80FF91FC5
:1025D0002491FC013196EC0FFD1F64910296DE01FF
:1025E000A80FB91FFD01E590F49004968C0F9D1F74
:1025F000FC01C590D490B22E232F362FBA01630F61
:10260000711DE22FE31B9401261B370B12161306D4
:10261000ACF48E2F90E0281739070CF050C0620FF1
:10262000731F8B2D90E0AC01249FC001259F900D5E
:10263000349F900D1124E80EF91EE21B8E2F90E0BE
:102640009B01201B310B8901080F191F1016110661
:102650006CF4081719079CF5E01BEB9DC0011124D1
:102660008E0D9F1DC816D9060CF06C01EE2339F1B2
:10267000EC14FD0424F54B2D50E0CA01860D971D86
:10268000813F9105E4F42E2F30E0C901860F971F9A
:1026900081549140A4F4C3010E945928A6014E1907
:1026A0005F09AA2021F0C701BA019BDE08C0609132
:1026B000000170910101CE018E0D9F1DE5DE8B2D75
:1026C000DF91CF911F910F91FF90EF90DF90CF900E
:1026D000BF90AF909F908F907F906F900895CF9212
:1026E000DF92FF920F931F93CF93DF936C0184E1EE
:1026F00090E06DEB70E046EB50E024E130E00FEF4E
:102700001FEF0E948028C4E1D0E0FF240BC0BE016F
:102710004DEB50E02DEB30E001ED10E015DFC80F80
:10272000D11DF394F601EF0DF11D8281882379F715
:10273000DF91CF911F910F91FF90DF90CF9008957F
:10274000EF92FF920F931F93CF93DF937B01622F42
:102750002BE1E216F10429F40BEB10E0C6ECD0E01B
:1027600035C03AE0E316F1041CF4A70120E00CC0E8
:10277000A7014A5050404930510514F421E004C0EB
:10278000A7014351504022E030E089E190E0289FCA
:102790008001299F100D389F100D112404521F4FE6
:1027A00086E190E0289FE001299FD00D389FD00D51
:1027B00011246496D595C7959C01429FC001439F03
:1027C000900D529F900D1124C80FD91F662319F444
:1027D00080ED9DE002C086EC9EE090930101809325
:1027E000000183E090E044DDEE2DF0E0EF50FE4E7E
:1027F000E4912696A8014C5F5F4F8E2FBE01980191
:10280000095E1F4FA1DE80ED9DE090930101809352
:102810000001DF91CF911F910F91FF90EF900895EC
:102820002F923F924F925F926F927F928F929F92E0
:10283000AF92BF92CF92DF92EF92FF920F931F93CE
:10284000DF93CF9300D0CDB7DEB71C015B012A0127
:10285000A9013801460F571F47014E155F050CF4BB
:102860004A01A614B70414F5C0901E01D0901F01B0
:10287000C6010E94AF257B018C019201220F331FFC
:10288000C3018A199B09289FA001299F500D389FD9
:10289000500D1124662757FD6095762F4E0D5F1D54
:1028A000601F711FC6010E94EB255301A814B904D3
:1028B0000CF05AC07401EA18FB08C101B501A2016D
:1028C00097010E945928B201882777FD8095982F9B
:1028D000660F771F881F991F0027F7FC0095102FA0
:1028E000A80197010E9401366B017C015E010894EA
:1028F000A11CB11C34C080911E0190911F01B50133
:102900000E940C26FC0189819A818C01222717FDE7
:102910002095322FB701A6010C151D052E053F0588
:1029200014F4B901A8015A83498355954795662740
:1029300057FD6095762FCF010E945C2869817A81CE
:10294000CB01AA2797FDA095BA2FC81AD90AEA0A7F
:10295000FB0A80911E0190911F010E948426C114E0
:10296000D104E104F10439F60F900F90CF91DF917B
:102970001F910F91FF90EF90DF90CF90BF90AF909D
:102980009F908F907F906F905F904F903F902F908F
:1029900008956F927F928F929F92AF92BF92CF9243
:1029A000DF92EF92FF920F931F93DF93CF9300D0AC
:1029B00000D0CDB7DEB75B016C013A0149018091CF
:1029C0001E0190911F01B601A5010E94EB25809187
:1029D0001E0190911F01BE016F5F7F4F44E050E0E8
:1029E0000E9462268A81880E911C4B812C81C30132
:1029F000B40150E030E014DF8B8190E00F900F9035
:102A00000F900F90CF91DF911F910F91FF90EF905A
:102A1000DF90CF90BF90AF909F908F907F906F90FE
:102A200008952F923F924F925F926F927F928F9272
:102A30009F92AF92BF92CF92DF92EF92FF920F934D
:102A40001F93DF93CF93CDB7DEB768970FB6F89497
:102A5000DEBF0FBECDBF3C016A017B01290104C06E
:102A600020E431E0420E531E57FCFACF04C040EC84
:102A70005EEF440E551E50E4451651E05506BCF776
:102A8000C201800F911F98878F833EE4232E32E08E
:102A9000332E260C371C0894C108D108E108F10830
:102AA0004801AA2497FCA094BA2C8C0C9D1CAE1C47
:102AB000BF1C0894C11CD11CE11CF11CA8E5B2E0AC
:102AC0006A0E7B1EF30180819181A281B38128EA85
:102AD0003DEF620E731EC816D906EA06FB060CF41B
:102AE00023C340E652E0640E751EF301808191819C
:102AF000A281B38120EA3DEF620E731EC816D9068B
:102B0000EA06FB060CF010C31BC040E752E0640E5F
:102B1000751ED3012D913D914D915C9180E99DEF02
:102B2000680E791EC216D306E406F5060CF009C33A
:102B3000D301A85ABD4F80E101900D928150E1F779
:102B4000A8E6B2E06A0E7B1EF30180819181A2812A
:102B5000B38128E93DEF620E731E88169906AA0616
:102B6000BB060CF4F7C240E752E0640E751EF30199
:102B700080819181A281B38120E93DEF620E731EB5
:102B800088169906AA06BB060CF0E4C21BC040E6F4
:102B900052E0640E751ED3012D913D914D915C91D3
:102BA00080EA9DEF680E791E82169306A406B5068C
:102BB0000CF0DDC2D301A859BD4F80E101900D9208
:102BC0008150E1F7A8E5B2E06A0E7B1EF301808137
:102BD000918128EA3DEF620E731E8C199D09840DC8
:102BE000951DD30113969C938E93129788E090E0E5
:102BF0008D939C93ECE5F2E06E0E7F1ED301CD9099
:102C0000DD90ED90FC90E8E1F0E06E0E7F1ED301C8
:102C10008D909D90AD90BC90ECE8FDEF6E0E7F1E08
:102C200093012D523D4F4AE452E0640E751EF301AC
:102C300080819181A281B3818C0D9D1DAE1DBF1D30
:102C4000F90180839183A283B3832DE830E0620E83
:102C5000731E81E0D3018C93E5EAFFEF6E0E7F1EB9
:102C6000F30180819181A281B38124E83DEF620E5E
:102C7000731E0097A105B10569F42F8138852419C9
:102C8000350980E090E0B20140EF50E00FEF1FEF18
:102C90000E94802820ED3DE0309301012093000147
:102CA00014012C183D088CE090E09093C5028093AD
:102CB000C4021E821D82A30140585D4F5A87498776
:102CC000C3018A5D9D4F9C878B872F8B388FD301E3
:102CD000A458BD4FBE87AD87F301EE57FD4FF88B6B
:102CE000EF8793012C573D4F3A8B298BA3014B570C
:102CF0005D4F5C8B4B8BC301865C9D4F9E8B8D8B98
:102D00000EC2C30138D8882309F43AC208942108B6
:102D10003108803208F439C087FF24C0BE016F5FDC
:102D20007F4F0E94380D6C0117C0F6018491D301CA
:102D3000ED90FC90119712964D915C911397B7010D
:102D400092010F81188500DCE80EF11CF301F1827D
:102D5000E0820894C11CD11C8981815089838F5FD6
:102D600021F7DDC1D301ED90FC90119712964D91A2
:102D70005C911397B70192010F811885E5DBE80E8E
:102D8000F11CF301F182E082CAC1282F30E02E301D
:102D900031050CF52A3031050CF0F2C02630310532
:102DA00009F42EC1273031056CF42430310509F4C3
:102DB0001BC1253031050CF03FC12130310509F030
:102DC000AEC115C12830310509F4A9C0293031053B
:102DD0000CF0BFC00FC1243131052CF42131310575
:102DE0000CF0EEC0E7C02531310509F454C025319F
:102DF00031052CF02631310509F091C132C1EE24A4
:102E0000FF248701C3010E94BB0E089421083108EA
:102E1000282F30E040E050E02F7730704070507045
:102E20002E293F29402B512B87FF0AC079018A01A7
:102E300027E0EE0CFF1C001F111F2A95D1F7E2CFEF
:102E4000AB85BC852D933D934D935C931397F30114
:102E50000190F081E02DFE83ED83ED85FE8580817C
:102E60009181A281B381281739074A075B0761F472
:102E7000AB89BC898C91882339F0E6ECFEE0F093B5
:102E80000101E09300014BC12CEB3FE030930101C5
:102E90002093000144C1A985BA852D913C91BFEFD3
:102EA0002F3F3B0751F1ED81FE812E173F072CF19B
:102EB000D3018D919C9128173907FCF4EB85FC8593
:102EC00020813181428153812F3FFFEF3F07FFEF88
:102ED0004F07FFEF5F0789F0AD85BE852D933D93CA
:102EE0004D935C9313972D813E81EF85F889318353
:102EF0002083821BA989BA898C932FEF3FEF4FEF74
:102F00005FEFAB85BC852D933D934D935C931397F9
:102F1000BF89B0930001E88DE093010100C1D301A6
:102F20008D919C911197089789F011963C932E935F
:102F300012968D919C9113972091C4023091C502F5
:102F4000820F931F13969C938E93129783E090E0C9
:102F500015C0F30180819181089771F028E030E07D
:102F600031832083828193812091C4023091C502F4
:102F7000820F931F9383828382E090E079D9CFC040
:102F8000D3018D919C911197089789F1E8E0F0E0C9
:102F90001196FC93EE9312968D919C91139720912C
:102FA000C4023091C502820F931F13969C938E9397
:102FB00012971DC0C301B2014F81588572D914C048
:102FC000E8E0F0E0D3011196FC93EE9312968D9118
:102FD0009C9113972091C4023091C502820F931FD8
:102FE00013969C938E93129780E090E0C7CF81E078
:102FF00090E0C4CFC301B2014F81588552D98FC030
:10300000D3018D919C911197089799F0E8E0F0E039
:103010001196FC93EE9312968D919C9113972091AB
:10302000C4023091C502820F931F13969C938E9316
:10303000129780E090E01CD9E8E0F0E0D30111960F
:10304000FC93EE9312968D919C9113972091C4025C
:103050003091C502820F931F13969C938E93129703
:103060005EC0AA24BB246501C3010E94BB0E089464
:1030700021083108E82EFF2400E010E02FE730E0BF
:1030800040E050E0E222F32204231523EA28FB2843
:103090000C291D2987FF0AC05701680197E0AA0C77
:1030A000BB1CCC1CDD1C9A95D1F7DECFD301CD9093
:1030B000DC9080911E0190911F010E94AF254B0171
:1030C0005C01ED89FE8940815181628173818701B4
:1030D00001501040222717FD2095322FC3017E0199
:1030E0000894E11CF11C0E942A0FD3014D915C91C0
:1030F000119712962D913C9113978201EF80F884DD
:1031000048DC8C0180911E0190911F01B501A40142
:103110000E94EB25C00ED11EF301D182C082121491
:1031200013040CF4EECD2CC0F301E859FD4F80815F
:103130009181A281B381C816D906EA06FB060CF07C
:10314000E4CCB301685A7D4FC101A70196010E94EA
:103150000F0EF6CCF301E85AFD4F80819181A281D8
:10316000B38188169906AA06BB060CF010CDB301F0
:1031700068597D4FC101A50194010E940F0E22CD17
:1031800068960FB6F894DEBF0FBECDBFCF91DF912A
:103190001F910F91FF90EF90DF90CF90BF90AF9075
:1031A0009F908F907F906F905F904F903F902F9067
:1031B0000895CF92DF92EF92FF920F931F936B01CE
:1031C0007C01FA01D901C801B701A6019F018D0157
:1031D00028DC1F910F91FF90EF90DF90CF90089522
:1031E000AF92BF92CF92DF92EF92FF920F931F9315
:1031F000CF93DF93FC01E458FD4F80819181A28140
:10320000B381EC57F2400097A105B10509F453C012
:10321000EA57FD4FC081D181BE97E080F1800281E5
:1032200013813896A080B180C280D3809B01B29672
:1032300060817181E258F2402617370714F1EC578C
:10324000FD4F8081E458F240680F711D2617370743
:10325000C4F460E070E0CE01AA2797FDA095BA2FD4
:10326000481B590B6A0B7B0B4E155F0560077107F6
:1032700044F090E04A155B056C057D051CF491E077
:1032800001C090E0DF01AB57BD4F8C91981799F0CA
:103290009C93E85AFD4FC080D180E280F38038963D
:1032A00000811181E056F2400C191D09CF01B701D0
:1032B000A6019601B6DBDF91CF911F910F91FF9090
:1032C000EF90DF90CF90BF90AF900895DF92EF9294
:1032D000FF920F931F93CF93DF93EC01D62E6623BB
:1032E00019F160910A0170910B0180910C0190918C
:1032F0000D0140E050E024EB30E000E010E0E0E4BD
:10330000EE2EE1E0FE2E45DB83E090E00E943811D6
:10331000CE01E5D9CE01B80141E020E011DA0F5F1E
:103320001F4F0B311105B1F7D882DF91CF911F915B
:103330000F91FF90EF90DF9008952F923F924F9260
:103340005F926F927F928F929F92AF92BF92CF9235
:10335000DF92EF92FF920F931F93DF93CF93CDB73E
:10336000DEB7A0970FB6F894DEBF0FBECDBF4C01FD
:103370001B01FB0180818823A1F460910E017091F3
:103380000F01809110019091110140E050E024E183
:1033900030E000E010E0E0E4EE2EE1E0FE2EF9DAAD
:1033A0005DC17B0120E030E040E050E010E0F7013B
:1033B00081917F0181568A3110F000E001C0082F11
:1033C000CA01B9012AE130E040E050E00E94013634
:1033D000202F332727FD3095432F532F260F371FDC
:1033E000481F591F1F5F133011F779018A01B2E09E
:1033F000EE0CFF1C001F111FBA95D1F766E372E0B7
:10340000860E971EF40180819181A281B3816AECBE
:103410007DEF860E971EE80EF91E0A1F1B1F275A06
:1034200034444040504071F486E492E0880E991E86
:10343000F40140805180628073802AEB3DEF820E60
:10344000931E0BC0B801A7014C5F5F4F6F4F7F4FBA
:10345000C4010E94070F2B013C01C401B801A70160
:103460000E94070F5B016C01F10101900020E9F758
:103470003197E219F309349708F4ACC0B2016A1924
:103480007B097B8B6A8B86017501AC8ABD8ACE8AEB
:103490006D2CC4018D529D4F9C8F8B8FF401E65B88
:1034A000FD4FFE8FED8F940129523D4F38A32F8F92
:1034B000A2E04A2E512C4C0E5D1E7BC0EF8AF88E86
:1034C000098F1A8FA701662757FD6095762FC401D3
:1034D0000E945E10ED8DFE8D80819181A281B3816D
:1034E0000296A11DB11DEB8DFC8D80839183A2837B
:1034F000B38321E0EF8DF8A120837724C4010E94DB
:10350000BB0E982F803208F43DC0813858F1BE01BF
:103510006F5F7F4F0E94380DAC012FE030E027191C
:103520003109898190E0821793070CF49C01722F76
:10353000672D12C0FA019491892F8154893110F0BE
:10354000892F02C0892F805E4F5F5F4FF201E60F27
:10355000F11D80836F5F2150222361F7770EFFEF0B
:10356000F9830CC08154893110F0892F02C0892F52
:10357000805EF201E70DF11D808373942EE0271524
:1035800008F0BCCFF201E70DF11D1082C101B201BC
:103590000E94EE0C0894E11CF11C011D111D18166F
:1035A000190684F43F893C8B688D6D8B798D7E8BF9
:1035B0006A8CC7018A199B09EA89FB898E179F07C4
:1035C0000CF47CCF2C893D894E89562DC901DA0136
:1035D0005C016D0126E432E0820E931EF4018081CD
:1035E0009181A281B3812AEB3DEF820E931E089751
:1035F000A109B109B601A5018A159B05AC05BD0558
:1036000014F4AC01BD0189EA92E0880E991EF40120
:10361000408351836283738327E53DEF820E931EBF
:103620006A017B01F4E1AF2EB12CC401B701A60100
:103630000E945E10C4014AE050E060E070E0950135
:1036400004E110E0EED90894C11CD11CE11CF11C6E
:10365000A00EB11E34EBA316B10439F7A0960FB635
:10366000F894DEBF0FBECDBFCF91DF911F910F91B8
:10367000FF90EF90DF90CF90BF90AF909F908F9092
:103680007F906F905F904F903F902F9008956F9232
:103690007F928F929F92AF92BF92CF92DF92EF92E2
:1036A000FF920F931F93CF93DF933B016A01490170
:1036B00020E431E0241B350B5401281539050CF4A6
:1036C0005901C82FD0E0CC0FDD1FCC0FDD1FC65F26
:1036D000DE4F688179818A819B817501EC0CFD1C2C
:1036E000A3019601860155D9A814B90484F4688110
:1036F00079818A819B8120EC3EEFC20ED31E8A180D
:103700009B08A301960100E010E0740142D9DF910B
:10371000CF911F910F91FF90EF90DF90CF90BF90CE
:10372000AF909F908F907F906F900895CF93DF938D
:10373000EC01CA57DD4F88819981C658D2404CE2CE
:1037400051E0481B590B02C0405C5E4F57FDFCCF57
:1037500002C04054514081E040345807D4F782E021
:1037600060E070E024E130E092DFC955DD4F81E098
:103770008883DF91CF910895CF92DF92EF92FF92ED
:103780000F931F936C0160911A0170911B0180913E
:103790001C0190911D0140E050E020E030E000E08D
:1037A00010E0A0E4EA2EA1E0FA2EF3D8B6016A56A2
:1037B0007D4FC601C2DDC6018C569D4F61E086DD9E
:1037C0008EEA92E0C80ED91E81E0F601808382E580
:1037D0009DEFC80ED91EC601A9DF1F910F91FF9062
:1037E000EF90DF90CF9008952F923F924F925F928B
:1037F0006F927F928F929F92AF92BF92CF92DF9201
:10380000EF92FF920F931F93DF93CF93CDB7DEB765
:10381000C856D0400FB6F894DEBF0FBECDBF4C01E6
:103820002B01DB012D913C91FC01E255FD4F213034
:10383000310509F0DCC126E232E0820E931E2FEF43
:103840003FEF4FEF5FEFD4012D933D934D935C938A
:1038500013976AE570E0860E971E8FEF9FEFD401F5
:103860008D939C9360E87DEF860E971E84E0C82EB2
:10387000D12CC80CD91CD0921F01C0921E018FEF11
:1038800080932001A6EAB2E08A0E9B1ED4018C939D
:103890006EEE7FEF860E971ED4011D924D011C9295
:1038A00063E070E0860E971ED4011C921E921E9259
:1038B0004D0161E170E0860E971ED4011C9266E016
:1038C00070E0860E971ED4011C925E934E933E9339
:1038D0002E934D0128E230E0820E931ED401119602
:1038E0001C921E921E921E924D011082EDEAFFEF75
:1038F0008E0E9F1ED4011D921D921D921C92139735
:10390000E4E8FDEF8E0E9F1EC6010E949925C401BA
:103910008A579D4F40E050E060E070E029ED38E1CB
:103920008401EE24FF240E94DD298E01075F1F4FD2
:10393000C8016CEA70E040E250E00E94D20CC6017F
:10394000B8010E94CB26882399F588E290E068E2CE
:1039500070E040EA50E020EA30E000E018EF0E941A
:1039600080288E01075D1F4FC8016CEA70E040E2BD
:1039700050E00E94D20CC80166E470E044E650E0DA
:103980002FEF3FEF0E9462287C018E01075B1F4FE3
:10399000C80165EB70E040E250E00E94D20CC80123
:1039A000B70144E650E02FEF3FEF0E946228FFCFBF
:1039B000C40140E050E060E070E000E010E020E092
:1039C00030E06E010894C11CD11C76010E942A0FC0
:1039D00022E432E0820E931ED4016D937D938D9389
:1039E0009C931397EEEBFDEF8E0E9F1EC40140E0FB
:1039F00050E060E070E001E010E020E030E00E9484
:103A00002A0F2AE332E0820E931ED4016D937D9338
:103A10008D939C931397E6ECFDEF8E0E9F1EC401D1
:103A200040E050E060E070E002E010E020E030E0D4
:103A30000E942A0F0EE3A02E02E0B02EA80CB91CA3
:103A4000D5016D937D938D939C931397C40140E0B2
:103A500050E060E070E003E010E020E030E00E9421
:103A60002A0FEAE2F2E08E0E9F1ED4016D937D9341
:103A70008D939C931397E6EDFDEF8E0E9F1EC40170
:103A800040E050E060E070E004E010E020E030E072
:103A90000E942A0F2EE232E0820E931ED4016D9313
:103AA0007D938D939C931397E8E1F0E08E0E9F1E1B
:103AB00089819A81AB81BC8112E0B595A7959795D4
:103AC00087951A95D1F7F40180839183A283B383FC
:103AD0002AEB3DEF820E931EC40140E050E060E00F
:103AE00070E005E010E020E030E00E942A0F42E3A1
:103AF00052E0840E951ED4016D937D938D939C931B
:103B00001397EEECFDEF8E0E9F1EC40140E050E0D7
:103B100060E070E006E010E020E030E00E942A0F54
:103B200026E332E0820E931ED4016D937D938D9334
:103B30009C931397EAECFDEF8E0E9F1ED5012D90FE
:103B40003D904D905C90BEEA6B2EB2E07B2EAA2495
:103B5000BB246501C401B201A10196018501A5E064
:103B6000EA2EF12CEC0EFD1E0E942A0FF301619348
:103B70007193819391933F010894A11CB11CC11CC6
:103B8000D11CFEEB6F16F2E07F0621F722E432E053
:103B9000820E931ED4012D903D904D905C90EEEBE3
:103BA000FDEF8E0E9F1EFAE06F2EF1E07F2EAA240D
:103BB000BB246501C401B201A10196018501E5E0C4
:103BC000EE2EF12CEC0EFD1E0E942A0FD3016D93F8
:103BD0007D938D939D933D010894A11CB11CC11C44
:103BE000D11CBEE16B16B1E07B0621F79DC1DB0164
:103BF0001296AD90BC9013974081413009F01DC1E1
:103C00002330310509F050C0F50182819381843B56
:103C100091050CF049C0840107551D4FF8018081C2
:103C20009181A281B3818F5F9F4FAF4FBF4FE1F171
:103C3000C4018C569D4F60E049DBD50112968D91F1
:103C40009C91139764E170E00E942036AB014150D3
:103C50005040662757FD6095762FF801808191814D
:103C6000A281B381480F591F6A1F7B1F12E0440FC6
:103C7000551F661F771F1A95D1F72EE232E0820E8C
:103C8000931EF40180819181A281B38122ED3DEFE9
:103C9000820E931E480F591F6A1F7B1FC4010E948A
:103CA000070FAB01BC01E8C1B4E9EB2EB2E0FB2E7B
:103CB000E80CF91C2430310541F12530310509F4B7
:103CC00049C02330310509F0A6C0D5016D917C9122
:103CD000119712964D915C911397C7010E94620D46
:103CE000E6EAF2E08E0E9F1ED4018C93EAE5FDEF2A
:103CF0008E0E9F1E8F3F09F48EC0682F772767FDB9
:103D00007095C70140E021E022C026EA32E0820E31
:103D1000931ED4011C91EAE5FDEF8E0E9F1E1F3FFE
:103D200009F479C0D5016D917C91119712964D914E
:103D30005C911397C7010E94620D612F772767FD81
:103D4000709520E0181709F421E0C70140E00E94B7
:103D5000A01361C084010A551D4FF801D080FFEF08
:103D6000DF1609F458C0D5016D917C911197129618
:103D70004D915C911397C7010E94620DD81609F00E
:103D80003FC0F8016081772767FD7095C70140E06B
:103D900020E00E94A013D8016C91F401EA56FD4F77
:103DA000DF010D900020E9F71197AE1BBF0B6A31C0
:103DB00019F06B3139F411C0A80DB91DAB56BD4FC8
:103DC0001C920CC0E62FF0E0EF50FE4E6491F4011F
:103DD000EA0FFB1FEA56FD4F6193108283E090E0EB
:103DE0000E943811C7010E946F13E5E9F2E08E0EC0
:103DF0009F1E81E0D4018C93EBE6FDEF8E0E9F1E9B
:103E000026EA32E0820E931E8FEFD4018C93EAE50E
:103E1000FDEF8E0E9F1E84010B561D4FD8018C9115
:103E2000882309F44BC2C401E6E9F2E08E0E9F1E1E
:103E3000B40183DAD8011C9241C2EDEAF2E08E0EA1
:103E40009F1ED4018C91E3E5FDEF8E0E9F1E88230B
:103E500009F0DDC0D50112968D919C9113978D527A
:103E600091400CF4D4C02330310509F0D0C0F501E5
:103E70008081918160E570E00E942036613071059B
:103E800009F44FC06230710509F451C0672B09F085
:103E900015C2F401E153FD4F2081318141ED52E023
:103EA000840E951ED4018D919C914FE25DEF840E9E
:103EB000951E2817390721F0215030403183208387
:103EC000D401A153BD4F4D915C91119761ED72E00A
:103ED000860E971EF401808191812FE23DEF820EC4
:103EE000931E4817590709F4E9C1FA013197ED9378
:103EF000FC93E770F070EE0FFF1FEE0FFF1FE80D51
:103F0000F91DE155FD4F40815181628173814F3F21
:103F10003FEF53073FEF63073FEF730709F4CEC14D
:103F2000ABC0C4010E94DE0DC40126DCC7C1C401C0
:103F30000E94DE0DC4018A579D4F6FEF7FEF0E94F4
:103F4000262A6091160170911701809118019091B5
:103F5000190140E050E020E030E000E010E0E0E453
:103F6000EE2EE1E0FE2E0E94C9144FEC52E0840ECA
:103F7000951ED401CD90DC90E1E3FDEF8E0E9F1EE7
:103F800044E1E42EF12C31EDA32E32E0B32EA80C47
:103F9000B91CD5018D919C91C816D90651F1089490
:103FA000C108D108F601E770F070EE0FFF1FEE0FA9
:103FB000FF1FE80DF91DE155FD4F408151816281E0
:103FC00073814150504060407040C4010E94AA0F6C
:103FD000C4014AE050E060E070E0970104E110E0C5
:103FE0000E941115E00EF11EBCE2EB16B1E0FB06DB
:103FF00081F6EEEAF2E08E0E9F1E82E0D4018C93F1
:10400000E2E5FDEF8E0E9F1EC40190DB57C14230EA
:10401000B9F52330310509F051C12FEC32E0820EA1
:10402000931ED4012D913D914D01F5018281938123
:104030006CEE7FEF0E942036FB01E20FF31FD401EC
:104040008D919C914FE25DEF840E951EE817F90764
:104050000CF434C1E217F3070CF030C1E770F070D4
:10406000EE0FFF1FEE0FFF1FE80DF91DE155FD4F8D
:104070004081518162817381C4010E9484101EC1FC
:104080002330310581F02430310524F4232B09F449
:10409000FDC002C12430310509F460C0253031056E
:1040A00009F0FAC09FC0D50112964D915C9113970B
:1040B00080E8E82E82E0F82EE80CF91C8D919C91A6
:1040C000F701918380830CE7C02E02E0D02EC80C4C
:1040D000D91CD6011D921D921D921C921397E5E8E2
:1040E000F2E08E0E9F1ED4011C92EBE7FDEF8E0EC8
:1040F0009F1E60E070E016E8612E12E0712E680CE1
:10410000791CD3018D919C91AA2797FDA095BA2F78
:10411000481B590B6A0B7B0BC40120E030E000E028
:1041200010E00E9411158FEF9FEFF70191838083BC
:10413000D5016D917C91119712964D915C911397D9
:10414000C4014ED8F60180819181A281B38100978C
:10415000A105B10509F0A0C0C3019BC02CE732E066
:10416000820E931EF40180819181A281B38124E8A3
:104170003DEF820E931E0097A105B10559F0D501C0
:104180006D917C91119712964D915C911397C4019A
:1041900027D882C0F401E955FD4F8081882309F4B6
:1041A00075C01082E6E8F2E08E0E9F1ED4018D915C
:1041B0009C91EAE7FDEF8E0E9F1EAA2797FDA09522
:1041C000BA2F0CE211E020E030E0081B190B2A0B9B
:1041D0003B0BC401B901A801980104E110E00E9461
:1041E000111554C0840104581D4FD8014D915D91A3
:1041F0006D917C914115510561057105E1F14150C9
:10420000504060407040B2E0440F551F661F771F5A
:10421000BA95D1F7E2E3F2E08E0E9F1EF4018081A1
:104220009181A281B3812EEC3DEF820E931E480F47
:10423000591F6A1F7B1FC4010E94070FAB01BC01FD
:10424000D8011D921D921D921C9213974115510584
:104250006105710509F1E5E8F2E08E0E9F1ED401BB
:104260008C91EBE7FDEF8E0E9F1E8823A9F0C40111
:104270000E94841011C02DEA32E0820E931E81E06C
:10428000D4018C93E3E5FDEF8E0E9F1EC4018A5787
:104290009D4FB2010E94612BC4018A579D4F0E941D
:1042A000CB29882359F0840103551D4FD8018C91E7
:1042B000882321F0C4013ADAF801108280E090E00E
:1042C000C859DF4F0FB6F894DEBF0FBECDBFCF91F8
:1042D000DF911F910F91FF90EF90DF90CF90BF90F3
:1042E000AF909F908F907F906F905F904F903F9096
:1042F0002F9008959C01CB01B90176CA8F929F92AD
:10430000AF92BF92CF92DF92EF92FF920F931F93E3
:10431000CF93DF934C01EB015A018091C7028823B0
:1043200009F45FC087EC92E060E070E0F401099569
:10433000882309F456C00FEF1FE745C0A70160E0CE
:1043400070E08091E7029091E802A091E902B091BB
:10435000EA02480F591F6A1F7B1FE0910103F09189
:1043600002038091FF02909100030995882349F58B
:10437000C091FF02D0910003C12C82E0D82ECC0E58
:10438000DD1E11C088818823E1F0853E59F08B85C0
:10439000887141F48701CE01B701A501F4010995A7
:1043A000882389F4A096CC15DD0561F70894E11CFB
:1043B000F11C8091EB029091EC02E816F90608F4EA
:1043C000BDCF0FEF1FEFC801DF91CF911F910F916C
:1043D000FF90EF90DF90CF90BF90AF909F908F9025
:1043E0000895D0930003C093FF02EE24FF24E1CF91
:1043F000AC01DB012BE080E22150FA01E20FF11D5C
:1044000080832223C9F790E002C028E091E03D912B
:10441000332391F0832F81568A3108F430523E3293
:10442000A1F3283010F0992329F0FA01E20FF11DD1
:1044300030832F5F2B3058F30895CF92DF92EF92A5
:10444000FF920F931F93DF93CF93CDB7DEB72D97D6
:104450000FB6F894DEBF0FBECDBF9C016B017A0191
:104460008E010F5F1F4FC801B901C2DFFD86EC86C8
:1044700086E795E2B601A80141DF20E08F5F9F4FFC
:1044800009F021E0822F2D960FB6F894DEBF0FBE03
:10449000CDBFCF91DF911F910F91FF90EF90DF90F3
:1044A000CF9008958F929F92AF92BF92CF92DF925A
:1044B000EF92FF920F931F93CF93DF934C017A01FA
:1044C0008B01E9018091ED029091EE025C01CC2418
:1044D000DD24288539854A855B85C601B5010E94A2
:1044E0000136E616F7060807190718F4E0E0F0E0D1
:1044F00029C0E61AF70A080B190B288939894A8955
:104500005B89C601B5010E940136E616F706080769
:10451000190718F4E1E0F0E015C0E61AF70A080BF5
:10452000190B288D398D4A8D5B8DC601B5010E940E
:104530000136E616F7060807190710F080E02CC0D0
:10454000E2E0F0E023E0EE0FFF1F2A95E1F7EC0F29
:10455000FD1F648175818681978162507040804023
:104560009040A60195010E940136AB01BC018091EB
:10457000F7029091F802A091F902B091FA02480F67
:10458000591F6A1F7B1F4E0D5F1D601F711FC401E5
:104590000E942D34811181E0DF91CF911F910F9105
:1045A000FF90EF90DF90CF90BF90AF909F908F9053
:1045B0000895DF92EF92FF920F931F93FC017A010F
:1045C0008B01DD248091FB029091FC02A091FD0201
:1045D000B091FE020097A105B10529F0DD24D39426
:1045E00047E050E002C048E050E0D801C70104C0F5
:1045F000B695A795979587954A95D2F7AC01BD01D9
:104600008091EF029091F002A091F102B091F2023C
:10461000480F591F6A1F7B1F80819181A281B3813E
:10462000481759076A077B0751F04083518362831B
:1046300073838091FF02909100030E942D34E091DA
:10464000FF02F0910003DD2071F0C7018F779070B9
:10465000880F991F880F991FE80FF91F208131815A
:10466000428153810BC0C7019070880F991FE80FDA
:10467000F91F808191819C0140E050E0B901CA019D
:104680001F910F91FF90EF90DF9008956F927F92AE
:104690008F929F92AF92BF92DF92EF92FF920F9311
:1046A0001F93DF93CF9300D000D0CDB7DEB75C016E
:1046B0004B0119821A821B821C82FC01E080F1806E
:1046C00002811381DD243E010894611C711C089451
:1046D00081089108C301B801A7016BDF9B01AC0100
:1046E0000894E11CF11C011D111D6E157F0580074A
:1046F000910791F18D2D90E08815990509F451C02D
:104700008091FB029091FC02A091FD02B091FE020B
:104710000097A105B10529F48FEF9FEFA0E0B0E06D
:1047200004C08FEF9FEFAFEFBFE0281739074A07AC
:104730005B07B9F1D394ED2DF0E073E0EE0FFF1FAE
:104740007A95E1F7EA0DFB1D208331834283538381
:104750001482158216821782ED2DF0E063E0EE0FD1
:10476000FF1F6A95E1F7EA0DFB1D84819581A68103
:10477000B7810196A11DB11D84839583A683B7835C
:1047800079018A01A7CFD394ED2DF0E053E0EE0F2D
:10479000FF1F5A95E1F7EA0DFB1D1082118212826C
:1047A00013828D2D90E0881599056CF30F900F9072
:1047B0000F900F90CF91DF911F910F91FF90EF908D
:1047C000DF90BF90AF909F908F907F906F900895F3
:1047D000CF92DF92EF92FF920F931F93DF93CF93CD
:1047E000CDB7DEB7A0970FB6F894DEBF0FBECDBF32
:1047F0006B01509300034093FF02BA01AE014F5F7B
:104800005F4F1BDE8823D1F1ED8CFE8C0F8D18A13C
:10481000F601E082F182028313838D899E89A0E0F4
:10482000B0E0DC01992788272B8D3C8D40E050E0DB
:10483000822B932BA42BB52B84839583A683B783DC
:1048400081E090E0A0E0B0E080879187A287B38705
:1048500014861586168617862091ED02922F990FE1
:1048600080E0A0E0B0E08E159F05A007B10728F416
:10487000C601049663E070E009DF81E0A0960FB600
:10488000F894DEBF0FBECDBFCF91DF911F910F9186
:10489000FF90EF90DF90CF9008958F929F92AF920C
:1048A000BF92CF92DF92EF92FF920F931F93DF930D
:1048B000CF93CDB7DEB728970FB6F894DEBF0FBE03
:1048C000CDBF8C01FB01909300038093FF02709396
:1048D00002036093010340E050E060E070E009955E
:1048E000882309F0EFC00E531E4FF80190810C5F32
:1048F0001F4FF801A080B180C280D380065C1140B8
:104900009D3028F49B3060F4992339F004C0892F3E
:104910008E50823028F0973018F0AA24BB2465010D
:10492000E0910103F09102038091FF029091000356
:10493000B601A5010995882309F0C4C0F801838553
:1049400094858050924009F0BDC0F8018585809320
:10495000ED021092EE022685378560898188928863
:1049600086899789A0E0B0E08093F3029093F402E7
:10497000A093F502B093F6020097A105B105C9F422
:1049800084A195A1A6A1B7A18093F3029093F4020C
:10499000A093F502B093F60284A595A5A6A5B7A5A8
:1049A0008093FB029093FC02A093FD02B093FE0261
:1049B00008C01092FB021092FC021092FD021092AD
:1049C000FE02790100E010E0EA0CFB1C0C1D1D1D2D
:1049D000E092EF02F092F0020093F1021093F202E3
:1049E00070E080E090E02091F3023091F402409179
:1049F000F5025091F6020E9401366E0D7F1D801F58
:104A0000911F6093E7027093E8028093E90290930C
:104A1000EA02940144E0369527954A95E1F73093F0
:104A2000EC022093EB0240E050E0620F731F841F02
:104A3000951F6093F7027093F8028093F9029093A8
:104A4000FA028091FB029091FC02A091FD02B091CC
:104A5000FE020097A105B10529F182E090E0A0E0F7
:104A6000B0E089839A83AB83BC8381E090E0A0E0CF
:104A7000B0E08D839E83AF83B887CE01019661E05D
:104A800070E004DE6091ED027091EE0280E090E053
:104A90002D813E814F8158850E9401367093EC0232
:104AA0006093EB028091FB029091FC02A091FD02C9
:104AB000B091FE020097A105B10511F480E103C099
:104AC00080E201C080E028960FB6F894DEBF0FBEEA
:104AD000CDBFCF91DF911F910F91FF90EF90DF90AD
:104AE000CF90BF90AF909F908F9008950F931F939A
:104AF000CF93DF93182F092FEA01BA014BE050E062
:104B00000E94E10C009711F080E00EC02B853C85DF
:104B1000C901DC01212F302FC901FC0180E2019085
:104B20000D928150E1F781E0DF91CF911F910F91BC
:104B30000895FC01EC5FFD4F80E092E0819391933A
:104B40001082118212821382E650F2408FEF9FEFA3
:104B5000AFEFBFEF80839183A283B3830895FC01FD
:104B6000EC5FFD4F20813181E450F240442737FD56
:104B70004095542F80819181A281B38169E0880F93
:104B8000991FAA1FBB1F6A95D1F7280F391F4A1F0B
:104B90005B1FB901CA010895CF93DF93EC01CC5F8D
:104BA000DD4F19821882C450D24088819981AA8130
:104BB000BB8184179507A607B70751F0FE01419303
:104BC000519361937193CA5FDD4FCF019E016ADCFF
:104BD000DF91CF910895CF92DF92EF92FF920F93E2
:104BE0001F938C016A017B01E9E0759567955795E4
:104BF0004795EA95D1F7D0DF0C5F1D4F8FEF91E01D
:104C0000C822D922F801D182C0821F910F91FF9052
:104C1000EF90DF90CF9008950F931F93CF93DF9382
:104C2000EC018B01CC5FDD4F88819981C450D2406B
:104C30008050924051F4488159816A817B814F5F55
:104C40005F4F6F4F7F4FCE01A7DFFE01EC5FFD4F3F
:104C500080E092E020813181821B930BD8018D93FB
:104C60009C93208131812C5F3F4F2C0F3D1FC90148
:104C7000DF91CF911F910F910895CF93DF93EC01B6
:104C8000CC5FDD4F88819981C450D24080509240E2
:104C900051F4488159816A817B814F5F5F4F6F4F2B
:104CA0007F4FCE0179DFFE01EC5FFD4F2081318126
:104CB000C20FD31F8C812F5F3F4F31832083DF9141
:104CC000CF910895CF92DF92EF92FF920F931F93AF
:104CD000CF93DF936C017B018A01C0E0D0E007C075
:104CE000C601CBDFF701EC0FFD1F80832196C017B3
:104CF000D107B4F3C801DF91CF911F910F91FF90BD
:104D0000EF90DF90CF9008950F931F93CF93DF9391
:104D1000EC019B01FC01EC5FFD4F80819181860FCE
:104D2000971F9183808342E0813094071CF18C01AE
:104D3000061B170B11830083A901662757FD609599
:104D4000762F88819981AA81BB81F9E0880F991F0C
:104D5000AA1FBB1FFA95D1F7480F591F6A1F7B1F67
:104D6000222717FD2095322F400F511F621F731FFE
:104D7000CE0131DFCC5FDD4F888199818150924037
:104D800028F080E090E060E770E03FD2DF91CF91C3
:104D90001F910F910895CF93DF93EC01CB01BE01DA
:104DA0006A5F7D4FAE014C5F5F4F12DD882339F0A3
:104DB000CE0140E050E060E070E0EEDE81E0DF91A7
:104DC000CF9108952F923F924F925F926F927F9270
:104DD0008F929F92AF92BF92CF92DF92EF92FF920B
:104DE0000F931F93DF93CF93CDB7DEB72B970FB6FB
:104DF000F894DEBF0FBECDBF8E839F837B836A8313
:104E00003D832C8318010115110521F4E0E82E2EB5
:104E1000E8E23E2E4032510561F4E4E1F2E1E49132
:104E20002E2F30E035952795359527953B872A8796
:104E3000DAC026E132E1F9018491481B510957FD9E
:104E4000D0C0D9011196FD01849190E0481759070F
:104E50000CF0C7C0E3C02A853B85249FB001259F85
:104E6000700D349F700D1124605D7F4F3DC04D5F0C
:104E70005F4F9A01220F331F43505040F901ED5EFE
:104E8000FD4E7491C9018C5E9D4EFC016491972F7B
:104E900080E0E62FF0E0E82BF92BFB87EA87452B33
:104EA00019F420E030E013C0F901EF5EFD4E4491AB
:104EB0002E5E3D4EF9012491942F80E030E0282BA6
:104EC000392B6A857B85621B730B7B876A87FD01A3
:104ED0008491682F70E06D5F7F4F54E0660F771FFD
:104EE0005A95E1F7620F731FCB018770907020E82D
:104EF00030E002C0359527958A95E2F7422ECB0126
:104F000043E0959587954A95E1F7E8E1F2E1E49170
:104F10003C016E0E711C2A853B85620F731F33E0C6
:104F2000759567953A95E1F760957095660E771ED1
:104F3000552452C04C010894811C911C8D5E9D4EDD
:104F4000FC0144912E813F81C9015C01C42ED42C07
:104F5000EE24FF242A813B81250D311D39872887C6
:104F600034C08D2D90E02C2D30E082239323892BAB
:104F700059F0C5016885798541E050E021E030E0D5
:104F80000C811D81F10109958D2D90E095958795F6
:104F9000D82E8823A1F4F401ED5EFD4E0894811C07
:104FA000911C4491442311F0C42E07C08A859B852F
:104FB0008E199F09099764F0CC2480E8D82E0894B4
:104FC000E11CF11C0894A11CB11C3A85E31648F2BF
:104FD000C401860D971D53946981561608F4AACF13
:104FE00002C01B861A868A859B852B960FB6F8947D
:104FF000DEBF0FBECDBFCF91DF911F910F91FF900C
:10500000EF90DF90CF90BF90AF909F908F907F9068
:105010006F905F904F903F902F90089523503040B5
:10502000F9018491682F70E07B876A872F5F3F4F7B
:10503000F901F491F983672B09F00DCF18CF6F9226
:105040007F928F929F92AF92BF92CF92DF92EF9218
:10505000FF920F931F93CF93DF933C014B017A0193
:1050600059016801C0E0D0E011C0F301EC0FFD1F51
:105070004081552747FD5095C701B501960100E0D5
:1050800010E0A0DE0196E80EF91E2196C815D9059C
:1050900064F3C701DF91CF911F910F91FF90EF90C3
:1050A000DF90CF90BF90AF909F908F907F906F9048
:1050B00008950C944A3208950C94B33108950C94D9
:1050C0009E320895CF92DF92EF92FF920F931F933B
:1050D0007B016A018901DC010D900020E9F711973D
:1050E000A81BB90BBD01A7019601A9DF1F910F9164
:1050F000FF90EF90DF90CF9008950C949D3108952C
:105100008F929F92AF92BF92CF92DF92EF92FF92D7
:105110000F931F93CF93DF936C015B01EA01790139
:105120004801C80FD91FE60EF71E0E94AD31C817FF
:10513000D9071CF00E94AD31EC010E94B031E81695
:10514000F9061CF00E94B0317C01C601D7FE02C0F6
:1051500080E090E08E01081B190B1016110604F573
:10516000B501B7FE02C060E070E0E701C61BD70BD7
:105170001C161D06ACF4A8019E010E944A32BE0115
:10518000882777FD8095982F9801442737FD409513
:10519000542F0E940136AB01BC01C4010E940C32A5
:1051A000DF91CF911F910F91FF90EF90DF90CF9003
:1051B000BF90AF909F908F900895EF92FF920F93C2
:1051C0001F938C010E94AD317C010E94B0319C0183
:1051D00080E090E060E070E0A70192DF80E090E086
:1051E0000E949D311F910F91FF90EF90089584D7F9
:1051F000F5D31AD3FECF20EA3FE004C0F90131977E
:10520000F1F701970097D1F7089500D000D000D0B2
:10521000EDB7FEB7319624EF37E1ADB7BEB71296C2
:105220003C932E93119793838283758364830E94AA
:10523000130D8DB79EB706960FB6F8949EBF0FBE9E
:105240008DBFFFCFCF92DF92EF92FF920F931F930C
:10525000CF93DF936C01EB019A01D6018D919C9164
:105260008C0F9D1FB1E080349B07CCF5820F931FFC
:1052700018161906A4F5AE0102C040545140E1E0F1
:1052800040345E07D4F702C0405C5E4F57FDFCCF50
:10529000CA01820F931FF1E081349F078CF040EC2C
:1052A000E42E4EEFF42EE80EF91E89010E191F09A7
:1052B000C601BE01A801C6DFC00FD11F9701CDCF27
:1052C000BE01882777FD8095982FD6011C960D91F9
:1052D0001C911D971A96ED91FC911B970995DF91F2
:1052E000CF911F910F91FF90EF90DF90CF90089595
:1052F0000F931F93CF93DF93FC01C085D18500816D
:105300001181209729F10280F381E02D21E0E03422
:10531000F2071CF480E090E019C0CE0195958795C6
:105320009801281B390BC901BE010E94203620E4D8
:1053300031E02E1B3F0B6C9FC0016D9F900D7C9F39
:10534000900D1124821793070CF4C901BC011BC0F6
:10535000101611062CF466277727601B710B15C0F9
:105360008281938131E0803493071CF460E070E027
:1053700004C060E471E0681B790B061717071CF086
:1053800060E070E002C0601B710BCB01DF91CF9138
:105390001F910F910895CF93DF93EC01A9DF892B23
:1053A00011F020E006C020E08E819F81892B09F456
:1053B00021E0822FDF91CF910895AF92BF92CF92DB
:1053C000DF92EF92FF920F931F93CF93DF93EC0145
:1053D0005A016B013B872A871D870C871F821E821B
:1053E000198218825B834A83F986E88680E090E020
:1053F00084DE1A141B041C041D04ECF47601650100
:1054000081E4C81681E0D80680E0E80680E0F8066E
:1054100034F060E4C62E61E0D62EE12CF12C0C8530
:105420001D85EA85FB8560E070E080E090E040E06B
:1054300050E096010995DF91CF911F910F91FF9058
:10544000EF90DF90CF90BF90AF900895CB01B5CE95
:10545000CF92DF92EF92FF920F931F93CF93DF9340
:105460007C016B01EA01C80ED91EC81BD90B29C0EB
:105470006054714081E060347807D4F702C0605C0A
:105480007E4F77FDFCCF0894E11CF11CCE01D7FFC5
:1054900004C0882799278C1B9D0B8830910514F038
:1054A00087E090E0FC01EE0FFF1FEE5FF74E0591E5
:1054B000149180E090E040EF50E021E030E020DE09
:1054C0002197EC14FD0414F4B701D4CFDF91CF91F0
:1054D0001F910F91FF90EF90DF90CF900895AF92C2
:1054E000BF92CF92DF92EF92FF920F931F93CF93D1
:1054F000DF935C017A018B016901FC01608171819C
:105500009B01442737FD4095542F2E0D3F1D401F12
:10551000511F2034F1E03F07F0E04F07F0E05F0754
:105520000CF05EC0C601AA2797FDA095BA2F820F86
:10553000931FA41FB51FB7FD53C088279927861B4B
:10554000970BDBDD17FF18C0F50180819181E60123
:105550008C159D050CF4EC01C701BE014FEF5FEF08
:1055600077DFCE01AA2797FDA095BA2FE80EF91E86
:105570000A1F1B1FCC1ADD0AF501828193819C0151
:10558000442737FD4095542F2E193F09400B510BEE
:10559000C601AA2797FDA095BA2F82179307A407E3
:1055A000B50714F49C01AD01E901121613067CF451
:1055B000C501B701A90146DECE01AA2797FDA09536
:1055C000BA2FE80EF91E0A1F1B1FCC1ADD0A1C1485
:1055D0001D0434F4F50142815381C701B60138DF5F
:1055E000DF91CF911F910F91FF90EF90DF90CF90BF
:1055F000BF90AF900895DC01FB016115710521F1A9
:105600008D919C911197860F971F11969C938E9365
:1056100077FF0FC0AB01405C5E4F481B590B6627FC
:1056200057FD6095762F222733272E1B3F0BCD0188
:1056300056CF44275527481B590B662757FD6095C1
:10564000762FCD019F014BCF08950F931F93CF93DA
:10565000DF938C01FC0184819581C681D7818F5FA6
:105660009F4F31F0D595C795F801D783C68324C0E5
:10567000C8013EDE8C1B9D0B19F480E090E00AC04F
:1056800097FF02C0039701C0039664E070E00E9498
:105690002036CB018C0F9D1FF801978386830097DE
:1056A00059F097FF02C00F9701C00F9660E170E0BC
:1056B0000E942036C8019FDFDF91CF911F910F918B
:1056C0000895EF92FF920F931F93CF93DF938C0176
:1056D000FB01E280F3800190F081E02DE330F105E1
:1056E00061F0E430F1051CF4EF2BB1F136C0E43089
:1056F000F10539F0359789F529C0F7018281938149
:1057000027C0FC0164817581FFEF6F3F7F0729F19E
:10571000F7018281938168177907F9F0EC01C61BC4
:10572000D70BCE0102960597C0F0C801BE0163DF1A
:10573000F70182819381F8019583848314E0CC0F73
:10574000DD1F1A95E1F7D783C68307C08FEF9FEF60
:10575000F8019583848301C078DF80E090E0DF91D9
:10576000CF911F910F91FF90EF900895DF93CF930A
:1057700000D000D000D0CDB7DEB780910303909168
:1057800004038F30910509F446C0E3E021303E0761
:105790000CF041C00196909304038093030301979A
:1057A000FC01EE0FFF1FE80FF91FEE0FFF1FEB5F6D
:1057B000FC4F7183608353834283358324834A572C
:1057C000514249F5DE011196E5E0F3E026E0019053
:1057D0000D922150E1F7FC01EE0FFF1FE80FF91FBA
:1057E000EE0FFF1FA5E0B3E0EA0FFB1F26E00190DC
:1057F0000D922150E1F7FC01EE0FFF1FE80FF91F9A
:10580000EE0FFF1FEB5FFC4FDE01119686E00D905F
:1058100001928150E1F726960FB6F894DEBF0FBED5
:10582000CDBFCF91DF910895EF92FF920F931F9319
:10583000DF93CF93CDB7DEB72E970FB6F894DEBFC8
:105840000FBECDBF8091680690916906892B29F023
:1058500080916A06882309F45BC080916A068823D8
:1058600051F460910503709106038AE696E040E2E8
:1058700050E00E94D20CFAE6EF2EF6E0FF2E01C0B7
:105880007C01D7012C91222329F0C70101962032F7
:10589000B9F793C080910303809365061AC0892FDE
:1058A00090E08C01000F111F080F191F000F111F2E
:1058B0000B5F1C4FF801608171818AE696E00E94BF
:1058C000C90C892B31F4D8011296ED91FC911397F4
:1058D0000EC080916506982F91509093650688239D
:1058E000F1F610926506E0910703F0910803F0933A
:1058F0006906E093680681E090E09E838D83F886D8
:10590000EF82CE0105966FE573E0099510926A0665
:105910001A821982CE0109964BD2882321F1409137
:1059200063065091640641155105D1F029853A85E9
:1059300080915F06909160062817390771F42B85D6
:105940003C8580916106909162062817390729F4F9
:105950008D859E858417950781F084E090E00BC0CB
:1059600083E090E008C08091630690916406892BE3
:1059700021F085E090E09A838983CE0109969C838B
:105980008B83AFE5B6E0FC0186E001900D9281507B
:10599000E1F7E0916806F0916906CE0101966FE5A6
:1059A00073E009959093670680936606892B49F00A
:1059B000109269061092680604C0F70110827C01FB
:1059C00069CF2E960FB6F894DEBF0FBECDBFCF9134
:1059D000DF911F910F91FF90EF90089570DB80E0B1
:1059E00098EFEBDB2ED78FE593E06DE274E30E9436
:1059F0004D24109267061092660610926906109266
:105A000068061092650610926A0608959C01F9993D
:105A1000FECF32BD21BDF89A80B50895982F8091B0
:105A20007C00807E80937C00892F8950853008F42B
:105A3000985E95FF04C080917B00806203C08091D6
:105A40007B008F7D80937B0080917C009F71892BF0
:105A500080937C0080917A00806880937A008091A6
:105A60007A00806480937A0080917A0084FFFCCF72
:105A700080917A00806480937A0080917A0084FF1C
:105A8000FCCF209178004091790080917A008F7747
:105A900080937A00942F80E030E0282B392BC901C5
:105AA000089587988F9887E0B9DFAA2797FDA0957A
:105AB000BA2FBC01CD0124E736E040E050E00E945F
:105AC0000136272F382F492F552747FD5A95C901F1
:105AD0000895AF92BF92CF92DF92EF92FF920F9311
