:100000000C9401090C9428090C9428090C942809D3
:100010000C9428090C9428090C9428090C9428099C
:100020000C9428090C9428090C945E1A0C94901ACC
:100030000C9428090C9428090C9428090C9428097C
:100040000C9428090C9428090C9428090C9428096C
:100050000C9413160C9428090C9428090C94280964
:100060000C9428090C9428090C9428090C9428094C
:100070000C9428090C9428090C9428090C9428093C
:100080000C9428090C9428090C9428090C9428092C
:100090000C9428090C9428090C9428090C9428091C
:1000A0000C9428090C9428090C94280900060D13B7
:1000B000191F252C32383E444A50565C62676D73D6
:1000C000787E83888E93989DA2A7ABB0B4B9BDC14A
:1000D000C5C9CDD0D4D7DBDEE1E4E7E9ECEEF0F240
:1000E000F4F6F7F9FAFBFCFDFEFEFFFF4153534522
:1000F00052543A2025733A256400253034580A00BA
:10010000E3E7EF00FF0102030408090A0C0D0F10DA
:10011000111213FF1011FF12FF1329FF3031323576
:10012000363738393C3D20215051525360616A8046
:100130008182838485909293959798070830120066
:1001400031120100320000010007301000000202ED
:100150000000000000000000000000000700000098
:100160000000C8009016270232001A003200001862
:100170002A00320000000000000006020808070004
:100180000102000000000000000000000000EF007D
:1001900000003F0100A70300000000000000000075
:1001A000000000000000100000000300100100002B
:1001B000000033010403090416034D0069006300C5
:1001C00072006F0074006F00750063006800120118
:1001D0000002020000109A23012000010002000129
:1001E00009024300020100803209040000010202FA
:1001F000000005240010010524010101042402026D
:1002000005240600010705810310004009040100D0
:10021000020A0000000705020240000007058302F1
:100220004000000066207F0C00000000030C8801E5
:100230000302880104029D010502A5010502C8010F
:100240000802F001060228020202520203025602CC
:100250000302710204028C02050498020208B10232
:100260000406B5020208B9020302BB020502D0026D
:100270000302F3020502080305022B0305024E03E5
:1002800005027103050294030502B7030502DA03B0
:100290000502FD030204200402042A0405033604B7
:1002A00005044F0405035E040502770409029A045D
:1002B0000702EB0406021C05070246050702770544
:1002C0000602A8050502D2050702F5050702260663
:1002D0000202570605026506060288060502B206F6
:1002E0000802D50607020D0707023E0706026F0740
:1002F000070299070702CA070602FB07060225083C
:1003000007024F08070280080A02B1080602F70830
:100310000602210906024B0903027509030290092E
:100320000302A5090402C009070ACC090302D30984
:100330000504D9090502F2090504150A05022E0A69
:100340000504510A04026A0A0504860A0502A90A7C
:100350000202CC0A0302DA0A0502F50A0202180BAD
:100360000804260B05044E0B0504670B0504800BDF
:100370000504A30B0404C60B0504DA0B0302F30BFC
:100380000504080C0504210C07043A0C05045D0C57
:100390000504760C0504990C0402B20C0202D60C7A
:1003A0000302E60C0605010DFFFF0D0D04520B04C0
:1003B000520B04520B04520B04520B000000045267
:1003C0000B282F520B172D3400000A410A41001749
:1003D0002B172B5A7A7A7A7302390D390B5A7A7A9B
:1003E0007A730A41074600172B172B00045A7A73B9
:1003F0000B18412526410A77490B0000045A782B37
:100400000000251360184125156E045A7A771A00EA
:1004100000250B00076C771A02390B0018411841B0
:100420000A410000076C771C390B00000000000A2D
:100430004100000000000239136C782B00000A41D3
:100440000A410A5B0004520B045A782B000A7A779F
:100450001A0000282B1841000018433D1A0000180C
:10046000782B0000185B07642641185B000A730BA9
:10047000045A7A77236E1841172B00076000271A59
:100480000760000A5B001841000A5B00076000007B
:10049000271A000760282B00044B0000282B0018A7
:1004A00041000A5B00184100282B044B00282B0058
:1004B00000172B00187A782B0A5C3D1A00023D1AAF
:1004C0000000023D1A00187A7A7A7300023D1A0081
:1004D00000023D1A00076007462A7A730B07600086
:1004E0000A4100172B02390B0433000A4100271A76
:1004F00000390B0002407A6E000A5B002A41172B7C
:10050000000A5B282B000A5B172B000A5B0A5B00C2
:100510002A4102407A6E000018412A7A412118418E
:10052000001841001841001841001841045A7A7718
:100530001A184100185B0000000A41000004520B29
:100540000004571A0007691A00002A7A7A7A5B02B7
:10055000407A6E00185B002A41000000282B00043E
:100560005A6E000000000A5B184100185B045A7ABA
:10057000730B000007640B000240730B00185E52FF
:100580000B07640F520B187A7A7A5B000004520B47
:10059000000004520B045A7A7A4107600000000AF6
:1005A0007A7A730B185B00185B0000000A6E184122
:1005B000002A5B045A7A730B002A7A7A410A5B009C
:1005C0000000174E7A730B2A6E00185B2A41000751
:1005D000600A6E00185B002A7A730B187A7A7A5BCD
:1005E000000000271A00000A5B000000271A000024
:1005F00007600000000A5B00000018410000024094
:100600007A730B0A5B0018410A5B00184100187AE4
:100610005B00185B00185B1841000A6E045A7A7779
:100620001A045A7A6E001841000A411841000A6EF5
:10063000045A7A75600000000A5B1841002A4102E2
:10064000407A6E000760000000000000076007604D
:10065000000000000000076007460000000A730069
:10066000187A6E00185B00000000187A6E00000017
:10067000000A73187A7A7A730000000000187A7AF8
:100680007A73185B00000000187A6E000000000A00
:1006900073000A7A6E00186E00000002407A771A22
:1006A000185B000A5B00000018410000185B0000A6
:1006B00004520B0000000000000004520B00000078
:1006C0000A7A7A7A730B00000A771A00000A771AFE
:1006D00004571C407A6260185B0A5B185B002A4171
:1006E000076018433D1A00172B0A5B18433E2B0482
:1006F000571E582B0764157A78687A4100002A73D0
:100700000B0000002A6E0000187A7A7A7A41000005
:10071000002A6E000000000453531A000000185B0A
:1007200018410000023E2B07640B00076C7A7A78B0
:100730002B002A4100000A5B00571A000004571AD8
:100740000A7A7A7A730B0A5B0000282B0A5B000096
:10075000271A0A7A7A7A771A0A5B0000185B0A5B12
:10076000000018410A7A7A7A730B000A7A7A771AAB
:100770000007691A000A6E001841000000050B18F6
:100780004100000000001841000000220007691A23
:10079000000A771A000A7A7A771A000A7A7A7A7344
:1007A0000B000A5B0000186E000A5B0000023D1A95
:1007B0000A5B0000023D1A0A5B000004520B0A5B50
:1007C00000000A6E000A7A7A7A730B000A7A7A7A43
:1007D0007A410A5B000000000A5B000000000A7A10
:1007E0007A7A771A0A5B000000000A5B00000000BA
:1007F0000A7A7A7A7A5B0A7A7A7A770A5B00000058
:100800000A5B0000000A7A7A7A5B0A5B0000000A41
:100810005B0000000A5B00000000076C7A7A5B0056
:1008200004582B00023E2B0A5B0000000000184118
:10083000000A7A7A5B0A5B0000000A5B04582B000E
:10084000002A5B00045A7A7A5B000A5B00000452BB
:100850000B0A5B000004520B0A5B000004520B0AF7
:100860007A7A7A7A730B0A5B000004520B0A5B00F7
:100870000004520B0A5B000004520B07600760077C
:10088000600760076007600760000004520B00000B
:1008900004520B000004520B000004520B00000431
:1008A000520B282B0760000A7A7A41000A5B00008D
:1008B000186E0A5B000A5B000A5B076000000A5EB4
:1008C0005A5B00000A771C3E2B000A5B0004571A93
:1008D0000A5B00000A730A5B0000000A5B0000006C
:1008E0000A5B0000000A5B0000000A5B0000000ACF
:1008F0005B0000000A7A7A7A6E0A782B000018737F
:100900000B0A665B00023B640B0A5E4B0007495210
:100910000B0A5B271A172F520B0A5B1841271E522E
:100920000B0A5B07624B04520B0A5B024041045204
:100930000B0A771A0004520B0A7A5B0004520B0A66
:100940005C3E2B04520B0A5B076004520B0A5B00EF
:100950002A45520B0A5B00045A730B0A5B0000180D
:10096000730B00076C7A782B0007691A0004582B68
:1009700018410000000A5B18410000000A5B1841A2
:100980000000000A5B07691A0004582B00076C7A04
:10099000782B000A7A7A7A771A0A5B00000A5B0AD7
:1009A0005B00000A5B0A7A7A7A771A0A5B00000019
:1009B000000A5B000000000A5B00000000000A7AE9
:1009C0007A782B0007691A0007691A18410000009D
:1009D0001841282B0000000A5B18410000000A4162
:1009E00007691A186E271A00076C7A7A7A6E0A7AE3
:1009F0007A7A782B000A5B00000760000A5B00002F
:100A00000760000A7A7A7A782B000A5B000A6E0087
:100A1000000A5B00002A41000A5B000004571A002C
:100A20002A7A7A6E000A6E0000282B07640B0000F9
:100A30000000076C7A6E0000000000185B185B0075
:100A4000000A5B02407A7A730B407A7A7A7A410024
:100A500000282B00000000282B00000000282B009D
:100A6000000000282B00000000282B0000000028B8
:100A70002B00000A5B000004520B0A5B00000452CA
:100A80000B0A5B000004520B0A5B000004520B07C8
:100A900060000007600004571A00185B0000187A15
:100AA0007A730B003E2B000004520B0A5B00000A15
:100AB0005B0004520B00282B0000282B076000006D
:100AC000000A5B18410000000453531A00000000A4
:100AD0002A6E0000003E2B00076C410007640B18D3
:100AE0005B000A4D6E000A6E000A6E00271E520B54
:100AF00018410004520F520D3E2D3E2B00023D20A6
:100B000046001845520B0000174D2B000A75600077
:100B100000000A771A00045A5B0000186E00002AD1
:100B200041002A410A6E0000045A771A0000002A88
:100B30006E0000000A6E2A410004571A04571A403A
:100B40004100000A7340410000186E04520B045229
:100B50000B00185B2A41000002406E0000000018E4
:100B60004100000000184100000000184100000A88
:100B70007A7A7A771A0000000A6E00000004520B9D
:100B80000000023E2B0000002A41000000185B001C
:100B9000000000407A7A7A7A410A7A5B0A5B000A9E
:100BA0005B000A5B000A5B000A5B000A5B000A5BF1
:100BB000000A7A5B390B00172B00074600044B0034
:100BC00000271A00172B00074640771A023D1A0229
:100BD0003D1A023D1A023D1A023D1A023D1A023D1B
:100BE0001A40771A00186E0004523B2B2A41076006
:100BF000076C7A7A7A782B185B0002390B076C7ACB
:100C0000782B050B00184102407A7A41282B002AE4
:100C1000410A7A7A4D5B0A5B0000000A5B00000023
:100C20000A667A771A0A6E000A5B0A5B0007600A96
:100C30006E000A5B0A667A771A02407A730B185BB9
:100C4000001841282B000000185B00184102407A70
:100C5000730B00000018410000001841045A7A6626
:100C6000411841002A41282B0018411841002A410F
:100C7000045A7A6641045A7A730B1841000A5B2AB7
:100C80007A7A7A6E1841000000045A7A7A5B045A24
:100C9000730B07600000407A5B000760000007608C
:100CA00000000760000007600000045A784E4118F9
:100CB00041024041282B0018411841002A41045AA2
:100CC0007A66411841002A41045A7A730B0A5B0084
:100CD00000000A5B0000000A626C771A0A730B18A6
:100CE000410A5B0018410A5B0018410A5B00184189
:100CF0000A5B00000A5B0A5B0A5B0A5B0A5B000A8C
:100D00005B000000000A5B000A5B000A5B000A5BF4
:100D1000000A5B000A5B0A782B0A5B0000000A5B92
:100D20000000000A5B076A2B0A62640B000A7A73F0
:100D30000B000A5B185B000A5B0240410A5B0A5B1E
:100D40000A5B0A5B0A5B0A5B0A5B0A626C73267ABF
:100D50006E000A730B2A5B04571A0A5B00282B02E9
:100D60003D1A0A5B00282B023D1A0A5B00282B0261
:100D70003D1A0A7A7A771A0A6E0018410A5B00183F
:100D8000410A5B0018410A5B00184102407A730B6C
:100D9000185B00185B282B000760185B00185B02CB
:100DA000407A730B0A626C771A0A730B0A5B0A5B50
:100DB0000007600A6E000A5B0A667A771A0A5B000F
:100DC00000000A5B000000045A784E4118410240BE
:100DD00041282B0018411841002A4102407A6641FF
:100DE000000000184100000018410A66771A0A6ED8
:100DF00000000A5B00000A5B00000A5B0000076C51
:100E00007A6E001841000000045A7A730B0000004B
:100E1000282B187A7A6E000011000A5B00407A4194
:100E20000A5B000A5B000A5B00076C410A5B001862
:100E3000410A5B0018410A5B0018410A5B002A4125
:100E4000045A7A6641282B00282B0A5B04520B04B3
:100E500052155B000028662B00000A730B003D1A38
:100E60000A730B1841184117651A271A07473D36B0
:100E7000454B0004546007545B00002A5B04582B68
:100E8000002A5B04582B023E684100000A730B00E5
:100E90000457365B004041024041282B0018410AAC
:100EA0005B023D1A045213600000284D2B0000071E
:100EB000640B00000A5B000018771A00002A7A7A97
:100EC000771A0000185B0000185B00000A6E000033
:100ED00000407A7A782B002A730B023D1A00023DFB
:100EE0001A0004520B003D1A000004520B00023D90
:100EF0001A00023D1A00002A730B074607460746F0
:100F000007460746074607460746406E0004520B51
:100F100004520B023D1A000452023D1A04520B0403
:100F2000520B406E000A7A730B140B2200187A5B86
:100F300000FFFFFFFEFFFCFFF8FFF7FF1CFF14FFA1
:100F400013FDF7FDF4FDEEE7FFE7FEE7FCE7F8E74A
:100F5000F7E71EE71CE714E713E5F7E5EEE4F3E433
:100F6000EEE4E9E4E8BFFFBFFEBFFCBFF8BFF7BF98
:100F700014BF13BDFFBDF7BDEEBCF4BCF3BCE9BBB1
:100F8000AEBBA9BBA8BBA09F1F9F1E9F1C9F189F05
:100F9000179DFE9DF49DF39CFC9CF79CEE9CE99CA8
:100FA000E89BB49BB39BAE9BA99BA09A4E9A499A8F
:100FB000489A4075FF75FE75FC75F875F774FC74FA
:100FC000F774F474F373B873B773B373AE73A97330
:100FD000A873A072547253724E7249724872407074
:100FE0000E7009700870004CFC4CF74CF44CF34B3D
:100FF000B84BB74BB44BAE4A544A534A4E4A494A8F
:10100000484A40480E48094808480003B803B70357
:10101000B403B303AE02540253024E024902480025
:101020000E000900080000E4F6FCC4D6DCDFABBB10
:10103000EBEFFFCBCFE1E9EDF3FAFDC1C9CDD3DA98
:10104000DDE0E8ECF2F9C0C8CCD2D9E2EAEEF4FB7C
:10105000C2CACED4DBE5C5F8D8E3F1F5C3D1D5E6F5
:10106000C6E7C7FEF0DED0A30000A1BF71776572AE
:10107000747975696F706173646667686A6B6C7A9E
:10108000786376626E6D00313233343536373839F5
:10109000302D2F3A3B28292440222E2C3F21272B6C
:1010A0003D003E101D3EC31D57103257456657AEDA
:1010B000326C6F6F6B003C00313233006162630051
:1010C000737061636500656E746572004C6F616476
:1010D000696E672E2E007368656C6C0067616D65C4
:1010E0002E7A3500702E70676500536176696E67E1
:1010F0002E2E2E00526573746F72696E672E2E2E1F
:1011000000E631E931163CD13B5330B827DC267C70
:1011100028EC31E33D5430DD36F2347028C730D648
:101120002AF52A012F2E30D92F262FDB3EED3E0F38
:101130003C3C34DD2D0A3CFC31DC30DC3BC73E6BF3
:101140002B5B30232B012B122BDD3ECB3E5A2EE2A4
:101150002A602BC12B622C9A2CE82C463EE22D7182
:101160003682368B2F492FF22FCC2B552B722BEA40
:101170002BD72B3C345034E53401325B305B305B91
:10118000303C34E335F535A42ED929DE3D32378B9A
:1011900034ED3D4B3EE634EC343C34D535E334E8B5
:1011A00034E434E934E234F71BF61BC71BBC299244
:1011B000366B2B50345034833DAC3D033689356358
:1011C00032B827DC26832BA22BE734E134E134E16B
:1011D00034E13474287828E03637375B305B305B95
:1011E00030E134E134E134E134E134E134E134E15B
:1011F00034E134E134E134E134E13400921C8D23F4
:10120000882311241FBECFEFDAE0DEBFCDBF11E08F
:10121000A0E0B1E0E6E7FFE702C005900D92A43838
:10122000B107D9F719E0A4E8B1E001C01D92A331DC
:10123000B107E1F711E1C0E0D2E104C02297FE015D
:101240000E94743FCC3FD107C9F770D70C94AF3FD1
:101250000C940000FB01DC018D91059080190110B8
:10126000D9F3990B0895FB01DC0105900D92002044
:10127000E1F70895FB01DC014150504048F0059032
:101280000D920020C9F701C01D9241505040E0F777
:101290000895FB01DC0104C08D910190801921F4B7
:1012A00041505040C8F7881B990B0895DC0101C0DC
:1012B0006D9341505040E0F70895A0E0B0E0E3E6C0
:1012C000F9E00C94823F7C01EB018A01690109C0BD
:1012D000CE012196F6010995F70181937F01015016
:1012E000104001151105A1F7CDB7DEB7E8E00C9469
:1012F0009E3FA0E0B0E0EFE7F9E00C94883FFE01EC
:10130000359661917191A0910F09B09110091396D2
:101310008C911397886013968C9380910F0990910C
:101320001009AF010E948F1CE0910F09F091100984
:101330002381277F23832096E2E00C94A43F8F92A1
:101340009F92AF92BF92CF92DF92EF92FF920F9354
:101350001F93CF93DF934C01EB015A0180918401DD
:10136000882309F45FC084E891E060E070E0F40154
:101370000995882309F456C00FEF1FE745C0A70160
:1013800060E070E08091A4019091A501A091A60178
:10139000B091A701480F591F6A1F7B1FE091BE0142
:1013A000F091BF018091BC019091BD010995882306
:1013B00049F5C091BC01D091BD01C12C82E0D82E6D
:1013C000CC0EDD1E11C088818823E1F0853E59F0E6
:1013D0008B85887141F48701CE01B701A501F40125
:1013E0000995882389F4A096CC15DD0561F708944A
:1013F000E11CF11C8091A8019091A901E816F90661
:1014000008F4BDCF0FEF1FEFC801DF91CF911F91FF
:101410000F91FF90EF90DF90CF90BF90AF909F9093
:101420008F900895D093BD01C093BC01EE24FF249A
:10143000E1CFAC01DB012BE080E22150FA01E20FA9
:10144000F11D80832223C9F790E002C028E091E0DB
:101450003D91332391F0832F81568A3108F4305225
:101460003E32A1F3283010F0992329F0FA01E20F5F
:10147000F11D30832F5F2B3058F30895CF92DF9208
:10148000EF92FF920F931F93DF93CF93CDB7DEB709
:101490002D970FB6F894DEBF0FBECDBF9C016B0138
:1014A0007A018E010F5F1F4FC801B901C2DFFD86AF
:1014B000EC8684E29EE0B601A80141DF20E08F5F68
:1014C0009F4F09F021E0822F2D960FB6F894DEBFD2
:1014D0000FBECDBFCF91DF911F910F91FF90EF9085
:1014E000DF90CF9008958F929F92AF92BF92CF924C
:1014F000DF92EF92FF920F931F93CF93DF934C01F4
:101500007A018B01E9018091AA019091AB015C0104
:10151000CC24DD24288539854A855B85C601B50143
:101520000E94EF3EE616F7060807190718F4E0E0F8
:10153000F0E029C0E61AF70A080B190B2889398947
:101540004A895B89C601B5010E94EF3EE616F7069F
:101550000807190718F4E1E0F0E015C0E61AF70AE9
:10156000080B190B288D398D4A8D5B8DC601B5018D
:101570000E94EF3EE616F7060807190710F090E004
:101580002EC0E2E0F0E08091B4019091B501A0910D
:10159000B601B091B701E80EF91E0A1F1B1F33E018
:1015A000EE0FFF1F3A95E1F7EC0FFD1F2481358107
:1015B000468157812250304040405040C601B5011D
:1015C0000E94EF3EE60EF71E081F191FC401B80166
:1015D000A7010E94BF1990E0882309F491E0892FA8
:1015E000DF91CF911F910F91FF90EF90DF90CF90FF
:1015F000BF90AF909F908F9008958F929F92AF92DF
:10160000BF92CF92DF92EF92FF920F931F93CF93EF
:10161000DF934C017A018B01E9018091AA0190913D
:10162000AB015C01CC24DD24288539854A855B85A6
:10163000C601B5010E94EF3EE616F7060807190736
:1016400018F4E0E0F0E029C0E61AF70A080B190BDD
:10165000288939894A895B89C601B5010E94EF3E14
:10166000E616F7060807190718F4E1E0F0E015C0E0
:10167000E61AF70A080B190B288D398D4A8D5B8DF8
:10168000C601B5010E94EF3EE616F70608071907E6
:1016900010F090E02EC0E2E0F0E08091B401909173
:1016A000B501A091B601B091B701E80EF91E0A1F6D
:1016B0001B1F43E0EE0FFF1F4A95E1F7EC0FFD1FE4
:1016C000248135814681578122503040404050402E
:1016D000C601B5010E94EF3EE60EF71E081F191F56
:1016E000C401B801A7010E94751990E0882309F48C
:1016F00091E0892FDF91CF911F910F91FF90EF9093
:10170000DF90CF90BF90AF909F908F900895DF9221
:10171000EF92FF920F931F93FC017A018B01DD245E
:101720008091B8019091B901A091BA01B091BB012B
:101730000097A105B10529F0DD24D39447E050E0DE
:1017400002C048E050E0D801C70104C0B695A79593
:10175000979587954A95D2F7AC01BD018091AC0170
:101760009091AD01A091AE01B091AF01480F591F0A
:101770006A1F7B1F80819181A281B381481759071D
:101780006A077B0751F040835183628373838091A2
:10179000BC019091BD010E947519E091BC01F091CE
:1017A000BD01DD2071F0C7018F779070880F991F00
:1017B000880F991FE80FF91F2081318142815381E1
:1017C0000BC0C7019070880F991FE80FF91F808127
:1017D00091819C0140E050E0B901CA011F910F9135
:1017E000FF90EF90DF9008956F927F928F929F927B
:1017F000AF92BF92DF92EF92FF920F931F93DF930E
:10180000CF9300D000D0CDB7DEB75C014B01198279
:101810001A821B821C82FC01E080F180028113810C
:10182000DD243E010894611C711C08948108910814
:10183000C301B801A7016BDF9B01AC010894E11C57
:10184000F11C011D111D6E157F058007910791F197
:101850008D2D90E08815990509F451C08091B8014B
:101860009091B901A091BA01B091BB010097A10577
:10187000B10529F48FEF9FEFA0E0B0E004C08FEF37
:101880009FEFAFEFBFE0281739074A075B07B9F1B1
:10189000D394ED2DF0E0B3E0EE0FFF1FBA95E1F722
:1018A000EA0DFB1D2083318342835383148215820A
:1018B00016821782ED2DF0E0A3E0EE0FFF1FAA9530
:1018C000E1F7EA0DFB1D84819581A681B781019620
:1018D000A11DB11D84839583A683B78379018A01F5
:1018E000A7CFD394ED2DF0E073E0EE0FFF1F7A95B4
:1018F000E1F7EA0DFB1D10821182128213828D2DF9
:1019000090E0881599056CF30F900F900F900F9051
:10191000CF91DF911F910F91FF90EF90DF90BF90DB
:10192000AF909F908F907F906F900895CF92DF92AD
:10193000EF92FF920F931F93DF93CF93CDB7DEB754
:10194000A0970FB6F894DEBF0FBECDBF6B015093CA
:10195000BD014093BC01BA01AE014F5F5F4F8EDD08
:101960008823D1F1ED8CFE8C0F8D18A1F601E08259
:10197000F182028313838D899E89A0E0B0E0DC01AF
:10198000992788272B8D3C8D40E050E0822B932BAC
:10199000A42BB52B84839583A683B78381E090E045
:1019A000A0E0B0E080879187A287B3871486158670
:1019B000168617862091AA01922F990F80E0A0E049
:1019C000B0E08E159F05A007B10728F4C601049664
:1019D00063E070E009DF81E0A0960FB6F894DEBF07
:1019E0000FBECDBFCF91DF911F910F91FF90EF9070
:1019F000DF90CF9008958F929F92AF92BF92CF9237
:101A0000DF92EF92FF920F931F93DF93CF93CDB7A7
:101A1000DEB728970FB6F894DEBF0FBECDBF8C019E
:101A2000FB019093BD018093BC017093BF01609353
:101A3000BE0140E050E060E070E00995882309F0C5
:101A4000EFC00E531E4FF80190810C5F1F4FF8013D
:101A5000A080B180C280D380065C11409D3028F404
:101A60009B3060F4992339F004C0892F8E50823066
:101A700028F0973018F0AA24BB246501E091BE013C
:101A8000F091BF018091BC019091BD01B601A5010B
:101A90000995882309F0C4C0F80183859485805096
:101AA000924009F0BDC0F80185858093AA0110928B
:101AB000AB012685378560898188928886899789D8
:101AC000A0E0B0E08093B0019093B101A093B20187
:101AD000B093B3010097A105B105C9F484A195A104
:101AE000A6A1B7A18093B0019093B101A093B201D8
:101AF000B093B30184A595A5A6A5B7A58093B80119
:101B00009093B901A093BA01B093BB0108C01092A1
:101B1000B8011092B9011092BA011092BB0179017B
:101B200000E010E0EA0CFB1C0C1D1D1DE092AC0156
:101B3000F092AD010093AE011093AF0170E080E030
:101B400090E02091B0013091B1014091B2015091EB
:101B5000B3010E94EF3E6E0D7F1D801F911F6093A9
:101B6000A4017093A5018093A6019093A70194010D
:101B700044E0369527954A95E1F73093A9012093E3
:101B8000A80140E050E0620F731F841F951F60930F
:101B9000B4017093B5018093B6019093B701809121
:101BA000B8019091B901A091BA01B091BB01009721
:101BB000A105B10529F182E090E0A0E0B0E08983C1
:101BC0009A83AB83BC8381E090E0A0E0B0E08D839A
:101BD0009E83AF83B887CE01019661E070E004DE9A
:101BE0006091AA017091AB0180E090E02D813E816F
:101BF0004F8158850E94EF3E7093A9016093A80120
:101C00008091B8019091B901A091BA01B091BB0146
:101C10000097A105B10511F480E103C080E201C085
:101C200080E028960FB6F894DEBF0FBECDBFCF91EF
:101C3000DF911F910F91FF90EF90DF90CF90BF90B9
:101C4000AF909F908F9008950F931F93CF93DF9342
:101C5000182F092FEA01BA014BE050E01ADB009778
:101C600011F080E00EC02B853C85C901DC01212FDD
:101C7000302FC901FC0180E201900D928150E1F703
:101C800081E0DF91CF911F910F910895FC01EC5FEE
:101C9000FD4F80E092E09183808333961082118221
:101CA00012821382E750F2408FEF9FEFAFEFBFEF4A
:101CB00080839183A283B383EA5FFD4F10820895EE
:101CC000FC01EC5FFD4F80E092E0918380833396CE
:101CD0001082118212821382E750F2408FEF9FEF41
:101CE000AFEFBFEF80839183A283B383EA5FFD4FA1
:101CF00010820895FC01E95FFD4F6081718182814E
:101D0000938108950F931F938C01FC0140815181B1
:101D1000628173810496095F1D4F9801E4DBF8012D
:101D200012921F910F910895EF92FF920F931F93BC
:101D3000CF93DF93EC017A018B01CC5FDD4F1982E9
:101D40001882C450D24088819981AA81BB818417AE
:101D50009507A607B707A9F0CA5FDD4F8881C6506F
:101D6000D240882311F0CE01CDDFFE01E192F19245
:101D700001931193C95FDD4FCF01B801A7019E0107
:101D80003CDCDF91CF911F910F91FF90EF90089570
:101D9000CF92DF92EF92FF920F931F938C016A0113
:101DA0007B01E9E07595679557954795EA95D1F7D9
:101DB000BBDF0C5F1D4F8FEF91E0C822D922F801E5
:101DC000D182C0821F910F91FF90EF90DF90CF9052
:101DD00008950F931F93CF93DF93EC018B01CC5F9A
:101DE000DD4F88819981C450D2408050924051F497
:101DF000488159816A817B814F5F5F4F6F4F7F4F71
:101E0000CE0192DFFE01EC5FFD4F80E092E0208189
:101E10003181821B930BD8018D939C93208131815A
:101E20002C5F3F4F2C0F3D1FC901DF91CF911F91B8
:101E30000F9108951F93CF93DF93EC01162FCC5F82
:101E4000DD4F88819981C450D2408050924051F436
:101E5000488159816A817B814F5F5F4F6F4F7F4F10
:101E6000CE0162DFCC5FDD4FE881F981C450D24002
:101E7000EC0FFD1F8481181739F0CA5FDD4F81E038
:101E80008883C650D2401483FE01EC5FFD4F8081F1
:101E90009181019691838083DF91CF911F91089565
:101EA000CF92DF92EF92FF920F931F93CF93DF9326
:101EB0006C017B018A01C0E0D0E007C0F701EC0FA4
:101EC000FD1FC6016081B6DF2196C017D107B4F3AC
:101ED000C801DF91CF911F910F91FF90EF90DF909C
:101EE000CF900895CF93DF93EC01CC5FDD4F8881D5
:101EF0009981C450D2408050924051F44881598118
:101F00006A817B814F5F5F4F6F4F7F4FCE010CDF48
:101F1000FE01EC5FFD4F20813181C20FD31F8C8108
:101F20002F5F3F4F31832083DF91CF910895CF9270
:101F3000DF92EF92FF920F931F93CF93DF936C0189
:101F40007B018A01C0E0D0E007C0C601CBDFF7010A
:101F5000EC0FFD1F80832196C017D107B4F3C80191
:101F6000DF91CF911F910F91FF90EF90DF90CF9075
:101F70000895FC01EA5FFD4F8081E650F24088231E
:101F800011F0CF01BFCE08950F931F93CF93DF932E
:101F9000EC019B01FC01EC5FFD4F80819181860F7C
:101FA000971F9183808342E0813094071CF18C015C
:101FB000061B170B11830083A901662757FD609547
:101FC000762F88819981AA81BB81F9E0880F991FBA
:101FD000AA1FBB1FFA95D1F7480F591F6A1F7B1F15
:101FE000222717FD2095322F400F511F621F731FAC
:101FF000CE01CEDECC5FDD4F888199818150924049
:1020000028F080E090E067E870E09ED0DF91CF910B
:102010001F910F910895CF93DF93EC01CB01BE0187
:10202000695F7D4FAE014C5F5F4F80DC882339F0E4
:10203000CE0140E050E060E070E076DE81E0DF91CC
:10204000CF9108953FC70895A6C608958EC70895F5
:102050008F929F92AF92BF92CF92DF92EF92FF92B8
:102060000F931F93CF93DF936C015B01EA0179011A
:102070004801C80FD91FE60EF71E87D6C817D90723
:1020800014F083D6EC0184D6E816F90614F080D655
:102090007C01C601D7FE02C080E090E08E01081BE3
:1020A000190B10161106F4F4B501B7FE02C060E07A
:1020B00070E0E701C61BD70B1C161D069CF4A80197
:1020C0009E0100D7BE01882777FD8095982F980143
:1020D000442737FD4095542F0E94EF3EAB01BC01D1
:1020E000C401B2D6DF91CF911F910F91FF90EF9075
:1020F000DF90CF90BF90AF909F908F900895EF9218
:10210000FF920F931F938C0140D67C0141D69C0116
:1021100080E090E060E070E0A7019ADF80E090E06E
:1021200024D61F910F91FF90EF900895FDD460D1B8
:1021300085D0FECF20EA3FE004C0F9013197F1F7E6
:1021400001970097D1F7089500D000D000D0EDB7E7
:10215000FEB731962CEE30E0ADB7BEB712963C9389
:102160002E9311979383828375836483C2D88DB72E
:102170009EB706960FB6F8949EBF0FBE8DBFFFCFD9
:10218000DF93CF9300D000D000D0CDB7DEB78091E1
:10219000C0019091C1018F30910509F446C0E3E080
:1021A00021303E070CF041C001969093C10180930D
:1021B000C0010197FC01EE0FFF1FE80FF91FEE0FA2
:1021C000FF1FEE53FE4F7183608353834283358339
:1021D0002483425E514249F5DE011196E2ECF1E0C2
:1021E00026E001900D922150E1F7FC01EE0FFF1F58
:1021F000E80FF91FEE0FFF1FA2ECB1E0EA0FFB1F83
:1022000026E001900D922150E1F7FC01EE0FFF1F37
:10221000E80FF91FEE0FFF1FEE53FE4FDE01119680
:1022200086E00D9001928150E1F726960FB6F89462
:10223000DEBF0FBECDBFCF91DF910895EF92FF9229
:102240000F931F93DF93CF93CDB7DEB72E970FB6C3
:10225000F894DEBF0FBECDBF809125059091260575
:10226000892B29F080912705882309F45BC0809190
:102270002705882351F46091C2017091C30187E260
:1022800095E040E250E00E943A09F7E2EF2EF5E0D7
:10229000FF2E01C07C01D7012C91222329F0C70118
:1022A00001962032B9F793C08091C0018093220536
:1022B0001AC0892F90E08C01000F111F080F191F01
:1022C000000F111F0E531E4FF8016081718187E2CC
:1022D00095E00E942A09892B31F4D8011296ED91DC
:1022E000FC9113970EC080912205982F91509093E6
:1022F00022058823F1F610922205E091C401F091A5
:10230000C501F0932605E093250581E090E09E83CA
:102310008D83F886EF82CE0105966CE172E0099517
:10232000109227051A821982CE01099655D2882368
:1023300021F1409120055091210541155105D1F021
:1023400029853A8580911C0590911D05281739072C
:1023500071F42B853C8580911E0590911F052817EF
:10236000390729F48D859E858417950781F084E0CF
:1023700090E00BC083E090E008C080912005909130
:102380002105892B21F085E090E09A838983CE0195
:1023900009969C838B83ACE1B5E0FC0186E001905B
:1023A0000D928150E1F7E0912505F0912605CE01CF
:1023B00001966CE172E009959093240580932305C2
:1023C000892B49F0109226051092250504C0F701CB
:1023D00010827C0169CF2E960FB6F894DEBF0FBE37
:1023E000CDBFCF91DF911F910F91FF90EF90089596
:1023F0002DDE80E098EF83DE6CD78CE192E065E71C
:1024000079E1F9DA1092240510922305109226053D
:1024100010922505109222051092270508959C011F
:10242000F999FECF32BD21BDF89A80B508959091FB
:102430004905882311F0916001C09E7F9093490562
:102440000895982F80917C00807E80937C00892F56
:102450008950853008F4985E95FF04C080917B0018
:10246000806203C080917B008F7D80937B00809190
:102470007C009F71892B80937C0080917A0080681A
:1024800080937A0080917A00806480937A008091B2
:102490007A0084FFFCCF80917A00806480937A0078
:1024A00080917A0084FFFCCF2091780040917900E0
:1024B00080917A008F7780937A00942F80E030E0CB
:1024C000282B392BC901089587988F9887E0B9DFA9
:1024D000AA2797FDA095BA2FBC01CD0124E736E0CD
:1024E00040E050E00E94EF3E272F382F492F55271C
:1024F00047FD5A95C9010895AF92BF92CF92DF92DE
:10250000EF92FF920F931F93CF93DF938C017A0189
:10251000FB01EE0DFF1DEE7FE00FF11FA080B180EB
:10252000EB01A70123C02196FC01C080D180029657
:10253000CA14DB04C4F3DA01AA0FBB1FA00FB11F3A
:1025400002C0415050409D018D919C91119712976E
:10255000A816B906B4F34C175D0744F09183808345
:10256000F901D182C0822196415050404C175D073D
:1025700034F0CE01880F991F800F911FD5CF6417BB
:10258000750714F4C801B8DFBE01CE15DF050CF4E1
:10259000BFCFDF91CF911F910F91FF90EF90DF9010
:1025A000CF90BF90AF900895EF92FF920F931F933B
:1025B0008C017B0180E184B915B880E88AB98BB9B8
:1025C0008CE03FDFF8019183808389E03ADFF701F7
:1025D000918380831F910F91FF90EF9008958F92C8
:1025E0009F92AF92BF92CF92DF92EF92FF920F93A2
:1025F0001F93DF93CF9300D000D0CDB7DEB74C014F
:102600005B01CE010196BE016D5F7F4FCDDF8B81F7
:102610009C8108970CF45CC080E184B985B980E4A2
:102620008AB91BB88CE00DDF7C01EB81FC81C9808D
:10263000DA8080E092E08E199F0997FF0FC080E05A
:102640009EEFE80EF91E8701B3E015950795BA9540
:10265000E1F780E092E0E80EF91E06C08C01A3E0ED
:1026600015950795AA95E1F7B701882777FD80951D
:10267000982F9F01442737FD4095542F0E94EF3E2D
:102680009601442737FD4095542F0E94573F24550B
:102690003040200F311F12161306D4F48901000FA9
:1026A000111F80E284B985B980E88AB91BB88BE034
:1026B000C8DEF50191838083F401F182E082980104
:1026C0000F3F110519F014F02FEF30E0822F01C0F9
:1026D00080E00F900F900F900F90CF91DF911F919E
:1026E0000F91FF90EF90DF90CF90BF90AF909F90B1
:1026F0008F9008956F927F928F929F92AF92BF9228
:10270000CF92DF92EF92FF920F931F93DF93CF93BD
:10271000CDB7DEB76E970FB6F894DEBF0FBECDBF54
:102720004C013B018AE0E82EFF246E010894C11C95
:10273000D11C0BE0A02EB12CAC0EBD1E33C06F2DF2
:1027400070E0660F771F8601060F171F6A0D7B1D4D
:10275000C80145DF882331F1F801848B158AF39491
:10276000F5E0FF16F9F4C60160E070E044E050E0E7
:10277000C3DEC50160E070E044E050E0BDDE8D8165
:102780009E81F401918380838F859889F3019183E1
:102790008083CE01459660E070E044E050E0ACDE1E
:1027A000898D05C0EA94FFEFEF1649F680E06E963A
:1027B0000FB6F894DEBF0FBECDBFCF91DF911F9152
:1027C0000F91FF90EF90DF90CF90BF90AF909F90D0
:1027D0008F907F906F900895AF92BF92CF92DF92CB
:1027E000EF92FF920F931F93CF93DF93EC018091B1
:1027F0009800909199000B9708F4E1C065DE84572A
:102800009E400CF0DCC08091980090919900019757
:102810009093990080939800EACF209184003091A2
:10282000850080914C0590914D05A0E0B0E060914D
:102830008400709185006217730718F40196A11D3A
:10284000B11DAC0133272227CB01A0E0B0E0280F57
:10285000391F4A1F5B1F80915E0590915F05A09113
:102860006005B091610579018A01E81AF90A0A0B3D
:102870001B0BD801C70180529E44A040B04048F4D1
:10288000DE01E8E5F5E086E001900D928150E1F788
:1028900008C020935E0530935F0540936005509318
:1028A0006105A8E5B5E0FE0186E001900D9281503A
:1028B000E1F78C819D81892B09F472C0209150052C
:1028C00030915105442737FD4095542FE090540531
:1028D000F09055050027F7FC0095102FE21AF30A37
:1028E000040B150B57016801D594C794B794A794AE
:1028F00068817981882777FD8095982F621B730BFB
:10290000840B950B20EF30E040E050E00E94EF3E5A
:10291000A60EB71EC81ED91EC601B501A801970193
:102920000E94573F398328832091520530915305E7
:10293000442737FD4095542FE0905605F0905705F9
:102940000027F7FC0095102FE21AF30A040B150B71
:1029500057016801D594C794B794A7946A817B8185
:10296000882777FD8095982F621B730B840B950B3E
:1029700020E431E040E050E00E94EF3EA60EB71E9A
:10298000C81ED91EC601B501A80197010E94573F74
:102990003B832A838EEB93E290934F0580934E0501
:1029A0008FEF84B98AB98C81DF91CF911F910F91FC
:1029B000FF90EF90DF90CF90BF90AF900895BE0151
:1029C0006E5F7F4FCE0196DE90E09D838C8330E07A
:1029D000892B09F431E020E080915C0590915D0540
:1029E000892B09F421E0321709F017CF5ACF51D5BE
:1029F00080E090E008958F929F92AF92BF92CF9225
:102A0000DF92EF92FF920F931F93DF93CF9300D04B
:102A1000CDB7DEB77C01962E872E6A0100E010E06C
:102A20005E010894A11CB11CC501B80142E050E050
:102A30002FE032E10E945D0989818F3F11F190E022
:102A40002A81E816F906A1F4B8016E5F7F4F422F84
:102A500050E0892D982D9C01421753070CF49A01E0
:102A6000C601A9012FE032E10E945D0981E00AC0A0
:102A7000822F90E00296080F191F82E0003018079D
:102A80009CF280E00F900F90CF91DF911F910F91FA
:102A9000FF90EF90DF90CF90BF90AF909F908F907E
:102AA000089586E990E090935105809350058EE655
:102AB00090E090935305809352058EE393E09093BA
:102AC0005505809354058AE793E0909357058093CA
:102AD000560510925E0510925F05109260051092E7
:102AE000610584E590E068E070E040E555E083DF53
:102AF0008EEB93E290934F0580934E0508951F93BC
:102B0000162F880F806866D2812F64D21F91089596
:102B100059D280E58CBD72988DE060E8F0DF86E1E7
:102B200065E0EDDF729A54C284E48EB98DB98FEFFF
:102B300081BB80BB88B987B990E8909361001092FF
:102B4000610081E885BF95BF84B7843041F414BE2D
:102B50001092900047984698809A8898FFCF469A9E
:102B60008FE790E090939700809396009093990060
:102B70008093980092E09093900089E18093910077
:102B800080919000806880939000109280009093D4
:102B900081001092850010928400B09A80916F009D
:102BA000816080936F00B4DF80E480937C0086E8CE
:102BB00080937A0058D475DF789487EF94E19093EE
:102BC0006B0580936A0510926D0510926C0582E08A
:102BD0008093650510926F0510926E0582E695E070
:102BE0009093100980930F090895FC0100D000D044
:102BF0008AEF90E0ADB7BEB712969C938E93119773
:102C0000238930E0928980E0282B392B220F331F53
:102C100014963C932E9313970E9479090F900F906E
:102C20000F900F9008951F920F920FB60F921124DC
:102C30002F933F934F935F936F937F938F939F93C4
:102C4000AF93BF93EF93FF93DF93CF930F92CDB7E3
:102C5000DEB780914905882329F089E68983CE0172
:102C60000196C3DF80914C0590914D05019690939C
:102C70004D0580934C05892B49F480914A0590912C
:102C80004B05019690934B0580934A0580914E0524
:102C900090914F05019790934F0580934E05892B96
:102CA00089F45CD5882341F414BE109290004798B3
:102CB0004698809A8898FFCF8EEB93E290934F05C9
:102CC00080934E0540914805442309F18091980076
:102CD00090919900242F332727FD3095280F391F15
:102CE0008091470547FF05C090E0821793072CF4B9
:102CF0000AC090E02817390734F080914705282F43
:102D000030E01092480530939900209398000F907E
:102D1000CF91DF91FF91EF91BF91AF919F918F91F3
:102D20007F916F915F914F913F912F910F900FBEC7
:102D30000F901F9018952FEF24B92AB985B99BB928
:102D40008C988D988E988E9A8D9A08950F931F93D4
:102D5000162F072FF0DF15B90BB98E988E9A8C9A23
:102D600014B81AB81F910F910895BC0102C0605C9D
:102D70007E4F77FDFCCF02C06054714081E060342B
:102D80007807D4F78AE690E0E1CF80EF90E00895ED
:102D900080E491E008951F93DC018FEF84B98AB934
:102DA00031B3132F1F7B942F937099F0FD01292FBE
:102DB00080818BB9818185B911BB31BB329621509D
:102DC000B9F79150892F90E00196880F991FA80FAD
:102DD000B91F82E076956795579547958A95D1F703
:102DE000411551056105710569F191B3292F2F7BBB
:102DF0008C918BB911968C91119785B921BB91BBA0
:102E000012968C9112978BB913968C91139785B962
:102E100021BB91BB14968C9114978BB915968C910C
:102E2000159785B921BB91BB16968C9116978BB9D6
:102E300017968C91179785B921BB91BB1896415075
:102E40005040B1F61F910895EF92FF920F931F9398
:102E50007A018B01492F552747FD5A952FEF24B949
:102E60002AB94BB985B98E2D8770882321F08E98A9
:102E70008E9A8150FACFD801C70123E0B695A79565
:102E8000979587952A95D1F79C01892BB1F081B34D
:102E9000982F9F7B91BB81BB91BB81BB91BB81BBB9
:102EA00091BB81BB91BB81BB91BB81BB91BB81BB02
:102EB00091BB81BB2150304069F71F910F91FF906A
:102EC000EF900895CF92DF92EF92FF920F931F93AE
:102ED000CF93DF93EC018B017A01690197FD14C058
:102EE000CA018C0F9D1F813F910574F477FD0CC0C2
:102EF000C901860F971F8154914034F414161506AA
:102F00001CF41C141D042CF080E090E06FEF70E0C6
:102F10001BD980E590E0BE0119DFBE016150704011
:102F20006E0D7F1D81E590E011DF82E590E0B80134
:102F30000DDFB801615070406C0D7D1D83E590E0A0
:102F400005DF80E290E0BE0101DF81E290E0B801A0
:102F5000FDDE82E290E0EFDEDF91CF911F910F91D5
:102F6000FF90EF90DF90CF900895CF93DF938C9AEE
:102F70008D9A8E9A8F9A899A80B3806F80BB899838
:102F800081E090E0D7D8899A81E090E0D3D8C0E082
:102F9000D0E0FE01E050FF4F8491FE01EE0FFF1FD5
:102FA000E45CFE4F659174918F3F19F4CB01C2D858
:102FB00002C090E0CBDE2196CC33D10551F7DF91F2
:102FC000CF91089587EF84B92A9A80E58CBD089542
:102FD0001CBC08958EBD0DB407FEFDCF8EB50895BF
:102FE000FC018FEF8EBD9FEF2FEF0DB407FEFDCFDD
:102FF0008EB52EBD80830DB407FEFDCF8EB52EBDE0
:103000008183992319F032969150EFCF0DB407FECA
:10301000FDCF8EB58FEF8EBD0DB407FEFDCF8EB503
:103020000895DF93CF93CDB7DEB72B970FB6F89403
:10303000DEBF0FBECDBF488759876A877B87FE01F9
:1030400038969FEF9983805C8A8383818B8382810A
:103050008C8381818D8388858E839F83DE01119689
:1030600007C08C918EBD0DB407FEFDCF11968EB5B5
:10307000AE17BF07B1F781E02B960FB6F894DEBF0D
:103080000FBECDBFCF91DF910895DF93CF93CDB722
:10309000DEB72B970FB6F894DEBF0FBECDBF982FCB
:1030A000488759876A877B87FE013896882311F401
:1030B00025E905C0883011F427E801C02FEF8FEF14
:1030C0008983905C9A8383818B8382818C838181C5
:1030D0008D8380818E832F83FE0131969E01285F30
:1030E0003F4F07C080818EBD0DB407FEFDCF3196E6
:1030F0008EB5E217F307B1F780E02FEF3FE39FEFC4
:1031000007C09EBD0DB407FEFDCF8EB58F3F31F4D5
:10311000215030404FEF2F3F340799F72B960FB6D1
:10312000F894DEBF0FBECDBFCF91DF910895CF934E
:10313000DF93E901AADF282F94E03FEF06C03EBDF0
:103140000DB407FEFDCF8EB589939150C0F7822F45
:10315000DF91CF9108950F931F93DF93CF9300D00A
:1031600000D0CDB7DEB7769A87EF84B92A9A80E58A
:103170008CBD83E58CBD8DB58EB51092700580E059
:1031800090E02FEF2EBD0DB407FEFDCF3EB50196AA
:103190008A309105B9F7769880E040E050E060E031
:1031A00070E073DF813011F084E68AC0809370058F
:1031B000769A87EF84B92A9A80E58CBD76988AE35F
:1031C00040E050E060E070E08E010F5F1F4F98011B
:1031D000AEDF813009F06FC08A8184FF6EC088E065
:1031E0004AEA51E060E070E09801A1DF813019F017
:1031F0000FEF1FE746C080917005806480937005D3
:103200008B818F70813009F058C08C818A3A11F01F
:103210008BE656C00FEF1FE70EC087E340E050E09B
:1032200060E070E032DF89E240E050E060E070E4AE
:103230002CDF882339F0015010408FEF0F3F180723
:1032400061F73DC017FD3BC08AE340E050E060E01D
:1032500070E09E012F5F3F4F6ADF882361F589810F
:1032600080768034B9F48091700582608093700517
:1032700011C081E040E050E060E070E006DF80FFD8
:1032800007C0015010408FEF0F3F180791F717C08C
:1032900017FD15C080E140E052E060E070E0F5DE2F
:1032A000882311F086E60CC08091700580688093B9
:1032B000700580E005C087E603C088E601C085E6AA
:1032C0000F900F900F900F90CF91DF911F910F9162
:1032D000089541DF982F769A8FEF8EBD0DB407FECB
:1032E000FDCF8EB51CBC892F0895CF93DF93EC01E1
:1032F0008091700587FD02C089E636C081FD07C058
:1033000089E0440F551F661F771F8A95D1F787EF15
:1033100084B92A9A80E58CBD769881E1B6DE88234F
:1033200099F420E08FEF9FE33FEF07C03EBD0DB45F
:1033300007FEFDCF2EB52F3F29F401974FEF8F3FAA
:103340009407A1F72E3F99F0769A8FEF8EBD0DB4BA
:1033500007FEFDCF8EB51CBC8AE606C00DB407FE85
:10336000FDCF8EB51CBC80E0DF91CF910895CE01DA
:1033700060E072E035DE769A8FEF8EBDEFCFCF93AF
:10338000DF93EC018091700587FD02C099E667C06C
:1033900081FD07C099E0440F551F661F771F9A955E
:1033A000D1F787EF84B92A9A80E58CBD769888E1B9
:1033B00038DE882309F44AC080E19FEF05C09EBD36
:1033C0000DB407FEFDCF2EB58150C8F78EEF8EBD30
:1033D0000DB407FEFDCF8EB520E032E007C0888136
:1033E0008EBD0DB407FEFDCF21968EB52150304025
:1033F0008FEF2F3F380799F78FEF8EBD0DB407FE83
:10340000FDCF8EB58FEF8EBD0DB407FEFDCF8EB50F
:103410009FEF9EBD0DB407FEFDCF8EB58F3FC9F364
:10342000853E11F490E001C0982F2FEF2EBD0DB412
:1034300007FEFDCF8EB58823C9F3769A8FEF8EBD38
:103440000DB407FEFDCF8EB51CBC09C0769A8FEF78
:103450008EBD0DB407FEFDCF8EB51CBC9CE6892F3A
:10346000DF91CF91089581E08093D70080EA809327
:10347000D80082E189BD09B400FEFDCF80E98093C8
:10348000D8001092E000109271058CE08093E20069
:103490000895982FF89483E08093E9008091E800E4
:1034A00085FFFCCF9093F1008091E80085FD03C07B
:1034B0008AE38093E8007894892F08951F920F92F1
:1034C0000FB60F9211248F939F938091E100109279
:1034D000E100982F83FF11C01092E90081E08093F2
:1034E000EB001092EC0082E18093ED0088E0809385
:1034F000F000109271051092550192FF0AC083E00E
:103500008093E9008091F200882319F08AE3809388
:10351000E8009F918F910F900FBE0F901F9018950C
:103520001F920F920FB60F9211242F933F934F9338
:103530005F936F937F938F939F93AF93EF93FF93DB
:103540001092E9008091E80083FFF1C04091F10002
:103550002091F1005091F1003091F1008091F10043
:103560008091F1009091F100E091F10082EF809361
:10357000E800263009F45AC0273038F4222309F431
:103580004EC0253009F096C006C02830E1F1293040
:1035900009F090C00BC08EEF8093E8008091E800A6
:1035A00080FFFCCF50685093E300C8C08EEF80933B
:1035B000E800509371051092550191E09093E90055
:1035C0009093EB0081EC8093EC0082E18093ED001E
:1035D00082E08093E9009093EB0080E88093EC0018
:1035E00026E32093ED0083E08093E9009093EB00C5
:1035F00081E88093EC002093ED008EE78093EA0051
:103600001092EA009BC0403809F091C08091E80018
:1036100080FFFCCF809171058093F10084C0809180
:10362000E80080FFFCCF1092F1007DC0323031F015
:10363000333039F0313009F07AC07DC060EE71E08E
:1036400005C0552309F073C064EB71E0292F30E009
:103650009E2F80E0282B392B2534310534F024E4CB
:1036600030E003C0650F711D01C0AEEF8091E8002E
:10367000482F50E0CA0185709070892BB9F342FD44
:103680005DC0522F213108F050E1CB01452F06C01B
:10369000FC010196E491E093F10041504423C1F70D
:1036A000251B3109A093E80021153105D9F65031C9
:1036B000C9F244C04F774132D1F5213229F022328C
:1036C00061F12032A1F513C08091E80080FFFCCFAA
:1036D00020E030E003C080818093F1002F5F3F4FF6
:1036E000F901EB5AFE4F28303105A9F71CC0809133
:1036F000E80082FFFCCF20E030E003C08091F100C1
:1037000080832F5F3F4FF901EB5AFE4F2830310580
:10371000A9F78BEF8093E80006C050935501809184
:10372000E80080FFFCCF8EEF8093E80007C081E2C5
:103730008093EB0003C06EEC71E088CFFF91EF91B6
:10374000AF919F918F917F916F915F914F913F9139
:103750002F910F900FBE0F901F9018951F931091EF
:10376000E40083E090E00E949A108091E40090E0F1
:10377000181391E0892F1F910895E7E2F0E1E80F17
:10378000F11DE4918E2F08950895089508950895E8
:1037900080910E06813011F080E0089582E08093E0
:1037A0000E0684E0809365018091F6059091F705FF
:1037B000A091F805B091F905FC01EF73F070EE0FE0
:1037C000FF1FEA58FA4F209172053091730531833B
:1037D00020830196A11DB11D8093F6059093F705F6
:1037E000A093F805B093F90581E008950895089530
:1037F0008DE008950895089580E090E00895CF93B6
:10380000DF93982FDB01EA018B31C0F08B51E82F59
:10381000EE0FE80F8E2F8F5FF0E0EE55FF4EE49134
:10382000E883E82FF0E0EE55FF4EE491EC938F5FD4
:10383000E82FF0E0EE55FF4E849122C080E18C939A
:10384000292F2150233128F0235180E38C9332E03B
:1038500009C02A3010F430E005C0292F2B508BE12D
:103860008C9331E085E1289FC00111242C91280F11
:103870002C9389E1389FC0011124845F888382E101
:10388000DF91CF910895AF92BF92CF92DF92EF92E6
:10389000FF921F93DF93CF9300D0CDB7DEB77C01AB
:1038A00011E072E0A72EB12CAC0EBD1E6E01089483
:1038B000C11CD11C812FB601A501A1DF682F8A810F
:1038C000282F30E0F70142815381C90185539F4F72
:1038D000841795079CF42F513F4F2417350774F038
:1038E000408151818981282F30E0C901860F911DC7
:1038F000481759071CF44217530724F41F5F10326E
:10390000C9F610E0812F0F900F90CF91DF911F919A
:10391000FF90EF90DF90CF90BF90AF90089580E040
:1039200090E0089580E196E066ED70E142EE51E2AC
:1039300025EF32E00C94C01080E098EF0E947F10D9
:10394000FFCFCF92DF92EF92FF920F931F93A62F9C
:103950006091F6057091F7058091F8059091F90551
:103960006F337105810591052CF420E030E040E0D3
:1039700050E006C09B01AC012F5330404040504006
:1039800089016F50704080409040FB01E21BF30BB7
:10399000F7FD02C0AA2349F08BEE90E06CE070E0E6
:1039A00044E050E020EC30E042C0BF01605F7F4F58
:1039B00080EC9BE00E94223F6B012CEB30E0261B49
:1039C000370B8091610190916201801B910BAC01DA
:1039D000249FC001259F900D349F900D1124BF019D
:1039E0000E94223F7B018BEE90E06EE070E044E0AD
:1039F00050E097010FEF1FEF0E9428108EE090E03B
:103A0000E80EF91E8BEE90E0B70144E050E096011D
:103A100008E11EEF0E942810EC0CFD1C2CEC30E09D
:103A20002E193F098BEE90E0B70144E050E00FEF14
:103A30001FEF0E9428101F910F91FF90EF90DF90D1
:103A4000CF9008954F925F927F928F929F92AF9204
:103A5000BF92CF92DF92EF92FF920F931F93DF936B
:103A6000CF93CDB7DEB7A0970FB6F894DEBF0FBEE9
:103A7000CDBF4B01BA01A901E0905D01F0905E015C
:103A800023E030E0E20EF31EF7013491EEEFFFEF9A
:103A9000EE0EFF1EF70124910894E108F108992722
:103AA00087FD90950296821B9109880F991F880FB8
:103AB000991FF701E80FF91F7490FC013196EE0D84
:103AC000FF1D24910296D701A80FB91FFD01A590F3
:103AD000B49004968E0D9F1DFC01A591B491620FC8
:103AE000711D321B461B570B14161506ACF4832FA1
:103AF00090E0481759070CF087C0640F751F872D99
:103B000090E0FC014E9FC0014F9F900D5E9F900D75
:103B10001124A80EB91E341B6D01832F90E0AB0158
:103B2000401B510B8A01080F191F1016110674F45F
:103B3000081719070CF068C0301B379DC00111240D
:103B40008A0D9B1DA817B9070CF06C01332309F4EB
:103B50005BC0AC14BD040CF057C0472D50E0CA0147
:103B6000880D991D813F91050CF04EC0232F30E048
:103B7000C901860F971F815491400CF045C0C401C4
:103B80000E94221047018A0C9B1C40905F015090BC
:103B900060017601EA18FB086E010894C11CD11C73
:103BA00030C0F0E1EF16F10414F010E101C01E2D59
:103BB0009401412F90E017C0F9012F5F3F4FE4912E
:103BC000F0E0EE0FFF1FE40DF51D8491D601A90F63
:103BD000B11D8C933196E4919F5FD601A90FB11D61
:103BE000EC939F5F4150442339F7810E911C1F775E
:103BF000412F50E060E070E0C6010E942410E11AFD
:103C0000F108E114F10469F6872DA0960FB6F89437
:103C1000DEBF0FBECDBFCF91DF911F910F91FF90FF
:103C2000EF90DF90CF90BF90AF909F908F907F905C
:103C30005F904F900895AF92BF92CF92DF92EF9234
:103C4000FF920F931F93CF93DF936C017B01EA01E7
:103C500059010CC0F60181916F01BE01A50120E060
:103C600030E000E411E0EEDEC80FD11D0894E10859
:103C7000F108FFEFEF16FFEFFF0661F7CE01DF91CE
:103C8000CF911F910F91FF90EF90DF90CF90BF9059
:103C9000AF900895CF92DF92EF92FF920F931F9310
:103CA000CF93DF936C017B01C0E0D0E00EC0F60142
:103CB00081916F0160E070E040E050E020E030E092
:103CC00000E010E0BFDEC80FD11D0894E108F10844
:103CD000FFEFEF16FFEFFF0651F7CE01DF91CF9117
:103CE0001F910F91FF90EF90DF90CF9008957F92FA
:103CF0008F929F92AF92BF92CF92DF92EF92FF92FC
:103D00000F931F93DF93CF93CDB7DEB72A970FB6EC
:103D1000F894DEBF0FBECDBF782EB62EBE016F5F0A
:103D20007F4FAE014E5F5F4F6ADD9AE1971518F441
:103D30000FE917EF02C00FEF1FEF99816A81882EFC
:103D40009924BB2011F00AEF17ED70E064537F4F08
:103D5000892F90E0A40126E130E00E942810C9805C
:103D6000EA80BB2019F0AA24BB2404C084E1A82E59
:103D700085EAB82EDD24FF24EBECF0E0EE0EFF1E0A
:103D8000C601B701A40121E030E085010E9428109E
:103D900087E190E0E80EF91EC601B701A40121E019
:103DA00030E00E942810EAEEFFEFEE0EFF1EC60183
:103DB0000197B70141E050E026E130E00E94281071
:103DC000C4018C0D9D1DB70141E050E026E130E0BB
:103DD0000E94281020910F06222319F4ECE6F0E14E
:103DE00002C0E7E8F0E1872D90E00197E80FF91FA6
:103DF00084918B831C82FDE17F16A1F0F71540F0C2
:103E00008BE1781609F458C09CE17916F9F407C0E3
:103E1000EEE17E1691F0FFE17F16C1F411C066EB72
:103E200070E110C0222319F468EB70E102C06CEB62
:103E300070E16115710551F005C060EC70E102C0E0
:103E400066EC70E1CE0103960E94330903E0E02E98
:103E5000F12CEC0EFD1EF70101900020E9F78F0117
:103E6000015010400E191F09C701602F70E012DFCA
:103E7000881A9108959487948981880E911C2A81CB
:103E800030E02F523F4FC701602F70E0A401D3DE16
:103E90002A960FB6F894DEBF0FBECDBFCF91DF914B
:103EA0001F910F91FF90EF90DF90CF90BF90AF9058
:103EB0009F908F907F90089561EB70E1C3CFEF9258
:103EC000FF920F931F93CF93DF9380E090E06BE01E
:103ED00070E040EF50E021E030E008E116EC0E9495
:103EE000281080EACCECD0E0FF2460EFE62E06C07C
:103EF000FF2011F480EA02C08E2D8F1990E08C0112
:103F00000C7F107053E0000F111F5A95E1F79C01D0
:103F1000287F3070322F2227022B132B0F96887F99
:103F2000907023E0959587952A95E1F7082B192B3A
:103F300080E090E0BE0140EF50E021E030E00E94E0
:103F40002810F394219684E7F81691F611E0812F5A
:103F500060E0CDDE1F5F1032D1F7DF91CF911F916E
:103F60000F91FF90EF9008951F93CF93DF93EC0193
:103F7000162F11C080917205909173050196909350
:103F800073058093720501979F7761E056D6FC0117
:103F9000899180831150112369F7DF91CF911F918F
:103FA0000895EF92FF920F931F9360910B06662383
:103FB00009F45CC08BEF95E070E06CDEAC016091C1
:103FC0000C06662359F5809165019A01280F311D71
:103FD0002C3E31051CF184E0809365018091F6054B
:103FE0009091F705A091F805B091F905FC01EF73E8
:103FF000F070EE0FFF1FEA58FA4F209172053091D2
:104000007305318320830196A11DB11D8093F605B0
:104010009093F705A093F805B093F905E09065013A
:10402000E40EE0926501662331F48BEF95E0609138
:104030000B069ADF19C0FF24E41AF50A4BEE50E094
:104040004E195F09C70160E070E02BE030E00FEF30
:104050001FEF0E94281060910B068BEF95E070E037
:10406000A70120E030E0E7DD10920B061F910F91D1
:10407000FF90EF900895982F8A3029F592DF84E021
:10408000809365018091F6059091F705A091F80560
:10409000B091F905FC01EF73F070EE0FFF1FEA58C5
:1040A000FA4F209172053091730531832083019678
:1040B000A11DB11D8093F6059093F705A093F80517
:1040C000B093F905089580910B06E82FF0E0E550D4
:1040D000FA4F90838F5F80930B06903211F08031FE
:1040E00009F45FCF0895982F80910D06882319F069
:1040F00010920D060895913011F0923019F49093BA
:104100000D060895892FB7CF8AE0EDCF0F931F9347
:104110008C0147DF00930C060730110531F48091C4
:1041200065018093FA0584E002C08091FA058093CE
:1041300065011F910F910895CF93DF93EC0187E004
:1041400090E0E4DF02C02196CEDF88818823D9F792
:1041500080E090E0DBDFDF91CF9108951F93182F6F
:1041600020DF109365011F9108959F7760E065D56A
:10417000FC0180810895CF92DF92EF92FF920F931E
:104180001F93CF93DF936B01C0917205D09173059C
:104190008091740590917505C81BD90B7B018E0128
:1041A00010C08091740590917505019690937505E6
:1041B000809374050197D9DFF70181937F01015046
:1041C00010400115110569F7CC0DDD1D1882109204
:1041D0007505109274058DE0DF91CF911F910F91BD
:1041E000FF90EF90DF90CF90089521E0C4CFAF9281
:1041F000BF92CF92DF92EF92FF920F931F93CF93D4
:10420000DF937C0101969C01220F331F280F391F79
:10421000220F331F220F331F590184E090E0B901B0
:1042200047EE50E02CE030E00FEF1FEF0E94281027
:10423000C0916101D0916201CE0DDF1DD7FD4CC050
:104240002091F6053091F7054091F8055091F90558
:10425000CE01AA2797FDA095BA2F281739074A073C
:104260005B07D4F1209719F4E0E0F0E00BC0FE0109
:104270003197EF73F070EE0FFF1FEA58FA4F01907D
:10428000F081E02DCE01A0E0B0E0281739074A0701
:104290005B0719F48091720507C0CF73D070CC0F03
:1042A000DD1FCA58DA4F8881C82ECE1A34E0D32ECB
:1042B00011C07F010894E11CF11CCF0156DF6D2D68
:1042C00070E0A50120E030E000E411E0BBDBD80E97
:1042D000CA94F701CC2069F7DF91CF911F910F911C
:1042E000FF90EF90DF90CF90BF90AF900895EF9246
:1042F000FF920F931F93CF93DF937A018B018091ED
:10430000F6059091F705A091F805B091F9058F3366
:104310009105A105B1052CF420E030E040E050E02B
:1043200006C09C01AD012F53304040405040E21682
:10433000F3060407150764F00F97A109B109A80156
:1043400097018E159F05A007B10714F49C01AD01DC
:104350008091610190916201A0916301B09164012B
:10436000281739074A075B0781F0209361013093D2
:1043700062014093630150936401C0E0D0E0CE013C
:1043800036DF2196C031D105D1F7DF91CF911F9152
:104390000F91FF90EF9008950F931F938C01862F3C
:1043A000A2DEFFDD4091F6055091F7056091F8051A
:1043B0007091F905C8019BDF8FE090E018DF1F9135
:1043C0000F910895CF92DF92EF92FF920F931F9378
:1043D000DF93CF93CDB7DEB7A0970FB6F894DEBFCB
:1043E0000FBECDBF6C017B01DC012D913C912330D0
:1043F0003105C9F1243031054CF42115310509F49A
:1044000033C12130310509F054C105C026303105D2
:104410000CF04FC170C08FEF9FEF0E947F10EEEE47
:10442000F2E0EE0EFF1ED7011D927D018FEF9FEF90
:104430008D939C93E1E1FDEFEE0EFF1EC7013FDD82
:104440008E010F5F1F4FC8016CEC70E140E250E03D
:104450000E943A09C80170DEC7016EEE72E08AD18F
:104460000E94D12A26C1DC0112960D911C9113974E
:10447000F80182819381805491401CF02FEF3FEF2F
:104480001AC1C80100DA2EEE32E0E20EF31ED701A7
:104490008C93E2E1FDEFEE0EFF1E882311F061E048
:1044A0009FC0D80112962D913C9113972C3C310559
:1044B0000CF0FFC08091F6059091F705A091F805EA
:1044C000B091F9054197A105B1050CF4F2C0E1EFF7
:1044D000F2E0EE0EFF1E8091610190916201A091C9
:1044E0006301B0916401F70180839183A283B38358
:1044F00032932293DEC08B0102511D4FD8018C9163
:10450000882309F46FC0F60182819381BCD9D80158
:104510002C9110E0821709F411E0F601808191815D
:10452000059709F05BC0822F60E0E1DB112309F4FD
:104530004EC02EEE32E0E20EF31ED7019C91E2E176
:10454000FDEFEE0EFF1E9D3149F480910F0691E0C4
:10455000892780930F06C701B2DC39C09B3121F453
:10456000C7016CE619DF19C09C31A9F420917205CE
:1045700030917305809174059091750582179307AA
:1045800030F52150304030937305209372058FE051
:1045900090E02DDE1CC09F3121F481E080930E0657
:1045A00016C09E3119F4C70160E210C080910F0659
:1045B000882319F4ECE6F0E102C0E7E8F0E1892F86
:1045C00090E00197E80FF91F6491C701E5DE2EEE38
:1045D00032E0E20EF31ED7011C926BC0822F612FD6
:1045E00086DB67C08B0101511D4FF801408151816D
:1045F000FFEF4F3F5F0709F45CC02530310549F4F8
:10460000CB0161E09ED98FEF9FEFD8018D939C93F2
:1046100050C0D6011296ED91FC911397828193813F
:10462000FA01E81BF90BCF016CE070E00E94223F19
:10463000AB01662757FD6095762F21EF32E0E20E41
:10464000F31EF70180819181A281B3812FE03DEFBC
:10465000E20EF31E480F591F6A1F7B1FC70147DE7A
:10466000C70160E06ED925C081E00E9417120E9448
:104670008C320297D9F48091740590917505892B3D
:10468000A9F48FDC4091F6055091F7056091F8058B
:104690007091F905C7012BDE809172059091730529
:1046A00090937505809374050E94F23480E00E9417
:1046B000171220E030E0C901A0960FB6F894DEBFD3
:1046C0000FBECDBFCF91DF911F910F91FF90EF9063
:1046D000DF90CF90089560913608709137088091EF
:1046E00038089091390808958130910539F46F5F49
:1046F0007F4F69F483E196E00C94460E892B39F4E0
:104700006F5F7F4F21F483E196E00C94B90F089519
:1047100080E090E06FEF7FEFE7CF81E090E06FEF18
:104720007FEFE2CF0F931F93DF93CF9300D0CDB7EE
:10473000DEB7AB018C010B511D4F60E070E084E0EF
:10474000440F551F661F771F8A95D1F7F8018081A6
:1047500091810E94C80EF80180819181BE016F5F36
:104760007F4F0E94E90E0F900F90CF91DF911F9124
:104770000F910895AF92BF92CF92DF92EF92FF9286
:104780000F931F93DF93CF93CDB7DEB7C254D040C2
:104790000FB6F894DEBF0FBECDBFF82EE92E5B0139
:1047A0000E94600E8E010D5F1F4FC8016CED70E11D
:1047B00040E250E00E943A098F2D9E2DB8010E94E0
:1047C0000B1083E196E00E94600E8E010D5D1F4F7D
:1047D000C80164EE70E140E250E00E943A0983E1D2
:1047E00096E0B8010E940B1083E196E040E058E8A3
:1047F00060E070E00E94C80E8F2D9E2D0E947A0E00
:1048000061507E4F8F4F9F4F29E096958795779502
:1048100067952A95D1F78B016E010894C11CD11CB4
:1048200012C08F2D9E2DB6010E94E90EBC0183E1BE
:1048300096E040E052E00E94500F69817A818F2D0E
:104840009E2D0E94C40F015010408FEF0F3F18079C
:1048500041F7F0921106E0921206A8EEAA16A2E025
:10486000BA0630F480E090E069E371E00E94A410A1
:1048700000911106109112060B511D4F83E196E035
:10488000F80191838083055E12408FEFD8019596E1
:104890008C9394E2892F8150F801E80FF11D9183E8
:1048A000982F8823B9F7C8018696FC0185E2DF01BD
:1048B0001D928A95E9F79801255B3F4FC9016FEF7B
:1048C00070E04AE450E00E945609F8011082CE5B85
:1048D000DF4F0FB6F894DEBF0FBECDBFCF91DF9193
:1048E0001F910F91FF90EF90DF90CF90BF90AF900E
:1048F000089520913608309137084091380850913A
:10490000390820788091660190916701A091680133
:10491000B0916901281739074A075B0739F12093DD
:1049200066013093670140936801509369012050FC
:1049300038474F4F5F4F64E055954795379527951A
:104940006A95D1F78091110690911206B901EADEBD
:10495000E0911106F0911206EB51FD4F808191819B
:104960006AE378E040E850E00E94970F80913608B3
:104970008F778093BA0808958091BA08803809F437
:10498000B8DF8091360890913708A0913808B0912F
:1049900039080196A11DB11D809336089093370800
:1049A000A0933808B09339089091BA08E92FF0E045
:1049B000E65CF74F80819F5F9093BA0808951F933C
:1049C000DBDF182FD9DF512F40E0282F30E0242BD8
:1049D000352BC9011F9108956093360870933708ED
:1049E000809338089093390884CF2F923F924F924A
:1049F0005F926F927F928F929F92BF92CF92DF923F
:104A0000EF92FF920F931F93DF93CF9300D000D0CC
:104A1000CDB7DEB78C0149835A836B837C83722FB9
:104A200089819A81AB81BC8124E0B595A795979542
:104A300087952A95D1F74C01D8016C91462F5FEFED
:104A4000242F30E0F901EE0FFF1FE00FF11FE55BAF
:104A5000FF4F80819181D801A20FB31F881599055E
:104A600011F596968C919697872B96968C939697A0
:104A7000F8019081491751F0E50FF11D11968C91C5
:104A80001197818311969C93D8014C93690164E03E
:104A9000CC0CDD1C6A95E1F7E5E9F0E0CE0EDF1EF7
:104AA000C00ED11EADC07D010894E11CF11C119611
:104AB0008C918F3F19F0542F482FC2CF772329F4C0
:104AC000C801B4012FDE6C019BC0461749F0F80104
:104AD000E50FF11D8183D8018C91F70180834C9300
:104AE000D8018C91E82EFF24F801EE0DFF1D86A160
:104AF000882309F460C0F701EE0FFF1FE00FF11FDC
:104B0000E55BFF4F0190F081E02D8091DD089091F1
:104B1000DE0843E0969587954A95E1F7E817F9078F
:104B200008F449C02F0135E0569447943A95E1F7CF
:104B300023E9C22ED12CC00ED11E9AE4292E312C8D
:104B4000200E311E84E2B82EB5EE6B2EB2E07B2E25
:104B5000600E711EF1018081882311F1D6016D91E3
:104B60007C91CB01A5E096958795AA95E1F748162B
:104B70005906B1F4C801D6DD6B2D70E0F4E0660F84
:104B8000771FFA95E1F76B567F4F600F711FF301A6
:104B90008081918140E150E00E94500FD1011C9230
:104BA000EEEFFFEFCE0EDF1E089421083108BA9415
:104BB000FFEFBF1679F66701E4E0CC0CDD1CEA9547
:104BC000E1F785E990E0C80ED91EC00ED11EC801DC
:104BD000B401A8DDD601FC0180E101900D92815065
:104BE000E1F7F701EE0FFF1FE00FF11FE55BFF4F4D
:104BF00091828082E00EF11E81E0D70196968C931F
:104C000029813A812F7030702C0D3D1DC9010F9004
:104C10000F900F900F90CF91DF911F910F91FF9008
:104C2000EF90DF90CF90BF909F908F907F906F908C
:104C30005F904F903F902F900895262FAC014050E9
:104C4000584F60E070E08091110690911206CDCE31
:104C5000AB01BC01405058476F4F7F4F8091110608
:104C60009091120620E0C1DEFC0180810895EF9250
:104C7000FF920F931F937C01FC01608171818281FF
:104C800093816F5F7F4F8F4F9F4F608371838283CC
:104C900093836150704080409040DADF082FF70125
:104CA00060817181828193816F5F7F4F8F4F9F4FB2
:104CB0006083718382839383615070408040904011
:104CC000C7DF382F20E010E0022B132BC8011F9103
:104CD0000F91FF90EF900895DF92EF92FF920F9364
:104CE0001F937B018C01B4DFD82E0894E11CF11CCA
:104CF000011D111DC801B701ABDF5D2D40E0282F5C
:104D000030E0242B352BC9011F910F91FF90EF90BC
:104D1000DF900895FF920F931F938B019C01F42E57
:104D2000005018472F4F3F4F809111069091120667
:104D3000B901A80121E059DEFC01F0821F910F9119
:104D4000FF900895FF920F931F938C01462FF72E2B
:104D5000FC0160817181828193816F5F7F4F8F4FF2
:104D60009F4F608371838283938361507040804042
:104D70009040D0DFF80160817181828193816F5F03
:104D80007F4F8F4F9F4F60837183828393836150E6
:104D90007040804090404F2DBDDF1F910F91FF90DC
:104DA0000895AC01440F551F60E070E0809111063A
:104DB0009091120621E019CE8F929F92AF92BF92EE
:104DC000CF92DF92EF92FF920F931F93DF93CF93D7
:104DD000CDB7DEB7A4970FB6F894DEBF0FBECDBF38
:104DE0008E010B5F1F4FC80164EF70E140E250E09D
:104DF0000E943A09C801A0D980E090E0A4E0B0E0A8
:104E000089839A83AB83BC83CE01019630DF2091E6
:104E1000CF083091D0088217930711F090E07CC042
:104E200069817A818B819C816F5F7F4F8F4F9F4F0C
:104E300069837A838B839C8361507040804090406B
:104E400007DF882369F78E010F5F1F4FC8010FDF4F
:104E50004C01C8010CDF5C01C80109DF9093DE083A
:104E60008093DD08C80103DF9093E0088093DF089A
:104E7000E090DD08F090DE08D02EC12E0CC0C701F6
:104E800090DF8C018D2D9C2DF2DEF80191838083C3
:104E90000894E11CF11CF0E0EF16F4E0FF0678F353
:104EA0008D2D9C2DE4DE00E010E018C069817A8130
:104EB0008B819C816F5F7F4F8F4F9F4F69837A8378
:104EC0008B839C836150704080409040C1DE482FAE
:104ED000B80180E090E01EDF0F5F1F4F8091C9088E
:104EE0009091CA080817190708F3940140E050E0B0
:104EF000C501A0E0B0E0DC0199278827822B932B25
:104F0000A42BB52B8093360890933708A0933808CC
:104F1000B0933908EEDC91E08091BF08843030F422
:104F200080E0911181E00E94173204C0892F90E047
:104F30000E940931A4960FB6F894DEBF0FBECDBF14
:104F4000CF91DF911F910F91FF90EF90DF90CF9065
:104F5000BF90AF909F908F900895AC01440F551F64
:104F600060E070E0809111069091120620E03DCD46
:104F7000EF92FF920F931F93DF93CF93CDB7DEB7DE
:104F8000A4970FB6F894DEBF0FBECDBF8E010B5FA6
:104F90001F4FC8016AEE70E140E250E00E943A09FA
:104FA000C801CAD880E090E0A4E0B0E089839A8389
:104FB000AB83BC836091CF087091D0088E010F5FE6
:104FC0001F4FC801BFDE69817A818B819C816F5F31
:104FD0007F4F8F4F9F4F69837A838B839C83615070
:104FE00070408040904040E095DE609136087091BE
:104FF0003708C801A7DE2091360830913708409164
:105000003808509139089A01552737FD5095452F9A
:10501000C801B90197DE6091DD087091DE08C80112
:1050200091DE6091DF087091E008C8018BDEE090AE
:10503000DD08F090DE080AC0C7018FDFFC01608147
:105040007181C8017FDE0894E11CF11C80E0E81644
:1050500084E0F80688F36091C9087091CA08C80115
:1050600071DE00E010E018C0B80180E090E0F0DDF3
:10507000482F69817A818B819C816F5F7F4F8F4F31
:105080009F4F69837A838B839C83615070408040FB
:10509000904040DE0F5F1F4F8091C9089091CA0871
:1050A0000817190708F38091BF08843020F481E0C5
:1050B0000E94173204C081E090E00E940931A4965A
:1050C0000FB6F894DEBF0FBECDBFCF91DF911F9119
:1050D0000F91FF90EF90089508958FEF9FEF08953F
:1050E00081E090E00C9417328FEF9FEF0C94093120
:1050F0008FEF9FEF0C9409310E94C41B80E090E079
:105100000E94FA1B80E090E00E9462340E94EB341F
:1051100080E094E09093E0088093DF089093DE08AD
:105120008093DD088091BF086091C1087091C2082A
:10513000863021F080E090E04FDC09C0CB0160E0D8
:1051400070E040E050E020E030E00E941C3382E05C
:1051500090E00C94FA1B1F93CF93DF93EC01162F72
:105160008131910511F40E94EA34BE0180E090E0A3
:10517000412FD0DDDF91CF911F910895FF920F93C2
:105180001F938C01F62E672FE6DFC80101966F2D65
:10519000E2DF1F910F91FF9008959C016091D70865
:1051A0007091D8086115710581F08091D9089091AE
:1051B000DA088217930748F0220F331F620F731F1C
:1051C00080E090E089DD9C0102C020E030E0C90170
:1051D000089560E070E080E090E03ADD8093BF08E1
:1051E00061E070E080E090E033DD8093C00866E02D
:1051F00070E080E090E070DD9093C2088093C10879
:1052000068E070E080E090E067DD9093C4088093F0
:10521000C3086AE070E080E090E05EDD9093C6082D
:105220008093C5086CE070E080E090E055DD9093DD
:10523000C8088093C7086EE070E080E090E04CDD25
:105240009093CA088093C90868E170E080E090E01C
:1052500043DD9093CC088093CB086AE170E080E056
:1052600090E03ADD9093CE088093CD08009761F1ED
:10527000A0E0B0E0880F991FAA1FBB1F8093BB0856
:105280009093BC08A093BD08B093BE082091BF08BE
:105290002430D0F0880F991FAA1FBB1F8093BB0832
:1052A0009093BC08A093BD08B093BE08263060F070
:1052B000880F991FAA1FBB1F8093BB089093BC083F
:1052C000A093BD08B093BE086CE170E080E090E070
:1052D00003DD9093D0088093CF0864E370E080E012
:1052E00090E0FADC9093D6088093D50868E270E0ED
:1052F00080E090E0F1DC9093D2088093D1086AE2DC
:1053000070E080E090E0E8DC9093D4088093D308CC
:1053100066E370E080E090E0DFDC9093D808809353
:10532000D7088091BF08853060F082E591E39093C3
:1053300014118093131180E594E3909340118093AE
:105340003F1160E270E080E090E04FEFE3DC61E26B
:1053500070E080E090E048E4DDDC80E090E01DDF7C
:105360009093DA088093D90883E090E016DF909359
:10537000DC088093DB08089580910B0990910C095B
:10538000029724F41092FE081092FD086091FF0825
:10539000709100098091FD089091FE0841E050E075
:1053A0000E94F81B8F3721F00E94513790E031C7DF
:1053B00008959F92AF92BF92CF92DF92EF92FF92A9
:1053C0000F931F93DF93CF93CDB7DEB7C85CD04068
:1053D0000FB6F894DEBF0FBECDBF80910B09909140
:1053E0000C09039724F4109200091092FF08009111
:1053F000FB081091FC08B80180E090E029DC982EB1
:105400008091BF08853018F49A9480E006C00F5F41
:105410001F4FB80180E090E01BDC6E010894C11CB6
:10542000D11C76015601A80EB11C0BC00F5F1F4F97
:10543000B80180E090E00CDC0E94B337F701819363
:105440007F01EA14FB0491F7F70110828091BF08F5
:10545000843010F40E94F234992D983C08F097ECB7
:105460004091FF08509100092091010930910209F3
:10547000E0E0F0E08091BF08863011F4E1E0F0E078
:10548000892F90E0BE016F5F7F4F01E010E07F0148
:105490000E94F520982EFFE78F1709F46FC08091C6
:1054A000BF08853008F419DEAA24BB2432C08DE081
:1054B000981689F4892F81548A3118F4905EF60188
:1054C0009083F6019081892F805C8F3120F4973D85
:1054D00011F0905E90830091FB081091FC08809180
:1054E000BF08853020F0E2E0EE2EF12C03C071E021
:1054F000E72EF12CF60181916F010E945137682F40
:105500000A0D1B1DC8018E0D9F1D25DE0894A11CD0
:10551000B11CF6019081992351F68091BF08853026
:1055200048F48091FB089091FC0801968A0D9B1D20
:1055300060E006C08091FB089091FC0801966A2DFE
:105540000ADEFDE09F1689F46091FD087091FE0867
:105550006115710551F08091FB089091FC0840E0C5
:1055600050E020E030E00E94B83C8091BF088530D8
:1055700028F0892D0E94513790E04BD6C853DF4F59
:105580000FB6F894DEBF0FBECDBFCF91DF911F9154
:105590000F91FF90EF90DF90CF90BF90AF909F90D2
:1055A000089517DE0E94FB1B97DDA6CD20E030E0BA
:1055B0008091E1089091E208892B11F421E030E01C
:1055C000C90135C72091FD083091FE0840E050E048
:1055D0008091FB089091FC08822393238217930704
:1055E00011F441E050E0CA0122C720E030E0809190
:1055F000FB089091FC08892B11F421E030E0C901EF
:1056000016C740E050E02091FB083091FC088091E3
:10561000FD089091FE082817390714F441E050E086
:10562000CA0105C740E050E02091FB083091FC081A
:105630008091FD089091FE088217930714F441E0D1
:1056400050E0CA01F4C620910B0930910C092230B8
:10565000310544F14091FB085091FC088091FD0810
:105660009091FE0848175907D1F022303105D1F04A
:105670008091FF08909100094817590781F0233065
:10568000310581F020E030E080910109909102091C
:105690004817590711F421E030E0C90105C081E045
:1056A00090E002C080E090E0C2C68091FB0890913B
:1056B000FC082091FD083091FE08821B930BA9C5C0
:1056C0008091FD089091FE082091FB083091FC0824
:1056D000822B932B9EC58091FB089091FC088095AE
:1056E000909597C52091FD083091FE088091FB08A8
:1056F0009091FC08AC01249FC001259F900D349F20
:10570000900D112486C54091FD085091FE08141695
:10571000150654F48091FB089091FC0802C0880F94
:10572000991F4A95E2F70DC022273327241B350B1A
:105730008091FB089091FC0802C0969587952A9568
:10574000E2F767C54091FD085091FE081416150652
:1057500054F48091FB089091FC0802C0880F991FB7
:105760004A95E2F70DC022273327241B350B809181
:10577000FB089091FC0802C0959587952A95E2F761
:1057800048C58091FD089091FE082091FB0830915A
:10579000FC08822393233DC58091FD089091FE086B
:1057A0002091FB083091FC08820F931F32C5809135
:1057B000FD089091FE08892B11F40E949C1C6091B9
:1057C000FD087091FE088091FB089091FC080E94F2
:1057D000223F1FC58091FD089091FE08892B11F48E
:1057E0000E949C1C6091FD087091FE088091FB084E
:1057F0009091FC080E94223FCB010BC5CF93DF9311
:10580000EC018091BF08843018F080ED97E002C071
:105810008FEF90E08C179D0710F40E949C1C8091E4
:10582000BF082091C5083091C608843060F4A901F2
:105830004B5C5F4FCE01E3E0880F991FEA95E1F7DB
:105840008C0F9D1F0EC0A90140595F4F9E01220F72
:10585000331FC90163E0880F991F6A95E1F7821B26
:10586000930B480F591FCA01DF91CF9108950F93F1
:105870001F938C01BC0180E090E0EAD9982F0F5F64
:105880001F4F8091BF08843028F4892F8295869518
:1058900087700FC097FD06C0892F829586958695E3
:1058A000837007C0B80180E090E0D2D98F7309F40B
:1058B00080E498012F5F3F4F280F311DC9011F91D0
:1058C0000F9108952091FD083091FE088091BF0846
:1058D000843018F08FE290E002C08FE190E08217F0
:1058E000930710F40E949C1C8091FB089091FC0887
:1058F00085DF2091FD083091FE08F3E0369527956D
:10590000FA95E1F7280F391F40E050E0CA01B901CC
:105910009FD990E04091FD085091FE08477050706B
:1059200020E830E002C0359527954A95E2F78223BA
:1059300093237DC5EF92FF920F931F9380916A018D
:1059400090916B01019731F48091FD089091FE08D0
:10595000C097C9F12091FD083091FE088091BF08E1
:10596000843018F08FE290E002C08FE190E082175F
:10597000930710F40E949C1C8091FB089091FC08F6
:105980003DDFE090FD08F090FE08A3E0F694E79478
:10599000AA95E1F7E80EF91E00E010E0C801B70192
:1059A00057D94091FD085091FE084770507020E88B
:1059B00030E002C0359527954A95E2F7482F422BF3
:1059C000C801B701A7D91F910F91FF90EF900895DB
:1059D000EF92FF920F931F9380916A0190916B0158
:1059E000019731F48091FD089091FE08C097C9F1AC
:1059F0002091FD083091FE088091BF08843018F096
:105A00008FE290E002C08FE190E08217930710F4DC
:105A10000E949C1C8091FB089091FC08EFDEE090B6
:105A2000FD08F090FE08B3E0F694E794BA95E1F72C
:105A3000E80EF91E00E010E0C801B70109D9209175
:105A4000FD083091FE082770307040E850E002C039
:105A5000559547952A95E2F740954823C801B70127
:105A600059D91F910F91FF90EF9008958F929F92B7
:105A7000AF92BF92CF92DF92EF92FF920F931F935C
:105A8000CF93DF936C01BADEEC018091BF088430C4
:105A9000A0F524967E0100E010E02497C801B7012C
:105AA000D7D8B82E882309F47BC0C801B70140E0DD
:105AB00031D925967E0100E010E0C801B701C8D8B1
:105AC000A82EC801B70140E025D98B2D90E096DEC5
:105AD000069604C0822F90E091DE05967C0100E0DE
